{
	"contracts/SimpleWallet.sol": {
		"SimpleWallet": {
			"abi": [
				{
					"anonymous": false,
					"inputs": [
						{
							"indexed": true,
							"internalType": "address",
							"name": "previousOwner",
							"type": "address"
						},
						{
							"indexed": true,
							"internalType": "address",
							"name": "newOwner",
							"type": "address"
						}
					],
					"name": "OwnershipTransferred",
					"type": "event"
				},
				{
					"stateMutability": "payable",
					"type": "fallback"
				},
				{
					"inputs": [
						{
							"internalType": "address",
							"name": "",
							"type": "address"
						}
					],
					"name": "allowance",
					"outputs": [
						{
							"internalType": "uint256",
							"name": "",
							"type": "uint256"
						}
					],
					"stateMutability": "view",
					"type": "function"
				},
				{
					"inputs": [],
					"name": "owner",
					"outputs": [
						{
							"internalType": "address",
							"name": "",
							"type": "address"
						}
					],
					"stateMutability": "view",
					"type": "function"
				},
				{
					"inputs": [],
					"name": "renounceOwnership",
					"outputs": [],
					"stateMutability": "nonpayable",
					"type": "function"
				},
				{
					"inputs": [
						{
							"internalType": "address",
							"name": "newOwner",
							"type": "address"
						}
					],
					"name": "transferOwnership",
					"outputs": [],
					"stateMutability": "nonpayable",
					"type": "function"
				},
				{
					"inputs": [
						{
							"internalType": "address payable",
							"name": "_to",
							"type": "address"
						},
						{
							"internalType": "uint256",
							"name": "_amount",
							"type": "uint256"
						}
					],
					"name": "withDrawMoney",
					"outputs": [],
					"stateMutability": "nonpayable",
					"type": "function"
				}
			],
			"devdoc": {
				"kind": "dev",
				"methods": {
					"owner()": {
						"details": "Returns the address of the current owner."
					},
					"renounceOwnership()": {
						"details": "Leaves the contract without owner. It will not be possible to call `onlyOwner` functions anymore. Can only be called by the current owner. NOTE: Renouncing ownership will leave the contract without an owner, thereby removing any functionality that is only available to the owner."
					},
					"transferOwnership(address)": {
						"details": "Transfers ownership of the contract to a new account (`newOwner`). Can only be called by the current owner."
					}
				},
				"version": 1
			},
			"evm": {
				"assembly": "    /* \"contracts/SimpleWallet.sol\":56:309  contract SimpleWallet is Ownable{\r... */\n  mstore(0x40, 0x80)\n  callvalue\n  dup1\n  iszero\n  tag_1\n  jumpi\n  0x00\n  dup1\n  revert\ntag_1:\n  pop\n    /* \"contracts/utils/Ownable.sol\":942:974  _transferOwnership(_msgSender()) */\n  tag_4\n    /* \"contracts/utils/Ownable.sol\":961:973  _msgSender() */\n  tag_5\n    /* \"contracts/utils/Ownable.sol\":961:971  _msgSender */\n  shl(0x20, tag_6)\n    /* \"contracts/utils/Ownable.sol\":961:973  _msgSender() */\n  0x20\n  shr\n  jump\t// in\ntag_5:\n    /* \"contracts/utils/Ownable.sol\":942:960  _transferOwnership */\n  shl(0x20, tag_7)\n    /* \"contracts/utils/Ownable.sol\":942:974  _transferOwnership(_msgSender()) */\n  0x20\n  shr\n  jump\t// in\ntag_4:\n    /* \"contracts/SimpleWallet.sol\":56:309  contract SimpleWallet is Ownable{\r... */\n  jump(tag_8)\n    /* \"contracts/utils/Context.sol\":656:754  function _msgSender() internal view virtual returns (address) {\r... */\ntag_6:\n    /* \"contracts/utils/Context.sol\":709:716  address */\n  0x00\n    /* \"contracts/utils/Context.sol\":736:746  msg.sender */\n  caller\n    /* \"contracts/utils/Context.sol\":729:746  return msg.sender */\n  swap1\n  pop\n    /* \"contracts/utils/Context.sol\":656:754  function _msgSender() internal view virtual returns (address) {\r... */\n  swap1\n  jump\t// out\n    /* \"contracts/utils/Ownable.sol\":2333:2524  function _transferOwnership(address newOwner) internal virtual {\r... */\ntag_7:\n    /* \"contracts/utils/Ownable.sol\":2407:2423  address oldOwner */\n  0x00\n    /* \"contracts/utils/Ownable.sol\":2426:2432  _owner */\n  dup1\n  0x00\n  swap1\n  sload\n  swap1\n  0x0100\n  exp\n  swap1\n  div\n  0xffffffffffffffffffffffffffffffffffffffff\n  and\n    /* \"contracts/utils/Ownable.sol\":2407:2432  address oldOwner = _owner */\n  swap1\n  pop\n    /* \"contracts/utils/Ownable.sol\":2452:2460  newOwner */\n  dup2\n    /* \"contracts/utils/Ownable.sol\":2443:2449  _owner */\n  0x00\n  dup1\n    /* \"contracts/utils/Ownable.sol\":2443:2460  _owner = newOwner */\n  0x0100\n  exp\n  dup2\n  sload\n  dup2\n  0xffffffffffffffffffffffffffffffffffffffff\n  mul\n  not\n  and\n  swap1\n  dup4\n  0xffffffffffffffffffffffffffffffffffffffff\n  and\n  mul\n  or\n  swap1\n  sstore\n  pop\n    /* \"contracts/utils/Ownable.sol\":2507:2515  newOwner */\n  dup2\n    /* \"contracts/utils/Ownable.sol\":2476:2516  OwnershipTransferred(oldOwner, newOwner) */\n  0xffffffffffffffffffffffffffffffffffffffff\n  and\n    /* \"contracts/utils/Ownable.sol\":2497:2505  oldOwner */\n  dup2\n    /* \"contracts/utils/Ownable.sol\":2476:2516  OwnershipTransferred(oldOwner, newOwner) */\n  0xffffffffffffffffffffffffffffffffffffffff\n  and\n  0x8be0079c531659141344cd1fd0a4f28419497f9722a3daafe3b4186f6b6457e0\n  mload(0x40)\n  mload(0x40)\n  dup1\n  swap2\n  sub\n  swap1\n  log3\n    /* \"contracts/utils/Ownable.sol\":2396:2524  {\r... */\n  pop\n    /* \"contracts/utils/Ownable.sol\":2333:2524  function _transferOwnership(address newOwner) internal virtual {\r... */\n  pop\n  jump\t// out\n    /* \"contracts/SimpleWallet.sol\":56:309  contract SimpleWallet is Ownable{\r... */\ntag_8:\n  dataSize(sub_0)\n  dup1\n  dataOffset(sub_0)\n  0x00\n  codecopy\n  0x00\n  return\nstop\n\nsub_0: assembly {\n        /* \"contracts/SimpleWallet.sol\":56:309  contract SimpleWallet is Ownable{\r... */\n      mstore(0x40, 0x80)\n      jumpi(tag_1, lt(calldatasize, 0x04))\n      shr(0xe0, calldataload(0x00))\n      dup1\n      0x3e5beab9\n      eq\n      tag_3\n      jumpi\n      dup1\n      0x715018a6\n      eq\n      tag_4\n      jumpi\n      dup1\n      0x8da5cb5b\n      eq\n      tag_5\n      jumpi\n      dup1\n      0xb39d7b7c\n      eq\n      tag_6\n      jumpi\n      dup1\n      0xf2fde38b\n      eq\n      tag_7\n      jumpi\n      jump(tag_2)\n    tag_1:\n    tag_2:\n      stop\n        /* \"contracts/SimpleWallet.sol\":97:136  mapping(address=>uint) public allowance */\n    tag_3:\n      callvalue\n      dup1\n      iszero\n      tag_10\n      jumpi\n      0x00\n      dup1\n      revert\n    tag_10:\n      pop\n      tag_11\n      0x04\n      dup1\n      calldatasize\n      sub\n      dup2\n      add\n      swap1\n      tag_12\n      swap2\n      swap1\n      tag_13\n      jump\t// in\n    tag_12:\n      tag_14\n      jump\t// in\n    tag_11:\n      mload(0x40)\n      tag_15\n      swap2\n      swap1\n      tag_16\n      jump\t// in\n    tag_15:\n      mload(0x40)\n      dup1\n      swap2\n      sub\n      swap1\n      return\n        /* \"contracts/utils/Ownable.sol\":1714:1817  function renounceOwnership() public virtual onlyOwner {\r... */\n    tag_4:\n      callvalue\n      dup1\n      iszero\n      tag_17\n      jumpi\n      0x00\n      dup1\n      revert\n    tag_17:\n      pop\n      tag_18\n      tag_19\n      jump\t// in\n    tag_18:\n      stop\n        /* \"contracts/utils/Ownable.sol\":1063:1150  function owner() public view virtual returns (address) {\r... */\n    tag_5:\n      callvalue\n      dup1\n      iszero\n      tag_20\n      jumpi\n      0x00\n      dup1\n      revert\n    tag_20:\n      pop\n      tag_21\n      tag_22\n      jump\t// in\n    tag_21:\n      mload(0x40)\n      tag_23\n      swap2\n      swap1\n      tag_24\n      jump\t// in\n    tag_23:\n      mload(0x40)\n      dup1\n      swap2\n      sub\n      swap1\n      return\n        /* \"contracts/SimpleWallet.sol\":143:257  function withDrawMoney(address payable _to, uint _amount) public onlyOwner{\r... */\n    tag_6:\n      callvalue\n      dup1\n      iszero\n      tag_25\n      jumpi\n      0x00\n      dup1\n      revert\n    tag_25:\n      pop\n      tag_26\n      0x04\n      dup1\n      calldatasize\n      sub\n      dup2\n      add\n      swap1\n      tag_27\n      swap2\n      swap1\n      tag_28\n      jump\t// in\n    tag_27:\n      tag_29\n      jump\t// in\n    tag_26:\n      stop\n        /* \"contracts/utils/Ownable.sol\":1972:2173  function transferOwnership(address newOwner) public virtual onlyOwner {\r... */\n    tag_7:\n      callvalue\n      dup1\n      iszero\n      tag_30\n      jumpi\n      0x00\n      dup1\n      revert\n    tag_30:\n      pop\n      tag_31\n      0x04\n      dup1\n      calldatasize\n      sub\n      dup2\n      add\n      swap1\n      tag_32\n      swap2\n      swap1\n      tag_13\n      jump\t// in\n    tag_32:\n      tag_33\n      jump\t// in\n    tag_31:\n      stop\n        /* \"contracts/SimpleWallet.sol\":97:136  mapping(address=>uint) public allowance */\n    tag_14:\n      mstore(0x20, 0x01)\n      dup1\n      0x00\n      mstore\n      keccak256(0x00, 0x40)\n      0x00\n      swap2\n      pop\n      swap1\n      pop\n      sload\n      dup2\n      jump\t// out\n        /* \"contracts/utils/Ownable.sol\":1714:1817  function renounceOwnership() public virtual onlyOwner {\r... */\n    tag_19:\n        /* \"contracts/utils/Ownable.sol\":1294:1306  _msgSender() */\n      tag_35\n        /* \"contracts/utils/Ownable.sol\":1294:1304  _msgSender */\n      tag_36\n        /* \"contracts/utils/Ownable.sol\":1294:1306  _msgSender() */\n      jump\t// in\n    tag_35:\n        /* \"contracts/utils/Ownable.sol\":1283:1306  owner() == _msgSender() */\n      0xffffffffffffffffffffffffffffffffffffffff\n      and\n        /* \"contracts/utils/Ownable.sol\":1283:1290  owner() */\n      tag_37\n        /* \"contracts/utils/Ownable.sol\":1283:1288  owner */\n      tag_22\n        /* \"contracts/utils/Ownable.sol\":1283:1290  owner() */\n      jump\t// in\n    tag_37:\n        /* \"contracts/utils/Ownable.sol\":1283:1306  owner() == _msgSender() */\n      0xffffffffffffffffffffffffffffffffffffffff\n      and\n      eq\n        /* \"contracts/utils/Ownable.sol\":1275:1343  require(owner() == _msgSender(), \"Ownable: caller is not the owner\") */\n      tag_38\n      jumpi\n      mload(0x40)\n      0x08c379a000000000000000000000000000000000000000000000000000000000\n      dup2\n      mstore\n      0x04\n      add\n      tag_39\n      swap1\n      tag_40\n      jump\t// in\n    tag_39:\n      mload(0x40)\n      dup1\n      swap2\n      sub\n      swap1\n      revert\n    tag_38:\n        /* \"contracts/utils/Ownable.sol\":1779:1809  _transferOwnership(address(0)) */\n      tag_42\n        /* \"contracts/utils/Ownable.sol\":1806:1807  0 */\n      0x00\n        /* \"contracts/utils/Ownable.sol\":1779:1797  _transferOwnership */\n      tag_43\n        /* \"contracts/utils/Ownable.sol\":1779:1809  _transferOwnership(address(0)) */\n      jump\t// in\n    tag_42:\n        /* \"contracts/utils/Ownable.sol\":1714:1817  function renounceOwnership() public virtual onlyOwner {\r... */\n      jump\t// out\n        /* \"contracts/utils/Ownable.sol\":1063:1150  function owner() public view virtual returns (address) {\r... */\n    tag_22:\n        /* \"contracts/utils/Ownable.sol\":1109:1116  address */\n      0x00\n        /* \"contracts/utils/Ownable.sol\":1136:1142  _owner */\n      dup1\n      0x00\n      swap1\n      sload\n      swap1\n      0x0100\n      exp\n      swap1\n      div\n      0xffffffffffffffffffffffffffffffffffffffff\n      and\n        /* \"contracts/utils/Ownable.sol\":1129:1142  return _owner */\n      swap1\n      pop\n        /* \"contracts/utils/Ownable.sol\":1063:1150  function owner() public view virtual returns (address) {\r... */\n      swap1\n      jump\t// out\n        /* \"contracts/SimpleWallet.sol\":143:257  function withDrawMoney(address payable _to, uint _amount) public onlyOwner{\r... */\n    tag_29:\n        /* \"contracts/utils/Ownable.sol\":1294:1306  _msgSender() */\n      tag_46\n        /* \"contracts/utils/Ownable.sol\":1294:1304  _msgSender */\n      tag_36\n        /* \"contracts/utils/Ownable.sol\":1294:1306  _msgSender() */\n      jump\t// in\n    tag_46:\n        /* \"contracts/utils/Ownable.sol\":1283:1306  owner() == _msgSender() */\n      0xffffffffffffffffffffffffffffffffffffffff\n      and\n        /* \"contracts/utils/Ownable.sol\":1283:1290  owner() */\n      tag_47\n        /* \"contracts/utils/Ownable.sol\":1283:1288  owner */\n      tag_22\n        /* \"contracts/utils/Ownable.sol\":1283:1290  owner() */\n      jump\t// in\n    tag_47:\n        /* \"contracts/utils/Ownable.sol\":1283:1306  owner() == _msgSender() */\n      0xffffffffffffffffffffffffffffffffffffffff\n      and\n      eq\n        /* \"contracts/utils/Ownable.sol\":1275:1343  require(owner() == _msgSender(), \"Ownable: caller is not the owner\") */\n      tag_48\n      jumpi\n      mload(0x40)\n      0x08c379a000000000000000000000000000000000000000000000000000000000\n      dup2\n      mstore\n      0x04\n      add\n      tag_49\n      swap1\n      tag_40\n      jump\t// in\n    tag_49:\n      mload(0x40)\n      dup1\n      swap2\n      sub\n      swap1\n      revert\n    tag_48:\n        /* \"contracts/SimpleWallet.sol\":228:231  _to */\n      dup2\n        /* \"contracts/SimpleWallet.sol\":228:240  _to.transfer */\n      0xffffffffffffffffffffffffffffffffffffffff\n      and\n        /* \"contracts/SimpleWallet.sol\":228:249  _to.transfer(_amount) */\n      0x08fc\n        /* \"contracts/SimpleWallet.sol\":241:248  _amount */\n      dup3\n        /* \"contracts/SimpleWallet.sol\":228:249  _to.transfer(_amount) */\n      swap1\n      dup2\n      iszero\n      mul\n      swap1\n      mload(0x40)\n      0x00\n      mload(0x40)\n      dup1\n      dup4\n      sub\n      dup2\n      dup6\n      dup9\n      dup9\n      call\n      swap4\n      pop\n      pop\n      pop\n      pop\n      iszero\n      dup1\n      iszero\n      tag_52\n      jumpi\n      returndatasize\n      0x00\n      dup1\n      returndatacopy\n      revert(0x00, returndatasize)\n    tag_52:\n      pop\n        /* \"contracts/SimpleWallet.sol\":143:257  function withDrawMoney(address payable _to, uint _amount) public onlyOwner{\r... */\n      pop\n      pop\n      jump\t// out\n        /* \"contracts/utils/Ownable.sol\":1972:2173  function transferOwnership(address newOwner) public virtual onlyOwner {\r... */\n    tag_33:\n        /* \"contracts/utils/Ownable.sol\":1294:1306  _msgSender() */\n      tag_54\n        /* \"contracts/utils/Ownable.sol\":1294:1304  _msgSender */\n      tag_36\n        /* \"contracts/utils/Ownable.sol\":1294:1306  _msgSender() */\n      jump\t// in\n    tag_54:\n        /* \"contracts/utils/Ownable.sol\":1283:1306  owner() == _msgSender() */\n      0xffffffffffffffffffffffffffffffffffffffff\n      and\n        /* \"contracts/utils/Ownable.sol\":1283:1290  owner() */\n      tag_55\n        /* \"contracts/utils/Ownable.sol\":1283:1288  owner */\n      tag_22\n        /* \"contracts/utils/Ownable.sol\":1283:1290  owner() */\n      jump\t// in\n    tag_55:\n        /* \"contracts/utils/Ownable.sol\":1283:1306  owner() == _msgSender() */\n      0xffffffffffffffffffffffffffffffffffffffff\n      and\n      eq\n        /* \"contracts/utils/Ownable.sol\":1275:1343  require(owner() == _msgSender(), \"Ownable: caller is not the owner\") */\n      tag_56\n      jumpi\n      mload(0x40)\n      0x08c379a000000000000000000000000000000000000000000000000000000000\n      dup2\n      mstore\n      0x04\n      add\n      tag_57\n      swap1\n      tag_40\n      jump\t// in\n    tag_57:\n      mload(0x40)\n      dup1\n      swap2\n      sub\n      swap1\n      revert\n    tag_56:\n        /* \"contracts/utils/Ownable.sol\":2081:2082  0 */\n      0x00\n        /* \"contracts/utils/Ownable.sol\":2061:2083  newOwner != address(0) */\n      0xffffffffffffffffffffffffffffffffffffffff\n      and\n        /* \"contracts/utils/Ownable.sol\":2061:2069  newOwner */\n      dup2\n        /* \"contracts/utils/Ownable.sol\":2061:2083  newOwner != address(0) */\n      0xffffffffffffffffffffffffffffffffffffffff\n      and\n      eq\n      iszero\n        /* \"contracts/utils/Ownable.sol\":2053:2126  require(newOwner != address(0), \"Ownable: new owner is the zero address\") */\n      tag_59\n      jumpi\n      mload(0x40)\n      0x08c379a000000000000000000000000000000000000000000000000000000000\n      dup2\n      mstore\n      0x04\n      add\n      tag_60\n      swap1\n      tag_61\n      jump\t// in\n    tag_60:\n      mload(0x40)\n      dup1\n      swap2\n      sub\n      swap1\n      revert\n    tag_59:\n        /* \"contracts/utils/Ownable.sol\":2137:2165  _transferOwnership(newOwner) */\n      tag_62\n        /* \"contracts/utils/Ownable.sol\":2156:2164  newOwner */\n      dup2\n        /* \"contracts/utils/Ownable.sol\":2137:2155  _transferOwnership */\n      tag_43\n        /* \"contracts/utils/Ownable.sol\":2137:2165  _transferOwnership(newOwner) */\n      jump\t// in\n    tag_62:\n        /* \"contracts/utils/Ownable.sol\":1972:2173  function transferOwnership(address newOwner) public virtual onlyOwner {\r... */\n      pop\n      jump\t// out\n        /* \"contracts/utils/Context.sol\":656:754  function _msgSender() internal view virtual returns (address) {\r... */\n    tag_36:\n        /* \"contracts/utils/Context.sol\":709:716  address */\n      0x00\n        /* \"contracts/utils/Context.sol\":736:746  msg.sender */\n      caller\n        /* \"contracts/utils/Context.sol\":729:746  return msg.sender */\n      swap1\n      pop\n        /* \"contracts/utils/Context.sol\":656:754  function _msgSender() internal view virtual returns (address) {\r... */\n      swap1\n      jump\t// out\n        /* \"contracts/utils/Ownable.sol\":2333:2524  function _transferOwnership(address newOwner) internal virtual {\r... */\n    tag_43:\n        /* \"contracts/utils/Ownable.sol\":2407:2423  address oldOwner */\n      0x00\n        /* \"contracts/utils/Ownable.sol\":2426:2432  _owner */\n      dup1\n      0x00\n      swap1\n      sload\n      swap1\n      0x0100\n      exp\n      swap1\n      div\n      0xffffffffffffffffffffffffffffffffffffffff\n      and\n        /* \"contracts/utils/Ownable.sol\":2407:2432  address oldOwner = _owner */\n      swap1\n      pop\n        /* \"contracts/utils/Ownable.sol\":2452:2460  newOwner */\n      dup2\n        /* \"contracts/utils/Ownable.sol\":2443:2449  _owner */\n      0x00\n      dup1\n        /* \"contracts/utils/Ownable.sol\":2443:2460  _owner = newOwner */\n      0x0100\n      exp\n      dup2\n      sload\n      dup2\n      0xffffffffffffffffffffffffffffffffffffffff\n      mul\n      not\n      and\n      swap1\n      dup4\n      0xffffffffffffffffffffffffffffffffffffffff\n      and\n      mul\n      or\n      swap1\n      sstore\n      pop\n        /* \"contracts/utils/Ownable.sol\":2507:2515  newOwner */\n      dup2\n        /* \"contracts/utils/Ownable.sol\":2476:2516  OwnershipTransferred(oldOwner, newOwner) */\n      0xffffffffffffffffffffffffffffffffffffffff\n      and\n        /* \"contracts/utils/Ownable.sol\":2497:2505  oldOwner */\n      dup2\n        /* \"contracts/utils/Ownable.sol\":2476:2516  OwnershipTransferred(oldOwner, newOwner) */\n      0xffffffffffffffffffffffffffffffffffffffff\n      and\n      0x8be0079c531659141344cd1fd0a4f28419497f9722a3daafe3b4186f6b6457e0\n      mload(0x40)\n      mload(0x40)\n      dup1\n      swap2\n      sub\n      swap1\n      log3\n        /* \"contracts/utils/Ownable.sol\":2396:2524  {\r... */\n      pop\n        /* \"contracts/utils/Ownable.sol\":2333:2524  function _transferOwnership(address newOwner) internal virtual {\r... */\n      pop\n      jump\t// out\n        /* \"#utility.yul\":7:146   */\n    tag_66:\n        /* \"#utility.yul\":53:58   */\n      0x00\n        /* \"#utility.yul\":91:97   */\n      dup2\n        /* \"#utility.yul\":78:98   */\n      calldataload\n        /* \"#utility.yul\":69:98   */\n      swap1\n      pop\n        /* \"#utility.yul\":107:140   */\n      tag_68\n        /* \"#utility.yul\":134:139   */\n      dup2\n        /* \"#utility.yul\":107:140   */\n      tag_69\n      jump\t// in\n    tag_68:\n        /* \"#utility.yul\":7:146   */\n      swap3\n      swap2\n      pop\n      pop\n      jump\t// out\n        /* \"#utility.yul\":152:307   */\n    tag_70:\n        /* \"#utility.yul\":206:211   */\n      0x00\n        /* \"#utility.yul\":244:250   */\n      dup2\n        /* \"#utility.yul\":231:251   */\n      calldataload\n        /* \"#utility.yul\":222:251   */\n      swap1\n      pop\n        /* \"#utility.yul\":260:301   */\n      tag_72\n        /* \"#utility.yul\":295:300   */\n      dup2\n        /* \"#utility.yul\":260:301   */\n      tag_73\n      jump\t// in\n    tag_72:\n        /* \"#utility.yul\":152:307   */\n      swap3\n      swap2\n      pop\n      pop\n      jump\t// out\n        /* \"#utility.yul\":313:452   */\n    tag_74:\n        /* \"#utility.yul\":359:364   */\n      0x00\n        /* \"#utility.yul\":397:403   */\n      dup2\n        /* \"#utility.yul\":384:404   */\n      calldataload\n        /* \"#utility.yul\":375:404   */\n      swap1\n      pop\n        /* \"#utility.yul\":413:446   */\n      tag_76\n        /* \"#utility.yul\":440:445   */\n      dup2\n        /* \"#utility.yul\":413:446   */\n      tag_77\n      jump\t// in\n    tag_76:\n        /* \"#utility.yul\":313:452   */\n      swap3\n      swap2\n      pop\n      pop\n      jump\t// out\n        /* \"#utility.yul\":458:787   */\n    tag_13:\n        /* \"#utility.yul\":517:523   */\n      0x00\n        /* \"#utility.yul\":566:568   */\n      0x20\n        /* \"#utility.yul\":554:563   */\n      dup3\n        /* \"#utility.yul\":545:552   */\n      dup5\n        /* \"#utility.yul\":541:564   */\n      sub\n        /* \"#utility.yul\":537:569   */\n      slt\n        /* \"#utility.yul\":534:653   */\n      iszero\n      tag_79\n      jumpi\n        /* \"#utility.yul\":572:651   */\n      tag_80\n      tag_81\n      jump\t// in\n    tag_80:\n        /* \"#utility.yul\":534:653   */\n    tag_79:\n        /* \"#utility.yul\":692:693   */\n      0x00\n        /* \"#utility.yul\":717:770   */\n      tag_82\n        /* \"#utility.yul\":762:769   */\n      dup5\n        /* \"#utility.yul\":753:759   */\n      dup3\n        /* \"#utility.yul\":742:751   */\n      dup6\n        /* \"#utility.yul\":738:760   */\n      add\n        /* \"#utility.yul\":717:770   */\n      tag_66\n      jump\t// in\n    tag_82:\n        /* \"#utility.yul\":707:770   */\n      swap2\n      pop\n        /* \"#utility.yul\":663:780   */\n      pop\n        /* \"#utility.yul\":458:787   */\n      swap3\n      swap2\n      pop\n      pop\n      jump\t// out\n        /* \"#utility.yul\":793:1283   */\n    tag_28:\n        /* \"#utility.yul\":869:875   */\n      0x00\n        /* \"#utility.yul\":877:883   */\n      dup1\n        /* \"#utility.yul\":926:928   */\n      0x40\n        /* \"#utility.yul\":914:923   */\n      dup4\n        /* \"#utility.yul\":905:912   */\n      dup6\n        /* \"#utility.yul\":901:924   */\n      sub\n        /* \"#utility.yul\":897:929   */\n      slt\n        /* \"#utility.yul\":894:1013   */\n      iszero\n      tag_84\n      jumpi\n        /* \"#utility.yul\":932:1011   */\n      tag_85\n      tag_81\n      jump\t// in\n    tag_85:\n        /* \"#utility.yul\":894:1013   */\n    tag_84:\n        /* \"#utility.yul\":1052:1053   */\n      0x00\n        /* \"#utility.yul\":1077:1138   */\n      tag_86\n        /* \"#utility.yul\":1130:1137   */\n      dup6\n        /* \"#utility.yul\":1121:1127   */\n      dup3\n        /* \"#utility.yul\":1110:1119   */\n      dup7\n        /* \"#utility.yul\":1106:1128   */\n      add\n        /* \"#utility.yul\":1077:1138   */\n      tag_70\n      jump\t// in\n    tag_86:\n        /* \"#utility.yul\":1067:1138   */\n      swap3\n      pop\n        /* \"#utility.yul\":1023:1148   */\n      pop\n        /* \"#utility.yul\":1187:1189   */\n      0x20\n        /* \"#utility.yul\":1213:1266   */\n      tag_87\n        /* \"#utility.yul\":1258:1265   */\n      dup6\n        /* \"#utility.yul\":1249:1255   */\n      dup3\n        /* \"#utility.yul\":1238:1247   */\n      dup7\n        /* \"#utility.yul\":1234:1256   */\n      add\n        /* \"#utility.yul\":1213:1266   */\n      tag_74\n      jump\t// in\n    tag_87:\n        /* \"#utility.yul\":1203:1266   */\n      swap2\n      pop\n        /* \"#utility.yul\":1158:1276   */\n      pop\n        /* \"#utility.yul\":793:1283   */\n      swap3\n      pop\n      swap3\n      swap1\n      pop\n      jump\t// out\n        /* \"#utility.yul\":1289:1407   */\n    tag_88:\n        /* \"#utility.yul\":1376:1400   */\n      tag_90\n        /* \"#utility.yul\":1394:1399   */\n      dup2\n        /* \"#utility.yul\":1376:1400   */\n      tag_91\n      jump\t// in\n    tag_90:\n        /* \"#utility.yul\":1371:1374   */\n      dup3\n        /* \"#utility.yul\":1364:1401   */\n      mstore\n        /* \"#utility.yul\":1289:1407   */\n      pop\n      pop\n      jump\t// out\n        /* \"#utility.yul\":1413:1779   */\n    tag_92:\n        /* \"#utility.yul\":1555:1558   */\n      0x00\n        /* \"#utility.yul\":1576:1643   */\n      tag_94\n        /* \"#utility.yul\":1640:1642   */\n      0x26\n        /* \"#utility.yul\":1635:1638   */\n      dup4\n        /* \"#utility.yul\":1576:1643   */\n      tag_95\n      jump\t// in\n    tag_94:\n        /* \"#utility.yul\":1569:1643   */\n      swap2\n      pop\n        /* \"#utility.yul\":1652:1745   */\n      tag_96\n        /* \"#utility.yul\":1741:1744   */\n      dup3\n        /* \"#utility.yul\":1652:1745   */\n      tag_97\n      jump\t// in\n    tag_96:\n        /* \"#utility.yul\":1770:1772   */\n      0x40\n        /* \"#utility.yul\":1765:1768   */\n      dup3\n        /* \"#utility.yul\":1761:1773   */\n      add\n        /* \"#utility.yul\":1754:1773   */\n      swap1\n      pop\n        /* \"#utility.yul\":1413:1779   */\n      swap2\n      swap1\n      pop\n      jump\t// out\n        /* \"#utility.yul\":1785:2151   */\n    tag_98:\n        /* \"#utility.yul\":1927:1930   */\n      0x00\n        /* \"#utility.yul\":1948:2015   */\n      tag_100\n        /* \"#utility.yul\":2012:2014   */\n      0x20\n        /* \"#utility.yul\":2007:2010   */\n      dup4\n        /* \"#utility.yul\":1948:2015   */\n      tag_95\n      jump\t// in\n    tag_100:\n        /* \"#utility.yul\":1941:2015   */\n      swap2\n      pop\n        /* \"#utility.yul\":2024:2117   */\n      tag_101\n        /* \"#utility.yul\":2113:2116   */\n      dup3\n        /* \"#utility.yul\":2024:2117   */\n      tag_102\n      jump\t// in\n    tag_101:\n        /* \"#utility.yul\":2142:2144   */\n      0x20\n        /* \"#utility.yul\":2137:2140   */\n      dup3\n        /* \"#utility.yul\":2133:2145   */\n      add\n        /* \"#utility.yul\":2126:2145   */\n      swap1\n      pop\n        /* \"#utility.yul\":1785:2151   */\n      swap2\n      swap1\n      pop\n      jump\t// out\n        /* \"#utility.yul\":2157:2275   */\n    tag_103:\n        /* \"#utility.yul\":2244:2268   */\n      tag_105\n        /* \"#utility.yul\":2262:2267   */\n      dup2\n        /* \"#utility.yul\":2244:2268   */\n      tag_106\n      jump\t// in\n    tag_105:\n        /* \"#utility.yul\":2239:2242   */\n      dup3\n        /* \"#utility.yul\":2232:2269   */\n      mstore\n        /* \"#utility.yul\":2157:2275   */\n      pop\n      pop\n      jump\t// out\n        /* \"#utility.yul\":2281:2503   */\n    tag_24:\n        /* \"#utility.yul\":2374:2378   */\n      0x00\n        /* \"#utility.yul\":2412:2414   */\n      0x20\n        /* \"#utility.yul\":2401:2410   */\n      dup3\n        /* \"#utility.yul\":2397:2415   */\n      add\n        /* \"#utility.yul\":2389:2415   */\n      swap1\n      pop\n        /* \"#utility.yul\":2425:2496   */\n      tag_108\n        /* \"#utility.yul\":2493:2494   */\n      0x00\n        /* \"#utility.yul\":2482:2491   */\n      dup4\n        /* \"#utility.yul\":2478:2495   */\n      add\n        /* \"#utility.yul\":2469:2475   */\n      dup5\n        /* \"#utility.yul\":2425:2496   */\n      tag_88\n      jump\t// in\n    tag_108:\n        /* \"#utility.yul\":2281:2503   */\n      swap3\n      swap2\n      pop\n      pop\n      jump\t// out\n        /* \"#utility.yul\":2509:2928   */\n    tag_61:\n        /* \"#utility.yul\":2675:2679   */\n      0x00\n        /* \"#utility.yul\":2713:2715   */\n      0x20\n        /* \"#utility.yul\":2702:2711   */\n      dup3\n        /* \"#utility.yul\":2698:2716   */\n      add\n        /* \"#utility.yul\":2690:2716   */\n      swap1\n      pop\n        /* \"#utility.yul\":2762:2771   */\n      dup2\n        /* \"#utility.yul\":2756:2760   */\n      dup2\n        /* \"#utility.yul\":2752:2772   */\n      sub\n        /* \"#utility.yul\":2748:2749   */\n      0x00\n        /* \"#utility.yul\":2737:2746   */\n      dup4\n        /* \"#utility.yul\":2733:2750   */\n      add\n        /* \"#utility.yul\":2726:2773   */\n      mstore\n        /* \"#utility.yul\":2790:2921   */\n      tag_110\n        /* \"#utility.yul\":2916:2920   */\n      dup2\n        /* \"#utility.yul\":2790:2921   */\n      tag_92\n      jump\t// in\n    tag_110:\n        /* \"#utility.yul\":2782:2921   */\n      swap1\n      pop\n        /* \"#utility.yul\":2509:2928   */\n      swap2\n      swap1\n      pop\n      jump\t// out\n        /* \"#utility.yul\":2934:3353   */\n    tag_40:\n        /* \"#utility.yul\":3100:3104   */\n      0x00\n        /* \"#utility.yul\":3138:3140   */\n      0x20\n        /* \"#utility.yul\":3127:3136   */\n      dup3\n        /* \"#utility.yul\":3123:3141   */\n      add\n        /* \"#utility.yul\":3115:3141   */\n      swap1\n      pop\n        /* \"#utility.yul\":3187:3196   */\n      dup2\n        /* \"#utility.yul\":3181:3185   */\n      dup2\n        /* \"#utility.yul\":3177:3197   */\n      sub\n        /* \"#utility.yul\":3173:3174   */\n      0x00\n        /* \"#utility.yul\":3162:3171   */\n      dup4\n        /* \"#utility.yul\":3158:3175   */\n      add\n        /* \"#utility.yul\":3151:3198   */\n      mstore\n        /* \"#utility.yul\":3215:3346   */\n      tag_112\n        /* \"#utility.yul\":3341:3345   */\n      dup2\n        /* \"#utility.yul\":3215:3346   */\n      tag_98\n      jump\t// in\n    tag_112:\n        /* \"#utility.yul\":3207:3346   */\n      swap1\n      pop\n        /* \"#utility.yul\":2934:3353   */\n      swap2\n      swap1\n      pop\n      jump\t// out\n        /* \"#utility.yul\":3359:3581   */\n    tag_16:\n        /* \"#utility.yul\":3452:3456   */\n      0x00\n        /* \"#utility.yul\":3490:3492   */\n      0x20\n        /* \"#utility.yul\":3479:3488   */\n      dup3\n        /* \"#utility.yul\":3475:3493   */\n      add\n        /* \"#utility.yul\":3467:3493   */\n      swap1\n      pop\n        /* \"#utility.yul\":3503:3574   */\n      tag_114\n        /* \"#utility.yul\":3571:3572   */\n      0x00\n        /* \"#utility.yul\":3560:3569   */\n      dup4\n        /* \"#utility.yul\":3556:3573   */\n      add\n        /* \"#utility.yul\":3547:3553   */\n      dup5\n        /* \"#utility.yul\":3503:3574   */\n      tag_103\n      jump\t// in\n    tag_114:\n        /* \"#utility.yul\":3359:3581   */\n      swap3\n      swap2\n      pop\n      pop\n      jump\t// out\n        /* \"#utility.yul\":3668:3837   */\n    tag_95:\n        /* \"#utility.yul\":3752:3763   */\n      0x00\n        /* \"#utility.yul\":3786:3792   */\n      dup3\n        /* \"#utility.yul\":3781:3784   */\n      dup3\n        /* \"#utility.yul\":3774:3793   */\n      mstore\n        /* \"#utility.yul\":3826:3830   */\n      0x20\n        /* \"#utility.yul\":3821:3824   */\n      dup3\n        /* \"#utility.yul\":3817:3831   */\n      add\n        /* \"#utility.yul\":3802:3831   */\n      swap1\n      pop\n        /* \"#utility.yul\":3668:3837   */\n      swap3\n      swap2\n      pop\n      pop\n      jump\t// out\n        /* \"#utility.yul\":3843:3939   */\n    tag_91:\n        /* \"#utility.yul\":3880:3887   */\n      0x00\n        /* \"#utility.yul\":3909:3933   */\n      tag_119\n        /* \"#utility.yul\":3927:3932   */\n      dup3\n        /* \"#utility.yul\":3909:3933   */\n      tag_120\n      jump\t// in\n    tag_119:\n        /* \"#utility.yul\":3898:3933   */\n      swap1\n      pop\n        /* \"#utility.yul\":3843:3939   */\n      swap2\n      swap1\n      pop\n      jump\t// out\n        /* \"#utility.yul\":3945:4049   */\n    tag_121:\n        /* \"#utility.yul\":3990:3997   */\n      0x00\n        /* \"#utility.yul\":4019:4043   */\n      tag_123\n        /* \"#utility.yul\":4037:4042   */\n      dup3\n        /* \"#utility.yul\":4019:4043   */\n      tag_120\n      jump\t// in\n    tag_123:\n        /* \"#utility.yul\":4008:4043   */\n      swap1\n      pop\n        /* \"#utility.yul\":3945:4049   */\n      swap2\n      swap1\n      pop\n      jump\t// out\n        /* \"#utility.yul\":4055:4181   */\n    tag_120:\n        /* \"#utility.yul\":4092:4099   */\n      0x00\n        /* \"#utility.yul\":4132:4174   */\n      0xffffffffffffffffffffffffffffffffffffffff\n        /* \"#utility.yul\":4125:4130   */\n      dup3\n        /* \"#utility.yul\":4121:4175   */\n      and\n        /* \"#utility.yul\":4110:4175   */\n      swap1\n      pop\n        /* \"#utility.yul\":4055:4181   */\n      swap2\n      swap1\n      pop\n      jump\t// out\n        /* \"#utility.yul\":4187:4264   */\n    tag_106:\n        /* \"#utility.yul\":4224:4231   */\n      0x00\n        /* \"#utility.yul\":4253:4258   */\n      dup2\n        /* \"#utility.yul\":4242:4258   */\n      swap1\n      pop\n        /* \"#utility.yul\":4187:4264   */\n      swap2\n      swap1\n      pop\n      jump\t// out\n        /* \"#utility.yul\":4393:4510   */\n    tag_81:\n        /* \"#utility.yul\":4502:4503   */\n      0x00\n        /* \"#utility.yul\":4499:4500   */\n      dup1\n        /* \"#utility.yul\":4492:4504   */\n      revert\n        /* \"#utility.yul\":4516:4741   */\n    tag_97:\n        /* \"#utility.yul\":4656:4690   */\n      0x4f776e61626c653a206e6577206f776e657220697320746865207a65726f2061\n        /* \"#utility.yul\":4652:4653   */\n      0x00\n        /* \"#utility.yul\":4644:4650   */\n      dup3\n        /* \"#utility.yul\":4640:4654   */\n      add\n        /* \"#utility.yul\":4633:4691   */\n      mstore\n        /* \"#utility.yul\":4725:4733   */\n      0x6464726573730000000000000000000000000000000000000000000000000000\n        /* \"#utility.yul\":4720:4722   */\n      0x20\n        /* \"#utility.yul\":4712:4718   */\n      dup3\n        /* \"#utility.yul\":4708:4723   */\n      add\n        /* \"#utility.yul\":4701:4734   */\n      mstore\n        /* \"#utility.yul\":4516:4741   */\n      pop\n      jump\t// out\n        /* \"#utility.yul\":4747:4929   */\n    tag_102:\n        /* \"#utility.yul\":4887:4921   */\n      0x4f776e61626c653a2063616c6c6572206973206e6f7420746865206f776e6572\n        /* \"#utility.yul\":4883:4884   */\n      0x00\n        /* \"#utility.yul\":4875:4881   */\n      dup3\n        /* \"#utility.yul\":4871:4885   */\n      add\n        /* \"#utility.yul\":4864:4922   */\n      mstore\n        /* \"#utility.yul\":4747:4929   */\n      pop\n      jump\t// out\n        /* \"#utility.yul\":4935:5057   */\n    tag_69:\n        /* \"#utility.yul\":5008:5032   */\n      tag_132\n        /* \"#utility.yul\":5026:5031   */\n      dup2\n        /* \"#utility.yul\":5008:5032   */\n      tag_91\n      jump\t// in\n    tag_132:\n        /* \"#utility.yul\":5001:5006   */\n      dup2\n        /* \"#utility.yul\":4998:5033   */\n      eq\n        /* \"#utility.yul\":4988:5051   */\n      tag_133\n      jumpi\n        /* \"#utility.yul\":5047:5048   */\n      0x00\n        /* \"#utility.yul\":5044:5045   */\n      dup1\n        /* \"#utility.yul\":5037:5049   */\n      revert\n        /* \"#utility.yul\":4988:5051   */\n    tag_133:\n        /* \"#utility.yul\":4935:5057   */\n      pop\n      jump\t// out\n        /* \"#utility.yul\":5063:5201   */\n    tag_73:\n        /* \"#utility.yul\":5144:5176   */\n      tag_135\n        /* \"#utility.yul\":5170:5175   */\n      dup2\n        /* \"#utility.yul\":5144:5176   */\n      tag_121\n      jump\t// in\n    tag_135:\n        /* \"#utility.yul\":5137:5142   */\n      dup2\n        /* \"#utility.yul\":5134:5177   */\n      eq\n        /* \"#utility.yul\":5124:5195   */\n      tag_136\n      jumpi\n        /* \"#utility.yul\":5191:5192   */\n      0x00\n        /* \"#utility.yul\":5188:5189   */\n      dup1\n        /* \"#utility.yul\":5181:5193   */\n      revert\n        /* \"#utility.yul\":5124:5195   */\n    tag_136:\n        /* \"#utility.yul\":5063:5201   */\n      pop\n      jump\t// out\n        /* \"#utility.yul\":5207:5329   */\n    tag_77:\n        /* \"#utility.yul\":5280:5304   */\n      tag_138\n        /* \"#utility.yul\":5298:5303   */\n      dup2\n        /* \"#utility.yul\":5280:5304   */\n      tag_106\n      jump\t// in\n    tag_138:\n        /* \"#utility.yul\":5273:5278   */\n      dup2\n        /* \"#utility.yul\":5270:5305   */\n      eq\n        /* \"#utility.yul\":5260:5323   */\n      tag_139\n      jumpi\n        /* \"#utility.yul\":5319:5320   */\n      0x00\n        /* \"#utility.yul\":5316:5317   */\n      dup1\n        /* \"#utility.yul\":5309:5321   */\n      revert\n        /* \"#utility.yul\":5260:5323   */\n    tag_139:\n        /* \"#utility.yul\":5207:5329   */\n      pop\n      jump\t// out\n\n    auxdata: 0xa26469706673582212207e7d2157c0c8454ac5ab970bb8e0234fd51fcefeec512b2e5ef5b50f1fe35e9064736f6c63430008070033\n}\n",
				"bytecode": {
					"linkReferences": {},
					"object": "608060405234801561001057600080fd5b5061002d61002261003260201b60201c565b61003a60201b60201c565b6100fe565b600033905090565b60008060009054906101000a900473ffffffffffffffffffffffffffffffffffffffff169050816000806101000a81548173ffffffffffffffffffffffffffffffffffffffff021916908373ffffffffffffffffffffffffffffffffffffffff1602179055508173ffffffffffffffffffffffffffffffffffffffff168173ffffffffffffffffffffffffffffffffffffffff167f8be0079c531659141344cd1fd0a4f28419497f9722a3daafe3b4186f6b6457e060405160405180910390a35050565b6107538061010d6000396000f3fe60806040526004361061004e5760003560e01c80633e5beab914610051578063715018a61461008e5780638da5cb5b146100a5578063b39d7b7c146100d0578063f2fde38b146100f95761004f565b5b005b34801561005d57600080fd5b50610078600480360381019061007391906104b5565b610122565b60405161008591906105e1565b60405180910390f35b34801561009a57600080fd5b506100a361013a565b005b3480156100b157600080fd5b506100ba6101c2565b6040516100c79190610586565b60405180910390f35b3480156100dc57600080fd5b506100f760048036038101906100f291906104e2565b6101eb565b005b34801561010557600080fd5b50610120600480360381019061011b91906104b5565b6102b2565b005b60016020528060005260406000206000915090505481565b6101426103aa565b73ffffffffffffffffffffffffffffffffffffffff166101606101c2565b73ffffffffffffffffffffffffffffffffffffffff16146101b6576040517f08c379a00000000000000000000000000000000000000000000000000000000081526004016101ad906105c1565b60405180910390fd5b6101c060006103b2565b565b60008060009054906101000a900473ffffffffffffffffffffffffffffffffffffffff16905090565b6101f36103aa565b73ffffffffffffffffffffffffffffffffffffffff166102116101c2565b73ffffffffffffffffffffffffffffffffffffffff1614610267576040517f08c379a000000000000000000000000000000000000000000000000000000000815260040161025e906105c1565b60405180910390fd5b8173ffffffffffffffffffffffffffffffffffffffff166108fc829081150290604051600060405180830381858888f193505050501580156102ad573d6000803e3d6000fd5b505050565b6102ba6103aa565b73ffffffffffffffffffffffffffffffffffffffff166102d86101c2565b73ffffffffffffffffffffffffffffffffffffffff161461032e576040517f08c379a0000000000000000000000000000000000000000000000000000000008152600401610325906105c1565b60405180910390fd5b600073ffffffffffffffffffffffffffffffffffffffff168173ffffffffffffffffffffffffffffffffffffffff16141561039e576040517f08c379a0000000000000000000000000000000000000000000000000000000008152600401610395906105a1565b60405180910390fd5b6103a7816103b2565b50565b600033905090565b60008060009054906101000a900473ffffffffffffffffffffffffffffffffffffffff169050816000806101000a81548173ffffffffffffffffffffffffffffffffffffffff021916908373ffffffffffffffffffffffffffffffffffffffff1602179055508173ffffffffffffffffffffffffffffffffffffffff168173ffffffffffffffffffffffffffffffffffffffff167f8be0079c531659141344cd1fd0a4f28419497f9722a3daafe3b4186f6b6457e060405160405180910390a35050565b600081359050610485816106d8565b92915050565b60008135905061049a816106ef565b92915050565b6000813590506104af81610706565b92915050565b6000602082840312156104cb576104ca61065b565b5b60006104d984828501610476565b91505092915050565b600080604083850312156104f9576104f861065b565b5b60006105078582860161048b565b9250506020610518858286016104a0565b9150509250929050565b61052b8161060d565b82525050565b600061053e6026836105fc565b915061054982610660565b604082019050919050565b60006105616020836105fc565b915061056c826106af565b602082019050919050565b61058081610651565b82525050565b600060208201905061059b6000830184610522565b92915050565b600060208201905081810360008301526105ba81610531565b9050919050565b600060208201905081810360008301526105da81610554565b9050919050565b60006020820190506105f66000830184610577565b92915050565b600082825260208201905092915050565b600061061882610631565b9050919050565b600061062a82610631565b9050919050565b600073ffffffffffffffffffffffffffffffffffffffff82169050919050565b6000819050919050565b600080fd5b7f4f776e61626c653a206e6577206f776e657220697320746865207a65726f206160008201527f6464726573730000000000000000000000000000000000000000000000000000602082015250565b7f4f776e61626c653a2063616c6c6572206973206e6f7420746865206f776e6572600082015250565b6106e18161060d565b81146106ec57600080fd5b50565b6106f88161061f565b811461070357600080fd5b50565b61070f81610651565b811461071a57600080fd5b5056fea26469706673582212207e7d2157c0c8454ac5ab970bb8e0234fd51fcefeec512b2e5ef5b50f1fe35e9064736f6c63430008070033",
					"opcodes": "PUSH1 0x80 PUSH1 0x40 MSTORE CALLVALUE DUP1 ISZERO PUSH2 0x10 JUMPI PUSH1 0x0 DUP1 REVERT JUMPDEST POP PUSH2 0x2D PUSH2 0x22 PUSH2 0x32 PUSH1 0x20 SHL PUSH1 0x20 SHR JUMP JUMPDEST PUSH2 0x3A PUSH1 0x20 SHL PUSH1 0x20 SHR JUMP JUMPDEST PUSH2 0xFE JUMP JUMPDEST PUSH1 0x0 CALLER SWAP1 POP SWAP1 JUMP JUMPDEST PUSH1 0x0 DUP1 PUSH1 0x0 SWAP1 SLOAD SWAP1 PUSH2 0x100 EXP SWAP1 DIV PUSH20 0xFFFFFFFFFFFFFFFFFFFFFFFFFFFFFFFFFFFFFFFF AND SWAP1 POP DUP2 PUSH1 0x0 DUP1 PUSH2 0x100 EXP DUP2 SLOAD DUP2 PUSH20 0xFFFFFFFFFFFFFFFFFFFFFFFFFFFFFFFFFFFFFFFF MUL NOT AND SWAP1 DUP4 PUSH20 0xFFFFFFFFFFFFFFFFFFFFFFFFFFFFFFFFFFFFFFFF AND MUL OR SWAP1 SSTORE POP DUP2 PUSH20 0xFFFFFFFFFFFFFFFFFFFFFFFFFFFFFFFFFFFFFFFF AND DUP2 PUSH20 0xFFFFFFFFFFFFFFFFFFFFFFFFFFFFFFFFFFFFFFFF AND PUSH32 0x8BE0079C531659141344CD1FD0A4F28419497F9722A3DAAFE3B4186F6B6457E0 PUSH1 0x40 MLOAD PUSH1 0x40 MLOAD DUP1 SWAP2 SUB SWAP1 LOG3 POP POP JUMP JUMPDEST PUSH2 0x753 DUP1 PUSH2 0x10D PUSH1 0x0 CODECOPY PUSH1 0x0 RETURN INVALID PUSH1 0x80 PUSH1 0x40 MSTORE PUSH1 0x4 CALLDATASIZE LT PUSH2 0x4E JUMPI PUSH1 0x0 CALLDATALOAD PUSH1 0xE0 SHR DUP1 PUSH4 0x3E5BEAB9 EQ PUSH2 0x51 JUMPI DUP1 PUSH4 0x715018A6 EQ PUSH2 0x8E JUMPI DUP1 PUSH4 0x8DA5CB5B EQ PUSH2 0xA5 JUMPI DUP1 PUSH4 0xB39D7B7C EQ PUSH2 0xD0 JUMPI DUP1 PUSH4 0xF2FDE38B EQ PUSH2 0xF9 JUMPI PUSH2 0x4F JUMP JUMPDEST JUMPDEST STOP JUMPDEST CALLVALUE DUP1 ISZERO PUSH2 0x5D JUMPI PUSH1 0x0 DUP1 REVERT JUMPDEST POP PUSH2 0x78 PUSH1 0x4 DUP1 CALLDATASIZE SUB DUP2 ADD SWAP1 PUSH2 0x73 SWAP2 SWAP1 PUSH2 0x4B5 JUMP JUMPDEST PUSH2 0x122 JUMP JUMPDEST PUSH1 0x40 MLOAD PUSH2 0x85 SWAP2 SWAP1 PUSH2 0x5E1 JUMP JUMPDEST PUSH1 0x40 MLOAD DUP1 SWAP2 SUB SWAP1 RETURN JUMPDEST CALLVALUE DUP1 ISZERO PUSH2 0x9A JUMPI PUSH1 0x0 DUP1 REVERT JUMPDEST POP PUSH2 0xA3 PUSH2 0x13A JUMP JUMPDEST STOP JUMPDEST CALLVALUE DUP1 ISZERO PUSH2 0xB1 JUMPI PUSH1 0x0 DUP1 REVERT JUMPDEST POP PUSH2 0xBA PUSH2 0x1C2 JUMP JUMPDEST PUSH1 0x40 MLOAD PUSH2 0xC7 SWAP2 SWAP1 PUSH2 0x586 JUMP JUMPDEST PUSH1 0x40 MLOAD DUP1 SWAP2 SUB SWAP1 RETURN JUMPDEST CALLVALUE DUP1 ISZERO PUSH2 0xDC JUMPI PUSH1 0x0 DUP1 REVERT JUMPDEST POP PUSH2 0xF7 PUSH1 0x4 DUP1 CALLDATASIZE SUB DUP2 ADD SWAP1 PUSH2 0xF2 SWAP2 SWAP1 PUSH2 0x4E2 JUMP JUMPDEST PUSH2 0x1EB JUMP JUMPDEST STOP JUMPDEST CALLVALUE DUP1 ISZERO PUSH2 0x105 JUMPI PUSH1 0x0 DUP1 REVERT JUMPDEST POP PUSH2 0x120 PUSH1 0x4 DUP1 CALLDATASIZE SUB DUP2 ADD SWAP1 PUSH2 0x11B SWAP2 SWAP1 PUSH2 0x4B5 JUMP JUMPDEST PUSH2 0x2B2 JUMP JUMPDEST STOP JUMPDEST PUSH1 0x1 PUSH1 0x20 MSTORE DUP1 PUSH1 0x0 MSTORE PUSH1 0x40 PUSH1 0x0 KECCAK256 PUSH1 0x0 SWAP2 POP SWAP1 POP SLOAD DUP2 JUMP JUMPDEST PUSH2 0x142 PUSH2 0x3AA JUMP JUMPDEST PUSH20 0xFFFFFFFFFFFFFFFFFFFFFFFFFFFFFFFFFFFFFFFF AND PUSH2 0x160 PUSH2 0x1C2 JUMP JUMPDEST PUSH20 0xFFFFFFFFFFFFFFFFFFFFFFFFFFFFFFFFFFFFFFFF AND EQ PUSH2 0x1B6 JUMPI PUSH1 0x40 MLOAD PUSH32 0x8C379A000000000000000000000000000000000000000000000000000000000 DUP2 MSTORE PUSH1 0x4 ADD PUSH2 0x1AD SWAP1 PUSH2 0x5C1 JUMP JUMPDEST PUSH1 0x40 MLOAD DUP1 SWAP2 SUB SWAP1 REVERT JUMPDEST PUSH2 0x1C0 PUSH1 0x0 PUSH2 0x3B2 JUMP JUMPDEST JUMP JUMPDEST PUSH1 0x0 DUP1 PUSH1 0x0 SWAP1 SLOAD SWAP1 PUSH2 0x100 EXP SWAP1 DIV PUSH20 0xFFFFFFFFFFFFFFFFFFFFFFFFFFFFFFFFFFFFFFFF AND SWAP1 POP SWAP1 JUMP JUMPDEST PUSH2 0x1F3 PUSH2 0x3AA JUMP JUMPDEST PUSH20 0xFFFFFFFFFFFFFFFFFFFFFFFFFFFFFFFFFFFFFFFF AND PUSH2 0x211 PUSH2 0x1C2 JUMP JUMPDEST PUSH20 0xFFFFFFFFFFFFFFFFFFFFFFFFFFFFFFFFFFFFFFFF AND EQ PUSH2 0x267 JUMPI PUSH1 0x40 MLOAD PUSH32 0x8C379A000000000000000000000000000000000000000000000000000000000 DUP2 MSTORE PUSH1 0x4 ADD PUSH2 0x25E SWAP1 PUSH2 0x5C1 JUMP JUMPDEST PUSH1 0x40 MLOAD DUP1 SWAP2 SUB SWAP1 REVERT JUMPDEST DUP2 PUSH20 0xFFFFFFFFFFFFFFFFFFFFFFFFFFFFFFFFFFFFFFFF AND PUSH2 0x8FC DUP3 SWAP1 DUP2 ISZERO MUL SWAP1 PUSH1 0x40 MLOAD PUSH1 0x0 PUSH1 0x40 MLOAD DUP1 DUP4 SUB DUP2 DUP6 DUP9 DUP9 CALL SWAP4 POP POP POP POP ISZERO DUP1 ISZERO PUSH2 0x2AD JUMPI RETURNDATASIZE PUSH1 0x0 DUP1 RETURNDATACOPY RETURNDATASIZE PUSH1 0x0 REVERT JUMPDEST POP POP POP JUMP JUMPDEST PUSH2 0x2BA PUSH2 0x3AA JUMP JUMPDEST PUSH20 0xFFFFFFFFFFFFFFFFFFFFFFFFFFFFFFFFFFFFFFFF AND PUSH2 0x2D8 PUSH2 0x1C2 JUMP JUMPDEST PUSH20 0xFFFFFFFFFFFFFFFFFFFFFFFFFFFFFFFFFFFFFFFF AND EQ PUSH2 0x32E JUMPI PUSH1 0x40 MLOAD PUSH32 0x8C379A000000000000000000000000000000000000000000000000000000000 DUP2 MSTORE PUSH1 0x4 ADD PUSH2 0x325 SWAP1 PUSH2 0x5C1 JUMP JUMPDEST PUSH1 0x40 MLOAD DUP1 SWAP2 SUB SWAP1 REVERT JUMPDEST PUSH1 0x0 PUSH20 0xFFFFFFFFFFFFFFFFFFFFFFFFFFFFFFFFFFFFFFFF AND DUP2 PUSH20 0xFFFFFFFFFFFFFFFFFFFFFFFFFFFFFFFFFFFFFFFF AND EQ ISZERO PUSH2 0x39E JUMPI PUSH1 0x40 MLOAD PUSH32 0x8C379A000000000000000000000000000000000000000000000000000000000 DUP2 MSTORE PUSH1 0x4 ADD PUSH2 0x395 SWAP1 PUSH2 0x5A1 JUMP JUMPDEST PUSH1 0x40 MLOAD DUP1 SWAP2 SUB SWAP1 REVERT JUMPDEST PUSH2 0x3A7 DUP2 PUSH2 0x3B2 JUMP JUMPDEST POP JUMP JUMPDEST PUSH1 0x0 CALLER SWAP1 POP SWAP1 JUMP JUMPDEST PUSH1 0x0 DUP1 PUSH1 0x0 SWAP1 SLOAD SWAP1 PUSH2 0x100 EXP SWAP1 DIV PUSH20 0xFFFFFFFFFFFFFFFFFFFFFFFFFFFFFFFFFFFFFFFF AND SWAP1 POP DUP2 PUSH1 0x0 DUP1 PUSH2 0x100 EXP DUP2 SLOAD DUP2 PUSH20 0xFFFFFFFFFFFFFFFFFFFFFFFFFFFFFFFFFFFFFFFF MUL NOT AND SWAP1 DUP4 PUSH20 0xFFFFFFFFFFFFFFFFFFFFFFFFFFFFFFFFFFFFFFFF AND MUL OR SWAP1 SSTORE POP DUP2 PUSH20 0xFFFFFFFFFFFFFFFFFFFFFFFFFFFFFFFFFFFFFFFF AND DUP2 PUSH20 0xFFFFFFFFFFFFFFFFFFFFFFFFFFFFFFFFFFFFFFFF AND PUSH32 0x8BE0079C531659141344CD1FD0A4F28419497F9722A3DAAFE3B4186F6B6457E0 PUSH1 0x40 MLOAD PUSH1 0x40 MLOAD DUP1 SWAP2 SUB SWAP1 LOG3 POP POP JUMP JUMPDEST PUSH1 0x0 DUP2 CALLDATALOAD SWAP1 POP PUSH2 0x485 DUP2 PUSH2 0x6D8 JUMP JUMPDEST SWAP3 SWAP2 POP POP JUMP JUMPDEST PUSH1 0x0 DUP2 CALLDATALOAD SWAP1 POP PUSH2 0x49A DUP2 PUSH2 0x6EF JUMP JUMPDEST SWAP3 SWAP2 POP POP JUMP JUMPDEST PUSH1 0x0 DUP2 CALLDATALOAD SWAP1 POP PUSH2 0x4AF DUP2 PUSH2 0x706 JUMP JUMPDEST SWAP3 SWAP2 POP POP JUMP JUMPDEST PUSH1 0x0 PUSH1 0x20 DUP3 DUP5 SUB SLT ISZERO PUSH2 0x4CB JUMPI PUSH2 0x4CA PUSH2 0x65B JUMP JUMPDEST JUMPDEST PUSH1 0x0 PUSH2 0x4D9 DUP5 DUP3 DUP6 ADD PUSH2 0x476 JUMP JUMPDEST SWAP2 POP POP SWAP3 SWAP2 POP POP JUMP JUMPDEST PUSH1 0x0 DUP1 PUSH1 0x40 DUP4 DUP6 SUB SLT ISZERO PUSH2 0x4F9 JUMPI PUSH2 0x4F8 PUSH2 0x65B JUMP JUMPDEST JUMPDEST PUSH1 0x0 PUSH2 0x507 DUP6 DUP3 DUP7 ADD PUSH2 0x48B JUMP JUMPDEST SWAP3 POP POP PUSH1 0x20 PUSH2 0x518 DUP6 DUP3 DUP7 ADD PUSH2 0x4A0 JUMP JUMPDEST SWAP2 POP POP SWAP3 POP SWAP3 SWAP1 POP JUMP JUMPDEST PUSH2 0x52B DUP2 PUSH2 0x60D JUMP JUMPDEST DUP3 MSTORE POP POP JUMP JUMPDEST PUSH1 0x0 PUSH2 0x53E PUSH1 0x26 DUP4 PUSH2 0x5FC JUMP JUMPDEST SWAP2 POP PUSH2 0x549 DUP3 PUSH2 0x660 JUMP JUMPDEST PUSH1 0x40 DUP3 ADD SWAP1 POP SWAP2 SWAP1 POP JUMP JUMPDEST PUSH1 0x0 PUSH2 0x561 PUSH1 0x20 DUP4 PUSH2 0x5FC JUMP JUMPDEST SWAP2 POP PUSH2 0x56C DUP3 PUSH2 0x6AF JUMP JUMPDEST PUSH1 0x20 DUP3 ADD SWAP1 POP SWAP2 SWAP1 POP JUMP JUMPDEST PUSH2 0x580 DUP2 PUSH2 0x651 JUMP JUMPDEST DUP3 MSTORE POP POP JUMP JUMPDEST PUSH1 0x0 PUSH1 0x20 DUP3 ADD SWAP1 POP PUSH2 0x59B PUSH1 0x0 DUP4 ADD DUP5 PUSH2 0x522 JUMP JUMPDEST SWAP3 SWAP2 POP POP JUMP JUMPDEST PUSH1 0x0 PUSH1 0x20 DUP3 ADD SWAP1 POP DUP2 DUP2 SUB PUSH1 0x0 DUP4 ADD MSTORE PUSH2 0x5BA DUP2 PUSH2 0x531 JUMP JUMPDEST SWAP1 POP SWAP2 SWAP1 POP JUMP JUMPDEST PUSH1 0x0 PUSH1 0x20 DUP3 ADD SWAP1 POP DUP2 DUP2 SUB PUSH1 0x0 DUP4 ADD MSTORE PUSH2 0x5DA DUP2 PUSH2 0x554 JUMP JUMPDEST SWAP1 POP SWAP2 SWAP1 POP JUMP JUMPDEST PUSH1 0x0 PUSH1 0x20 DUP3 ADD SWAP1 POP PUSH2 0x5F6 PUSH1 0x0 DUP4 ADD DUP5 PUSH2 0x577 JUMP JUMPDEST SWAP3 SWAP2 POP POP JUMP JUMPDEST PUSH1 0x0 DUP3 DUP3 MSTORE PUSH1 0x20 DUP3 ADD SWAP1 POP SWAP3 SWAP2 POP POP JUMP JUMPDEST PUSH1 0x0 PUSH2 0x618 DUP3 PUSH2 0x631 JUMP JUMPDEST SWAP1 POP SWAP2 SWAP1 POP JUMP JUMPDEST PUSH1 0x0 PUSH2 0x62A DUP3 PUSH2 0x631 JUMP JUMPDEST SWAP1 POP SWAP2 SWAP1 POP JUMP JUMPDEST PUSH1 0x0 PUSH20 0xFFFFFFFFFFFFFFFFFFFFFFFFFFFFFFFFFFFFFFFF DUP3 AND SWAP1 POP SWAP2 SWAP1 POP JUMP JUMPDEST PUSH1 0x0 DUP2 SWAP1 POP SWAP2 SWAP1 POP JUMP JUMPDEST PUSH1 0x0 DUP1 REVERT JUMPDEST PUSH32 0x4F776E61626C653A206E6577206F776E657220697320746865207A65726F2061 PUSH1 0x0 DUP3 ADD MSTORE PUSH32 0x6464726573730000000000000000000000000000000000000000000000000000 PUSH1 0x20 DUP3 ADD MSTORE POP JUMP JUMPDEST PUSH32 0x4F776E61626C653A2063616C6C6572206973206E6F7420746865206F776E6572 PUSH1 0x0 DUP3 ADD MSTORE POP JUMP JUMPDEST PUSH2 0x6E1 DUP2 PUSH2 0x60D JUMP JUMPDEST DUP2 EQ PUSH2 0x6EC JUMPI PUSH1 0x0 DUP1 REVERT JUMPDEST POP JUMP JUMPDEST PUSH2 0x6F8 DUP2 PUSH2 0x61F JUMP JUMPDEST DUP2 EQ PUSH2 0x703 JUMPI PUSH1 0x0 DUP1 REVERT JUMPDEST POP JUMP JUMPDEST PUSH2 0x70F DUP2 PUSH2 0x651 JUMP JUMPDEST DUP2 EQ PUSH2 0x71A JUMPI PUSH1 0x0 DUP1 REVERT JUMPDEST POP JUMP INVALID LOG2 PUSH5 0x6970667358 0x22 SLT KECCAK256 PUSH31 0x7D2157C0C8454AC5AB970BB8E0234FD51FCEFEEC512B2E5EF5B50F1FE35E90 PUSH5 0x736F6C6343 STOP ADDMOD SMOD STOP CALLER "
				},
				"gasEstimates": {
					"creation": {
						"codeDepositCost": "375000",
						"executionCost": "infinite",
						"totalCost": "infinite"
					},
					"external": {
						"": "173",
						"allowance(address)": "2792",
						"owner()": "2544",
						"renounceOwnership()": "30374",
						"transferOwnership(address)": "30789",
						"withDrawMoney(address,uint256)": "infinite"
					}
				},
				"methodIdentifiers": {
					"allowance(address)": "3e5beab9",
					"owner()": "8da5cb5b",
					"renounceOwnership()": "715018a6",
					"transferOwnership(address)": "f2fde38b",
					"withDrawMoney(address,uint256)": "b39d7b7c"
				}
			},
			"storageLayout": {
				"storage": [
					{
						"astId": 59,
						"contract": "contracts/SimpleWallet.sol:SimpleWallet",
						"label": "_owner",
						"offset": 0,
						"slot": "0",
						"type": "t_address"
					},
					{
						"astId": 8,
						"contract": "contracts/SimpleWallet.sol:SimpleWallet",
						"label": "allowance",
						"offset": 0,
						"slot": "1",
						"type": "t_mapping(t_address,t_uint256)"
					}
				],
				"types": {
					"t_address": {
						"encoding": "inplace",
						"label": "address",
						"numberOfBytes": "20"
					},
					"t_mapping(t_address,t_uint256)": {
						"encoding": "mapping",
						"key": "t_address",
						"label": "mapping(address => uint256)",
						"numberOfBytes": "32",
						"value": "t_uint256"
					},
					"t_uint256": {
						"encoding": "inplace",
						"label": "uint256",
						"numberOfBytes": "32"
					}
				}
			},
			"userdoc": {
				"kind": "user",
				"methods": {},
				"version": 1
			}
		}
	}
}