{
	"contracts/SimpleWallet.sol": {
		"SimpleWallet": {
			"abi": [
				{
					"anonymous": false,
					"inputs": [
						{
							"indexed": true,
							"internalType": "address",
							"name": "previousOwner",
							"type": "address"
						},
						{
							"indexed": true,
							"internalType": "address",
							"name": "newOwner",
							"type": "address"
						}
					],
					"name": "OwnershipTransferred",
					"type": "event"
				},
				{
					"stateMutability": "payable",
					"type": "fallback"
				},
				{
					"inputs": [],
					"name": "owner",
					"outputs": [
						{
							"internalType": "address",
							"name": "",
							"type": "address"
						}
					],
					"stateMutability": "view",
					"type": "function"
				},
				{
					"inputs": [],
					"name": "renounceOwnership",
					"outputs": [],
					"stateMutability": "nonpayable",
					"type": "function"
				},
				{
					"inputs": [
						{
							"internalType": "address",
							"name": "newOwner",
							"type": "address"
						}
					],
					"name": "transferOwnership",
					"outputs": [],
					"stateMutability": "nonpayable",
					"type": "function"
				},
				{
					"inputs": [
						{
							"internalType": "address payable",
							"name": "_to",
							"type": "address"
						},
						{
							"internalType": "uint256",
							"name": "_amount",
							"type": "uint256"
						}
					],
					"name": "withDrawMoney",
					"outputs": [],
					"stateMutability": "nonpayable",
					"type": "function"
				}
			],
			"devdoc": {
				"kind": "dev",
				"methods": {
					"owner()": {
						"details": "Returns the address of the current owner."
					},
					"renounceOwnership()": {
						"details": "Leaves the contract without owner. It will not be possible to call `onlyOwner` functions anymore. Can only be called by the current owner. NOTE: Renouncing ownership will leave the contract without an owner, thereby removing any functionality that is only available to the owner."
					},
					"transferOwnership(address)": {
						"details": "Transfers ownership of the contract to a new account (`newOwner`). Can only be called by the current owner."
					}
				},
				"version": 1
			},
			"evm": {
				"assembly": "    /* \"contracts/SimpleWallet.sol\":56:275  contract SimpleWallet is Ownable{\r... */\n  mstore(0x40, 0x80)\n  callvalue\n  dup1\n  iszero\n  tag_1\n  jumpi\n  0x00\n  dup1\n  revert\ntag_1:\n  pop\n    /* \"contracts/utils/Ownable.sol\":942:974  _transferOwnership(_msgSender()) */\n  tag_4\n    /* \"contracts/utils/Ownable.sol\":961:973  _msgSender() */\n  tag_5\n    /* \"contracts/utils/Ownable.sol\":961:971  _msgSender */\n  shl(0x20, tag_6)\n    /* \"contracts/utils/Ownable.sol\":961:973  _msgSender() */\n  0x20\n  shr\n  jump\t// in\ntag_5:\n    /* \"contracts/utils/Ownable.sol\":942:960  _transferOwnership */\n  shl(0x20, tag_7)\n    /* \"contracts/utils/Ownable.sol\":942:974  _transferOwnership(_msgSender()) */\n  0x20\n  shr\n  jump\t// in\ntag_4:\n    /* \"contracts/SimpleWallet.sol\":56:275  contract SimpleWallet is Ownable{\r... */\n  jump(tag_8)\n    /* \"contracts/utils/Context.sol\":656:754  function _msgSender() internal view virtual returns (address) {\r... */\ntag_6:\n    /* \"contracts/utils/Context.sol\":709:716  address */\n  0x00\n    /* \"contracts/utils/Context.sol\":736:746  msg.sender */\n  caller\n    /* \"contracts/utils/Context.sol\":729:746  return msg.sender */\n  swap1\n  pop\n    /* \"contracts/utils/Context.sol\":656:754  function _msgSender() internal view virtual returns (address) {\r... */\n  swap1\n  jump\t// out\n    /* \"contracts/utils/Ownable.sol\":2333:2524  function _transferOwnership(address newOwner) internal virtual {\r... */\ntag_7:\n    /* \"contracts/utils/Ownable.sol\":2407:2423  address oldOwner */\n  0x00\n    /* \"contracts/utils/Ownable.sol\":2426:2432  _owner */\n  dup1\n  0x00\n  swap1\n  sload\n  swap1\n  0x0100\n  exp\n  swap1\n  div\n  0xffffffffffffffffffffffffffffffffffffffff\n  and\n    /* \"contracts/utils/Ownable.sol\":2407:2432  address oldOwner = _owner */\n  swap1\n  pop\n    /* \"contracts/utils/Ownable.sol\":2452:2460  newOwner */\n  dup2\n    /* \"contracts/utils/Ownable.sol\":2443:2449  _owner */\n  0x00\n  dup1\n    /* \"contracts/utils/Ownable.sol\":2443:2460  _owner = newOwner */\n  0x0100\n  exp\n  dup2\n  sload\n  dup2\n  0xffffffffffffffffffffffffffffffffffffffff\n  mul\n  not\n  and\n  swap1\n  dup4\n  0xffffffffffffffffffffffffffffffffffffffff\n  and\n  mul\n  or\n  swap1\n  sstore\n  pop\n    /* \"contracts/utils/Ownable.sol\":2507:2515  newOwner */\n  dup2\n    /* \"contracts/utils/Ownable.sol\":2476:2516  OwnershipTransferred(oldOwner, newOwner) */\n  0xffffffffffffffffffffffffffffffffffffffff\n  and\n    /* \"contracts/utils/Ownable.sol\":2497:2505  oldOwner */\n  dup2\n    /* \"contracts/utils/Ownable.sol\":2476:2516  OwnershipTransferred(oldOwner, newOwner) */\n  0xffffffffffffffffffffffffffffffffffffffff\n  and\n  0x8be0079c531659141344cd1fd0a4f28419497f9722a3daafe3b4186f6b6457e0\n  mload(0x40)\n  mload(0x40)\n  dup1\n  swap2\n  sub\n  swap1\n  log3\n    /* \"contracts/utils/Ownable.sol\":2396:2524  {\r... */\n  pop\n    /* \"contracts/utils/Ownable.sol\":2333:2524  function _transferOwnership(address newOwner) internal virtual {\r... */\n  pop\n  jump\t// out\n    /* \"contracts/SimpleWallet.sol\":56:275  contract SimpleWallet is Ownable{\r... */\ntag_8:\n  dataSize(sub_0)\n  dup1\n  dataOffset(sub_0)\n  0x00\n  codecopy\n  0x00\n  return\nstop\n\nsub_0: assembly {\n        /* \"contracts/SimpleWallet.sol\":56:275  contract SimpleWallet is Ownable{\r... */\n      mstore(0x40, 0x80)\n      jumpi(tag_1, lt(calldatasize, 0x04))\n      shr(0xe0, calldataload(0x00))\n      dup1\n      0x715018a6\n      eq\n      tag_3\n      jumpi\n      dup1\n      0x8da5cb5b\n      eq\n      tag_4\n      jumpi\n      dup1\n      0xb39d7b7c\n      eq\n      tag_5\n      jumpi\n      dup1\n      0xf2fde38b\n      eq\n      tag_6\n      jumpi\n      jump(tag_2)\n    tag_1:\n    tag_2:\n      stop\n        /* \"contracts/utils/Ownable.sol\":1714:1817  function renounceOwnership() public virtual onlyOwner {\r... */\n    tag_3:\n      callvalue\n      dup1\n      iszero\n      tag_9\n      jumpi\n      0x00\n      dup1\n      revert\n    tag_9:\n      pop\n      tag_10\n      tag_11\n      jump\t// in\n    tag_10:\n      stop\n        /* \"contracts/utils/Ownable.sol\":1063:1150  function owner() public view virtual returns (address) {\r... */\n    tag_4:\n      callvalue\n      dup1\n      iszero\n      tag_12\n      jumpi\n      0x00\n      dup1\n      revert\n    tag_12:\n      pop\n      tag_13\n      tag_14\n      jump\t// in\n    tag_13:\n      mload(0x40)\n      tag_15\n      swap2\n      swap1\n      tag_16\n      jump\t// in\n    tag_15:\n      mload(0x40)\n      dup1\n      swap2\n      sub\n      swap1\n      return\n        /* \"contracts/SimpleWallet.sol\":109:223  function withDrawMoney(address payable _to, uint _amount) public onlyOwner{\r... */\n    tag_5:\n      callvalue\n      dup1\n      iszero\n      tag_17\n      jumpi\n      0x00\n      dup1\n      revert\n    tag_17:\n      pop\n      tag_18\n      0x04\n      dup1\n      calldatasize\n      sub\n      dup2\n      add\n      swap1\n      tag_19\n      swap2\n      swap1\n      tag_20\n      jump\t// in\n    tag_19:\n      tag_21\n      jump\t// in\n    tag_18:\n      stop\n        /* \"contracts/utils/Ownable.sol\":1972:2173  function transferOwnership(address newOwner) public virtual onlyOwner {\r... */\n    tag_6:\n      callvalue\n      dup1\n      iszero\n      tag_22\n      jumpi\n      0x00\n      dup1\n      revert\n    tag_22:\n      pop\n      tag_23\n      0x04\n      dup1\n      calldatasize\n      sub\n      dup2\n      add\n      swap1\n      tag_24\n      swap2\n      swap1\n      tag_25\n      jump\t// in\n    tag_24:\n      tag_26\n      jump\t// in\n    tag_23:\n      stop\n        /* \"contracts/utils/Ownable.sol\":1714:1817  function renounceOwnership() public virtual onlyOwner {\r... */\n    tag_11:\n        /* \"contracts/utils/Ownable.sol\":1294:1306  _msgSender() */\n      tag_28\n        /* \"contracts/utils/Ownable.sol\":1294:1304  _msgSender */\n      tag_29\n        /* \"contracts/utils/Ownable.sol\":1294:1306  _msgSender() */\n      jump\t// in\n    tag_28:\n        /* \"contracts/utils/Ownable.sol\":1283:1306  owner() == _msgSender() */\n      0xffffffffffffffffffffffffffffffffffffffff\n      and\n        /* \"contracts/utils/Ownable.sol\":1283:1290  owner() */\n      tag_30\n        /* \"contracts/utils/Ownable.sol\":1283:1288  owner */\n      tag_14\n        /* \"contracts/utils/Ownable.sol\":1283:1290  owner() */\n      jump\t// in\n    tag_30:\n        /* \"contracts/utils/Ownable.sol\":1283:1306  owner() == _msgSender() */\n      0xffffffffffffffffffffffffffffffffffffffff\n      and\n      eq\n        /* \"contracts/utils/Ownable.sol\":1275:1343  require(owner() == _msgSender(), \"Ownable: caller is not the owner\") */\n      tag_31\n      jumpi\n      mload(0x40)\n      0x08c379a000000000000000000000000000000000000000000000000000000000\n      dup2\n      mstore\n      0x04\n      add\n      tag_32\n      swap1\n      tag_33\n      jump\t// in\n    tag_32:\n      mload(0x40)\n      dup1\n      swap2\n      sub\n      swap1\n      revert\n    tag_31:\n        /* \"contracts/utils/Ownable.sol\":1779:1809  _transferOwnership(address(0)) */\n      tag_35\n        /* \"contracts/utils/Ownable.sol\":1806:1807  0 */\n      0x00\n        /* \"contracts/utils/Ownable.sol\":1779:1797  _transferOwnership */\n      tag_36\n        /* \"contracts/utils/Ownable.sol\":1779:1809  _transferOwnership(address(0)) */\n      jump\t// in\n    tag_35:\n        /* \"contracts/utils/Ownable.sol\":1714:1817  function renounceOwnership() public virtual onlyOwner {\r... */\n      jump\t// out\n        /* \"contracts/utils/Ownable.sol\":1063:1150  function owner() public view virtual returns (address) {\r... */\n    tag_14:\n        /* \"contracts/utils/Ownable.sol\":1109:1116  address */\n      0x00\n        /* \"contracts/utils/Ownable.sol\":1136:1142  _owner */\n      dup1\n      0x00\n      swap1\n      sload\n      swap1\n      0x0100\n      exp\n      swap1\n      div\n      0xffffffffffffffffffffffffffffffffffffffff\n      and\n        /* \"contracts/utils/Ownable.sol\":1129:1142  return _owner */\n      swap1\n      pop\n        /* \"contracts/utils/Ownable.sol\":1063:1150  function owner() public view virtual returns (address) {\r... */\n      swap1\n      jump\t// out\n        /* \"contracts/SimpleWallet.sol\":109:223  function withDrawMoney(address payable _to, uint _amount) public onlyOwner{\r... */\n    tag_21:\n        /* \"contracts/utils/Ownable.sol\":1294:1306  _msgSender() */\n      tag_39\n        /* \"contracts/utils/Ownable.sol\":1294:1304  _msgSender */\n      tag_29\n        /* \"contracts/utils/Ownable.sol\":1294:1306  _msgSender() */\n      jump\t// in\n    tag_39:\n        /* \"contracts/utils/Ownable.sol\":1283:1306  owner() == _msgSender() */\n      0xffffffffffffffffffffffffffffffffffffffff\n      and\n        /* \"contracts/utils/Ownable.sol\":1283:1290  owner() */\n      tag_40\n        /* \"contracts/utils/Ownable.sol\":1283:1288  owner */\n      tag_14\n        /* \"contracts/utils/Ownable.sol\":1283:1290  owner() */\n      jump\t// in\n    tag_40:\n        /* \"contracts/utils/Ownable.sol\":1283:1306  owner() == _msgSender() */\n      0xffffffffffffffffffffffffffffffffffffffff\n      and\n      eq\n        /* \"contracts/utils/Ownable.sol\":1275:1343  require(owner() == _msgSender(), \"Ownable: caller is not the owner\") */\n      tag_41\n      jumpi\n      mload(0x40)\n      0x08c379a000000000000000000000000000000000000000000000000000000000\n      dup2\n      mstore\n      0x04\n      add\n      tag_42\n      swap1\n      tag_33\n      jump\t// in\n    tag_42:\n      mload(0x40)\n      dup1\n      swap2\n      sub\n      swap1\n      revert\n    tag_41:\n        /* \"contracts/SimpleWallet.sol\":194:197  _to */\n      dup2\n        /* \"contracts/SimpleWallet.sol\":194:206  _to.transfer */\n      0xffffffffffffffffffffffffffffffffffffffff\n      and\n        /* \"contracts/SimpleWallet.sol\":194:215  _to.transfer(_amount) */\n      0x08fc\n        /* \"contracts/SimpleWallet.sol\":207:214  _amount */\n      dup3\n        /* \"contracts/SimpleWallet.sol\":194:215  _to.transfer(_amount) */\n      swap1\n      dup2\n      iszero\n      mul\n      swap1\n      mload(0x40)\n      0x00\n      mload(0x40)\n      dup1\n      dup4\n      sub\n      dup2\n      dup6\n      dup9\n      dup9\n      call\n      swap4\n      pop\n      pop\n      pop\n      pop\n      iszero\n      dup1\n      iszero\n      tag_45\n      jumpi\n      returndatasize\n      0x00\n      dup1\n      returndatacopy\n      revert(0x00, returndatasize)\n    tag_45:\n      pop\n        /* \"contracts/SimpleWallet.sol\":109:223  function withDrawMoney(address payable _to, uint _amount) public onlyOwner{\r... */\n      pop\n      pop\n      jump\t// out\n        /* \"contracts/utils/Ownable.sol\":1972:2173  function transferOwnership(address newOwner) public virtual onlyOwner {\r... */\n    tag_26:\n        /* \"contracts/utils/Ownable.sol\":1294:1306  _msgSender() */\n      tag_47\n        /* \"contracts/utils/Ownable.sol\":1294:1304  _msgSender */\n      tag_29\n        /* \"contracts/utils/Ownable.sol\":1294:1306  _msgSender() */\n      jump\t// in\n    tag_47:\n        /* \"contracts/utils/Ownable.sol\":1283:1306  owner() == _msgSender() */\n      0xffffffffffffffffffffffffffffffffffffffff\n      and\n        /* \"contracts/utils/Ownable.sol\":1283:1290  owner() */\n      tag_48\n        /* \"contracts/utils/Ownable.sol\":1283:1288  owner */\n      tag_14\n        /* \"contracts/utils/Ownable.sol\":1283:1290  owner() */\n      jump\t// in\n    tag_48:\n        /* \"contracts/utils/Ownable.sol\":1283:1306  owner() == _msgSender() */\n      0xffffffffffffffffffffffffffffffffffffffff\n      and\n      eq\n        /* \"contracts/utils/Ownable.sol\":1275:1343  require(owner() == _msgSender(), \"Ownable: caller is not the owner\") */\n      tag_49\n      jumpi\n      mload(0x40)\n      0x08c379a000000000000000000000000000000000000000000000000000000000\n      dup2\n      mstore\n      0x04\n      add\n      tag_50\n      swap1\n      tag_33\n      jump\t// in\n    tag_50:\n      mload(0x40)\n      dup1\n      swap2\n      sub\n      swap1\n      revert\n    tag_49:\n        /* \"contracts/utils/Ownable.sol\":2081:2082  0 */\n      0x00\n        /* \"contracts/utils/Ownable.sol\":2061:2083  newOwner != address(0) */\n      0xffffffffffffffffffffffffffffffffffffffff\n      and\n        /* \"contracts/utils/Ownable.sol\":2061:2069  newOwner */\n      dup2\n        /* \"contracts/utils/Ownable.sol\":2061:2083  newOwner != address(0) */\n      0xffffffffffffffffffffffffffffffffffffffff\n      and\n      eq\n      iszero\n        /* \"contracts/utils/Ownable.sol\":2053:2126  require(newOwner != address(0), \"Ownable: new owner is the zero address\") */\n      tag_52\n      jumpi\n      mload(0x40)\n      0x08c379a000000000000000000000000000000000000000000000000000000000\n      dup2\n      mstore\n      0x04\n      add\n      tag_53\n      swap1\n      tag_54\n      jump\t// in\n    tag_53:\n      mload(0x40)\n      dup1\n      swap2\n      sub\n      swap1\n      revert\n    tag_52:\n        /* \"contracts/utils/Ownable.sol\":2137:2165  _transferOwnership(newOwner) */\n      tag_55\n        /* \"contracts/utils/Ownable.sol\":2156:2164  newOwner */\n      dup2\n        /* \"contracts/utils/Ownable.sol\":2137:2155  _transferOwnership */\n      tag_36\n        /* \"contracts/utils/Ownable.sol\":2137:2165  _transferOwnership(newOwner) */\n      jump\t// in\n    tag_55:\n        /* \"contracts/utils/Ownable.sol\":1972:2173  function transferOwnership(address newOwner) public virtual onlyOwner {\r... */\n      pop\n      jump\t// out\n        /* \"contracts/utils/Context.sol\":656:754  function _msgSender() internal view virtual returns (address) {\r... */\n    tag_29:\n        /* \"contracts/utils/Context.sol\":709:716  address */\n      0x00\n        /* \"contracts/utils/Context.sol\":736:746  msg.sender */\n      caller\n        /* \"contracts/utils/Context.sol\":729:746  return msg.sender */\n      swap1\n      pop\n        /* \"contracts/utils/Context.sol\":656:754  function _msgSender() internal view virtual returns (address) {\r... */\n      swap1\n      jump\t// out\n        /* \"contracts/utils/Ownable.sol\":2333:2524  function _transferOwnership(address newOwner) internal virtual {\r... */\n    tag_36:\n        /* \"contracts/utils/Ownable.sol\":2407:2423  address oldOwner */\n      0x00\n        /* \"contracts/utils/Ownable.sol\":2426:2432  _owner */\n      dup1\n      0x00\n      swap1\n      sload\n      swap1\n      0x0100\n      exp\n      swap1\n      div\n      0xffffffffffffffffffffffffffffffffffffffff\n      and\n        /* \"contracts/utils/Ownable.sol\":2407:2432  address oldOwner = _owner */\n      swap1\n      pop\n        /* \"contracts/utils/Ownable.sol\":2452:2460  newOwner */\n      dup2\n        /* \"contracts/utils/Ownable.sol\":2443:2449  _owner */\n      0x00\n      dup1\n        /* \"contracts/utils/Ownable.sol\":2443:2460  _owner = newOwner */\n      0x0100\n      exp\n      dup2\n      sload\n      dup2\n      0xffffffffffffffffffffffffffffffffffffffff\n      mul\n      not\n      and\n      swap1\n      dup4\n      0xffffffffffffffffffffffffffffffffffffffff\n      and\n      mul\n      or\n      swap1\n      sstore\n      pop\n        /* \"contracts/utils/Ownable.sol\":2507:2515  newOwner */\n      dup2\n        /* \"contracts/utils/Ownable.sol\":2476:2516  OwnershipTransferred(oldOwner, newOwner) */\n      0xffffffffffffffffffffffffffffffffffffffff\n      and\n        /* \"contracts/utils/Ownable.sol\":2497:2505  oldOwner */\n      dup2\n        /* \"contracts/utils/Ownable.sol\":2476:2516  OwnershipTransferred(oldOwner, newOwner) */\n      0xffffffffffffffffffffffffffffffffffffffff\n      and\n      0x8be0079c531659141344cd1fd0a4f28419497f9722a3daafe3b4186f6b6457e0\n      mload(0x40)\n      mload(0x40)\n      dup1\n      swap2\n      sub\n      swap1\n      log3\n        /* \"contracts/utils/Ownable.sol\":2396:2524  {\r... */\n      pop\n        /* \"contracts/utils/Ownable.sol\":2333:2524  function _transferOwnership(address newOwner) internal virtual {\r... */\n      pop\n      jump\t// out\n        /* \"#utility.yul\":7:146   */\n    tag_59:\n        /* \"#utility.yul\":53:58   */\n      0x00\n        /* \"#utility.yul\":91:97   */\n      dup2\n        /* \"#utility.yul\":78:98   */\n      calldataload\n        /* \"#utility.yul\":69:98   */\n      swap1\n      pop\n        /* \"#utility.yul\":107:140   */\n      tag_61\n        /* \"#utility.yul\":134:139   */\n      dup2\n        /* \"#utility.yul\":107:140   */\n      tag_62\n      jump\t// in\n    tag_61:\n        /* \"#utility.yul\":7:146   */\n      swap3\n      swap2\n      pop\n      pop\n      jump\t// out\n        /* \"#utility.yul\":152:307   */\n    tag_63:\n        /* \"#utility.yul\":206:211   */\n      0x00\n        /* \"#utility.yul\":244:250   */\n      dup2\n        /* \"#utility.yul\":231:251   */\n      calldataload\n        /* \"#utility.yul\":222:251   */\n      swap1\n      pop\n        /* \"#utility.yul\":260:301   */\n      tag_65\n        /* \"#utility.yul\":295:300   */\n      dup2\n        /* \"#utility.yul\":260:301   */\n      tag_66\n      jump\t// in\n    tag_65:\n        /* \"#utility.yul\":152:307   */\n      swap3\n      swap2\n      pop\n      pop\n      jump\t// out\n        /* \"#utility.yul\":313:452   */\n    tag_67:\n        /* \"#utility.yul\":359:364   */\n      0x00\n        /* \"#utility.yul\":397:403   */\n      dup2\n        /* \"#utility.yul\":384:404   */\n      calldataload\n        /* \"#utility.yul\":375:404   */\n      swap1\n      pop\n        /* \"#utility.yul\":413:446   */\n      tag_69\n        /* \"#utility.yul\":440:445   */\n      dup2\n        /* \"#utility.yul\":413:446   */\n      tag_70\n      jump\t// in\n    tag_69:\n        /* \"#utility.yul\":313:452   */\n      swap3\n      swap2\n      pop\n      pop\n      jump\t// out\n        /* \"#utility.yul\":458:787   */\n    tag_25:\n        /* \"#utility.yul\":517:523   */\n      0x00\n        /* \"#utility.yul\":566:568   */\n      0x20\n        /* \"#utility.yul\":554:563   */\n      dup3\n        /* \"#utility.yul\":545:552   */\n      dup5\n        /* \"#utility.yul\":541:564   */\n      sub\n        /* \"#utility.yul\":537:569   */\n      slt\n        /* \"#utility.yul\":534:653   */\n      iszero\n      tag_72\n      jumpi\n        /* \"#utility.yul\":572:651   */\n      tag_73\n      tag_74\n      jump\t// in\n    tag_73:\n        /* \"#utility.yul\":534:653   */\n    tag_72:\n        /* \"#utility.yul\":692:693   */\n      0x00\n        /* \"#utility.yul\":717:770   */\n      tag_75\n        /* \"#utility.yul\":762:769   */\n      dup5\n        /* \"#utility.yul\":753:759   */\n      dup3\n        /* \"#utility.yul\":742:751   */\n      dup6\n        /* \"#utility.yul\":738:760   */\n      add\n        /* \"#utility.yul\":717:770   */\n      tag_59\n      jump\t// in\n    tag_75:\n        /* \"#utility.yul\":707:770   */\n      swap2\n      pop\n        /* \"#utility.yul\":663:780   */\n      pop\n        /* \"#utility.yul\":458:787   */\n      swap3\n      swap2\n      pop\n      pop\n      jump\t// out\n        /* \"#utility.yul\":793:1283   */\n    tag_20:\n        /* \"#utility.yul\":869:875   */\n      0x00\n        /* \"#utility.yul\":877:883   */\n      dup1\n        /* \"#utility.yul\":926:928   */\n      0x40\n        /* \"#utility.yul\":914:923   */\n      dup4\n        /* \"#utility.yul\":905:912   */\n      dup6\n        /* \"#utility.yul\":901:924   */\n      sub\n        /* \"#utility.yul\":897:929   */\n      slt\n        /* \"#utility.yul\":894:1013   */\n      iszero\n      tag_77\n      jumpi\n        /* \"#utility.yul\":932:1011   */\n      tag_78\n      tag_74\n      jump\t// in\n    tag_78:\n        /* \"#utility.yul\":894:1013   */\n    tag_77:\n        /* \"#utility.yul\":1052:1053   */\n      0x00\n        /* \"#utility.yul\":1077:1138   */\n      tag_79\n        /* \"#utility.yul\":1130:1137   */\n      dup6\n        /* \"#utility.yul\":1121:1127   */\n      dup3\n        /* \"#utility.yul\":1110:1119   */\n      dup7\n        /* \"#utility.yul\":1106:1128   */\n      add\n        /* \"#utility.yul\":1077:1138   */\n      tag_63\n      jump\t// in\n    tag_79:\n        /* \"#utility.yul\":1067:1138   */\n      swap3\n      pop\n        /* \"#utility.yul\":1023:1148   */\n      pop\n        /* \"#utility.yul\":1187:1189   */\n      0x20\n        /* \"#utility.yul\":1213:1266   */\n      tag_80\n        /* \"#utility.yul\":1258:1265   */\n      dup6\n        /* \"#utility.yul\":1249:1255   */\n      dup3\n        /* \"#utility.yul\":1238:1247   */\n      dup7\n        /* \"#utility.yul\":1234:1256   */\n      add\n        /* \"#utility.yul\":1213:1266   */\n      tag_67\n      jump\t// in\n    tag_80:\n        /* \"#utility.yul\":1203:1266   */\n      swap2\n      pop\n        /* \"#utility.yul\":1158:1276   */\n      pop\n        /* \"#utility.yul\":793:1283   */\n      swap3\n      pop\n      swap3\n      swap1\n      pop\n      jump\t// out\n        /* \"#utility.yul\":1289:1407   */\n    tag_81:\n        /* \"#utility.yul\":1376:1400   */\n      tag_83\n        /* \"#utility.yul\":1394:1399   */\n      dup2\n        /* \"#utility.yul\":1376:1400   */\n      tag_84\n      jump\t// in\n    tag_83:\n        /* \"#utility.yul\":1371:1374   */\n      dup3\n        /* \"#utility.yul\":1364:1401   */\n      mstore\n        /* \"#utility.yul\":1289:1407   */\n      pop\n      pop\n      jump\t// out\n        /* \"#utility.yul\":1413:1779   */\n    tag_85:\n        /* \"#utility.yul\":1555:1558   */\n      0x00\n        /* \"#utility.yul\":1576:1643   */\n      tag_87\n        /* \"#utility.yul\":1640:1642   */\n      0x26\n        /* \"#utility.yul\":1635:1638   */\n      dup4\n        /* \"#utility.yul\":1576:1643   */\n      tag_88\n      jump\t// in\n    tag_87:\n        /* \"#utility.yul\":1569:1643   */\n      swap2\n      pop\n        /* \"#utility.yul\":1652:1745   */\n      tag_89\n        /* \"#utility.yul\":1741:1744   */\n      dup3\n        /* \"#utility.yul\":1652:1745   */\n      tag_90\n      jump\t// in\n    tag_89:\n        /* \"#utility.yul\":1770:1772   */\n      0x40\n        /* \"#utility.yul\":1765:1768   */\n      dup3\n        /* \"#utility.yul\":1761:1773   */\n      add\n        /* \"#utility.yul\":1754:1773   */\n      swap1\n      pop\n        /* \"#utility.yul\":1413:1779   */\n      swap2\n      swap1\n      pop\n      jump\t// out\n        /* \"#utility.yul\":1785:2151   */\n    tag_91:\n        /* \"#utility.yul\":1927:1930   */\n      0x00\n        /* \"#utility.yul\":1948:2015   */\n      tag_93\n        /* \"#utility.yul\":2012:2014   */\n      0x20\n        /* \"#utility.yul\":2007:2010   */\n      dup4\n        /* \"#utility.yul\":1948:2015   */\n      tag_88\n      jump\t// in\n    tag_93:\n        /* \"#utility.yul\":1941:2015   */\n      swap2\n      pop\n        /* \"#utility.yul\":2024:2117   */\n      tag_94\n        /* \"#utility.yul\":2113:2116   */\n      dup3\n        /* \"#utility.yul\":2024:2117   */\n      tag_95\n      jump\t// in\n    tag_94:\n        /* \"#utility.yul\":2142:2144   */\n      0x20\n        /* \"#utility.yul\":2137:2140   */\n      dup3\n        /* \"#utility.yul\":2133:2145   */\n      add\n        /* \"#utility.yul\":2126:2145   */\n      swap1\n      pop\n        /* \"#utility.yul\":1785:2151   */\n      swap2\n      swap1\n      pop\n      jump\t// out\n        /* \"#utility.yul\":2157:2379   */\n    tag_16:\n        /* \"#utility.yul\":2250:2254   */\n      0x00\n        /* \"#utility.yul\":2288:2290   */\n      0x20\n        /* \"#utility.yul\":2277:2286   */\n      dup3\n        /* \"#utility.yul\":2273:2291   */\n      add\n        /* \"#utility.yul\":2265:2291   */\n      swap1\n      pop\n        /* \"#utility.yul\":2301:2372   */\n      tag_97\n        /* \"#utility.yul\":2369:2370   */\n      0x00\n        /* \"#utility.yul\":2358:2367   */\n      dup4\n        /* \"#utility.yul\":2354:2371   */\n      add\n        /* \"#utility.yul\":2345:2351   */\n      dup5\n        /* \"#utility.yul\":2301:2372   */\n      tag_81\n      jump\t// in\n    tag_97:\n        /* \"#utility.yul\":2157:2379   */\n      swap3\n      swap2\n      pop\n      pop\n      jump\t// out\n        /* \"#utility.yul\":2385:2804   */\n    tag_54:\n        /* \"#utility.yul\":2551:2555   */\n      0x00\n        /* \"#utility.yul\":2589:2591   */\n      0x20\n        /* \"#utility.yul\":2578:2587   */\n      dup3\n        /* \"#utility.yul\":2574:2592   */\n      add\n        /* \"#utility.yul\":2566:2592   */\n      swap1\n      pop\n        /* \"#utility.yul\":2638:2647   */\n      dup2\n        /* \"#utility.yul\":2632:2636   */\n      dup2\n        /* \"#utility.yul\":2628:2648   */\n      sub\n        /* \"#utility.yul\":2624:2625   */\n      0x00\n        /* \"#utility.yul\":2613:2622   */\n      dup4\n        /* \"#utility.yul\":2609:2626   */\n      add\n        /* \"#utility.yul\":2602:2649   */\n      mstore\n        /* \"#utility.yul\":2666:2797   */\n      tag_99\n        /* \"#utility.yul\":2792:2796   */\n      dup2\n        /* \"#utility.yul\":2666:2797   */\n      tag_85\n      jump\t// in\n    tag_99:\n        /* \"#utility.yul\":2658:2797   */\n      swap1\n      pop\n        /* \"#utility.yul\":2385:2804   */\n      swap2\n      swap1\n      pop\n      jump\t// out\n        /* \"#utility.yul\":2810:3229   */\n    tag_33:\n        /* \"#utility.yul\":2976:2980   */\n      0x00\n        /* \"#utility.yul\":3014:3016   */\n      0x20\n        /* \"#utility.yul\":3003:3012   */\n      dup3\n        /* \"#utility.yul\":2999:3017   */\n      add\n        /* \"#utility.yul\":2991:3017   */\n      swap1\n      pop\n        /* \"#utility.yul\":3063:3072   */\n      dup2\n        /* \"#utility.yul\":3057:3061   */\n      dup2\n        /* \"#utility.yul\":3053:3073   */\n      sub\n        /* \"#utility.yul\":3049:3050   */\n      0x00\n        /* \"#utility.yul\":3038:3047   */\n      dup4\n        /* \"#utility.yul\":3034:3051   */\n      add\n        /* \"#utility.yul\":3027:3074   */\n      mstore\n        /* \"#utility.yul\":3091:3222   */\n      tag_101\n        /* \"#utility.yul\":3217:3221   */\n      dup2\n        /* \"#utility.yul\":3091:3222   */\n      tag_91\n      jump\t// in\n    tag_101:\n        /* \"#utility.yul\":3083:3222   */\n      swap1\n      pop\n        /* \"#utility.yul\":2810:3229   */\n      swap2\n      swap1\n      pop\n      jump\t// out\n        /* \"#utility.yul\":3316:3485   */\n    tag_88:\n        /* \"#utility.yul\":3400:3411   */\n      0x00\n        /* \"#utility.yul\":3434:3440   */\n      dup3\n        /* \"#utility.yul\":3429:3432   */\n      dup3\n        /* \"#utility.yul\":3422:3441   */\n      mstore\n        /* \"#utility.yul\":3474:3478   */\n      0x20\n        /* \"#utility.yul\":3469:3472   */\n      dup3\n        /* \"#utility.yul\":3465:3479   */\n      add\n        /* \"#utility.yul\":3450:3479   */\n      swap1\n      pop\n        /* \"#utility.yul\":3316:3485   */\n      swap3\n      swap2\n      pop\n      pop\n      jump\t// out\n        /* \"#utility.yul\":3491:3587   */\n    tag_84:\n        /* \"#utility.yul\":3528:3535   */\n      0x00\n        /* \"#utility.yul\":3557:3581   */\n      tag_106\n        /* \"#utility.yul\":3575:3580   */\n      dup3\n        /* \"#utility.yul\":3557:3581   */\n      tag_107\n      jump\t// in\n    tag_106:\n        /* \"#utility.yul\":3546:3581   */\n      swap1\n      pop\n        /* \"#utility.yul\":3491:3587   */\n      swap2\n      swap1\n      pop\n      jump\t// out\n        /* \"#utility.yul\":3593:3697   */\n    tag_108:\n        /* \"#utility.yul\":3638:3645   */\n      0x00\n        /* \"#utility.yul\":3667:3691   */\n      tag_110\n        /* \"#utility.yul\":3685:3690   */\n      dup3\n        /* \"#utility.yul\":3667:3691   */\n      tag_107\n      jump\t// in\n    tag_110:\n        /* \"#utility.yul\":3656:3691   */\n      swap1\n      pop\n        /* \"#utility.yul\":3593:3697   */\n      swap2\n      swap1\n      pop\n      jump\t// out\n        /* \"#utility.yul\":3703:3829   */\n    tag_107:\n        /* \"#utility.yul\":3740:3747   */\n      0x00\n        /* \"#utility.yul\":3780:3822   */\n      0xffffffffffffffffffffffffffffffffffffffff\n        /* \"#utility.yul\":3773:3778   */\n      dup3\n        /* \"#utility.yul\":3769:3823   */\n      and\n        /* \"#utility.yul\":3758:3823   */\n      swap1\n      pop\n        /* \"#utility.yul\":3703:3829   */\n      swap2\n      swap1\n      pop\n      jump\t// out\n        /* \"#utility.yul\":3835:3912   */\n    tag_112:\n        /* \"#utility.yul\":3872:3879   */\n      0x00\n        /* \"#utility.yul\":3901:3906   */\n      dup2\n        /* \"#utility.yul\":3890:3906   */\n      swap1\n      pop\n        /* \"#utility.yul\":3835:3912   */\n      swap2\n      swap1\n      pop\n      jump\t// out\n        /* \"#utility.yul\":4041:4158   */\n    tag_74:\n        /* \"#utility.yul\":4150:4151   */\n      0x00\n        /* \"#utility.yul\":4147:4148   */\n      dup1\n        /* \"#utility.yul\":4140:4152   */\n      revert\n        /* \"#utility.yul\":4164:4389   */\n    tag_90:\n        /* \"#utility.yul\":4304:4338   */\n      0x4f776e61626c653a206e6577206f776e657220697320746865207a65726f2061\n        /* \"#utility.yul\":4300:4301   */\n      0x00\n        /* \"#utility.yul\":4292:4298   */\n      dup3\n        /* \"#utility.yul\":4288:4302   */\n      add\n        /* \"#utility.yul\":4281:4339   */\n      mstore\n        /* \"#utility.yul\":4373:4381   */\n      0x6464726573730000000000000000000000000000000000000000000000000000\n        /* \"#utility.yul\":4368:4370   */\n      0x20\n        /* \"#utility.yul\":4360:4366   */\n      dup3\n        /* \"#utility.yul\":4356:4371   */\n      add\n        /* \"#utility.yul\":4349:4382   */\n      mstore\n        /* \"#utility.yul\":4164:4389   */\n      pop\n      jump\t// out\n        /* \"#utility.yul\":4395:4577   */\n    tag_95:\n        /* \"#utility.yul\":4535:4569   */\n      0x4f776e61626c653a2063616c6c6572206973206e6f7420746865206f776e6572\n        /* \"#utility.yul\":4531:4532   */\n      0x00\n        /* \"#utility.yul\":4523:4529   */\n      dup3\n        /* \"#utility.yul\":4519:4533   */\n      add\n        /* \"#utility.yul\":4512:4570   */\n      mstore\n        /* \"#utility.yul\":4395:4577   */\n      pop\n      jump\t// out\n        /* \"#utility.yul\":4583:4705   */\n    tag_62:\n        /* \"#utility.yul\":4656:4680   */\n      tag_120\n        /* \"#utility.yul\":4674:4679   */\n      dup2\n        /* \"#utility.yul\":4656:4680   */\n      tag_84\n      jump\t// in\n    tag_120:\n        /* \"#utility.yul\":4649:4654   */\n      dup2\n        /* \"#utility.yul\":4646:4681   */\n      eq\n        /* \"#utility.yul\":4636:4699   */\n      tag_121\n      jumpi\n        /* \"#utility.yul\":4695:4696   */\n      0x00\n        /* \"#utility.yul\":4692:4693   */\n      dup1\n        /* \"#utility.yul\":4685:4697   */\n      revert\n        /* \"#utility.yul\":4636:4699   */\n    tag_121:\n        /* \"#utility.yul\":4583:4705   */\n      pop\n      jump\t// out\n        /* \"#utility.yul\":4711:4849   */\n    tag_66:\n        /* \"#utility.yul\":4792:4824   */\n      tag_123\n        /* \"#utility.yul\":4818:4823   */\n      dup2\n        /* \"#utility.yul\":4792:4824   */\n      tag_108\n      jump\t// in\n    tag_123:\n        /* \"#utility.yul\":4785:4790   */\n      dup2\n        /* \"#utility.yul\":4782:4825   */\n      eq\n        /* \"#utility.yul\":4772:4843   */\n      tag_124\n      jumpi\n        /* \"#utility.yul\":4839:4840   */\n      0x00\n        /* \"#utility.yul\":4836:4837   */\n      dup1\n        /* \"#utility.yul\":4829:4841   */\n      revert\n        /* \"#utility.yul\":4772:4843   */\n    tag_124:\n        /* \"#utility.yul\":4711:4849   */\n      pop\n      jump\t// out\n        /* \"#utility.yul\":4855:4977   */\n    tag_70:\n        /* \"#utility.yul\":4928:4952   */\n      tag_126\n        /* \"#utility.yul\":4946:4951   */\n      dup2\n        /* \"#utility.yul\":4928:4952   */\n      tag_112\n      jump\t// in\n    tag_126:\n        /* \"#utility.yul\":4921:4926   */\n      dup2\n        /* \"#utility.yul\":4918:4953   */\n      eq\n        /* \"#utility.yul\":4908:4971   */\n      tag_127\n      jumpi\n        /* \"#utility.yul\":4967:4968   */\n      0x00\n        /* \"#utility.yul\":4964:4965   */\n      dup1\n        /* \"#utility.yul\":4957:4969   */\n      revert\n        /* \"#utility.yul\":4908:4971   */\n    tag_127:\n        /* \"#utility.yul\":4855:4977   */\n      pop\n      jump\t// out\n\n    auxdata: 0xa2646970667358221220334175539ae8c5d6abe1425f1c1fe4d9bc0df3b839eb71d48f9e60e02c42cbb064736f6c63430008070033\n}\n",
				"bytecode": {
					"linkReferences": {},
					"object": "608060405234801561001057600080fd5b5061002d61002261003260201b60201c565b61003a60201b60201c565b6100fe565b600033905090565b60008060009054906101000a900473ffffffffffffffffffffffffffffffffffffffff169050816000806101000a81548173ffffffffffffffffffffffffffffffffffffffff021916908373ffffffffffffffffffffffffffffffffffffffff1602179055508173ffffffffffffffffffffffffffffffffffffffff168173ffffffffffffffffffffffffffffffffffffffff167f8be0079c531659141344cd1fd0a4f28419497f9722a3daafe3b4186f6b6457e060405160405180910390a35050565b6106c98061010d6000396000f3fe6080604052600436106100435760003560e01c8063715018a6146100465780638da5cb5b1461005d578063b39d7b7c14610088578063f2fde38b146100b157610044565b5b005b34801561005257600080fd5b5061005b6100da565b005b34801561006957600080fd5b50610072610162565b60405161007f9190610517565b60405180910390f35b34801561009457600080fd5b506100af60048036038101906100aa9190610482565b61018b565b005b3480156100bd57600080fd5b506100d860048036038101906100d39190610455565b610252565b005b6100e261034a565b73ffffffffffffffffffffffffffffffffffffffff16610100610162565b73ffffffffffffffffffffffffffffffffffffffff1614610156576040517f08c379a000000000000000000000000000000000000000000000000000000000815260040161014d90610552565b60405180910390fd5b6101606000610352565b565b60008060009054906101000a900473ffffffffffffffffffffffffffffffffffffffff16905090565b61019361034a565b73ffffffffffffffffffffffffffffffffffffffff166101b1610162565b73ffffffffffffffffffffffffffffffffffffffff1614610207576040517f08c379a00000000000000000000000000000000000000000000000000000000081526004016101fe90610552565b60405180910390fd5b8173ffffffffffffffffffffffffffffffffffffffff166108fc829081150290604051600060405180830381858888f1935050505015801561024d573d6000803e3d6000fd5b505050565b61025a61034a565b73ffffffffffffffffffffffffffffffffffffffff16610278610162565b73ffffffffffffffffffffffffffffffffffffffff16146102ce576040517f08c379a00000000000000000000000000000000000000000000000000000000081526004016102c590610552565b60405180910390fd5b600073ffffffffffffffffffffffffffffffffffffffff168173ffffffffffffffffffffffffffffffffffffffff16141561033e576040517f08c379a000000000000000000000000000000000000000000000000000000000815260040161033590610532565b60405180910390fd5b61034781610352565b50565b600033905090565b60008060009054906101000a900473ffffffffffffffffffffffffffffffffffffffff169050816000806101000a81548173ffffffffffffffffffffffffffffffffffffffff021916908373ffffffffffffffffffffffffffffffffffffffff1602179055508173ffffffffffffffffffffffffffffffffffffffff168173ffffffffffffffffffffffffffffffffffffffff167f8be0079c531659141344cd1fd0a4f28419497f9722a3daafe3b4186f6b6457e060405160405180910390a35050565b6000813590506104258161064e565b92915050565b60008135905061043a81610665565b92915050565b60008135905061044f8161067c565b92915050565b60006020828403121561046b5761046a6105d1565b5b600061047984828501610416565b91505092915050565b60008060408385031215610499576104986105d1565b5b60006104a78582860161042b565b92505060206104b885828601610440565b9150509250929050565b6104cb81610583565b82525050565b60006104de602683610572565b91506104e9826105d6565b604082019050919050565b6000610501602083610572565b915061050c82610625565b602082019050919050565b600060208201905061052c60008301846104c2565b92915050565b6000602082019050818103600083015261054b816104d1565b9050919050565b6000602082019050818103600083015261056b816104f4565b9050919050565b600082825260208201905092915050565b600061058e826105a7565b9050919050565b60006105a0826105a7565b9050919050565b600073ffffffffffffffffffffffffffffffffffffffff82169050919050565b6000819050919050565b600080fd5b7f4f776e61626c653a206e6577206f776e657220697320746865207a65726f206160008201527f6464726573730000000000000000000000000000000000000000000000000000602082015250565b7f4f776e61626c653a2063616c6c6572206973206e6f7420746865206f776e6572600082015250565b61065781610583565b811461066257600080fd5b50565b61066e81610595565b811461067957600080fd5b50565b610685816105c7565b811461069057600080fd5b5056fea2646970667358221220334175539ae8c5d6abe1425f1c1fe4d9bc0df3b839eb71d48f9e60e02c42cbb064736f6c63430008070033",
					"opcodes": "PUSH1 0x80 PUSH1 0x40 MSTORE CALLVALUE DUP1 ISZERO PUSH2 0x10 JUMPI PUSH1 0x0 DUP1 REVERT JUMPDEST POP PUSH2 0x2D PUSH2 0x22 PUSH2 0x32 PUSH1 0x20 SHL PUSH1 0x20 SHR JUMP JUMPDEST PUSH2 0x3A PUSH1 0x20 SHL PUSH1 0x20 SHR JUMP JUMPDEST PUSH2 0xFE JUMP JUMPDEST PUSH1 0x0 CALLER SWAP1 POP SWAP1 JUMP JUMPDEST PUSH1 0x0 DUP1 PUSH1 0x0 SWAP1 SLOAD SWAP1 PUSH2 0x100 EXP SWAP1 DIV PUSH20 0xFFFFFFFFFFFFFFFFFFFFFFFFFFFFFFFFFFFFFFFF AND SWAP1 POP DUP2 PUSH1 0x0 DUP1 PUSH2 0x100 EXP DUP2 SLOAD DUP2 PUSH20 0xFFFFFFFFFFFFFFFFFFFFFFFFFFFFFFFFFFFFFFFF MUL NOT AND SWAP1 DUP4 PUSH20 0xFFFFFFFFFFFFFFFFFFFFFFFFFFFFFFFFFFFFFFFF AND MUL OR SWAP1 SSTORE POP DUP2 PUSH20 0xFFFFFFFFFFFFFFFFFFFFFFFFFFFFFFFFFFFFFFFF AND DUP2 PUSH20 0xFFFFFFFFFFFFFFFFFFFFFFFFFFFFFFFFFFFFFFFF AND PUSH32 0x8BE0079C531659141344CD1FD0A4F28419497F9722A3DAAFE3B4186F6B6457E0 PUSH1 0x40 MLOAD PUSH1 0x40 MLOAD DUP1 SWAP2 SUB SWAP1 LOG3 POP POP JUMP JUMPDEST PUSH2 0x6C9 DUP1 PUSH2 0x10D PUSH1 0x0 CODECOPY PUSH1 0x0 RETURN INVALID PUSH1 0x80 PUSH1 0x40 MSTORE PUSH1 0x4 CALLDATASIZE LT PUSH2 0x43 JUMPI PUSH1 0x0 CALLDATALOAD PUSH1 0xE0 SHR DUP1 PUSH4 0x715018A6 EQ PUSH2 0x46 JUMPI DUP1 PUSH4 0x8DA5CB5B EQ PUSH2 0x5D JUMPI DUP1 PUSH4 0xB39D7B7C EQ PUSH2 0x88 JUMPI DUP1 PUSH4 0xF2FDE38B EQ PUSH2 0xB1 JUMPI PUSH2 0x44 JUMP JUMPDEST JUMPDEST STOP JUMPDEST CALLVALUE DUP1 ISZERO PUSH2 0x52 JUMPI PUSH1 0x0 DUP1 REVERT JUMPDEST POP PUSH2 0x5B PUSH2 0xDA JUMP JUMPDEST STOP JUMPDEST CALLVALUE DUP1 ISZERO PUSH2 0x69 JUMPI PUSH1 0x0 DUP1 REVERT JUMPDEST POP PUSH2 0x72 PUSH2 0x162 JUMP JUMPDEST PUSH1 0x40 MLOAD PUSH2 0x7F SWAP2 SWAP1 PUSH2 0x517 JUMP JUMPDEST PUSH1 0x40 MLOAD DUP1 SWAP2 SUB SWAP1 RETURN JUMPDEST CALLVALUE DUP1 ISZERO PUSH2 0x94 JUMPI PUSH1 0x0 DUP1 REVERT JUMPDEST POP PUSH2 0xAF PUSH1 0x4 DUP1 CALLDATASIZE SUB DUP2 ADD SWAP1 PUSH2 0xAA SWAP2 SWAP1 PUSH2 0x482 JUMP JUMPDEST PUSH2 0x18B JUMP JUMPDEST STOP JUMPDEST CALLVALUE DUP1 ISZERO PUSH2 0xBD JUMPI PUSH1 0x0 DUP1 REVERT JUMPDEST POP PUSH2 0xD8 PUSH1 0x4 DUP1 CALLDATASIZE SUB DUP2 ADD SWAP1 PUSH2 0xD3 SWAP2 SWAP1 PUSH2 0x455 JUMP JUMPDEST PUSH2 0x252 JUMP JUMPDEST STOP JUMPDEST PUSH2 0xE2 PUSH2 0x34A JUMP JUMPDEST PUSH20 0xFFFFFFFFFFFFFFFFFFFFFFFFFFFFFFFFFFFFFFFF AND PUSH2 0x100 PUSH2 0x162 JUMP JUMPDEST PUSH20 0xFFFFFFFFFFFFFFFFFFFFFFFFFFFFFFFFFFFFFFFF AND EQ PUSH2 0x156 JUMPI PUSH1 0x40 MLOAD PUSH32 0x8C379A000000000000000000000000000000000000000000000000000000000 DUP2 MSTORE PUSH1 0x4 ADD PUSH2 0x14D SWAP1 PUSH2 0x552 JUMP JUMPDEST PUSH1 0x40 MLOAD DUP1 SWAP2 SUB SWAP1 REVERT JUMPDEST PUSH2 0x160 PUSH1 0x0 PUSH2 0x352 JUMP JUMPDEST JUMP JUMPDEST PUSH1 0x0 DUP1 PUSH1 0x0 SWAP1 SLOAD SWAP1 PUSH2 0x100 EXP SWAP1 DIV PUSH20 0xFFFFFFFFFFFFFFFFFFFFFFFFFFFFFFFFFFFFFFFF AND SWAP1 POP SWAP1 JUMP JUMPDEST PUSH2 0x193 PUSH2 0x34A JUMP JUMPDEST PUSH20 0xFFFFFFFFFFFFFFFFFFFFFFFFFFFFFFFFFFFFFFFF AND PUSH2 0x1B1 PUSH2 0x162 JUMP JUMPDEST PUSH20 0xFFFFFFFFFFFFFFFFFFFFFFFFFFFFFFFFFFFFFFFF AND EQ PUSH2 0x207 JUMPI PUSH1 0x40 MLOAD PUSH32 0x8C379A000000000000000000000000000000000000000000000000000000000 DUP2 MSTORE PUSH1 0x4 ADD PUSH2 0x1FE SWAP1 PUSH2 0x552 JUMP JUMPDEST PUSH1 0x40 MLOAD DUP1 SWAP2 SUB SWAP1 REVERT JUMPDEST DUP2 PUSH20 0xFFFFFFFFFFFFFFFFFFFFFFFFFFFFFFFFFFFFFFFF AND PUSH2 0x8FC DUP3 SWAP1 DUP2 ISZERO MUL SWAP1 PUSH1 0x40 MLOAD PUSH1 0x0 PUSH1 0x40 MLOAD DUP1 DUP4 SUB DUP2 DUP6 DUP9 DUP9 CALL SWAP4 POP POP POP POP ISZERO DUP1 ISZERO PUSH2 0x24D JUMPI RETURNDATASIZE PUSH1 0x0 DUP1 RETURNDATACOPY RETURNDATASIZE PUSH1 0x0 REVERT JUMPDEST POP POP POP JUMP JUMPDEST PUSH2 0x25A PUSH2 0x34A JUMP JUMPDEST PUSH20 0xFFFFFFFFFFFFFFFFFFFFFFFFFFFFFFFFFFFFFFFF AND PUSH2 0x278 PUSH2 0x162 JUMP JUMPDEST PUSH20 0xFFFFFFFFFFFFFFFFFFFFFFFFFFFFFFFFFFFFFFFF AND EQ PUSH2 0x2CE JUMPI PUSH1 0x40 MLOAD PUSH32 0x8C379A000000000000000000000000000000000000000000000000000000000 DUP2 MSTORE PUSH1 0x4 ADD PUSH2 0x2C5 SWAP1 PUSH2 0x552 JUMP JUMPDEST PUSH1 0x40 MLOAD DUP1 SWAP2 SUB SWAP1 REVERT JUMPDEST PUSH1 0x0 PUSH20 0xFFFFFFFFFFFFFFFFFFFFFFFFFFFFFFFFFFFFFFFF AND DUP2 PUSH20 0xFFFFFFFFFFFFFFFFFFFFFFFFFFFFFFFFFFFFFFFF AND EQ ISZERO PUSH2 0x33E JUMPI PUSH1 0x40 MLOAD PUSH32 0x8C379A000000000000000000000000000000000000000000000000000000000 DUP2 MSTORE PUSH1 0x4 ADD PUSH2 0x335 SWAP1 PUSH2 0x532 JUMP JUMPDEST PUSH1 0x40 MLOAD DUP1 SWAP2 SUB SWAP1 REVERT JUMPDEST PUSH2 0x347 DUP2 PUSH2 0x352 JUMP JUMPDEST POP JUMP JUMPDEST PUSH1 0x0 CALLER SWAP1 POP SWAP1 JUMP JUMPDEST PUSH1 0x0 DUP1 PUSH1 0x0 SWAP1 SLOAD SWAP1 PUSH2 0x100 EXP SWAP1 DIV PUSH20 0xFFFFFFFFFFFFFFFFFFFFFFFFFFFFFFFFFFFFFFFF AND SWAP1 POP DUP2 PUSH1 0x0 DUP1 PUSH2 0x100 EXP DUP2 SLOAD DUP2 PUSH20 0xFFFFFFFFFFFFFFFFFFFFFFFFFFFFFFFFFFFFFFFF MUL NOT AND SWAP1 DUP4 PUSH20 0xFFFFFFFFFFFFFFFFFFFFFFFFFFFFFFFFFFFFFFFF AND MUL OR SWAP1 SSTORE POP DUP2 PUSH20 0xFFFFFFFFFFFFFFFFFFFFFFFFFFFFFFFFFFFFFFFF AND DUP2 PUSH20 0xFFFFFFFFFFFFFFFFFFFFFFFFFFFFFFFFFFFFFFFF AND PUSH32 0x8BE0079C531659141344CD1FD0A4F28419497F9722A3DAAFE3B4186F6B6457E0 PUSH1 0x40 MLOAD PUSH1 0x40 MLOAD DUP1 SWAP2 SUB SWAP1 LOG3 POP POP JUMP JUMPDEST PUSH1 0x0 DUP2 CALLDATALOAD SWAP1 POP PUSH2 0x425 DUP2 PUSH2 0x64E JUMP JUMPDEST SWAP3 SWAP2 POP POP JUMP JUMPDEST PUSH1 0x0 DUP2 CALLDATALOAD SWAP1 POP PUSH2 0x43A DUP2 PUSH2 0x665 JUMP JUMPDEST SWAP3 SWAP2 POP POP JUMP JUMPDEST PUSH1 0x0 DUP2 CALLDATALOAD SWAP1 POP PUSH2 0x44F DUP2 PUSH2 0x67C JUMP JUMPDEST SWAP3 SWAP2 POP POP JUMP JUMPDEST PUSH1 0x0 PUSH1 0x20 DUP3 DUP5 SUB SLT ISZERO PUSH2 0x46B JUMPI PUSH2 0x46A PUSH2 0x5D1 JUMP JUMPDEST JUMPDEST PUSH1 0x0 PUSH2 0x479 DUP5 DUP3 DUP6 ADD PUSH2 0x416 JUMP JUMPDEST SWAP2 POP POP SWAP3 SWAP2 POP POP JUMP JUMPDEST PUSH1 0x0 DUP1 PUSH1 0x40 DUP4 DUP6 SUB SLT ISZERO PUSH2 0x499 JUMPI PUSH2 0x498 PUSH2 0x5D1 JUMP JUMPDEST JUMPDEST PUSH1 0x0 PUSH2 0x4A7 DUP6 DUP3 DUP7 ADD PUSH2 0x42B JUMP JUMPDEST SWAP3 POP POP PUSH1 0x20 PUSH2 0x4B8 DUP6 DUP3 DUP7 ADD PUSH2 0x440 JUMP JUMPDEST SWAP2 POP POP SWAP3 POP SWAP3 SWAP1 POP JUMP JUMPDEST PUSH2 0x4CB DUP2 PUSH2 0x583 JUMP JUMPDEST DUP3 MSTORE POP POP JUMP JUMPDEST PUSH1 0x0 PUSH2 0x4DE PUSH1 0x26 DUP4 PUSH2 0x572 JUMP JUMPDEST SWAP2 POP PUSH2 0x4E9 DUP3 PUSH2 0x5D6 JUMP JUMPDEST PUSH1 0x40 DUP3 ADD SWAP1 POP SWAP2 SWAP1 POP JUMP JUMPDEST PUSH1 0x0 PUSH2 0x501 PUSH1 0x20 DUP4 PUSH2 0x572 JUMP JUMPDEST SWAP2 POP PUSH2 0x50C DUP3 PUSH2 0x625 JUMP JUMPDEST PUSH1 0x20 DUP3 ADD SWAP1 POP SWAP2 SWAP1 POP JUMP JUMPDEST PUSH1 0x0 PUSH1 0x20 DUP3 ADD SWAP1 POP PUSH2 0x52C PUSH1 0x0 DUP4 ADD DUP5 PUSH2 0x4C2 JUMP JUMPDEST SWAP3 SWAP2 POP POP JUMP JUMPDEST PUSH1 0x0 PUSH1 0x20 DUP3 ADD SWAP1 POP DUP2 DUP2 SUB PUSH1 0x0 DUP4 ADD MSTORE PUSH2 0x54B DUP2 PUSH2 0x4D1 JUMP JUMPDEST SWAP1 POP SWAP2 SWAP1 POP JUMP JUMPDEST PUSH1 0x0 PUSH1 0x20 DUP3 ADD SWAP1 POP DUP2 DUP2 SUB PUSH1 0x0 DUP4 ADD MSTORE PUSH2 0x56B DUP2 PUSH2 0x4F4 JUMP JUMPDEST SWAP1 POP SWAP2 SWAP1 POP JUMP JUMPDEST PUSH1 0x0 DUP3 DUP3 MSTORE PUSH1 0x20 DUP3 ADD SWAP1 POP SWAP3 SWAP2 POP POP JUMP JUMPDEST PUSH1 0x0 PUSH2 0x58E DUP3 PUSH2 0x5A7 JUMP JUMPDEST SWAP1 POP SWAP2 SWAP1 POP JUMP JUMPDEST PUSH1 0x0 PUSH2 0x5A0 DUP3 PUSH2 0x5A7 JUMP JUMPDEST SWAP1 POP SWAP2 SWAP1 POP JUMP JUMPDEST PUSH1 0x0 PUSH20 0xFFFFFFFFFFFFFFFFFFFFFFFFFFFFFFFFFFFFFFFF DUP3 AND SWAP1 POP SWAP2 SWAP1 POP JUMP JUMPDEST PUSH1 0x0 DUP2 SWAP1 POP SWAP2 SWAP1 POP JUMP JUMPDEST PUSH1 0x0 DUP1 REVERT JUMPDEST PUSH32 0x4F776E61626C653A206E6577206F776E657220697320746865207A65726F2061 PUSH1 0x0 DUP3 ADD MSTORE PUSH32 0x6464726573730000000000000000000000000000000000000000000000000000 PUSH1 0x20 DUP3 ADD MSTORE POP JUMP JUMPDEST PUSH32 0x4F776E61626C653A2063616C6C6572206973206E6F7420746865206F776E6572 PUSH1 0x0 DUP3 ADD MSTORE POP JUMP JUMPDEST PUSH2 0x657 DUP2 PUSH2 0x583 JUMP JUMPDEST DUP2 EQ PUSH2 0x662 JUMPI PUSH1 0x0 DUP1 REVERT JUMPDEST POP JUMP JUMPDEST PUSH2 0x66E DUP2 PUSH2 0x595 JUMP JUMPDEST DUP2 EQ PUSH2 0x679 JUMPI PUSH1 0x0 DUP1 REVERT JUMPDEST POP JUMP JUMPDEST PUSH2 0x685 DUP2 PUSH2 0x5C7 JUMP JUMPDEST DUP2 EQ PUSH2 0x690 JUMPI PUSH1 0x0 DUP1 REVERT JUMPDEST POP JUMP INVALID LOG2 PUSH5 0x6970667358 0x22 SLT KECCAK256 CALLER COINBASE PUSH22 0x539AE8C5D6ABE1425F1C1FE4D9BC0DF3B839EB71D48F SWAP15 PUSH1 0xE0 0x2C TIMESTAMP 0xCB 0xB0 PUSH5 0x736F6C6343 STOP ADDMOD SMOD STOP CALLER "
				},
				"gasEstimates": {
					"creation": {
						"codeDepositCost": "347400",
						"executionCost": "infinite",
						"totalCost": "infinite"
					},
					"external": {
						"": "151",
						"owner()": "2522",
						"renounceOwnership()": "30352",
						"transferOwnership(address)": "30767",
						"withDrawMoney(address,uint256)": "infinite"
					}
				},
				"methodIdentifiers": {
					"owner()": "8da5cb5b",
					"renounceOwnership()": "715018a6",
					"transferOwnership(address)": "f2fde38b",
					"withDrawMoney(address,uint256)": "b39d7b7c"
				}
			},
			"storageLayout": {
				"storage": [
					{
						"astId": 55,
						"contract": "contracts/SimpleWallet.sol:SimpleWallet",
						"label": "_owner",
						"offset": 0,
						"slot": "0",
						"type": "t_address"
					}
				],
				"types": {
					"t_address": {
						"encoding": "inplace",
						"label": "address",
						"numberOfBytes": "20"
					}
				}
			},
			"userdoc": {
				"kind": "user",
				"methods": {},
				"version": 1
			}
		}
	}
}