{
	"contracts/SimpleWallet.sol": {
		"SimpleWallet": {
			"abi": [
				{
					"anonymous": false,
					"inputs": [
						{
							"indexed": true,
							"internalType": "address",
							"name": "previousOwner",
							"type": "address"
						},
						{
							"indexed": true,
							"internalType": "address",
							"name": "newOwner",
							"type": "address"
						}
					],
					"name": "OwnershipTransferred",
					"type": "event"
				},
				{
					"stateMutability": "payable",
					"type": "fallback"
				},
				{
					"inputs": [
						{
							"internalType": "address",
							"name": "_who",
							"type": "address"
						},
						{
							"internalType": "uint256",
							"name": "_amount",
							"type": "uint256"
						}
					],
					"name": "addAllowance",
					"outputs": [],
					"stateMutability": "nonpayable",
					"type": "function"
				},
				{
					"inputs": [
						{
							"internalType": "address",
							"name": "",
							"type": "address"
						}
					],
					"name": "allowance",
					"outputs": [
						{
							"internalType": "uint256",
							"name": "",
							"type": "uint256"
						}
					],
					"stateMutability": "view",
					"type": "function"
				},
				{
					"inputs": [],
					"name": "owner",
					"outputs": [
						{
							"internalType": "address",
							"name": "",
							"type": "address"
						}
					],
					"stateMutability": "view",
					"type": "function"
				},
				{
					"inputs": [],
					"name": "renounceOwnership",
					"outputs": [],
					"stateMutability": "nonpayable",
					"type": "function"
				},
				{
					"inputs": [
						{
							"internalType": "address",
							"name": "newOwner",
							"type": "address"
						}
					],
					"name": "transferOwnership",
					"outputs": [],
					"stateMutability": "nonpayable",
					"type": "function"
				},
				{
					"inputs": [
						{
							"internalType": "address payable",
							"name": "_to",
							"type": "address"
						},
						{
							"internalType": "uint256",
							"name": "_amount",
							"type": "uint256"
						}
					],
					"name": "withDrawMoney",
					"outputs": [],
					"stateMutability": "nonpayable",
					"type": "function"
				}
			],
			"devdoc": {
				"kind": "dev",
				"methods": {
					"owner()": {
						"details": "Returns the address of the current owner."
					},
					"renounceOwnership()": {
						"details": "Leaves the contract without owner. It will not be possible to call `onlyOwner` functions anymore. Can only be called by the current owner. NOTE: Renouncing ownership will leave the contract without an owner, thereby removing any functionality that is only available to the owner."
					},
					"transferOwnership(address)": {
						"details": "Transfers ownership of the contract to a new account (`newOwner`). Can only be called by the current owner."
					}
				},
				"version": 1
			},
			"evm": {
				"assembly": "    /* \"contracts/SimpleWallet.sol\":56:480  contract SimpleWallet is Ownable{\r... */\n  mstore(0x40, 0x80)\n  callvalue\n  dup1\n  iszero\n  tag_1\n  jumpi\n  0x00\n  dup1\n  revert\ntag_1:\n  pop\n    /* \"contracts/utils/Ownable.sol\":942:974  _transferOwnership(_msgSender()) */\n  tag_4\n    /* \"contracts/utils/Ownable.sol\":961:973  _msgSender() */\n  tag_5\n    /* \"contracts/utils/Ownable.sol\":961:971  _msgSender */\n  shl(0x20, tag_6)\n    /* \"contracts/utils/Ownable.sol\":961:973  _msgSender() */\n  0x20\n  shr\n  jump\t// in\ntag_5:\n    /* \"contracts/utils/Ownable.sol\":942:960  _transferOwnership */\n  shl(0x20, tag_7)\n    /* \"contracts/utils/Ownable.sol\":942:974  _transferOwnership(_msgSender()) */\n  0x20\n  shr\n  jump\t// in\ntag_4:\n    /* \"contracts/SimpleWallet.sol\":56:480  contract SimpleWallet is Ownable{\r... */\n  jump(tag_8)\n    /* \"contracts/utils/Context.sol\":656:754  function _msgSender() internal view virtual returns (address) {\r... */\ntag_6:\n    /* \"contracts/utils/Context.sol\":709:716  address */\n  0x00\n    /* \"contracts/utils/Context.sol\":736:746  msg.sender */\n  caller\n    /* \"contracts/utils/Context.sol\":729:746  return msg.sender */\n  swap1\n  pop\n    /* \"contracts/utils/Context.sol\":656:754  function _msgSender() internal view virtual returns (address) {\r... */\n  swap1\n  jump\t// out\n    /* \"contracts/utils/Ownable.sol\":2333:2524  function _transferOwnership(address newOwner) internal virtual {\r... */\ntag_7:\n    /* \"contracts/utils/Ownable.sol\":2407:2423  address oldOwner */\n  0x00\n    /* \"contracts/utils/Ownable.sol\":2426:2432  _owner */\n  dup1\n  0x00\n  swap1\n  sload\n  swap1\n  0x0100\n  exp\n  swap1\n  div\n  0xffffffffffffffffffffffffffffffffffffffff\n  and\n    /* \"contracts/utils/Ownable.sol\":2407:2432  address oldOwner = _owner */\n  swap1\n  pop\n    /* \"contracts/utils/Ownable.sol\":2452:2460  newOwner */\n  dup2\n    /* \"contracts/utils/Ownable.sol\":2443:2449  _owner */\n  0x00\n  dup1\n    /* \"contracts/utils/Ownable.sol\":2443:2460  _owner = newOwner */\n  0x0100\n  exp\n  dup2\n  sload\n  dup2\n  0xffffffffffffffffffffffffffffffffffffffff\n  mul\n  not\n  and\n  swap1\n  dup4\n  0xffffffffffffffffffffffffffffffffffffffff\n  and\n  mul\n  or\n  swap1\n  sstore\n  pop\n    /* \"contracts/utils/Ownable.sol\":2507:2515  newOwner */\n  dup2\n    /* \"contracts/utils/Ownable.sol\":2476:2516  OwnershipTransferred(oldOwner, newOwner) */\n  0xffffffffffffffffffffffffffffffffffffffff\n  and\n    /* \"contracts/utils/Ownable.sol\":2497:2505  oldOwner */\n  dup2\n    /* \"contracts/utils/Ownable.sol\":2476:2516  OwnershipTransferred(oldOwner, newOwner) */\n  0xffffffffffffffffffffffffffffffffffffffff\n  and\n  0x8be0079c531659141344cd1fd0a4f28419497f9722a3daafe3b4186f6b6457e0\n  mload(0x40)\n  mload(0x40)\n  dup1\n  swap2\n  sub\n  swap1\n  log3\n    /* \"contracts/utils/Ownable.sol\":2396:2524  {\r... */\n  pop\n    /* \"contracts/utils/Ownable.sol\":2333:2524  function _transferOwnership(address newOwner) internal virtual {\r... */\n  pop\n  jump\t// out\n    /* \"contracts/SimpleWallet.sol\":56:480  contract SimpleWallet is Ownable{\r... */\ntag_8:\n  dataSize(sub_0)\n  dup1\n  dataOffset(sub_0)\n  0x00\n  codecopy\n  0x00\n  return\nstop\n\nsub_0: assembly {\n        /* \"contracts/SimpleWallet.sol\":56:480  contract SimpleWallet is Ownable{\r... */\n      mstore(0x40, 0x80)\n      jumpi(tag_1, lt(calldatasize, 0x04))\n      shr(0xe0, calldataload(0x00))\n      dup1\n      0x3e5beab9\n      eq\n      tag_3\n      jumpi\n      dup1\n      0x715018a6\n      eq\n      tag_4\n      jumpi\n      dup1\n      0x8da5cb5b\n      eq\n      tag_5\n      jumpi\n      dup1\n      0xb39d7b7c\n      eq\n      tag_6\n      jumpi\n      dup1\n      0xf2fde38b\n      eq\n      tag_7\n      jumpi\n      dup1\n      0xf3c40c4b\n      eq\n      tag_8\n      jumpi\n      jump(tag_2)\n    tag_1:\n    tag_2:\n      stop\n        /* \"contracts/SimpleWallet.sol\":97:136  mapping(address=>uint) public allowance */\n    tag_3:\n      callvalue\n      dup1\n      iszero\n      tag_11\n      jumpi\n      0x00\n      dup1\n      revert\n    tag_11:\n      pop\n      tag_12\n      0x04\n      dup1\n      calldatasize\n      sub\n      dup2\n      add\n      swap1\n      tag_13\n      swap2\n      swap1\n      tag_14\n      jump\t// in\n    tag_13:\n      tag_15\n      jump\t// in\n    tag_12:\n      mload(0x40)\n      tag_16\n      swap2\n      swap1\n      tag_17\n      jump\t// in\n    tag_16:\n      mload(0x40)\n      dup1\n      swap2\n      sub\n      swap1\n      return\n        /* \"contracts/utils/Ownable.sol\":1714:1817  function renounceOwnership() public virtual onlyOwner {\r... */\n    tag_4:\n      callvalue\n      dup1\n      iszero\n      tag_18\n      jumpi\n      0x00\n      dup1\n      revert\n    tag_18:\n      pop\n      tag_19\n      tag_20\n      jump\t// in\n    tag_19:\n      stop\n        /* \"contracts/utils/Ownable.sol\":1063:1150  function owner() public view virtual returns (address) {\r... */\n    tag_5:\n      callvalue\n      dup1\n      iszero\n      tag_21\n      jumpi\n      0x00\n      dup1\n      revert\n    tag_21:\n      pop\n      tag_22\n      tag_23\n      jump\t// in\n    tag_22:\n      mload(0x40)\n      tag_24\n      swap2\n      swap1\n      tag_25\n      jump\t// in\n    tag_24:\n      mload(0x40)\n      dup1\n      swap2\n      sub\n      swap1\n      return\n        /* \"contracts/SimpleWallet.sol\":314:428  function withDrawMoney(address payable _to, uint _amount) public onlyOwner{\r... */\n    tag_6:\n      callvalue\n      dup1\n      iszero\n      tag_26\n      jumpi\n      0x00\n      dup1\n      revert\n    tag_26:\n      pop\n      tag_27\n      0x04\n      dup1\n      calldatasize\n      sub\n      dup2\n      add\n      swap1\n      tag_28\n      swap2\n      swap1\n      tag_29\n      jump\t// in\n    tag_28:\n      tag_30\n      jump\t// in\n    tag_27:\n      stop\n        /* \"contracts/utils/Ownable.sol\":1972:2173  function transferOwnership(address newOwner) public virtual onlyOwner {\r... */\n    tag_7:\n      callvalue\n      dup1\n      iszero\n      tag_31\n      jumpi\n      0x00\n      dup1\n      revert\n    tag_31:\n      pop\n      tag_32\n      0x04\n      dup1\n      calldatasize\n      sub\n      dup2\n      add\n      swap1\n      tag_33\n      swap2\n      swap1\n      tag_14\n      jump\t// in\n    tag_33:\n      tag_34\n      jump\t// in\n    tag_32:\n      stop\n        /* \"contracts/SimpleWallet.sol\":145:253  function addAllowance(address _who,uint _amount) public onlyOwner{\r... */\n    tag_8:\n      callvalue\n      dup1\n      iszero\n      tag_35\n      jumpi\n      0x00\n      dup1\n      revert\n    tag_35:\n      pop\n      tag_36\n      0x04\n      dup1\n      calldatasize\n      sub\n      dup2\n      add\n      swap1\n      tag_37\n      swap2\n      swap1\n      tag_38\n      jump\t// in\n    tag_37:\n      tag_39\n      jump\t// in\n    tag_36:\n      stop\n        /* \"contracts/SimpleWallet.sol\":97:136  mapping(address=>uint) public allowance */\n    tag_15:\n      mstore(0x20, 0x01)\n      dup1\n      0x00\n      mstore\n      keccak256(0x00, 0x40)\n      0x00\n      swap2\n      pop\n      swap1\n      pop\n      sload\n      dup2\n      jump\t// out\n        /* \"contracts/utils/Ownable.sol\":1714:1817  function renounceOwnership() public virtual onlyOwner {\r... */\n    tag_20:\n        /* \"contracts/utils/Ownable.sol\":1294:1306  _msgSender() */\n      tag_41\n        /* \"contracts/utils/Ownable.sol\":1294:1304  _msgSender */\n      tag_42\n        /* \"contracts/utils/Ownable.sol\":1294:1306  _msgSender() */\n      jump\t// in\n    tag_41:\n        /* \"contracts/utils/Ownable.sol\":1283:1306  owner() == _msgSender() */\n      0xffffffffffffffffffffffffffffffffffffffff\n      and\n        /* \"contracts/utils/Ownable.sol\":1283:1290  owner() */\n      tag_43\n        /* \"contracts/utils/Ownable.sol\":1283:1288  owner */\n      tag_23\n        /* \"contracts/utils/Ownable.sol\":1283:1290  owner() */\n      jump\t// in\n    tag_43:\n        /* \"contracts/utils/Ownable.sol\":1283:1306  owner() == _msgSender() */\n      0xffffffffffffffffffffffffffffffffffffffff\n      and\n      eq\n        /* \"contracts/utils/Ownable.sol\":1275:1343  require(owner() == _msgSender(), \"Ownable: caller is not the owner\") */\n      tag_44\n      jumpi\n      mload(0x40)\n      0x08c379a000000000000000000000000000000000000000000000000000000000\n      dup2\n      mstore\n      0x04\n      add\n      tag_45\n      swap1\n      tag_46\n      jump\t// in\n    tag_45:\n      mload(0x40)\n      dup1\n      swap2\n      sub\n      swap1\n      revert\n    tag_44:\n        /* \"contracts/utils/Ownable.sol\":1779:1809  _transferOwnership(address(0)) */\n      tag_48\n        /* \"contracts/utils/Ownable.sol\":1806:1807  0 */\n      0x00\n        /* \"contracts/utils/Ownable.sol\":1779:1797  _transferOwnership */\n      tag_49\n        /* \"contracts/utils/Ownable.sol\":1779:1809  _transferOwnership(address(0)) */\n      jump\t// in\n    tag_48:\n        /* \"contracts/utils/Ownable.sol\":1714:1817  function renounceOwnership() public virtual onlyOwner {\r... */\n      jump\t// out\n        /* \"contracts/utils/Ownable.sol\":1063:1150  function owner() public view virtual returns (address) {\r... */\n    tag_23:\n        /* \"contracts/utils/Ownable.sol\":1109:1116  address */\n      0x00\n        /* \"contracts/utils/Ownable.sol\":1136:1142  _owner */\n      dup1\n      0x00\n      swap1\n      sload\n      swap1\n      0x0100\n      exp\n      swap1\n      div\n      0xffffffffffffffffffffffffffffffffffffffff\n      and\n        /* \"contracts/utils/Ownable.sol\":1129:1142  return _owner */\n      swap1\n      pop\n        /* \"contracts/utils/Ownable.sol\":1063:1150  function owner() public view virtual returns (address) {\r... */\n      swap1\n      jump\t// out\n        /* \"contracts/SimpleWallet.sol\":314:428  function withDrawMoney(address payable _to, uint _amount) public onlyOwner{\r... */\n    tag_30:\n        /* \"contracts/utils/Ownable.sol\":1294:1306  _msgSender() */\n      tag_52\n        /* \"contracts/utils/Ownable.sol\":1294:1304  _msgSender */\n      tag_42\n        /* \"contracts/utils/Ownable.sol\":1294:1306  _msgSender() */\n      jump\t// in\n    tag_52:\n        /* \"contracts/utils/Ownable.sol\":1283:1306  owner() == _msgSender() */\n      0xffffffffffffffffffffffffffffffffffffffff\n      and\n        /* \"contracts/utils/Ownable.sol\":1283:1290  owner() */\n      tag_53\n        /* \"contracts/utils/Ownable.sol\":1283:1288  owner */\n      tag_23\n        /* \"contracts/utils/Ownable.sol\":1283:1290  owner() */\n      jump\t// in\n    tag_53:\n        /* \"contracts/utils/Ownable.sol\":1283:1306  owner() == _msgSender() */\n      0xffffffffffffffffffffffffffffffffffffffff\n      and\n      eq\n        /* \"contracts/utils/Ownable.sol\":1275:1343  require(owner() == _msgSender(), \"Ownable: caller is not the owner\") */\n      tag_54\n      jumpi\n      mload(0x40)\n      0x08c379a000000000000000000000000000000000000000000000000000000000\n      dup2\n      mstore\n      0x04\n      add\n      tag_55\n      swap1\n      tag_46\n      jump\t// in\n    tag_55:\n      mload(0x40)\n      dup1\n      swap2\n      sub\n      swap1\n      revert\n    tag_54:\n        /* \"contracts/SimpleWallet.sol\":399:402  _to */\n      dup2\n        /* \"contracts/SimpleWallet.sol\":399:411  _to.transfer */\n      0xffffffffffffffffffffffffffffffffffffffff\n      and\n        /* \"contracts/SimpleWallet.sol\":399:420  _to.transfer(_amount) */\n      0x08fc\n        /* \"contracts/SimpleWallet.sol\":412:419  _amount */\n      dup3\n        /* \"contracts/SimpleWallet.sol\":399:420  _to.transfer(_amount) */\n      swap1\n      dup2\n      iszero\n      mul\n      swap1\n      mload(0x40)\n      0x00\n      mload(0x40)\n      dup1\n      dup4\n      sub\n      dup2\n      dup6\n      dup9\n      dup9\n      call\n      swap4\n      pop\n      pop\n      pop\n      pop\n      iszero\n      dup1\n      iszero\n      tag_58\n      jumpi\n      returndatasize\n      0x00\n      dup1\n      returndatacopy\n      revert(0x00, returndatasize)\n    tag_58:\n      pop\n        /* \"contracts/SimpleWallet.sol\":314:428  function withDrawMoney(address payable _to, uint _amount) public onlyOwner{\r... */\n      pop\n      pop\n      jump\t// out\n        /* \"contracts/utils/Ownable.sol\":1972:2173  function transferOwnership(address newOwner) public virtual onlyOwner {\r... */\n    tag_34:\n        /* \"contracts/utils/Ownable.sol\":1294:1306  _msgSender() */\n      tag_60\n        /* \"contracts/utils/Ownable.sol\":1294:1304  _msgSender */\n      tag_42\n        /* \"contracts/utils/Ownable.sol\":1294:1306  _msgSender() */\n      jump\t// in\n    tag_60:\n        /* \"contracts/utils/Ownable.sol\":1283:1306  owner() == _msgSender() */\n      0xffffffffffffffffffffffffffffffffffffffff\n      and\n        /* \"contracts/utils/Ownable.sol\":1283:1290  owner() */\n      tag_61\n        /* \"contracts/utils/Ownable.sol\":1283:1288  owner */\n      tag_23\n        /* \"contracts/utils/Ownable.sol\":1283:1290  owner() */\n      jump\t// in\n    tag_61:\n        /* \"contracts/utils/Ownable.sol\":1283:1306  owner() == _msgSender() */\n      0xffffffffffffffffffffffffffffffffffffffff\n      and\n      eq\n        /* \"contracts/utils/Ownable.sol\":1275:1343  require(owner() == _msgSender(), \"Ownable: caller is not the owner\") */\n      tag_62\n      jumpi\n      mload(0x40)\n      0x08c379a000000000000000000000000000000000000000000000000000000000\n      dup2\n      mstore\n      0x04\n      add\n      tag_63\n      swap1\n      tag_46\n      jump\t// in\n    tag_63:\n      mload(0x40)\n      dup1\n      swap2\n      sub\n      swap1\n      revert\n    tag_62:\n        /* \"contracts/utils/Ownable.sol\":2081:2082  0 */\n      0x00\n        /* \"contracts/utils/Ownable.sol\":2061:2083  newOwner != address(0) */\n      0xffffffffffffffffffffffffffffffffffffffff\n      and\n        /* \"contracts/utils/Ownable.sol\":2061:2069  newOwner */\n      dup2\n        /* \"contracts/utils/Ownable.sol\":2061:2083  newOwner != address(0) */\n      0xffffffffffffffffffffffffffffffffffffffff\n      and\n      eq\n      iszero\n        /* \"contracts/utils/Ownable.sol\":2053:2126  require(newOwner != address(0), \"Ownable: new owner is the zero address\") */\n      tag_65\n      jumpi\n      mload(0x40)\n      0x08c379a000000000000000000000000000000000000000000000000000000000\n      dup2\n      mstore\n      0x04\n      add\n      tag_66\n      swap1\n      tag_67\n      jump\t// in\n    tag_66:\n      mload(0x40)\n      dup1\n      swap2\n      sub\n      swap1\n      revert\n    tag_65:\n        /* \"contracts/utils/Ownable.sol\":2137:2165  _transferOwnership(newOwner) */\n      tag_68\n        /* \"contracts/utils/Ownable.sol\":2156:2164  newOwner */\n      dup2\n        /* \"contracts/utils/Ownable.sol\":2137:2155  _transferOwnership */\n      tag_49\n        /* \"contracts/utils/Ownable.sol\":2137:2165  _transferOwnership(newOwner) */\n      jump\t// in\n    tag_68:\n        /* \"contracts/utils/Ownable.sol\":1972:2173  function transferOwnership(address newOwner) public virtual onlyOwner {\r... */\n      pop\n      jump\t// out\n        /* \"contracts/SimpleWallet.sol\":145:253  function addAllowance(address _who,uint _amount) public onlyOwner{\r... */\n    tag_39:\n        /* \"contracts/utils/Ownable.sol\":1294:1306  _msgSender() */\n      tag_70\n        /* \"contracts/utils/Ownable.sol\":1294:1304  _msgSender */\n      tag_42\n        /* \"contracts/utils/Ownable.sol\":1294:1306  _msgSender() */\n      jump\t// in\n    tag_70:\n        /* \"contracts/utils/Ownable.sol\":1283:1306  owner() == _msgSender() */\n      0xffffffffffffffffffffffffffffffffffffffff\n      and\n        /* \"contracts/utils/Ownable.sol\":1283:1290  owner() */\n      tag_71\n        /* \"contracts/utils/Ownable.sol\":1283:1288  owner */\n      tag_23\n        /* \"contracts/utils/Ownable.sol\":1283:1290  owner() */\n      jump\t// in\n    tag_71:\n        /* \"contracts/utils/Ownable.sol\":1283:1306  owner() == _msgSender() */\n      0xffffffffffffffffffffffffffffffffffffffff\n      and\n      eq\n        /* \"contracts/utils/Ownable.sol\":1275:1343  require(owner() == _msgSender(), \"Ownable: caller is not the owner\") */\n      tag_72\n      jumpi\n      mload(0x40)\n      0x08c379a000000000000000000000000000000000000000000000000000000000\n      dup2\n      mstore\n      0x04\n      add\n      tag_73\n      swap1\n      tag_46\n      jump\t// in\n    tag_73:\n      mload(0x40)\n      dup1\n      swap2\n      sub\n      swap1\n      revert\n    tag_72:\n        /* \"contracts/SimpleWallet.sol\":238:245  _amount */\n      dup1\n        /* \"contracts/SimpleWallet.sol\":221:230  allowance */\n      0x01\n        /* \"contracts/SimpleWallet.sol\":221:236  allowance[_who] */\n      0x00\n        /* \"contracts/SimpleWallet.sol\":231:235  _who */\n      dup5\n        /* \"contracts/SimpleWallet.sol\":221:236  allowance[_who] */\n      0xffffffffffffffffffffffffffffffffffffffff\n      and\n      0xffffffffffffffffffffffffffffffffffffffff\n      and\n      dup2\n      mstore\n      0x20\n      add\n      swap1\n      dup2\n      mstore\n      0x20\n      add\n      0x00\n      keccak256\n        /* \"contracts/SimpleWallet.sol\":221:245  allowance[_who]= _amount */\n      dup2\n      swap1\n      sstore\n      pop\n        /* \"contracts/SimpleWallet.sol\":145:253  function addAllowance(address _who,uint _amount) public onlyOwner{\r... */\n      pop\n      pop\n      jump\t// out\n        /* \"contracts/utils/Context.sol\":656:754  function _msgSender() internal view virtual returns (address) {\r... */\n    tag_42:\n        /* \"contracts/utils/Context.sol\":709:716  address */\n      0x00\n        /* \"contracts/utils/Context.sol\":736:746  msg.sender */\n      caller\n        /* \"contracts/utils/Context.sol\":729:746  return msg.sender */\n      swap1\n      pop\n        /* \"contracts/utils/Context.sol\":656:754  function _msgSender() internal view virtual returns (address) {\r... */\n      swap1\n      jump\t// out\n        /* \"contracts/utils/Ownable.sol\":2333:2524  function _transferOwnership(address newOwner) internal virtual {\r... */\n    tag_49:\n        /* \"contracts/utils/Ownable.sol\":2407:2423  address oldOwner */\n      0x00\n        /* \"contracts/utils/Ownable.sol\":2426:2432  _owner */\n      dup1\n      0x00\n      swap1\n      sload\n      swap1\n      0x0100\n      exp\n      swap1\n      div\n      0xffffffffffffffffffffffffffffffffffffffff\n      and\n        /* \"contracts/utils/Ownable.sol\":2407:2432  address oldOwner = _owner */\n      swap1\n      pop\n        /* \"contracts/utils/Ownable.sol\":2452:2460  newOwner */\n      dup2\n        /* \"contracts/utils/Ownable.sol\":2443:2449  _owner */\n      0x00\n      dup1\n        /* \"contracts/utils/Ownable.sol\":2443:2460  _owner = newOwner */\n      0x0100\n      exp\n      dup2\n      sload\n      dup2\n      0xffffffffffffffffffffffffffffffffffffffff\n      mul\n      not\n      and\n      swap1\n      dup4\n      0xffffffffffffffffffffffffffffffffffffffff\n      and\n      mul\n      or\n      swap1\n      sstore\n      pop\n        /* \"contracts/utils/Ownable.sol\":2507:2515  newOwner */\n      dup2\n        /* \"contracts/utils/Ownable.sol\":2476:2516  OwnershipTransferred(oldOwner, newOwner) */\n      0xffffffffffffffffffffffffffffffffffffffff\n      and\n        /* \"contracts/utils/Ownable.sol\":2497:2505  oldOwner */\n      dup2\n        /* \"contracts/utils/Ownable.sol\":2476:2516  OwnershipTransferred(oldOwner, newOwner) */\n      0xffffffffffffffffffffffffffffffffffffffff\n      and\n      0x8be0079c531659141344cd1fd0a4f28419497f9722a3daafe3b4186f6b6457e0\n      mload(0x40)\n      mload(0x40)\n      dup1\n      swap2\n      sub\n      swap1\n      log3\n        /* \"contracts/utils/Ownable.sol\":2396:2524  {\r... */\n      pop\n        /* \"contracts/utils/Ownable.sol\":2333:2524  function _transferOwnership(address newOwner) internal virtual {\r... */\n      pop\n      jump\t// out\n        /* \"#utility.yul\":7:146   */\n    tag_78:\n        /* \"#utility.yul\":53:58   */\n      0x00\n        /* \"#utility.yul\":91:97   */\n      dup2\n        /* \"#utility.yul\":78:98   */\n      calldataload\n        /* \"#utility.yul\":69:98   */\n      swap1\n      pop\n        /* \"#utility.yul\":107:140   */\n      tag_80\n        /* \"#utility.yul\":134:139   */\n      dup2\n        /* \"#utility.yul\":107:140   */\n      tag_81\n      jump\t// in\n    tag_80:\n        /* \"#utility.yul\":7:146   */\n      swap3\n      swap2\n      pop\n      pop\n      jump\t// out\n        /* \"#utility.yul\":152:307   */\n    tag_82:\n        /* \"#utility.yul\":206:211   */\n      0x00\n        /* \"#utility.yul\":244:250   */\n      dup2\n        /* \"#utility.yul\":231:251   */\n      calldataload\n        /* \"#utility.yul\":222:251   */\n      swap1\n      pop\n        /* \"#utility.yul\":260:301   */\n      tag_84\n        /* \"#utility.yul\":295:300   */\n      dup2\n        /* \"#utility.yul\":260:301   */\n      tag_85\n      jump\t// in\n    tag_84:\n        /* \"#utility.yul\":152:307   */\n      swap3\n      swap2\n      pop\n      pop\n      jump\t// out\n        /* \"#utility.yul\":313:452   */\n    tag_86:\n        /* \"#utility.yul\":359:364   */\n      0x00\n        /* \"#utility.yul\":397:403   */\n      dup2\n        /* \"#utility.yul\":384:404   */\n      calldataload\n        /* \"#utility.yul\":375:404   */\n      swap1\n      pop\n        /* \"#utility.yul\":413:446   */\n      tag_88\n        /* \"#utility.yul\":440:445   */\n      dup2\n        /* \"#utility.yul\":413:446   */\n      tag_89\n      jump\t// in\n    tag_88:\n        /* \"#utility.yul\":313:452   */\n      swap3\n      swap2\n      pop\n      pop\n      jump\t// out\n        /* \"#utility.yul\":458:787   */\n    tag_14:\n        /* \"#utility.yul\":517:523   */\n      0x00\n        /* \"#utility.yul\":566:568   */\n      0x20\n        /* \"#utility.yul\":554:563   */\n      dup3\n        /* \"#utility.yul\":545:552   */\n      dup5\n        /* \"#utility.yul\":541:564   */\n      sub\n        /* \"#utility.yul\":537:569   */\n      slt\n        /* \"#utility.yul\":534:653   */\n      iszero\n      tag_91\n      jumpi\n        /* \"#utility.yul\":572:651   */\n      tag_92\n      tag_93\n      jump\t// in\n    tag_92:\n        /* \"#utility.yul\":534:653   */\n    tag_91:\n        /* \"#utility.yul\":692:693   */\n      0x00\n        /* \"#utility.yul\":717:770   */\n      tag_94\n        /* \"#utility.yul\":762:769   */\n      dup5\n        /* \"#utility.yul\":753:759   */\n      dup3\n        /* \"#utility.yul\":742:751   */\n      dup6\n        /* \"#utility.yul\":738:760   */\n      add\n        /* \"#utility.yul\":717:770   */\n      tag_78\n      jump\t// in\n    tag_94:\n        /* \"#utility.yul\":707:770   */\n      swap2\n      pop\n        /* \"#utility.yul\":663:780   */\n      pop\n        /* \"#utility.yul\":458:787   */\n      swap3\n      swap2\n      pop\n      pop\n      jump\t// out\n        /* \"#utility.yul\":793:1283   */\n    tag_29:\n        /* \"#utility.yul\":869:875   */\n      0x00\n        /* \"#utility.yul\":877:883   */\n      dup1\n        /* \"#utility.yul\":926:928   */\n      0x40\n        /* \"#utility.yul\":914:923   */\n      dup4\n        /* \"#utility.yul\":905:912   */\n      dup6\n        /* \"#utility.yul\":901:924   */\n      sub\n        /* \"#utility.yul\":897:929   */\n      slt\n        /* \"#utility.yul\":894:1013   */\n      iszero\n      tag_96\n      jumpi\n        /* \"#utility.yul\":932:1011   */\n      tag_97\n      tag_93\n      jump\t// in\n    tag_97:\n        /* \"#utility.yul\":894:1013   */\n    tag_96:\n        /* \"#utility.yul\":1052:1053   */\n      0x00\n        /* \"#utility.yul\":1077:1138   */\n      tag_98\n        /* \"#utility.yul\":1130:1137   */\n      dup6\n        /* \"#utility.yul\":1121:1127   */\n      dup3\n        /* \"#utility.yul\":1110:1119   */\n      dup7\n        /* \"#utility.yul\":1106:1128   */\n      add\n        /* \"#utility.yul\":1077:1138   */\n      tag_82\n      jump\t// in\n    tag_98:\n        /* \"#utility.yul\":1067:1138   */\n      swap3\n      pop\n        /* \"#utility.yul\":1023:1148   */\n      pop\n        /* \"#utility.yul\":1187:1189   */\n      0x20\n        /* \"#utility.yul\":1213:1266   */\n      tag_99\n        /* \"#utility.yul\":1258:1265   */\n      dup6\n        /* \"#utility.yul\":1249:1255   */\n      dup3\n        /* \"#utility.yul\":1238:1247   */\n      dup7\n        /* \"#utility.yul\":1234:1256   */\n      add\n        /* \"#utility.yul\":1213:1266   */\n      tag_86\n      jump\t// in\n    tag_99:\n        /* \"#utility.yul\":1203:1266   */\n      swap2\n      pop\n        /* \"#utility.yul\":1158:1276   */\n      pop\n        /* \"#utility.yul\":793:1283   */\n      swap3\n      pop\n      swap3\n      swap1\n      pop\n      jump\t// out\n        /* \"#utility.yul\":1289:1763   */\n    tag_38:\n        /* \"#utility.yul\":1357:1363   */\n      0x00\n        /* \"#utility.yul\":1365:1371   */\n      dup1\n        /* \"#utility.yul\":1414:1416   */\n      0x40\n        /* \"#utility.yul\":1402:1411   */\n      dup4\n        /* \"#utility.yul\":1393:1400   */\n      dup6\n        /* \"#utility.yul\":1389:1412   */\n      sub\n        /* \"#utility.yul\":1385:1417   */\n      slt\n        /* \"#utility.yul\":1382:1501   */\n      iszero\n      tag_101\n      jumpi\n        /* \"#utility.yul\":1420:1499   */\n      tag_102\n      tag_93\n      jump\t// in\n    tag_102:\n        /* \"#utility.yul\":1382:1501   */\n    tag_101:\n        /* \"#utility.yul\":1540:1541   */\n      0x00\n        /* \"#utility.yul\":1565:1618   */\n      tag_103\n        /* \"#utility.yul\":1610:1617   */\n      dup6\n        /* \"#utility.yul\":1601:1607   */\n      dup3\n        /* \"#utility.yul\":1590:1599   */\n      dup7\n        /* \"#utility.yul\":1586:1608   */\n      add\n        /* \"#utility.yul\":1565:1618   */\n      tag_78\n      jump\t// in\n    tag_103:\n        /* \"#utility.yul\":1555:1618   */\n      swap3\n      pop\n        /* \"#utility.yul\":1511:1628   */\n      pop\n        /* \"#utility.yul\":1667:1669   */\n      0x20\n        /* \"#utility.yul\":1693:1746   */\n      tag_104\n        /* \"#utility.yul\":1738:1745   */\n      dup6\n        /* \"#utility.yul\":1729:1735   */\n      dup3\n        /* \"#utility.yul\":1718:1727   */\n      dup7\n        /* \"#utility.yul\":1714:1736   */\n      add\n        /* \"#utility.yul\":1693:1746   */\n      tag_86\n      jump\t// in\n    tag_104:\n        /* \"#utility.yul\":1683:1746   */\n      swap2\n      pop\n        /* \"#utility.yul\":1638:1756   */\n      pop\n        /* \"#utility.yul\":1289:1763   */\n      swap3\n      pop\n      swap3\n      swap1\n      pop\n      jump\t// out\n        /* \"#utility.yul\":1769:1887   */\n    tag_105:\n        /* \"#utility.yul\":1856:1880   */\n      tag_107\n        /* \"#utility.yul\":1874:1879   */\n      dup2\n        /* \"#utility.yul\":1856:1880   */\n      tag_108\n      jump\t// in\n    tag_107:\n        /* \"#utility.yul\":1851:1854   */\n      dup3\n        /* \"#utility.yul\":1844:1881   */\n      mstore\n        /* \"#utility.yul\":1769:1887   */\n      pop\n      pop\n      jump\t// out\n        /* \"#utility.yul\":1893:2259   */\n    tag_109:\n        /* \"#utility.yul\":2035:2038   */\n      0x00\n        /* \"#utility.yul\":2056:2123   */\n      tag_111\n        /* \"#utility.yul\":2120:2122   */\n      0x26\n        /* \"#utility.yul\":2115:2118   */\n      dup4\n        /* \"#utility.yul\":2056:2123   */\n      tag_112\n      jump\t// in\n    tag_111:\n        /* \"#utility.yul\":2049:2123   */\n      swap2\n      pop\n        /* \"#utility.yul\":2132:2225   */\n      tag_113\n        /* \"#utility.yul\":2221:2224   */\n      dup3\n        /* \"#utility.yul\":2132:2225   */\n      tag_114\n      jump\t// in\n    tag_113:\n        /* \"#utility.yul\":2250:2252   */\n      0x40\n        /* \"#utility.yul\":2245:2248   */\n      dup3\n        /* \"#utility.yul\":2241:2253   */\n      add\n        /* \"#utility.yul\":2234:2253   */\n      swap1\n      pop\n        /* \"#utility.yul\":1893:2259   */\n      swap2\n      swap1\n      pop\n      jump\t// out\n        /* \"#utility.yul\":2265:2631   */\n    tag_115:\n        /* \"#utility.yul\":2407:2410   */\n      0x00\n        /* \"#utility.yul\":2428:2495   */\n      tag_117\n        /* \"#utility.yul\":2492:2494   */\n      0x20\n        /* \"#utility.yul\":2487:2490   */\n      dup4\n        /* \"#utility.yul\":2428:2495   */\n      tag_112\n      jump\t// in\n    tag_117:\n        /* \"#utility.yul\":2421:2495   */\n      swap2\n      pop\n        /* \"#utility.yul\":2504:2597   */\n      tag_118\n        /* \"#utility.yul\":2593:2596   */\n      dup3\n        /* \"#utility.yul\":2504:2597   */\n      tag_119\n      jump\t// in\n    tag_118:\n        /* \"#utility.yul\":2622:2624   */\n      0x20\n        /* \"#utility.yul\":2617:2620   */\n      dup3\n        /* \"#utility.yul\":2613:2625   */\n      add\n        /* \"#utility.yul\":2606:2625   */\n      swap1\n      pop\n        /* \"#utility.yul\":2265:2631   */\n      swap2\n      swap1\n      pop\n      jump\t// out\n        /* \"#utility.yul\":2637:2755   */\n    tag_120:\n        /* \"#utility.yul\":2724:2748   */\n      tag_122\n        /* \"#utility.yul\":2742:2747   */\n      dup2\n        /* \"#utility.yul\":2724:2748   */\n      tag_123\n      jump\t// in\n    tag_122:\n        /* \"#utility.yul\":2719:2722   */\n      dup3\n        /* \"#utility.yul\":2712:2749   */\n      mstore\n        /* \"#utility.yul\":2637:2755   */\n      pop\n      pop\n      jump\t// out\n        /* \"#utility.yul\":2761:2983   */\n    tag_25:\n        /* \"#utility.yul\":2854:2858   */\n      0x00\n        /* \"#utility.yul\":2892:2894   */\n      0x20\n        /* \"#utility.yul\":2881:2890   */\n      dup3\n        /* \"#utility.yul\":2877:2895   */\n      add\n        /* \"#utility.yul\":2869:2895   */\n      swap1\n      pop\n        /* \"#utility.yul\":2905:2976   */\n      tag_125\n        /* \"#utility.yul\":2973:2974   */\n      0x00\n        /* \"#utility.yul\":2962:2971   */\n      dup4\n        /* \"#utility.yul\":2958:2975   */\n      add\n        /* \"#utility.yul\":2949:2955   */\n      dup5\n        /* \"#utility.yul\":2905:2976   */\n      tag_105\n      jump\t// in\n    tag_125:\n        /* \"#utility.yul\":2761:2983   */\n      swap3\n      swap2\n      pop\n      pop\n      jump\t// out\n        /* \"#utility.yul\":2989:3408   */\n    tag_67:\n        /* \"#utility.yul\":3155:3159   */\n      0x00\n        /* \"#utility.yul\":3193:3195   */\n      0x20\n        /* \"#utility.yul\":3182:3191   */\n      dup3\n        /* \"#utility.yul\":3178:3196   */\n      add\n        /* \"#utility.yul\":3170:3196   */\n      swap1\n      pop\n        /* \"#utility.yul\":3242:3251   */\n      dup2\n        /* \"#utility.yul\":3236:3240   */\n      dup2\n        /* \"#utility.yul\":3232:3252   */\n      sub\n        /* \"#utility.yul\":3228:3229   */\n      0x00\n        /* \"#utility.yul\":3217:3226   */\n      dup4\n        /* \"#utility.yul\":3213:3230   */\n      add\n        /* \"#utility.yul\":3206:3253   */\n      mstore\n        /* \"#utility.yul\":3270:3401   */\n      tag_127\n        /* \"#utility.yul\":3396:3400   */\n      dup2\n        /* \"#utility.yul\":3270:3401   */\n      tag_109\n      jump\t// in\n    tag_127:\n        /* \"#utility.yul\":3262:3401   */\n      swap1\n      pop\n        /* \"#utility.yul\":2989:3408   */\n      swap2\n      swap1\n      pop\n      jump\t// out\n        /* \"#utility.yul\":3414:3833   */\n    tag_46:\n        /* \"#utility.yul\":3580:3584   */\n      0x00\n        /* \"#utility.yul\":3618:3620   */\n      0x20\n        /* \"#utility.yul\":3607:3616   */\n      dup3\n        /* \"#utility.yul\":3603:3621   */\n      add\n        /* \"#utility.yul\":3595:3621   */\n      swap1\n      pop\n        /* \"#utility.yul\":3667:3676   */\n      dup2\n        /* \"#utility.yul\":3661:3665   */\n      dup2\n        /* \"#utility.yul\":3657:3677   */\n      sub\n        /* \"#utility.yul\":3653:3654   */\n      0x00\n        /* \"#utility.yul\":3642:3651   */\n      dup4\n        /* \"#utility.yul\":3638:3655   */\n      add\n        /* \"#utility.yul\":3631:3678   */\n      mstore\n        /* \"#utility.yul\":3695:3826   */\n      tag_129\n        /* \"#utility.yul\":3821:3825   */\n      dup2\n        /* \"#utility.yul\":3695:3826   */\n      tag_115\n      jump\t// in\n    tag_129:\n        /* \"#utility.yul\":3687:3826   */\n      swap1\n      pop\n        /* \"#utility.yul\":3414:3833   */\n      swap2\n      swap1\n      pop\n      jump\t// out\n        /* \"#utility.yul\":3839:4061   */\n    tag_17:\n        /* \"#utility.yul\":3932:3936   */\n      0x00\n        /* \"#utility.yul\":3970:3972   */\n      0x20\n        /* \"#utility.yul\":3959:3968   */\n      dup3\n        /* \"#utility.yul\":3955:3973   */\n      add\n        /* \"#utility.yul\":3947:3973   */\n      swap1\n      pop\n        /* \"#utility.yul\":3983:4054   */\n      tag_131\n        /* \"#utility.yul\":4051:4052   */\n      0x00\n        /* \"#utility.yul\":4040:4049   */\n      dup4\n        /* \"#utility.yul\":4036:4053   */\n      add\n        /* \"#utility.yul\":4027:4033   */\n      dup5\n        /* \"#utility.yul\":3983:4054   */\n      tag_120\n      jump\t// in\n    tag_131:\n        /* \"#utility.yul\":3839:4061   */\n      swap3\n      swap2\n      pop\n      pop\n      jump\t// out\n        /* \"#utility.yul\":4148:4317   */\n    tag_112:\n        /* \"#utility.yul\":4232:4243   */\n      0x00\n        /* \"#utility.yul\":4266:4272   */\n      dup3\n        /* \"#utility.yul\":4261:4264   */\n      dup3\n        /* \"#utility.yul\":4254:4273   */\n      mstore\n        /* \"#utility.yul\":4306:4310   */\n      0x20\n        /* \"#utility.yul\":4301:4304   */\n      dup3\n        /* \"#utility.yul\":4297:4311   */\n      add\n        /* \"#utility.yul\":4282:4311   */\n      swap1\n      pop\n        /* \"#utility.yul\":4148:4317   */\n      swap3\n      swap2\n      pop\n      pop\n      jump\t// out\n        /* \"#utility.yul\":4323:4419   */\n    tag_108:\n        /* \"#utility.yul\":4360:4367   */\n      0x00\n        /* \"#utility.yul\":4389:4413   */\n      tag_136\n        /* \"#utility.yul\":4407:4412   */\n      dup3\n        /* \"#utility.yul\":4389:4413   */\n      tag_137\n      jump\t// in\n    tag_136:\n        /* \"#utility.yul\":4378:4413   */\n      swap1\n      pop\n        /* \"#utility.yul\":4323:4419   */\n      swap2\n      swap1\n      pop\n      jump\t// out\n        /* \"#utility.yul\":4425:4529   */\n    tag_138:\n        /* \"#utility.yul\":4470:4477   */\n      0x00\n        /* \"#utility.yul\":4499:4523   */\n      tag_140\n        /* \"#utility.yul\":4517:4522   */\n      dup3\n        /* \"#utility.yul\":4499:4523   */\n      tag_137\n      jump\t// in\n    tag_140:\n        /* \"#utility.yul\":4488:4523   */\n      swap1\n      pop\n        /* \"#utility.yul\":4425:4529   */\n      swap2\n      swap1\n      pop\n      jump\t// out\n        /* \"#utility.yul\":4535:4661   */\n    tag_137:\n        /* \"#utility.yul\":4572:4579   */\n      0x00\n        /* \"#utility.yul\":4612:4654   */\n      0xffffffffffffffffffffffffffffffffffffffff\n        /* \"#utility.yul\":4605:4610   */\n      dup3\n        /* \"#utility.yul\":4601:4655   */\n      and\n        /* \"#utility.yul\":4590:4655   */\n      swap1\n      pop\n        /* \"#utility.yul\":4535:4661   */\n      swap2\n      swap1\n      pop\n      jump\t// out\n        /* \"#utility.yul\":4667:4744   */\n    tag_123:\n        /* \"#utility.yul\":4704:4711   */\n      0x00\n        /* \"#utility.yul\":4733:4738   */\n      dup2\n        /* \"#utility.yul\":4722:4738   */\n      swap1\n      pop\n        /* \"#utility.yul\":4667:4744   */\n      swap2\n      swap1\n      pop\n      jump\t// out\n        /* \"#utility.yul\":4873:4990   */\n    tag_93:\n        /* \"#utility.yul\":4982:4983   */\n      0x00\n        /* \"#utility.yul\":4979:4980   */\n      dup1\n        /* \"#utility.yul\":4972:4984   */\n      revert\n        /* \"#utility.yul\":4996:5221   */\n    tag_114:\n        /* \"#utility.yul\":5136:5170   */\n      0x4f776e61626c653a206e6577206f776e657220697320746865207a65726f2061\n        /* \"#utility.yul\":5132:5133   */\n      0x00\n        /* \"#utility.yul\":5124:5130   */\n      dup3\n        /* \"#utility.yul\":5120:5134   */\n      add\n        /* \"#utility.yul\":5113:5171   */\n      mstore\n        /* \"#utility.yul\":5205:5213   */\n      0x6464726573730000000000000000000000000000000000000000000000000000\n        /* \"#utility.yul\":5200:5202   */\n      0x20\n        /* \"#utility.yul\":5192:5198   */\n      dup3\n        /* \"#utility.yul\":5188:5203   */\n      add\n        /* \"#utility.yul\":5181:5214   */\n      mstore\n        /* \"#utility.yul\":4996:5221   */\n      pop\n      jump\t// out\n        /* \"#utility.yul\":5227:5409   */\n    tag_119:\n        /* \"#utility.yul\":5367:5401   */\n      0x4f776e61626c653a2063616c6c6572206973206e6f7420746865206f776e6572\n        /* \"#utility.yul\":5363:5364   */\n      0x00\n        /* \"#utility.yul\":5355:5361   */\n      dup3\n        /* \"#utility.yul\":5351:5365   */\n      add\n        /* \"#utility.yul\":5344:5402   */\n      mstore\n        /* \"#utility.yul\":5227:5409   */\n      pop\n      jump\t// out\n        /* \"#utility.yul\":5415:5537   */\n    tag_81:\n        /* \"#utility.yul\":5488:5512   */\n      tag_149\n        /* \"#utility.yul\":5506:5511   */\n      dup2\n        /* \"#utility.yul\":5488:5512   */\n      tag_108\n      jump\t// in\n    tag_149:\n        /* \"#utility.yul\":5481:5486   */\n      dup2\n        /* \"#utility.yul\":5478:5513   */\n      eq\n        /* \"#utility.yul\":5468:5531   */\n      tag_150\n      jumpi\n        /* \"#utility.yul\":5527:5528   */\n      0x00\n        /* \"#utility.yul\":5524:5525   */\n      dup1\n        /* \"#utility.yul\":5517:5529   */\n      revert\n        /* \"#utility.yul\":5468:5531   */\n    tag_150:\n        /* \"#utility.yul\":5415:5537   */\n      pop\n      jump\t// out\n        /* \"#utility.yul\":5543:5681   */\n    tag_85:\n        /* \"#utility.yul\":5624:5656   */\n      tag_152\n        /* \"#utility.yul\":5650:5655   */\n      dup2\n        /* \"#utility.yul\":5624:5656   */\n      tag_138\n      jump\t// in\n    tag_152:\n        /* \"#utility.yul\":5617:5622   */\n      dup2\n        /* \"#utility.yul\":5614:5657   */\n      eq\n        /* \"#utility.yul\":5604:5675   */\n      tag_153\n      jumpi\n        /* \"#utility.yul\":5671:5672   */\n      0x00\n        /* \"#utility.yul\":5668:5669   */\n      dup1\n        /* \"#utility.yul\":5661:5673   */\n      revert\n        /* \"#utility.yul\":5604:5675   */\n    tag_153:\n        /* \"#utility.yul\":5543:5681   */\n      pop\n      jump\t// out\n        /* \"#utility.yul\":5687:5809   */\n    tag_89:\n        /* \"#utility.yul\":5760:5784   */\n      tag_155\n        /* \"#utility.yul\":5778:5783   */\n      dup2\n        /* \"#utility.yul\":5760:5784   */\n      tag_123\n      jump\t// in\n    tag_155:\n        /* \"#utility.yul\":5753:5758   */\n      dup2\n        /* \"#utility.yul\":5750:5785   */\n      eq\n        /* \"#utility.yul\":5740:5803   */\n      tag_156\n      jumpi\n        /* \"#utility.yul\":5799:5800   */\n      0x00\n        /* \"#utility.yul\":5796:5797   */\n      dup1\n        /* \"#utility.yul\":5789:5801   */\n      revert\n        /* \"#utility.yul\":5740:5803   */\n    tag_156:\n        /* \"#utility.yul\":5687:5809   */\n      pop\n      jump\t// out\n\n    auxdata: 0xa264697066735822122050058a75078a1d2645dc8a599f3a6804b3ccad6acfce345c7c558b922923a4a764736f6c63430008070033\n}\n",
				"bytecode": {
					"linkReferences": {},
					"object": "608060405234801561001057600080fd5b5061002d61002261003260201b60201c565b61003a60201b60201c565b6100fe565b600033905090565b60008060009054906101000a900473ffffffffffffffffffffffffffffffffffffffff169050816000806101000a81548173ffffffffffffffffffffffffffffffffffffffff021916908373ffffffffffffffffffffffffffffffffffffffff1602179055508173ffffffffffffffffffffffffffffffffffffffff168173ffffffffffffffffffffffffffffffffffffffff167f8be0079c531659141344cd1fd0a4f28419497f9722a3daafe3b4186f6b6457e060405160405180910390a35050565b61088b8061010d6000396000f3fe6080604052600436106100595760003560e01c80633e5beab91461005c578063715018a6146100995780638da5cb5b146100b0578063b39d7b7c146100db578063f2fde38b14610104578063f3c40c4b1461012d5761005a565b5b005b34801561006857600080fd5b50610083600480360381019061007e91906105ad565b610156565b6040516100909190610719565b60405180910390f35b3480156100a557600080fd5b506100ae61016e565b005b3480156100bc57600080fd5b506100c56101f6565b6040516100d291906106be565b60405180910390f35b3480156100e757600080fd5b5061010260048036038101906100fd91906105da565b61021f565b005b34801561011057600080fd5b5061012b600480360381019061012691906105ad565b6102e6565b005b34801561013957600080fd5b50610154600480360381019061014f919061061a565b6103de565b005b60016020528060005260406000206000915090505481565b6101766104a2565b73ffffffffffffffffffffffffffffffffffffffff166101946101f6565b73ffffffffffffffffffffffffffffffffffffffff16146101ea576040517f08c379a00000000000000000000000000000000000000000000000000000000081526004016101e1906106f9565b60405180910390fd5b6101f460006104aa565b565b60008060009054906101000a900473ffffffffffffffffffffffffffffffffffffffff16905090565b6102276104a2565b73ffffffffffffffffffffffffffffffffffffffff166102456101f6565b73ffffffffffffffffffffffffffffffffffffffff161461029b576040517f08c379a0000000000000000000000000000000000000000000000000000000008152600401610292906106f9565b60405180910390fd5b8173ffffffffffffffffffffffffffffffffffffffff166108fc829081150290604051600060405180830381858888f193505050501580156102e1573d6000803e3d6000fd5b505050565b6102ee6104a2565b73ffffffffffffffffffffffffffffffffffffffff1661030c6101f6565b73ffffffffffffffffffffffffffffffffffffffff1614610362576040517f08c379a0000000000000000000000000000000000000000000000000000000008152600401610359906106f9565b60405180910390fd5b600073ffffffffffffffffffffffffffffffffffffffff168173ffffffffffffffffffffffffffffffffffffffff1614156103d2576040517f08c379a00000000000000000000000000000000000000000000000000000000081526004016103c9906106d9565b60405180910390fd5b6103db816104aa565b50565b6103e66104a2565b73ffffffffffffffffffffffffffffffffffffffff166104046101f6565b73ffffffffffffffffffffffffffffffffffffffff161461045a576040517f08c379a0000000000000000000000000000000000000000000000000000000008152600401610451906106f9565b60405180910390fd5b80600160008473ffffffffffffffffffffffffffffffffffffffff1673ffffffffffffffffffffffffffffffffffffffff168152602001908152602001600020819055505050565b600033905090565b60008060009054906101000a900473ffffffffffffffffffffffffffffffffffffffff169050816000806101000a81548173ffffffffffffffffffffffffffffffffffffffff021916908373ffffffffffffffffffffffffffffffffffffffff1602179055508173ffffffffffffffffffffffffffffffffffffffff168173ffffffffffffffffffffffffffffffffffffffff167f8be0079c531659141344cd1fd0a4f28419497f9722a3daafe3b4186f6b6457e060405160405180910390a35050565b60008135905061057d81610810565b92915050565b60008135905061059281610827565b92915050565b6000813590506105a78161083e565b92915050565b6000602082840312156105c3576105c2610793565b5b60006105d18482850161056e565b91505092915050565b600080604083850312156105f1576105f0610793565b5b60006105ff85828601610583565b925050602061061085828601610598565b9150509250929050565b6000806040838503121561063157610630610793565b5b600061063f8582860161056e565b925050602061065085828601610598565b9150509250929050565b61066381610745565b82525050565b6000610676602683610734565b915061068182610798565b604082019050919050565b6000610699602083610734565b91506106a4826107e7565b602082019050919050565b6106b881610789565b82525050565b60006020820190506106d3600083018461065a565b92915050565b600060208201905081810360008301526106f281610669565b9050919050565b600060208201905081810360008301526107128161068c565b9050919050565b600060208201905061072e60008301846106af565b92915050565b600082825260208201905092915050565b600061075082610769565b9050919050565b600061076282610769565b9050919050565b600073ffffffffffffffffffffffffffffffffffffffff82169050919050565b6000819050919050565b600080fd5b7f4f776e61626c653a206e6577206f776e657220697320746865207a65726f206160008201527f6464726573730000000000000000000000000000000000000000000000000000602082015250565b7f4f776e61626c653a2063616c6c6572206973206e6f7420746865206f776e6572600082015250565b61081981610745565b811461082457600080fd5b50565b61083081610757565b811461083b57600080fd5b50565b61084781610789565b811461085257600080fd5b5056fea264697066735822122050058a75078a1d2645dc8a599f3a6804b3ccad6acfce345c7c558b922923a4a764736f6c63430008070033",
					"opcodes": "PUSH1 0x80 PUSH1 0x40 MSTORE CALLVALUE DUP1 ISZERO PUSH2 0x10 JUMPI PUSH1 0x0 DUP1 REVERT JUMPDEST POP PUSH2 0x2D PUSH2 0x22 PUSH2 0x32 PUSH1 0x20 SHL PUSH1 0x20 SHR JUMP JUMPDEST PUSH2 0x3A PUSH1 0x20 SHL PUSH1 0x20 SHR JUMP JUMPDEST PUSH2 0xFE JUMP JUMPDEST PUSH1 0x0 CALLER SWAP1 POP SWAP1 JUMP JUMPDEST PUSH1 0x0 DUP1 PUSH1 0x0 SWAP1 SLOAD SWAP1 PUSH2 0x100 EXP SWAP1 DIV PUSH20 0xFFFFFFFFFFFFFFFFFFFFFFFFFFFFFFFFFFFFFFFF AND SWAP1 POP DUP2 PUSH1 0x0 DUP1 PUSH2 0x100 EXP DUP2 SLOAD DUP2 PUSH20 0xFFFFFFFFFFFFFFFFFFFFFFFFFFFFFFFFFFFFFFFF MUL NOT AND SWAP1 DUP4 PUSH20 0xFFFFFFFFFFFFFFFFFFFFFFFFFFFFFFFFFFFFFFFF AND MUL OR SWAP1 SSTORE POP DUP2 PUSH20 0xFFFFFFFFFFFFFFFFFFFFFFFFFFFFFFFFFFFFFFFF AND DUP2 PUSH20 0xFFFFFFFFFFFFFFFFFFFFFFFFFFFFFFFFFFFFFFFF AND PUSH32 0x8BE0079C531659141344CD1FD0A4F28419497F9722A3DAAFE3B4186F6B6457E0 PUSH1 0x40 MLOAD PUSH1 0x40 MLOAD DUP1 SWAP2 SUB SWAP1 LOG3 POP POP JUMP JUMPDEST PUSH2 0x88B DUP1 PUSH2 0x10D PUSH1 0x0 CODECOPY PUSH1 0x0 RETURN INVALID PUSH1 0x80 PUSH1 0x40 MSTORE PUSH1 0x4 CALLDATASIZE LT PUSH2 0x59 JUMPI PUSH1 0x0 CALLDATALOAD PUSH1 0xE0 SHR DUP1 PUSH4 0x3E5BEAB9 EQ PUSH2 0x5C JUMPI DUP1 PUSH4 0x715018A6 EQ PUSH2 0x99 JUMPI DUP1 PUSH4 0x8DA5CB5B EQ PUSH2 0xB0 JUMPI DUP1 PUSH4 0xB39D7B7C EQ PUSH2 0xDB JUMPI DUP1 PUSH4 0xF2FDE38B EQ PUSH2 0x104 JUMPI DUP1 PUSH4 0xF3C40C4B EQ PUSH2 0x12D JUMPI PUSH2 0x5A JUMP JUMPDEST JUMPDEST STOP JUMPDEST CALLVALUE DUP1 ISZERO PUSH2 0x68 JUMPI PUSH1 0x0 DUP1 REVERT JUMPDEST POP PUSH2 0x83 PUSH1 0x4 DUP1 CALLDATASIZE SUB DUP2 ADD SWAP1 PUSH2 0x7E SWAP2 SWAP1 PUSH2 0x5AD JUMP JUMPDEST PUSH2 0x156 JUMP JUMPDEST PUSH1 0x40 MLOAD PUSH2 0x90 SWAP2 SWAP1 PUSH2 0x719 JUMP JUMPDEST PUSH1 0x40 MLOAD DUP1 SWAP2 SUB SWAP1 RETURN JUMPDEST CALLVALUE DUP1 ISZERO PUSH2 0xA5 JUMPI PUSH1 0x0 DUP1 REVERT JUMPDEST POP PUSH2 0xAE PUSH2 0x16E JUMP JUMPDEST STOP JUMPDEST CALLVALUE DUP1 ISZERO PUSH2 0xBC JUMPI PUSH1 0x0 DUP1 REVERT JUMPDEST POP PUSH2 0xC5 PUSH2 0x1F6 JUMP JUMPDEST PUSH1 0x40 MLOAD PUSH2 0xD2 SWAP2 SWAP1 PUSH2 0x6BE JUMP JUMPDEST PUSH1 0x40 MLOAD DUP1 SWAP2 SUB SWAP1 RETURN JUMPDEST CALLVALUE DUP1 ISZERO PUSH2 0xE7 JUMPI PUSH1 0x0 DUP1 REVERT JUMPDEST POP PUSH2 0x102 PUSH1 0x4 DUP1 CALLDATASIZE SUB DUP2 ADD SWAP1 PUSH2 0xFD SWAP2 SWAP1 PUSH2 0x5DA JUMP JUMPDEST PUSH2 0x21F JUMP JUMPDEST STOP JUMPDEST CALLVALUE DUP1 ISZERO PUSH2 0x110 JUMPI PUSH1 0x0 DUP1 REVERT JUMPDEST POP PUSH2 0x12B PUSH1 0x4 DUP1 CALLDATASIZE SUB DUP2 ADD SWAP1 PUSH2 0x126 SWAP2 SWAP1 PUSH2 0x5AD JUMP JUMPDEST PUSH2 0x2E6 JUMP JUMPDEST STOP JUMPDEST CALLVALUE DUP1 ISZERO PUSH2 0x139 JUMPI PUSH1 0x0 DUP1 REVERT JUMPDEST POP PUSH2 0x154 PUSH1 0x4 DUP1 CALLDATASIZE SUB DUP2 ADD SWAP1 PUSH2 0x14F SWAP2 SWAP1 PUSH2 0x61A JUMP JUMPDEST PUSH2 0x3DE JUMP JUMPDEST STOP JUMPDEST PUSH1 0x1 PUSH1 0x20 MSTORE DUP1 PUSH1 0x0 MSTORE PUSH1 0x40 PUSH1 0x0 KECCAK256 PUSH1 0x0 SWAP2 POP SWAP1 POP SLOAD DUP2 JUMP JUMPDEST PUSH2 0x176 PUSH2 0x4A2 JUMP JUMPDEST PUSH20 0xFFFFFFFFFFFFFFFFFFFFFFFFFFFFFFFFFFFFFFFF AND PUSH2 0x194 PUSH2 0x1F6 JUMP JUMPDEST PUSH20 0xFFFFFFFFFFFFFFFFFFFFFFFFFFFFFFFFFFFFFFFF AND EQ PUSH2 0x1EA JUMPI PUSH1 0x40 MLOAD PUSH32 0x8C379A000000000000000000000000000000000000000000000000000000000 DUP2 MSTORE PUSH1 0x4 ADD PUSH2 0x1E1 SWAP1 PUSH2 0x6F9 JUMP JUMPDEST PUSH1 0x40 MLOAD DUP1 SWAP2 SUB SWAP1 REVERT JUMPDEST PUSH2 0x1F4 PUSH1 0x0 PUSH2 0x4AA JUMP JUMPDEST JUMP JUMPDEST PUSH1 0x0 DUP1 PUSH1 0x0 SWAP1 SLOAD SWAP1 PUSH2 0x100 EXP SWAP1 DIV PUSH20 0xFFFFFFFFFFFFFFFFFFFFFFFFFFFFFFFFFFFFFFFF AND SWAP1 POP SWAP1 JUMP JUMPDEST PUSH2 0x227 PUSH2 0x4A2 JUMP JUMPDEST PUSH20 0xFFFFFFFFFFFFFFFFFFFFFFFFFFFFFFFFFFFFFFFF AND PUSH2 0x245 PUSH2 0x1F6 JUMP JUMPDEST PUSH20 0xFFFFFFFFFFFFFFFFFFFFFFFFFFFFFFFFFFFFFFFF AND EQ PUSH2 0x29B JUMPI PUSH1 0x40 MLOAD PUSH32 0x8C379A000000000000000000000000000000000000000000000000000000000 DUP2 MSTORE PUSH1 0x4 ADD PUSH2 0x292 SWAP1 PUSH2 0x6F9 JUMP JUMPDEST PUSH1 0x40 MLOAD DUP1 SWAP2 SUB SWAP1 REVERT JUMPDEST DUP2 PUSH20 0xFFFFFFFFFFFFFFFFFFFFFFFFFFFFFFFFFFFFFFFF AND PUSH2 0x8FC DUP3 SWAP1 DUP2 ISZERO MUL SWAP1 PUSH1 0x40 MLOAD PUSH1 0x0 PUSH1 0x40 MLOAD DUP1 DUP4 SUB DUP2 DUP6 DUP9 DUP9 CALL SWAP4 POP POP POP POP ISZERO DUP1 ISZERO PUSH2 0x2E1 JUMPI RETURNDATASIZE PUSH1 0x0 DUP1 RETURNDATACOPY RETURNDATASIZE PUSH1 0x0 REVERT JUMPDEST POP POP POP JUMP JUMPDEST PUSH2 0x2EE PUSH2 0x4A2 JUMP JUMPDEST PUSH20 0xFFFFFFFFFFFFFFFFFFFFFFFFFFFFFFFFFFFFFFFF AND PUSH2 0x30C PUSH2 0x1F6 JUMP JUMPDEST PUSH20 0xFFFFFFFFFFFFFFFFFFFFFFFFFFFFFFFFFFFFFFFF AND EQ PUSH2 0x362 JUMPI PUSH1 0x40 MLOAD PUSH32 0x8C379A000000000000000000000000000000000000000000000000000000000 DUP2 MSTORE PUSH1 0x4 ADD PUSH2 0x359 SWAP1 PUSH2 0x6F9 JUMP JUMPDEST PUSH1 0x40 MLOAD DUP1 SWAP2 SUB SWAP1 REVERT JUMPDEST PUSH1 0x0 PUSH20 0xFFFFFFFFFFFFFFFFFFFFFFFFFFFFFFFFFFFFFFFF AND DUP2 PUSH20 0xFFFFFFFFFFFFFFFFFFFFFFFFFFFFFFFFFFFFFFFF AND EQ ISZERO PUSH2 0x3D2 JUMPI PUSH1 0x40 MLOAD PUSH32 0x8C379A000000000000000000000000000000000000000000000000000000000 DUP2 MSTORE PUSH1 0x4 ADD PUSH2 0x3C9 SWAP1 PUSH2 0x6D9 JUMP JUMPDEST PUSH1 0x40 MLOAD DUP1 SWAP2 SUB SWAP1 REVERT JUMPDEST PUSH2 0x3DB DUP2 PUSH2 0x4AA JUMP JUMPDEST POP JUMP JUMPDEST PUSH2 0x3E6 PUSH2 0x4A2 JUMP JUMPDEST PUSH20 0xFFFFFFFFFFFFFFFFFFFFFFFFFFFFFFFFFFFFFFFF AND PUSH2 0x404 PUSH2 0x1F6 JUMP JUMPDEST PUSH20 0xFFFFFFFFFFFFFFFFFFFFFFFFFFFFFFFFFFFFFFFF AND EQ PUSH2 0x45A JUMPI PUSH1 0x40 MLOAD PUSH32 0x8C379A000000000000000000000000000000000000000000000000000000000 DUP2 MSTORE PUSH1 0x4 ADD PUSH2 0x451 SWAP1 PUSH2 0x6F9 JUMP JUMPDEST PUSH1 0x40 MLOAD DUP1 SWAP2 SUB SWAP1 REVERT JUMPDEST DUP1 PUSH1 0x1 PUSH1 0x0 DUP5 PUSH20 0xFFFFFFFFFFFFFFFFFFFFFFFFFFFFFFFFFFFFFFFF AND PUSH20 0xFFFFFFFFFFFFFFFFFFFFFFFFFFFFFFFFFFFFFFFF AND DUP2 MSTORE PUSH1 0x20 ADD SWAP1 DUP2 MSTORE PUSH1 0x20 ADD PUSH1 0x0 KECCAK256 DUP2 SWAP1 SSTORE POP POP POP JUMP JUMPDEST PUSH1 0x0 CALLER SWAP1 POP SWAP1 JUMP JUMPDEST PUSH1 0x0 DUP1 PUSH1 0x0 SWAP1 SLOAD SWAP1 PUSH2 0x100 EXP SWAP1 DIV PUSH20 0xFFFFFFFFFFFFFFFFFFFFFFFFFFFFFFFFFFFFFFFF AND SWAP1 POP DUP2 PUSH1 0x0 DUP1 PUSH2 0x100 EXP DUP2 SLOAD DUP2 PUSH20 0xFFFFFFFFFFFFFFFFFFFFFFFFFFFFFFFFFFFFFFFF MUL NOT AND SWAP1 DUP4 PUSH20 0xFFFFFFFFFFFFFFFFFFFFFFFFFFFFFFFFFFFFFFFF AND MUL OR SWAP1 SSTORE POP DUP2 PUSH20 0xFFFFFFFFFFFFFFFFFFFFFFFFFFFFFFFFFFFFFFFF AND DUP2 PUSH20 0xFFFFFFFFFFFFFFFFFFFFFFFFFFFFFFFFFFFFFFFF AND PUSH32 0x8BE0079C531659141344CD1FD0A4F28419497F9722A3DAAFE3B4186F6B6457E0 PUSH1 0x40 MLOAD PUSH1 0x40 MLOAD DUP1 SWAP2 SUB SWAP1 LOG3 POP POP JUMP JUMPDEST PUSH1 0x0 DUP2 CALLDATALOAD SWAP1 POP PUSH2 0x57D DUP2 PUSH2 0x810 JUMP JUMPDEST SWAP3 SWAP2 POP POP JUMP JUMPDEST PUSH1 0x0 DUP2 CALLDATALOAD SWAP1 POP PUSH2 0x592 DUP2 PUSH2 0x827 JUMP JUMPDEST SWAP3 SWAP2 POP POP JUMP JUMPDEST PUSH1 0x0 DUP2 CALLDATALOAD SWAP1 POP PUSH2 0x5A7 DUP2 PUSH2 0x83E JUMP JUMPDEST SWAP3 SWAP2 POP POP JUMP JUMPDEST PUSH1 0x0 PUSH1 0x20 DUP3 DUP5 SUB SLT ISZERO PUSH2 0x5C3 JUMPI PUSH2 0x5C2 PUSH2 0x793 JUMP JUMPDEST JUMPDEST PUSH1 0x0 PUSH2 0x5D1 DUP5 DUP3 DUP6 ADD PUSH2 0x56E JUMP JUMPDEST SWAP2 POP POP SWAP3 SWAP2 POP POP JUMP JUMPDEST PUSH1 0x0 DUP1 PUSH1 0x40 DUP4 DUP6 SUB SLT ISZERO PUSH2 0x5F1 JUMPI PUSH2 0x5F0 PUSH2 0x793 JUMP JUMPDEST JUMPDEST PUSH1 0x0 PUSH2 0x5FF DUP6 DUP3 DUP7 ADD PUSH2 0x583 JUMP JUMPDEST SWAP3 POP POP PUSH1 0x20 PUSH2 0x610 DUP6 DUP3 DUP7 ADD PUSH2 0x598 JUMP JUMPDEST SWAP2 POP POP SWAP3 POP SWAP3 SWAP1 POP JUMP JUMPDEST PUSH1 0x0 DUP1 PUSH1 0x40 DUP4 DUP6 SUB SLT ISZERO PUSH2 0x631 JUMPI PUSH2 0x630 PUSH2 0x793 JUMP JUMPDEST JUMPDEST PUSH1 0x0 PUSH2 0x63F DUP6 DUP3 DUP7 ADD PUSH2 0x56E JUMP JUMPDEST SWAP3 POP POP PUSH1 0x20 PUSH2 0x650 DUP6 DUP3 DUP7 ADD PUSH2 0x598 JUMP JUMPDEST SWAP2 POP POP SWAP3 POP SWAP3 SWAP1 POP JUMP JUMPDEST PUSH2 0x663 DUP2 PUSH2 0x745 JUMP JUMPDEST DUP3 MSTORE POP POP JUMP JUMPDEST PUSH1 0x0 PUSH2 0x676 PUSH1 0x26 DUP4 PUSH2 0x734 JUMP JUMPDEST SWAP2 POP PUSH2 0x681 DUP3 PUSH2 0x798 JUMP JUMPDEST PUSH1 0x40 DUP3 ADD SWAP1 POP SWAP2 SWAP1 POP JUMP JUMPDEST PUSH1 0x0 PUSH2 0x699 PUSH1 0x20 DUP4 PUSH2 0x734 JUMP JUMPDEST SWAP2 POP PUSH2 0x6A4 DUP3 PUSH2 0x7E7 JUMP JUMPDEST PUSH1 0x20 DUP3 ADD SWAP1 POP SWAP2 SWAP1 POP JUMP JUMPDEST PUSH2 0x6B8 DUP2 PUSH2 0x789 JUMP JUMPDEST DUP3 MSTORE POP POP JUMP JUMPDEST PUSH1 0x0 PUSH1 0x20 DUP3 ADD SWAP1 POP PUSH2 0x6D3 PUSH1 0x0 DUP4 ADD DUP5 PUSH2 0x65A JUMP JUMPDEST SWAP3 SWAP2 POP POP JUMP JUMPDEST PUSH1 0x0 PUSH1 0x20 DUP3 ADD SWAP1 POP DUP2 DUP2 SUB PUSH1 0x0 DUP4 ADD MSTORE PUSH2 0x6F2 DUP2 PUSH2 0x669 JUMP JUMPDEST SWAP1 POP SWAP2 SWAP1 POP JUMP JUMPDEST PUSH1 0x0 PUSH1 0x20 DUP3 ADD SWAP1 POP DUP2 DUP2 SUB PUSH1 0x0 DUP4 ADD MSTORE PUSH2 0x712 DUP2 PUSH2 0x68C JUMP JUMPDEST SWAP1 POP SWAP2 SWAP1 POP JUMP JUMPDEST PUSH1 0x0 PUSH1 0x20 DUP3 ADD SWAP1 POP PUSH2 0x72E PUSH1 0x0 DUP4 ADD DUP5 PUSH2 0x6AF JUMP JUMPDEST SWAP3 SWAP2 POP POP JUMP JUMPDEST PUSH1 0x0 DUP3 DUP3 MSTORE PUSH1 0x20 DUP3 ADD SWAP1 POP SWAP3 SWAP2 POP POP JUMP JUMPDEST PUSH1 0x0 PUSH2 0x750 DUP3 PUSH2 0x769 JUMP JUMPDEST SWAP1 POP SWAP2 SWAP1 POP JUMP JUMPDEST PUSH1 0x0 PUSH2 0x762 DUP3 PUSH2 0x769 JUMP JUMPDEST SWAP1 POP SWAP2 SWAP1 POP JUMP JUMPDEST PUSH1 0x0 PUSH20 0xFFFFFFFFFFFFFFFFFFFFFFFFFFFFFFFFFFFFFFFF DUP3 AND SWAP1 POP SWAP2 SWAP1 POP JUMP JUMPDEST PUSH1 0x0 DUP2 SWAP1 POP SWAP2 SWAP1 POP JUMP JUMPDEST PUSH1 0x0 DUP1 REVERT JUMPDEST PUSH32 0x4F776E61626C653A206E6577206F776E657220697320746865207A65726F2061 PUSH1 0x0 DUP3 ADD MSTORE PUSH32 0x6464726573730000000000000000000000000000000000000000000000000000 PUSH1 0x20 DUP3 ADD MSTORE POP JUMP JUMPDEST PUSH32 0x4F776E61626C653A2063616C6C6572206973206E6F7420746865206F776E6572 PUSH1 0x0 DUP3 ADD MSTORE POP JUMP JUMPDEST PUSH2 0x819 DUP2 PUSH2 0x745 JUMP JUMPDEST DUP2 EQ PUSH2 0x824 JUMPI PUSH1 0x0 DUP1 REVERT JUMPDEST POP JUMP JUMPDEST PUSH2 0x830 DUP2 PUSH2 0x757 JUMP JUMPDEST DUP2 EQ PUSH2 0x83B JUMPI PUSH1 0x0 DUP1 REVERT JUMPDEST POP JUMP JUMPDEST PUSH2 0x847 DUP2 PUSH2 0x789 JUMP JUMPDEST DUP2 EQ PUSH2 0x852 JUMPI PUSH1 0x0 DUP1 REVERT JUMPDEST POP JUMP INVALID LOG2 PUSH5 0x6970667358 0x22 SLT KECCAK256 POP SDIV DUP11 PUSH22 0x78A1D2645DC8A599F3A6804B3CCAD6ACFCE345C7C55 DUP12 SWAP3 0x29 0x23 LOG4 0xA7 PUSH5 0x736F6C6343 STOP ADDMOD SMOD STOP CALLER "
				},
				"gasEstimates": {
					"creation": {
						"codeDepositCost": "437400",
						"executionCost": "infinite",
						"totalCost": "infinite"
					},
					"external": {
						"": "195",
						"addAllowance(address,uint256)": "25160",
						"allowance(address)": "2792",
						"owner()": "2544",
						"renounceOwnership()": "30374",
						"transferOwnership(address)": "30789",
						"withDrawMoney(address,uint256)": "infinite"
					}
				},
				"methodIdentifiers": {
					"addAllowance(address,uint256)": "f3c40c4b",
					"allowance(address)": "3e5beab9",
					"owner()": "8da5cb5b",
					"renounceOwnership()": "715018a6",
					"transferOwnership(address)": "f2fde38b",
					"withDrawMoney(address,uint256)": "b39d7b7c"
				}
			},
			"storageLayout": {
				"storage": [
					{
						"astId": 79,
						"contract": "contracts/SimpleWallet.sol:SimpleWallet",
						"label": "_owner",
						"offset": 0,
						"slot": "0",
						"type": "t_address"
					},
					{
						"astId": 8,
						"contract": "contracts/SimpleWallet.sol:SimpleWallet",
						"label": "allowance",
						"offset": 0,
						"slot": "1",
						"type": "t_mapping(t_address,t_uint256)"
					}
				],
				"types": {
					"t_address": {
						"encoding": "inplace",
						"label": "address",
						"numberOfBytes": "20"
					},
					"t_mapping(t_address,t_uint256)": {
						"encoding": "mapping",
						"key": "t_address",
						"label": "mapping(address => uint256)",
						"numberOfBytes": "32",
						"value": "t_uint256"
					},
					"t_uint256": {
						"encoding": "inplace",
						"label": "uint256",
						"numberOfBytes": "32"
					}
				}
			},
			"userdoc": {
				"kind": "user",
				"methods": {},
				"version": 1
			}
		}
	}
}