{
	"contracts/SimpleWallet.sol": {
		"Allowance": {
			"abi": [
				{
					"anonymous": false,
					"inputs": [
						{
							"indexed": true,
							"internalType": "address",
							"name": "_who",
							"type": "address"
						},
						{
							"indexed": true,
							"internalType": "address",
							"name": "_from",
							"type": "address"
						},
						{
							"indexed": false,
							"internalType": "uint256",
							"name": "_oldAmount",
							"type": "uint256"
						},
						{
							"indexed": false,
							"internalType": "uint256",
							"name": "_newAmount",
							"type": "uint256"
						}
					],
					"name": "AllowanceChanged",
					"type": "event"
				},
				{
					"anonymous": false,
					"inputs": [
						{
							"indexed": true,
							"internalType": "address",
							"name": "previousOwner",
							"type": "address"
						},
						{
							"indexed": true,
							"internalType": "address",
							"name": "newOwner",
							"type": "address"
						}
					],
					"name": "OwnershipTransferred",
					"type": "event"
				},
				{
					"inputs": [
						{
							"internalType": "address",
							"name": "_who",
							"type": "address"
						},
						{
							"internalType": "uint256",
							"name": "_amount",
							"type": "uint256"
						}
					],
					"name": "addAllowance",
					"outputs": [],
					"stateMutability": "nonpayable",
					"type": "function"
				},
				{
					"inputs": [
						{
							"internalType": "address",
							"name": "",
							"type": "address"
						}
					],
					"name": "allowance",
					"outputs": [
						{
							"internalType": "uint256",
							"name": "",
							"type": "uint256"
						}
					],
					"stateMutability": "view",
					"type": "function"
				},
				{
					"inputs": [],
					"name": "isOwner",
					"outputs": [
						{
							"internalType": "bool",
							"name": "",
							"type": "bool"
						}
					],
					"stateMutability": "view",
					"type": "function"
				},
				{
					"inputs": [],
					"name": "owner",
					"outputs": [
						{
							"internalType": "address",
							"name": "",
							"type": "address"
						}
					],
					"stateMutability": "view",
					"type": "function"
				},
				{
					"inputs": [],
					"name": "renounceOwnership",
					"outputs": [],
					"stateMutability": "nonpayable",
					"type": "function"
				},
				{
					"inputs": [
						{
							"internalType": "address",
							"name": "newOwner",
							"type": "address"
						}
					],
					"name": "transferOwnership",
					"outputs": [],
					"stateMutability": "nonpayable",
					"type": "function"
				}
			],
			"devdoc": {
				"kind": "dev",
				"methods": {
					"owner()": {
						"details": "Returns the address of the current owner."
					},
					"renounceOwnership()": {
						"details": "Leaves the contract without owner. It will not be possible to call `onlyOwner` functions anymore. Can only be called by the current owner. NOTE: Renouncing ownership will leave the contract without an owner, thereby removing any functionality that is only available to the owner."
					},
					"transferOwnership(address)": {
						"details": "Transfers ownership of the contract to a new account (`newOwner`). Can only be called by the current owner."
					}
				},
				"version": 1
			},
			"evm": {
				"assembly": "    /* \"contracts/SimpleWallet.sol\":60:791  contract Allowance is Ownable{\r... */\n  mstore(0x40, 0x80)\n  callvalue\n  dup1\n  iszero\n  tag_1\n  jumpi\n  0x00\n  dup1\n  revert\ntag_1:\n  pop\n    /* \"contracts/utils/Ownable.sol\":940:972  _transferOwnership(_msgSender()) */\n  tag_4\n    /* \"contracts/utils/Ownable.sol\":959:971  _msgSender() */\n  tag_5\n    /* \"contracts/utils/Ownable.sol\":959:969  _msgSender */\n  shl(0x20, tag_6)\n    /* \"contracts/utils/Ownable.sol\":959:971  _msgSender() */\n  0x20\n  shr\n  jump\t// in\ntag_5:\n    /* \"contracts/utils/Ownable.sol\":940:958  _transferOwnership */\n  shl(0x20, tag_7)\n    /* \"contracts/utils/Ownable.sol\":940:972  _transferOwnership(_msgSender()) */\n  0x20\n  shr\n  jump\t// in\ntag_4:\n    /* \"contracts/SimpleWallet.sol\":60:791  contract Allowance is Ownable{\r... */\n  jump(tag_8)\n    /* \"contracts/utils/Context.sol\":656:754  function _msgSender() internal view virtual returns (address) {\r... */\ntag_6:\n    /* \"contracts/utils/Context.sol\":709:716  address */\n  0x00\n    /* \"contracts/utils/Context.sol\":736:746  msg.sender */\n  caller\n    /* \"contracts/utils/Context.sol\":729:746  return msg.sender */\n  swap1\n  pop\n    /* \"contracts/utils/Context.sol\":656:754  function _msgSender() internal view virtual returns (address) {\r... */\n  swap1\n  jump\t// out\n    /* \"contracts/utils/Ownable.sol\":2432:2623  function _transferOwnership(address newOwner) internal virtual {\r... */\ntag_7:\n    /* \"contracts/utils/Ownable.sol\":2506:2522  address oldOwner */\n  0x00\n    /* \"contracts/utils/Ownable.sol\":2525:2531  _owner */\n  dup1\n  0x00\n  swap1\n  sload\n  swap1\n  0x0100\n  exp\n  swap1\n  div\n  0xffffffffffffffffffffffffffffffffffffffff\n  and\n    /* \"contracts/utils/Ownable.sol\":2506:2531  address oldOwner = _owner */\n  swap1\n  pop\n    /* \"contracts/utils/Ownable.sol\":2551:2559  newOwner */\n  dup2\n    /* \"contracts/utils/Ownable.sol\":2542:2548  _owner */\n  0x00\n  dup1\n    /* \"contracts/utils/Ownable.sol\":2542:2559  _owner = newOwner */\n  0x0100\n  exp\n  dup2\n  sload\n  dup2\n  0xffffffffffffffffffffffffffffffffffffffff\n  mul\n  not\n  and\n  swap1\n  dup4\n  0xffffffffffffffffffffffffffffffffffffffff\n  and\n  mul\n  or\n  swap1\n  sstore\n  pop\n    /* \"contracts/utils/Ownable.sol\":2606:2614  newOwner */\n  dup2\n    /* \"contracts/utils/Ownable.sol\":2575:2615  OwnershipTransferred(oldOwner, newOwner) */\n  0xffffffffffffffffffffffffffffffffffffffff\n  and\n    /* \"contracts/utils/Ownable.sol\":2596:2604  oldOwner */\n  dup2\n    /* \"contracts/utils/Ownable.sol\":2575:2615  OwnershipTransferred(oldOwner, newOwner) */\n  0xffffffffffffffffffffffffffffffffffffffff\n  and\n  0x8be0079c531659141344cd1fd0a4f28419497f9722a3daafe3b4186f6b6457e0\n  mload(0x40)\n  mload(0x40)\n  dup1\n  swap2\n  sub\n  swap1\n  log3\n    /* \"contracts/utils/Ownable.sol\":2495:2623  {\r... */\n  pop\n    /* \"contracts/utils/Ownable.sol\":2432:2623  function _transferOwnership(address newOwner) internal virtual {\r... */\n  pop\n  jump\t// out\n    /* \"contracts/SimpleWallet.sol\":60:791  contract Allowance is Ownable{\r... */\ntag_8:\n  dataSize(sub_0)\n  dup1\n  dataOffset(sub_0)\n  0x00\n  codecopy\n  0x00\n  return\nstop\n\nsub_0: assembly {\n        /* \"contracts/SimpleWallet.sol\":60:791  contract Allowance is Ownable{\r... */\n      mstore(0x40, 0x80)\n      callvalue\n      dup1\n      iszero\n      tag_1\n      jumpi\n      0x00\n      dup1\n      revert\n    tag_1:\n      pop\n      jumpi(tag_2, lt(calldatasize, 0x04))\n      shr(0xe0, calldataload(0x00))\n      dup1\n      0x3e5beab9\n      eq\n      tag_3\n      jumpi\n      dup1\n      0x715018a6\n      eq\n      tag_4\n      jumpi\n      dup1\n      0x8da5cb5b\n      eq\n      tag_5\n      jumpi\n      dup1\n      0x8f32d59b\n      eq\n      tag_6\n      jumpi\n      dup1\n      0xf2fde38b\n      eq\n      tag_7\n      jumpi\n      dup1\n      0xf3c40c4b\n      eq\n      tag_8\n      jumpi\n    tag_2:\n      0x00\n      dup1\n      revert\n        /* \"contracts/SimpleWallet.sol\":96:135  mapping(address=>uint) public allowance */\n    tag_3:\n      tag_9\n      0x04\n      dup1\n      calldatasize\n      sub\n      dup2\n      add\n      swap1\n      tag_10\n      swap2\n      swap1\n      tag_11\n      jump\t// in\n    tag_10:\n      tag_12\n      jump\t// in\n    tag_9:\n      mload(0x40)\n      tag_13\n      swap2\n      swap1\n      tag_14\n      jump\t// in\n    tag_13:\n      mload(0x40)\n      dup1\n      swap2\n      sub\n      swap1\n      return\n        /* \"contracts/utils/Ownable.sol\":1813:1916  function renounceOwnership() public virtual onlyOwner {\r... */\n    tag_4:\n      tag_15\n      tag_16\n      jump\t// in\n    tag_15:\n      stop\n        /* \"contracts/utils/Ownable.sol\":1061:1148  function owner() public view virtual returns (address) {\r... */\n    tag_5:\n      tag_17\n      tag_18\n      jump\t// in\n    tag_17:\n      mload(0x40)\n      tag_19\n      swap2\n      swap1\n      tag_20\n      jump\t// in\n    tag_19:\n      mload(0x40)\n      dup1\n      swap2\n      sub\n      swap1\n      return\n        /* \"contracts/utils/Ownable.sol\":1369:1462  function isOwner() public view returns (bool){\r... */\n    tag_6:\n      tag_21\n      tag_22\n      jump\t// in\n    tag_21:\n      mload(0x40)\n      tag_23\n      swap2\n      swap1\n      tag_24\n      jump\t// in\n    tag_23:\n      mload(0x40)\n      dup1\n      swap2\n      sub\n      swap1\n      return\n        /* \"contracts/utils/Ownable.sol\":2071:2272  function transferOwnership(address newOwner) public virtual onlyOwner {\r... */\n    tag_7:\n      tag_25\n      0x04\n      dup1\n      calldatasize\n      sub\n      dup2\n      add\n      swap1\n      tag_26\n      swap2\n      swap1\n      tag_11\n      jump\t// in\n    tag_26:\n      tag_27\n      jump\t// in\n    tag_25:\n      stop\n        /* \"contracts/SimpleWallet.sol\":252:434  function addAllowance(address _who,uint _amount) public onlyOwner{\r... */\n    tag_8:\n      tag_28\n      0x04\n      dup1\n      calldatasize\n      sub\n      dup2\n      add\n      swap1\n      tag_29\n      swap2\n      swap1\n      tag_30\n      jump\t// in\n    tag_29:\n      tag_31\n      jump\t// in\n    tag_28:\n      stop\n        /* \"contracts/SimpleWallet.sol\":96:135  mapping(address=>uint) public allowance */\n    tag_12:\n      mstore(0x20, 0x01)\n      dup1\n      0x00\n      mstore\n      keccak256(0x00, 0x40)\n      0x00\n      swap2\n      pop\n      swap1\n      pop\n      sload\n      dup2\n      jump\t// out\n        /* \"contracts/utils/Ownable.sol\":1813:1916  function renounceOwnership() public virtual onlyOwner {\r... */\n    tag_16:\n        /* \"contracts/utils/Ownable.sol\":1292:1304  _msgSender() */\n      tag_33\n        /* \"contracts/utils/Ownable.sol\":1292:1302  _msgSender */\n      tag_34\n        /* \"contracts/utils/Ownable.sol\":1292:1304  _msgSender() */\n      jump\t// in\n    tag_33:\n        /* \"contracts/utils/Ownable.sol\":1281:1304  owner() == _msgSender() */\n      0xffffffffffffffffffffffffffffffffffffffff\n      and\n        /* \"contracts/utils/Ownable.sol\":1281:1288  owner() */\n      tag_35\n        /* \"contracts/utils/Ownable.sol\":1281:1286  owner */\n      tag_18\n        /* \"contracts/utils/Ownable.sol\":1281:1288  owner() */\n      jump\t// in\n    tag_35:\n        /* \"contracts/utils/Ownable.sol\":1281:1304  owner() == _msgSender() */\n      0xffffffffffffffffffffffffffffffffffffffff\n      and\n      eq\n        /* \"contracts/utils/Ownable.sol\":1273:1341  require(owner() == _msgSender(), \"Ownable: caller is not the owner\") */\n      tag_36\n      jumpi\n      mload(0x40)\n      0x08c379a000000000000000000000000000000000000000000000000000000000\n      dup2\n      mstore\n      0x04\n      add\n      tag_37\n      swap1\n      tag_38\n      jump\t// in\n    tag_37:\n      mload(0x40)\n      dup1\n      swap2\n      sub\n      swap1\n      revert\n    tag_36:\n        /* \"contracts/utils/Ownable.sol\":1878:1908  _transferOwnership(address(0)) */\n      tag_40\n        /* \"contracts/utils/Ownable.sol\":1905:1906  0 */\n      0x00\n        /* \"contracts/utils/Ownable.sol\":1878:1896  _transferOwnership */\n      tag_41\n        /* \"contracts/utils/Ownable.sol\":1878:1908  _transferOwnership(address(0)) */\n      jump\t// in\n    tag_40:\n        /* \"contracts/utils/Ownable.sol\":1813:1916  function renounceOwnership() public virtual onlyOwner {\r... */\n      jump\t// out\n        /* \"contracts/utils/Ownable.sol\":1061:1148  function owner() public view virtual returns (address) {\r... */\n    tag_18:\n        /* \"contracts/utils/Ownable.sol\":1107:1114  address */\n      0x00\n        /* \"contracts/utils/Ownable.sol\":1134:1140  _owner */\n      dup1\n      0x00\n      swap1\n      sload\n      swap1\n      0x0100\n      exp\n      swap1\n      div\n      0xffffffffffffffffffffffffffffffffffffffff\n      and\n        /* \"contracts/utils/Ownable.sol\":1127:1140  return _owner */\n      swap1\n      pop\n        /* \"contracts/utils/Ownable.sol\":1061:1148  function owner() public view virtual returns (address) {\r... */\n      swap1\n      jump\t// out\n        /* \"contracts/utils/Ownable.sol\":1369:1462  function isOwner() public view returns (bool){\r... */\n    tag_22:\n        /* \"contracts/utils/Ownable.sol\":1409:1413  bool */\n      0x00\n        /* \"contracts/utils/Ownable.sol\":1448:1454  _owner */\n      dup1\n      0x00\n      swap1\n      sload\n      swap1\n      0x0100\n      exp\n      swap1\n      div\n      0xffffffffffffffffffffffffffffffffffffffff\n      and\n        /* \"contracts/utils/Ownable.sol\":1432:1454  _msgSender() == _owner */\n      0xffffffffffffffffffffffffffffffffffffffff\n      and\n        /* \"contracts/utils/Ownable.sol\":1432:1444  _msgSender() */\n      tag_44\n        /* \"contracts/utils/Ownable.sol\":1432:1442  _msgSender */\n      tag_34\n        /* \"contracts/utils/Ownable.sol\":1432:1444  _msgSender() */\n      jump\t// in\n    tag_44:\n        /* \"contracts/utils/Ownable.sol\":1432:1454  _msgSender() == _owner */\n      0xffffffffffffffffffffffffffffffffffffffff\n      and\n      eq\n        /* \"contracts/utils/Ownable.sol\":1425:1454  return _msgSender() == _owner */\n      swap1\n      pop\n        /* \"contracts/utils/Ownable.sol\":1369:1462  function isOwner() public view returns (bool){\r... */\n      swap1\n      jump\t// out\n        /* \"contracts/utils/Ownable.sol\":2071:2272  function transferOwnership(address newOwner) public virtual onlyOwner {\r... */\n    tag_27:\n        /* \"contracts/utils/Ownable.sol\":1292:1304  _msgSender() */\n      tag_46\n        /* \"contracts/utils/Ownable.sol\":1292:1302  _msgSender */\n      tag_34\n        /* \"contracts/utils/Ownable.sol\":1292:1304  _msgSender() */\n      jump\t// in\n    tag_46:\n        /* \"contracts/utils/Ownable.sol\":1281:1304  owner() == _msgSender() */\n      0xffffffffffffffffffffffffffffffffffffffff\n      and\n        /* \"contracts/utils/Ownable.sol\":1281:1288  owner() */\n      tag_47\n        /* \"contracts/utils/Ownable.sol\":1281:1286  owner */\n      tag_18\n        /* \"contracts/utils/Ownable.sol\":1281:1288  owner() */\n      jump\t// in\n    tag_47:\n        /* \"contracts/utils/Ownable.sol\":1281:1304  owner() == _msgSender() */\n      0xffffffffffffffffffffffffffffffffffffffff\n      and\n      eq\n        /* \"contracts/utils/Ownable.sol\":1273:1341  require(owner() == _msgSender(), \"Ownable: caller is not the owner\") */\n      tag_48\n      jumpi\n      mload(0x40)\n      0x08c379a000000000000000000000000000000000000000000000000000000000\n      dup2\n      mstore\n      0x04\n      add\n      tag_49\n      swap1\n      tag_38\n      jump\t// in\n    tag_49:\n      mload(0x40)\n      dup1\n      swap2\n      sub\n      swap1\n      revert\n    tag_48:\n        /* \"contracts/utils/Ownable.sol\":2180:2181  0 */\n      0x00\n        /* \"contracts/utils/Ownable.sol\":2160:2182  newOwner != address(0) */\n      0xffffffffffffffffffffffffffffffffffffffff\n      and\n        /* \"contracts/utils/Ownable.sol\":2160:2168  newOwner */\n      dup2\n        /* \"contracts/utils/Ownable.sol\":2160:2182  newOwner != address(0) */\n      0xffffffffffffffffffffffffffffffffffffffff\n      and\n      eq\n      iszero\n        /* \"contracts/utils/Ownable.sol\":2152:2225  require(newOwner != address(0), \"Ownable: new owner is the zero address\") */\n      tag_51\n      jumpi\n      mload(0x40)\n      0x08c379a000000000000000000000000000000000000000000000000000000000\n      dup2\n      mstore\n      0x04\n      add\n      tag_52\n      swap1\n      tag_53\n      jump\t// in\n    tag_52:\n      mload(0x40)\n      dup1\n      swap2\n      sub\n      swap1\n      revert\n    tag_51:\n        /* \"contracts/utils/Ownable.sol\":2236:2264  _transferOwnership(newOwner) */\n      tag_54\n        /* \"contracts/utils/Ownable.sol\":2255:2263  newOwner */\n      dup2\n        /* \"contracts/utils/Ownable.sol\":2236:2254  _transferOwnership */\n      tag_41\n        /* \"contracts/utils/Ownable.sol\":2236:2264  _transferOwnership(newOwner) */\n      jump\t// in\n    tag_54:\n        /* \"contracts/utils/Ownable.sol\":2071:2272  function transferOwnership(address newOwner) public virtual onlyOwner {\r... */\n      pop\n      jump\t// out\n        /* \"contracts/SimpleWallet.sol\":252:434  function addAllowance(address _who,uint _amount) public onlyOwner{\r... */\n    tag_31:\n        /* \"contracts/utils/Ownable.sol\":1292:1304  _msgSender() */\n      tag_56\n        /* \"contracts/utils/Ownable.sol\":1292:1302  _msgSender */\n      tag_34\n        /* \"contracts/utils/Ownable.sol\":1292:1304  _msgSender() */\n      jump\t// in\n    tag_56:\n        /* \"contracts/utils/Ownable.sol\":1281:1304  owner() == _msgSender() */\n      0xffffffffffffffffffffffffffffffffffffffff\n      and\n        /* \"contracts/utils/Ownable.sol\":1281:1288  owner() */\n      tag_57\n        /* \"contracts/utils/Ownable.sol\":1281:1286  owner */\n      tag_18\n        /* \"contracts/utils/Ownable.sol\":1281:1288  owner() */\n      jump\t// in\n    tag_57:\n        /* \"contracts/utils/Ownable.sol\":1281:1304  owner() == _msgSender() */\n      0xffffffffffffffffffffffffffffffffffffffff\n      and\n      eq\n        /* \"contracts/utils/Ownable.sol\":1273:1341  require(owner() == _msgSender(), \"Ownable: caller is not the owner\") */\n      tag_58\n      jumpi\n      mload(0x40)\n      0x08c379a000000000000000000000000000000000000000000000000000000000\n      dup2\n      mstore\n      0x04\n      add\n      tag_59\n      swap1\n      tag_38\n      jump\t// in\n    tag_59:\n      mload(0x40)\n      dup1\n      swap2\n      sub\n      swap1\n      revert\n    tag_58:\n        /* \"contracts/SimpleWallet.sol\":355:365  msg.sender */\n      caller\n        /* \"contracts/SimpleWallet.sol\":333:391  AllowanceChanged(_who,msg.sender,allowance[_who], _amount) */\n      0xffffffffffffffffffffffffffffffffffffffff\n      and\n        /* \"contracts/SimpleWallet.sol\":350:354  _who */\n      dup3\n        /* \"contracts/SimpleWallet.sol\":333:391  AllowanceChanged(_who,msg.sender,allowance[_who], _amount) */\n      0xffffffffffffffffffffffffffffffffffffffff\n      and\n      0x3691d1a86d99355e52b689ca70a7bdf6d80763237a6aa06e5fa43964eac7244b\n        /* \"contracts/SimpleWallet.sol\":366:375  allowance */\n      0x01\n        /* \"contracts/SimpleWallet.sol\":366:381  allowance[_who] */\n      0x00\n        /* \"contracts/SimpleWallet.sol\":376:380  _who */\n      dup7\n        /* \"contracts/SimpleWallet.sol\":366:381  allowance[_who] */\n      0xffffffffffffffffffffffffffffffffffffffff\n      and\n      0xffffffffffffffffffffffffffffffffffffffff\n      and\n      dup2\n      mstore\n      0x20\n      add\n      swap1\n      dup2\n      mstore\n      0x20\n      add\n      0x00\n      keccak256\n      sload\n        /* \"contracts/SimpleWallet.sol\":383:390  _amount */\n      dup5\n        /* \"contracts/SimpleWallet.sol\":333:391  AllowanceChanged(_who,msg.sender,allowance[_who], _amount) */\n      mload(0x40)\n      tag_61\n      swap3\n      swap2\n      swap1\n      tag_62\n      jump\t// in\n    tag_61:\n      mload(0x40)\n      dup1\n      swap2\n      sub\n      swap1\n      log3\n        /* \"contracts/SimpleWallet.sol\":419:426  _amount */\n      dup1\n        /* \"contracts/SimpleWallet.sol\":402:411  allowance */\n      0x01\n        /* \"contracts/SimpleWallet.sol\":402:417  allowance[_who] */\n      0x00\n        /* \"contracts/SimpleWallet.sol\":412:416  _who */\n      dup5\n        /* \"contracts/SimpleWallet.sol\":402:417  allowance[_who] */\n      0xffffffffffffffffffffffffffffffffffffffff\n      and\n      0xffffffffffffffffffffffffffffffffffffffff\n      and\n      dup2\n      mstore\n      0x20\n      add\n      swap1\n      dup2\n      mstore\n      0x20\n      add\n      0x00\n      keccak256\n        /* \"contracts/SimpleWallet.sol\":402:426  allowance[_who]= _amount */\n      dup2\n      swap1\n      sstore\n      pop\n        /* \"contracts/SimpleWallet.sol\":252:434  function addAllowance(address _who,uint _amount) public onlyOwner{\r... */\n      pop\n      pop\n      jump\t// out\n        /* \"contracts/utils/Context.sol\":656:754  function _msgSender() internal view virtual returns (address) {\r... */\n    tag_34:\n        /* \"contracts/utils/Context.sol\":709:716  address */\n      0x00\n        /* \"contracts/utils/Context.sol\":736:746  msg.sender */\n      caller\n        /* \"contracts/utils/Context.sol\":729:746  return msg.sender */\n      swap1\n      pop\n        /* \"contracts/utils/Context.sol\":656:754  function _msgSender() internal view virtual returns (address) {\r... */\n      swap1\n      jump\t// out\n        /* \"contracts/utils/Ownable.sol\":2432:2623  function _transferOwnership(address newOwner) internal virtual {\r... */\n    tag_41:\n        /* \"contracts/utils/Ownable.sol\":2506:2522  address oldOwner */\n      0x00\n        /* \"contracts/utils/Ownable.sol\":2525:2531  _owner */\n      dup1\n      0x00\n      swap1\n      sload\n      swap1\n      0x0100\n      exp\n      swap1\n      div\n      0xffffffffffffffffffffffffffffffffffffffff\n      and\n        /* \"contracts/utils/Ownable.sol\":2506:2531  address oldOwner = _owner */\n      swap1\n      pop\n        /* \"contracts/utils/Ownable.sol\":2551:2559  newOwner */\n      dup2\n        /* \"contracts/utils/Ownable.sol\":2542:2548  _owner */\n      0x00\n      dup1\n        /* \"contracts/utils/Ownable.sol\":2542:2559  _owner = newOwner */\n      0x0100\n      exp\n      dup2\n      sload\n      dup2\n      0xffffffffffffffffffffffffffffffffffffffff\n      mul\n      not\n      and\n      swap1\n      dup4\n      0xffffffffffffffffffffffffffffffffffffffff\n      and\n      mul\n      or\n      swap1\n      sstore\n      pop\n        /* \"contracts/utils/Ownable.sol\":2606:2614  newOwner */\n      dup2\n        /* \"contracts/utils/Ownable.sol\":2575:2615  OwnershipTransferred(oldOwner, newOwner) */\n      0xffffffffffffffffffffffffffffffffffffffff\n      and\n        /* \"contracts/utils/Ownable.sol\":2596:2604  oldOwner */\n      dup2\n        /* \"contracts/utils/Ownable.sol\":2575:2615  OwnershipTransferred(oldOwner, newOwner) */\n      0xffffffffffffffffffffffffffffffffffffffff\n      and\n      0x8be0079c531659141344cd1fd0a4f28419497f9722a3daafe3b4186f6b6457e0\n      mload(0x40)\n      mload(0x40)\n      dup1\n      swap2\n      sub\n      swap1\n      log3\n        /* \"contracts/utils/Ownable.sol\":2495:2623  {\r... */\n      pop\n        /* \"contracts/utils/Ownable.sol\":2432:2623  function _transferOwnership(address newOwner) internal virtual {\r... */\n      pop\n      jump\t// out\n        /* \"#utility.yul\":7:146   */\n    tag_66:\n        /* \"#utility.yul\":53:58   */\n      0x00\n        /* \"#utility.yul\":91:97   */\n      dup2\n        /* \"#utility.yul\":78:98   */\n      calldataload\n        /* \"#utility.yul\":69:98   */\n      swap1\n      pop\n        /* \"#utility.yul\":107:140   */\n      tag_68\n        /* \"#utility.yul\":134:139   */\n      dup2\n        /* \"#utility.yul\":107:140   */\n      tag_69\n      jump\t// in\n    tag_68:\n        /* \"#utility.yul\":7:146   */\n      swap3\n      swap2\n      pop\n      pop\n      jump\t// out\n        /* \"#utility.yul\":152:291   */\n    tag_70:\n        /* \"#utility.yul\":198:203   */\n      0x00\n        /* \"#utility.yul\":236:242   */\n      dup2\n        /* \"#utility.yul\":223:243   */\n      calldataload\n        /* \"#utility.yul\":214:243   */\n      swap1\n      pop\n        /* \"#utility.yul\":252:285   */\n      tag_72\n        /* \"#utility.yul\":279:284   */\n      dup2\n        /* \"#utility.yul\":252:285   */\n      tag_73\n      jump\t// in\n    tag_72:\n        /* \"#utility.yul\":152:291   */\n      swap3\n      swap2\n      pop\n      pop\n      jump\t// out\n        /* \"#utility.yul\":297:626   */\n    tag_11:\n        /* \"#utility.yul\":356:362   */\n      0x00\n        /* \"#utility.yul\":405:407   */\n      0x20\n        /* \"#utility.yul\":393:402   */\n      dup3\n        /* \"#utility.yul\":384:391   */\n      dup5\n        /* \"#utility.yul\":380:403   */\n      sub\n        /* \"#utility.yul\":376:408   */\n      slt\n        /* \"#utility.yul\":373:492   */\n      iszero\n      tag_75\n      jumpi\n        /* \"#utility.yul\":411:490   */\n      tag_76\n      tag_77\n      jump\t// in\n    tag_76:\n        /* \"#utility.yul\":373:492   */\n    tag_75:\n        /* \"#utility.yul\":531:532   */\n      0x00\n        /* \"#utility.yul\":556:609   */\n      tag_78\n        /* \"#utility.yul\":601:608   */\n      dup5\n        /* \"#utility.yul\":592:598   */\n      dup3\n        /* \"#utility.yul\":581:590   */\n      dup6\n        /* \"#utility.yul\":577:599   */\n      add\n        /* \"#utility.yul\":556:609   */\n      tag_66\n      jump\t// in\n    tag_78:\n        /* \"#utility.yul\":546:609   */\n      swap2\n      pop\n        /* \"#utility.yul\":502:619   */\n      pop\n        /* \"#utility.yul\":297:626   */\n      swap3\n      swap2\n      pop\n      pop\n      jump\t// out\n        /* \"#utility.yul\":632:1106   */\n    tag_30:\n        /* \"#utility.yul\":700:706   */\n      0x00\n        /* \"#utility.yul\":708:714   */\n      dup1\n        /* \"#utility.yul\":757:759   */\n      0x40\n        /* \"#utility.yul\":745:754   */\n      dup4\n        /* \"#utility.yul\":736:743   */\n      dup6\n        /* \"#utility.yul\":732:755   */\n      sub\n        /* \"#utility.yul\":728:760   */\n      slt\n        /* \"#utility.yul\":725:844   */\n      iszero\n      tag_80\n      jumpi\n        /* \"#utility.yul\":763:842   */\n      tag_81\n      tag_77\n      jump\t// in\n    tag_81:\n        /* \"#utility.yul\":725:844   */\n    tag_80:\n        /* \"#utility.yul\":883:884   */\n      0x00\n        /* \"#utility.yul\":908:961   */\n      tag_82\n        /* \"#utility.yul\":953:960   */\n      dup6\n        /* \"#utility.yul\":944:950   */\n      dup3\n        /* \"#utility.yul\":933:942   */\n      dup7\n        /* \"#utility.yul\":929:951   */\n      add\n        /* \"#utility.yul\":908:961   */\n      tag_66\n      jump\t// in\n    tag_82:\n        /* \"#utility.yul\":898:961   */\n      swap3\n      pop\n        /* \"#utility.yul\":854:971   */\n      pop\n        /* \"#utility.yul\":1010:1012   */\n      0x20\n        /* \"#utility.yul\":1036:1089   */\n      tag_83\n        /* \"#utility.yul\":1081:1088   */\n      dup6\n        /* \"#utility.yul\":1072:1078   */\n      dup3\n        /* \"#utility.yul\":1061:1070   */\n      dup7\n        /* \"#utility.yul\":1057:1079   */\n      add\n        /* \"#utility.yul\":1036:1089   */\n      tag_70\n      jump\t// in\n    tag_83:\n        /* \"#utility.yul\":1026:1089   */\n      swap2\n      pop\n        /* \"#utility.yul\":981:1099   */\n      pop\n        /* \"#utility.yul\":632:1106   */\n      swap3\n      pop\n      swap3\n      swap1\n      pop\n      jump\t// out\n        /* \"#utility.yul\":1112:1230   */\n    tag_84:\n        /* \"#utility.yul\":1199:1223   */\n      tag_86\n        /* \"#utility.yul\":1217:1222   */\n      dup2\n        /* \"#utility.yul\":1199:1223   */\n      tag_87\n      jump\t// in\n    tag_86:\n        /* \"#utility.yul\":1194:1197   */\n      dup3\n        /* \"#utility.yul\":1187:1224   */\n      mstore\n        /* \"#utility.yul\":1112:1230   */\n      pop\n      pop\n      jump\t// out\n        /* \"#utility.yul\":1236:1345   */\n    tag_88:\n        /* \"#utility.yul\":1317:1338   */\n      tag_90\n        /* \"#utility.yul\":1332:1337   */\n      dup2\n        /* \"#utility.yul\":1317:1338   */\n      tag_91\n      jump\t// in\n    tag_90:\n        /* \"#utility.yul\":1312:1315   */\n      dup3\n        /* \"#utility.yul\":1305:1339   */\n      mstore\n        /* \"#utility.yul\":1236:1345   */\n      pop\n      pop\n      jump\t// out\n        /* \"#utility.yul\":1351:1717   */\n    tag_92:\n        /* \"#utility.yul\":1493:1496   */\n      0x00\n        /* \"#utility.yul\":1514:1581   */\n      tag_94\n        /* \"#utility.yul\":1578:1580   */\n      0x26\n        /* \"#utility.yul\":1573:1576   */\n      dup4\n        /* \"#utility.yul\":1514:1581   */\n      tag_95\n      jump\t// in\n    tag_94:\n        /* \"#utility.yul\":1507:1581   */\n      swap2\n      pop\n        /* \"#utility.yul\":1590:1683   */\n      tag_96\n        /* \"#utility.yul\":1679:1682   */\n      dup3\n        /* \"#utility.yul\":1590:1683   */\n      tag_97\n      jump\t// in\n    tag_96:\n        /* \"#utility.yul\":1708:1710   */\n      0x40\n        /* \"#utility.yul\":1703:1706   */\n      dup3\n        /* \"#utility.yul\":1699:1711   */\n      add\n        /* \"#utility.yul\":1692:1711   */\n      swap1\n      pop\n        /* \"#utility.yul\":1351:1717   */\n      swap2\n      swap1\n      pop\n      jump\t// out\n        /* \"#utility.yul\":1723:2089   */\n    tag_98:\n        /* \"#utility.yul\":1865:1868   */\n      0x00\n        /* \"#utility.yul\":1886:1953   */\n      tag_100\n        /* \"#utility.yul\":1950:1952   */\n      0x20\n        /* \"#utility.yul\":1945:1948   */\n      dup4\n        /* \"#utility.yul\":1886:1953   */\n      tag_95\n      jump\t// in\n    tag_100:\n        /* \"#utility.yul\":1879:1953   */\n      swap2\n      pop\n        /* \"#utility.yul\":1962:2055   */\n      tag_101\n        /* \"#utility.yul\":2051:2054   */\n      dup3\n        /* \"#utility.yul\":1962:2055   */\n      tag_102\n      jump\t// in\n    tag_101:\n        /* \"#utility.yul\":2080:2082   */\n      0x20\n        /* \"#utility.yul\":2075:2078   */\n      dup3\n        /* \"#utility.yul\":2071:2083   */\n      add\n        /* \"#utility.yul\":2064:2083   */\n      swap1\n      pop\n        /* \"#utility.yul\":1723:2089   */\n      swap2\n      swap1\n      pop\n      jump\t// out\n        /* \"#utility.yul\":2095:2213   */\n    tag_103:\n        /* \"#utility.yul\":2182:2206   */\n      tag_105\n        /* \"#utility.yul\":2200:2205   */\n      dup2\n        /* \"#utility.yul\":2182:2206   */\n      tag_106\n      jump\t// in\n    tag_105:\n        /* \"#utility.yul\":2177:2180   */\n      dup3\n        /* \"#utility.yul\":2170:2207   */\n      mstore\n        /* \"#utility.yul\":2095:2213   */\n      pop\n      pop\n      jump\t// out\n        /* \"#utility.yul\":2219:2441   */\n    tag_20:\n        /* \"#utility.yul\":2312:2316   */\n      0x00\n        /* \"#utility.yul\":2350:2352   */\n      0x20\n        /* \"#utility.yul\":2339:2348   */\n      dup3\n        /* \"#utility.yul\":2335:2353   */\n      add\n        /* \"#utility.yul\":2327:2353   */\n      swap1\n      pop\n        /* \"#utility.yul\":2363:2434   */\n      tag_108\n        /* \"#utility.yul\":2431:2432   */\n      0x00\n        /* \"#utility.yul\":2420:2429   */\n      dup4\n        /* \"#utility.yul\":2416:2433   */\n      add\n        /* \"#utility.yul\":2407:2413   */\n      dup5\n        /* \"#utility.yul\":2363:2434   */\n      tag_84\n      jump\t// in\n    tag_108:\n        /* \"#utility.yul\":2219:2441   */\n      swap3\n      swap2\n      pop\n      pop\n      jump\t// out\n        /* \"#utility.yul\":2447:2657   */\n    tag_24:\n        /* \"#utility.yul\":2534:2538   */\n      0x00\n        /* \"#utility.yul\":2572:2574   */\n      0x20\n        /* \"#utility.yul\":2561:2570   */\n      dup3\n        /* \"#utility.yul\":2557:2575   */\n      add\n        /* \"#utility.yul\":2549:2575   */\n      swap1\n      pop\n        /* \"#utility.yul\":2585:2650   */\n      tag_110\n        /* \"#utility.yul\":2647:2648   */\n      0x00\n        /* \"#utility.yul\":2636:2645   */\n      dup4\n        /* \"#utility.yul\":2632:2649   */\n      add\n        /* \"#utility.yul\":2623:2629   */\n      dup5\n        /* \"#utility.yul\":2585:2650   */\n      tag_88\n      jump\t// in\n    tag_110:\n        /* \"#utility.yul\":2447:2657   */\n      swap3\n      swap2\n      pop\n      pop\n      jump\t// out\n        /* \"#utility.yul\":2663:3082   */\n    tag_53:\n        /* \"#utility.yul\":2829:2833   */\n      0x00\n        /* \"#utility.yul\":2867:2869   */\n      0x20\n        /* \"#utility.yul\":2856:2865   */\n      dup3\n        /* \"#utility.yul\":2852:2870   */\n      add\n        /* \"#utility.yul\":2844:2870   */\n      swap1\n      pop\n        /* \"#utility.yul\":2916:2925   */\n      dup2\n        /* \"#utility.yul\":2910:2914   */\n      dup2\n        /* \"#utility.yul\":2906:2926   */\n      sub\n        /* \"#utility.yul\":2902:2903   */\n      0x00\n        /* \"#utility.yul\":2891:2900   */\n      dup4\n        /* \"#utility.yul\":2887:2904   */\n      add\n        /* \"#utility.yul\":2880:2927   */\n      mstore\n        /* \"#utility.yul\":2944:3075   */\n      tag_112\n        /* \"#utility.yul\":3070:3074   */\n      dup2\n        /* \"#utility.yul\":2944:3075   */\n      tag_92\n      jump\t// in\n    tag_112:\n        /* \"#utility.yul\":2936:3075   */\n      swap1\n      pop\n        /* \"#utility.yul\":2663:3082   */\n      swap2\n      swap1\n      pop\n      jump\t// out\n        /* \"#utility.yul\":3088:3507   */\n    tag_38:\n        /* \"#utility.yul\":3254:3258   */\n      0x00\n        /* \"#utility.yul\":3292:3294   */\n      0x20\n        /* \"#utility.yul\":3281:3290   */\n      dup3\n        /* \"#utility.yul\":3277:3295   */\n      add\n        /* \"#utility.yul\":3269:3295   */\n      swap1\n      pop\n        /* \"#utility.yul\":3341:3350   */\n      dup2\n        /* \"#utility.yul\":3335:3339   */\n      dup2\n        /* \"#utility.yul\":3331:3351   */\n      sub\n        /* \"#utility.yul\":3327:3328   */\n      0x00\n        /* \"#utility.yul\":3316:3325   */\n      dup4\n        /* \"#utility.yul\":3312:3329   */\n      add\n        /* \"#utility.yul\":3305:3352   */\n      mstore\n        /* \"#utility.yul\":3369:3500   */\n      tag_114\n        /* \"#utility.yul\":3495:3499   */\n      dup2\n        /* \"#utility.yul\":3369:3500   */\n      tag_98\n      jump\t// in\n    tag_114:\n        /* \"#utility.yul\":3361:3500   */\n      swap1\n      pop\n        /* \"#utility.yul\":3088:3507   */\n      swap2\n      swap1\n      pop\n      jump\t// out\n        /* \"#utility.yul\":3513:3735   */\n    tag_14:\n        /* \"#utility.yul\":3606:3610   */\n      0x00\n        /* \"#utility.yul\":3644:3646   */\n      0x20\n        /* \"#utility.yul\":3633:3642   */\n      dup3\n        /* \"#utility.yul\":3629:3647   */\n      add\n        /* \"#utility.yul\":3621:3647   */\n      swap1\n      pop\n        /* \"#utility.yul\":3657:3728   */\n      tag_116\n        /* \"#utility.yul\":3725:3726   */\n      0x00\n        /* \"#utility.yul\":3714:3723   */\n      dup4\n        /* \"#utility.yul\":3710:3727   */\n      add\n        /* \"#utility.yul\":3701:3707   */\n      dup5\n        /* \"#utility.yul\":3657:3728   */\n      tag_103\n      jump\t// in\n    tag_116:\n        /* \"#utility.yul\":3513:3735   */\n      swap3\n      swap2\n      pop\n      pop\n      jump\t// out\n        /* \"#utility.yul\":3741:4073   */\n    tag_62:\n        /* \"#utility.yul\":3862:3866   */\n      0x00\n        /* \"#utility.yul\":3900:3902   */\n      0x40\n        /* \"#utility.yul\":3889:3898   */\n      dup3\n        /* \"#utility.yul\":3885:3903   */\n      add\n        /* \"#utility.yul\":3877:3903   */\n      swap1\n      pop\n        /* \"#utility.yul\":3913:3984   */\n      tag_118\n        /* \"#utility.yul\":3981:3982   */\n      0x00\n        /* \"#utility.yul\":3970:3979   */\n      dup4\n        /* \"#utility.yul\":3966:3983   */\n      add\n        /* \"#utility.yul\":3957:3963   */\n      dup6\n        /* \"#utility.yul\":3913:3984   */\n      tag_103\n      jump\t// in\n    tag_118:\n        /* \"#utility.yul\":3994:4066   */\n      tag_119\n        /* \"#utility.yul\":4062:4064   */\n      0x20\n        /* \"#utility.yul\":4051:4060   */\n      dup4\n        /* \"#utility.yul\":4047:4065   */\n      add\n        /* \"#utility.yul\":4038:4044   */\n      dup5\n        /* \"#utility.yul\":3994:4066   */\n      tag_103\n      jump\t// in\n    tag_119:\n        /* \"#utility.yul\":3741:4073   */\n      swap4\n      swap3\n      pop\n      pop\n      pop\n      jump\t// out\n        /* \"#utility.yul\":4160:4329   */\n    tag_95:\n        /* \"#utility.yul\":4244:4255   */\n      0x00\n        /* \"#utility.yul\":4278:4284   */\n      dup3\n        /* \"#utility.yul\":4273:4276   */\n      dup3\n        /* \"#utility.yul\":4266:4285   */\n      mstore\n        /* \"#utility.yul\":4318:4322   */\n      0x20\n        /* \"#utility.yul\":4313:4316   */\n      dup3\n        /* \"#utility.yul\":4309:4323   */\n      add\n        /* \"#utility.yul\":4294:4323   */\n      swap1\n      pop\n        /* \"#utility.yul\":4160:4329   */\n      swap3\n      swap2\n      pop\n      pop\n      jump\t// out\n        /* \"#utility.yul\":4335:4431   */\n    tag_87:\n        /* \"#utility.yul\":4372:4379   */\n      0x00\n        /* \"#utility.yul\":4401:4425   */\n      tag_124\n        /* \"#utility.yul\":4419:4424   */\n      dup3\n        /* \"#utility.yul\":4401:4425   */\n      tag_125\n      jump\t// in\n    tag_124:\n        /* \"#utility.yul\":4390:4425   */\n      swap1\n      pop\n        /* \"#utility.yul\":4335:4431   */\n      swap2\n      swap1\n      pop\n      jump\t// out\n        /* \"#utility.yul\":4437:4527   */\n    tag_91:\n        /* \"#utility.yul\":4471:4478   */\n      0x00\n        /* \"#utility.yul\":4514:4519   */\n      dup2\n        /* \"#utility.yul\":4507:4520   */\n      iszero\n        /* \"#utility.yul\":4500:4521   */\n      iszero\n        /* \"#utility.yul\":4489:4521   */\n      swap1\n      pop\n        /* \"#utility.yul\":4437:4527   */\n      swap2\n      swap1\n      pop\n      jump\t// out\n        /* \"#utility.yul\":4533:4659   */\n    tag_125:\n        /* \"#utility.yul\":4570:4577   */\n      0x00\n        /* \"#utility.yul\":4610:4652   */\n      0xffffffffffffffffffffffffffffffffffffffff\n        /* \"#utility.yul\":4603:4608   */\n      dup3\n        /* \"#utility.yul\":4599:4653   */\n      and\n        /* \"#utility.yul\":4588:4653   */\n      swap1\n      pop\n        /* \"#utility.yul\":4533:4659   */\n      swap2\n      swap1\n      pop\n      jump\t// out\n        /* \"#utility.yul\":4665:4742   */\n    tag_106:\n        /* \"#utility.yul\":4702:4709   */\n      0x00\n        /* \"#utility.yul\":4731:4736   */\n      dup2\n        /* \"#utility.yul\":4720:4736   */\n      swap1\n      pop\n        /* \"#utility.yul\":4665:4742   */\n      swap2\n      swap1\n      pop\n      jump\t// out\n        /* \"#utility.yul\":4871:4988   */\n    tag_77:\n        /* \"#utility.yul\":4980:4981   */\n      0x00\n        /* \"#utility.yul\":4977:4978   */\n      dup1\n        /* \"#utility.yul\":4970:4982   */\n      revert\n        /* \"#utility.yul\":4994:5219   */\n    tag_97:\n        /* \"#utility.yul\":5134:5168   */\n      0x4f776e61626c653a206e6577206f776e657220697320746865207a65726f2061\n        /* \"#utility.yul\":5130:5131   */\n      0x00\n        /* \"#utility.yul\":5122:5128   */\n      dup3\n        /* \"#utility.yul\":5118:5132   */\n      add\n        /* \"#utility.yul\":5111:5169   */\n      mstore\n        /* \"#utility.yul\":5203:5211   */\n      0x6464726573730000000000000000000000000000000000000000000000000000\n        /* \"#utility.yul\":5198:5200   */\n      0x20\n        /* \"#utility.yul\":5190:5196   */\n      dup3\n        /* \"#utility.yul\":5186:5201   */\n      add\n        /* \"#utility.yul\":5179:5212   */\n      mstore\n        /* \"#utility.yul\":4994:5219   */\n      pop\n      jump\t// out\n        /* \"#utility.yul\":5225:5407   */\n    tag_102:\n        /* \"#utility.yul\":5365:5399   */\n      0x4f776e61626c653a2063616c6c6572206973206e6f7420746865206f776e6572\n        /* \"#utility.yul\":5361:5362   */\n      0x00\n        /* \"#utility.yul\":5353:5359   */\n      dup3\n        /* \"#utility.yul\":5349:5363   */\n      add\n        /* \"#utility.yul\":5342:5400   */\n      mstore\n        /* \"#utility.yul\":5225:5407   */\n      pop\n      jump\t// out\n        /* \"#utility.yul\":5413:5535   */\n    tag_69:\n        /* \"#utility.yul\":5486:5510   */\n      tag_135\n        /* \"#utility.yul\":5504:5509   */\n      dup2\n        /* \"#utility.yul\":5486:5510   */\n      tag_87\n      jump\t// in\n    tag_135:\n        /* \"#utility.yul\":5479:5484   */\n      dup2\n        /* \"#utility.yul\":5476:5511   */\n      eq\n        /* \"#utility.yul\":5466:5529   */\n      tag_136\n      jumpi\n        /* \"#utility.yul\":5525:5526   */\n      0x00\n        /* \"#utility.yul\":5522:5523   */\n      dup1\n        /* \"#utility.yul\":5515:5527   */\n      revert\n        /* \"#utility.yul\":5466:5529   */\n    tag_136:\n        /* \"#utility.yul\":5413:5535   */\n      pop\n      jump\t// out\n        /* \"#utility.yul\":5541:5663   */\n    tag_73:\n        /* \"#utility.yul\":5614:5638   */\n      tag_138\n        /* \"#utility.yul\":5632:5637   */\n      dup2\n        /* \"#utility.yul\":5614:5638   */\n      tag_106\n      jump\t// in\n    tag_138:\n        /* \"#utility.yul\":5607:5612   */\n      dup2\n        /* \"#utility.yul\":5604:5639   */\n      eq\n        /* \"#utility.yul\":5594:5657   */\n      tag_139\n      jumpi\n        /* \"#utility.yul\":5653:5654   */\n      0x00\n        /* \"#utility.yul\":5650:5651   */\n      dup1\n        /* \"#utility.yul\":5643:5655   */\n      revert\n        /* \"#utility.yul\":5594:5657   */\n    tag_139:\n        /* \"#utility.yul\":5541:5663   */\n      pop\n      jump\t// out\n\n    auxdata: 0xa26469706673582212205684a329d6ad4cbfe81bcb5b778eb3050c9086b386e8683e9ddcb30e2b6e3f3e64736f6c63430008070033\n}\n",
				"bytecode": {
					"linkReferences": {},
					"object": "608060405234801561001057600080fd5b5061002d61002261003260201b60201c565b61003a60201b60201c565b6100fe565b600033905090565b60008060009054906101000a900473ffffffffffffffffffffffffffffffffffffffff169050816000806101000a81548173ffffffffffffffffffffffffffffffffffffffff021916908373ffffffffffffffffffffffffffffffffffffffff1602179055508173ffffffffffffffffffffffffffffffffffffffff168173ffffffffffffffffffffffffffffffffffffffff167f8be0079c531659141344cd1fd0a4f28419497f9722a3daafe3b4186f6b6457e060405160405180910390a35050565b6108688061010d6000396000f3fe608060405234801561001057600080fd5b50600436106100625760003560e01c80633e5beab914610067578063715018a6146100975780638da5cb5b146100a15780638f32d59b146100bf578063f2fde38b146100dd578063f3c40c4b146100f9575b600080fd5b610081600480360381019061007c9190610594565b610115565b60405161008e91906106ea565b60405180910390f35b61009f61012d565b005b6100a96101b5565b6040516100b69190610674565b60405180910390f35b6100c76101de565b6040516100d4919061068f565b60405180910390f35b6100f760048036038101906100f29190610594565b61023c565b005b610113600480360381019061010e91906105c1565b610334565b005b60016020528060005260406000206000915090505481565b61013561049e565b73ffffffffffffffffffffffffffffffffffffffff166101536101b5565b73ffffffffffffffffffffffffffffffffffffffff16146101a9576040517f08c379a00000000000000000000000000000000000000000000000000000000081526004016101a0906106ca565b60405180910390fd5b6101b360006104a6565b565b60008060009054906101000a900473ffffffffffffffffffffffffffffffffffffffff16905090565b60008060009054906101000a900473ffffffffffffffffffffffffffffffffffffffff1673ffffffffffffffffffffffffffffffffffffffff1661022061049e565b73ffffffffffffffffffffffffffffffffffffffff1614905090565b61024461049e565b73ffffffffffffffffffffffffffffffffffffffff166102626101b5565b73ffffffffffffffffffffffffffffffffffffffff16146102b8576040517f08c379a00000000000000000000000000000000000000000000000000000000081526004016102af906106ca565b60405180910390fd5b600073ffffffffffffffffffffffffffffffffffffffff168173ffffffffffffffffffffffffffffffffffffffff161415610328576040517f08c379a000000000000000000000000000000000000000000000000000000000815260040161031f906106aa565b60405180910390fd5b610331816104a6565b50565b61033c61049e565b73ffffffffffffffffffffffffffffffffffffffff1661035a6101b5565b73ffffffffffffffffffffffffffffffffffffffff16146103b0576040517f08c379a00000000000000000000000000000000000000000000000000000000081526004016103a7906106ca565b60405180910390fd5b3373ffffffffffffffffffffffffffffffffffffffff168273ffffffffffffffffffffffffffffffffffffffff167f3691d1a86d99355e52b689ca70a7bdf6d80763237a6aa06e5fa43964eac7244b600160008673ffffffffffffffffffffffffffffffffffffffff1673ffffffffffffffffffffffffffffffffffffffff168152602001908152602001600020548460405161044e929190610705565b60405180910390a380600160008473ffffffffffffffffffffffffffffffffffffffff1673ffffffffffffffffffffffffffffffffffffffff168152602001908152602001600020819055505050565b600033905090565b60008060009054906101000a900473ffffffffffffffffffffffffffffffffffffffff169050816000806101000a81548173ffffffffffffffffffffffffffffffffffffffff021916908373ffffffffffffffffffffffffffffffffffffffff1602179055508173ffffffffffffffffffffffffffffffffffffffff168173ffffffffffffffffffffffffffffffffffffffff167f8be0079c531659141344cd1fd0a4f28419497f9722a3daafe3b4186f6b6457e060405160405180910390a35050565b60008135905061057981610804565b92915050565b60008135905061058e8161081b565b92915050565b6000602082840312156105aa576105a9610787565b5b60006105b88482850161056a565b91505092915050565b600080604083850312156105d8576105d7610787565b5b60006105e68582860161056a565b92505060206105f78582860161057f565b9150509250929050565b61060a8161073f565b82525050565b61061981610751565b82525050565b600061062c60268361072e565b91506106378261078c565b604082019050919050565b600061064f60208361072e565b915061065a826107db565b602082019050919050565b61066e8161077d565b82525050565b60006020820190506106896000830184610601565b92915050565b60006020820190506106a46000830184610610565b92915050565b600060208201905081810360008301526106c38161061f565b9050919050565b600060208201905081810360008301526106e381610642565b9050919050565b60006020820190506106ff6000830184610665565b92915050565b600060408201905061071a6000830185610665565b6107276020830184610665565b9392505050565b600082825260208201905092915050565b600061074a8261075d565b9050919050565b60008115159050919050565b600073ffffffffffffffffffffffffffffffffffffffff82169050919050565b6000819050919050565b600080fd5b7f4f776e61626c653a206e6577206f776e657220697320746865207a65726f206160008201527f6464726573730000000000000000000000000000000000000000000000000000602082015250565b7f4f776e61626c653a2063616c6c6572206973206e6f7420746865206f776e6572600082015250565b61080d8161073f565b811461081857600080fd5b50565b6108248161077d565b811461082f57600080fd5b5056fea26469706673582212205684a329d6ad4cbfe81bcb5b778eb3050c9086b386e8683e9ddcb30e2b6e3f3e64736f6c63430008070033",
					"opcodes": "PUSH1 0x80 PUSH1 0x40 MSTORE CALLVALUE DUP1 ISZERO PUSH2 0x10 JUMPI PUSH1 0x0 DUP1 REVERT JUMPDEST POP PUSH2 0x2D PUSH2 0x22 PUSH2 0x32 PUSH1 0x20 SHL PUSH1 0x20 SHR JUMP JUMPDEST PUSH2 0x3A PUSH1 0x20 SHL PUSH1 0x20 SHR JUMP JUMPDEST PUSH2 0xFE JUMP JUMPDEST PUSH1 0x0 CALLER SWAP1 POP SWAP1 JUMP JUMPDEST PUSH1 0x0 DUP1 PUSH1 0x0 SWAP1 SLOAD SWAP1 PUSH2 0x100 EXP SWAP1 DIV PUSH20 0xFFFFFFFFFFFFFFFFFFFFFFFFFFFFFFFFFFFFFFFF AND SWAP1 POP DUP2 PUSH1 0x0 DUP1 PUSH2 0x100 EXP DUP2 SLOAD DUP2 PUSH20 0xFFFFFFFFFFFFFFFFFFFFFFFFFFFFFFFFFFFFFFFF MUL NOT AND SWAP1 DUP4 PUSH20 0xFFFFFFFFFFFFFFFFFFFFFFFFFFFFFFFFFFFFFFFF AND MUL OR SWAP1 SSTORE POP DUP2 PUSH20 0xFFFFFFFFFFFFFFFFFFFFFFFFFFFFFFFFFFFFFFFF AND DUP2 PUSH20 0xFFFFFFFFFFFFFFFFFFFFFFFFFFFFFFFFFFFFFFFF AND PUSH32 0x8BE0079C531659141344CD1FD0A4F28419497F9722A3DAAFE3B4186F6B6457E0 PUSH1 0x40 MLOAD PUSH1 0x40 MLOAD DUP1 SWAP2 SUB SWAP1 LOG3 POP POP JUMP JUMPDEST PUSH2 0x868 DUP1 PUSH2 0x10D PUSH1 0x0 CODECOPY PUSH1 0x0 RETURN INVALID PUSH1 0x80 PUSH1 0x40 MSTORE CALLVALUE DUP1 ISZERO PUSH2 0x10 JUMPI PUSH1 0x0 DUP1 REVERT JUMPDEST POP PUSH1 0x4 CALLDATASIZE LT PUSH2 0x62 JUMPI PUSH1 0x0 CALLDATALOAD PUSH1 0xE0 SHR DUP1 PUSH4 0x3E5BEAB9 EQ PUSH2 0x67 JUMPI DUP1 PUSH4 0x715018A6 EQ PUSH2 0x97 JUMPI DUP1 PUSH4 0x8DA5CB5B EQ PUSH2 0xA1 JUMPI DUP1 PUSH4 0x8F32D59B EQ PUSH2 0xBF JUMPI DUP1 PUSH4 0xF2FDE38B EQ PUSH2 0xDD JUMPI DUP1 PUSH4 0xF3C40C4B EQ PUSH2 0xF9 JUMPI JUMPDEST PUSH1 0x0 DUP1 REVERT JUMPDEST PUSH2 0x81 PUSH1 0x4 DUP1 CALLDATASIZE SUB DUP2 ADD SWAP1 PUSH2 0x7C SWAP2 SWAP1 PUSH2 0x594 JUMP JUMPDEST PUSH2 0x115 JUMP JUMPDEST PUSH1 0x40 MLOAD PUSH2 0x8E SWAP2 SWAP1 PUSH2 0x6EA JUMP JUMPDEST PUSH1 0x40 MLOAD DUP1 SWAP2 SUB SWAP1 RETURN JUMPDEST PUSH2 0x9F PUSH2 0x12D JUMP JUMPDEST STOP JUMPDEST PUSH2 0xA9 PUSH2 0x1B5 JUMP JUMPDEST PUSH1 0x40 MLOAD PUSH2 0xB6 SWAP2 SWAP1 PUSH2 0x674 JUMP JUMPDEST PUSH1 0x40 MLOAD DUP1 SWAP2 SUB SWAP1 RETURN JUMPDEST PUSH2 0xC7 PUSH2 0x1DE JUMP JUMPDEST PUSH1 0x40 MLOAD PUSH2 0xD4 SWAP2 SWAP1 PUSH2 0x68F JUMP JUMPDEST PUSH1 0x40 MLOAD DUP1 SWAP2 SUB SWAP1 RETURN JUMPDEST PUSH2 0xF7 PUSH1 0x4 DUP1 CALLDATASIZE SUB DUP2 ADD SWAP1 PUSH2 0xF2 SWAP2 SWAP1 PUSH2 0x594 JUMP JUMPDEST PUSH2 0x23C JUMP JUMPDEST STOP JUMPDEST PUSH2 0x113 PUSH1 0x4 DUP1 CALLDATASIZE SUB DUP2 ADD SWAP1 PUSH2 0x10E SWAP2 SWAP1 PUSH2 0x5C1 JUMP JUMPDEST PUSH2 0x334 JUMP JUMPDEST STOP JUMPDEST PUSH1 0x1 PUSH1 0x20 MSTORE DUP1 PUSH1 0x0 MSTORE PUSH1 0x40 PUSH1 0x0 KECCAK256 PUSH1 0x0 SWAP2 POP SWAP1 POP SLOAD DUP2 JUMP JUMPDEST PUSH2 0x135 PUSH2 0x49E JUMP JUMPDEST PUSH20 0xFFFFFFFFFFFFFFFFFFFFFFFFFFFFFFFFFFFFFFFF AND PUSH2 0x153 PUSH2 0x1B5 JUMP JUMPDEST PUSH20 0xFFFFFFFFFFFFFFFFFFFFFFFFFFFFFFFFFFFFFFFF AND EQ PUSH2 0x1A9 JUMPI PUSH1 0x40 MLOAD PUSH32 0x8C379A000000000000000000000000000000000000000000000000000000000 DUP2 MSTORE PUSH1 0x4 ADD PUSH2 0x1A0 SWAP1 PUSH2 0x6CA JUMP JUMPDEST PUSH1 0x40 MLOAD DUP1 SWAP2 SUB SWAP1 REVERT JUMPDEST PUSH2 0x1B3 PUSH1 0x0 PUSH2 0x4A6 JUMP JUMPDEST JUMP JUMPDEST PUSH1 0x0 DUP1 PUSH1 0x0 SWAP1 SLOAD SWAP1 PUSH2 0x100 EXP SWAP1 DIV PUSH20 0xFFFFFFFFFFFFFFFFFFFFFFFFFFFFFFFFFFFFFFFF AND SWAP1 POP SWAP1 JUMP JUMPDEST PUSH1 0x0 DUP1 PUSH1 0x0 SWAP1 SLOAD SWAP1 PUSH2 0x100 EXP SWAP1 DIV PUSH20 0xFFFFFFFFFFFFFFFFFFFFFFFFFFFFFFFFFFFFFFFF AND PUSH20 0xFFFFFFFFFFFFFFFFFFFFFFFFFFFFFFFFFFFFFFFF AND PUSH2 0x220 PUSH2 0x49E JUMP JUMPDEST PUSH20 0xFFFFFFFFFFFFFFFFFFFFFFFFFFFFFFFFFFFFFFFF AND EQ SWAP1 POP SWAP1 JUMP JUMPDEST PUSH2 0x244 PUSH2 0x49E JUMP JUMPDEST PUSH20 0xFFFFFFFFFFFFFFFFFFFFFFFFFFFFFFFFFFFFFFFF AND PUSH2 0x262 PUSH2 0x1B5 JUMP JUMPDEST PUSH20 0xFFFFFFFFFFFFFFFFFFFFFFFFFFFFFFFFFFFFFFFF AND EQ PUSH2 0x2B8 JUMPI PUSH1 0x40 MLOAD PUSH32 0x8C379A000000000000000000000000000000000000000000000000000000000 DUP2 MSTORE PUSH1 0x4 ADD PUSH2 0x2AF SWAP1 PUSH2 0x6CA JUMP JUMPDEST PUSH1 0x40 MLOAD DUP1 SWAP2 SUB SWAP1 REVERT JUMPDEST PUSH1 0x0 PUSH20 0xFFFFFFFFFFFFFFFFFFFFFFFFFFFFFFFFFFFFFFFF AND DUP2 PUSH20 0xFFFFFFFFFFFFFFFFFFFFFFFFFFFFFFFFFFFFFFFF AND EQ ISZERO PUSH2 0x328 JUMPI PUSH1 0x40 MLOAD PUSH32 0x8C379A000000000000000000000000000000000000000000000000000000000 DUP2 MSTORE PUSH1 0x4 ADD PUSH2 0x31F SWAP1 PUSH2 0x6AA JUMP JUMPDEST PUSH1 0x40 MLOAD DUP1 SWAP2 SUB SWAP1 REVERT JUMPDEST PUSH2 0x331 DUP2 PUSH2 0x4A6 JUMP JUMPDEST POP JUMP JUMPDEST PUSH2 0x33C PUSH2 0x49E JUMP JUMPDEST PUSH20 0xFFFFFFFFFFFFFFFFFFFFFFFFFFFFFFFFFFFFFFFF AND PUSH2 0x35A PUSH2 0x1B5 JUMP JUMPDEST PUSH20 0xFFFFFFFFFFFFFFFFFFFFFFFFFFFFFFFFFFFFFFFF AND EQ PUSH2 0x3B0 JUMPI PUSH1 0x40 MLOAD PUSH32 0x8C379A000000000000000000000000000000000000000000000000000000000 DUP2 MSTORE PUSH1 0x4 ADD PUSH2 0x3A7 SWAP1 PUSH2 0x6CA JUMP JUMPDEST PUSH1 0x40 MLOAD DUP1 SWAP2 SUB SWAP1 REVERT JUMPDEST CALLER PUSH20 0xFFFFFFFFFFFFFFFFFFFFFFFFFFFFFFFFFFFFFFFF AND DUP3 PUSH20 0xFFFFFFFFFFFFFFFFFFFFFFFFFFFFFFFFFFFFFFFF AND PUSH32 0x3691D1A86D99355E52B689CA70A7BDF6D80763237A6AA06E5FA43964EAC7244B PUSH1 0x1 PUSH1 0x0 DUP7 PUSH20 0xFFFFFFFFFFFFFFFFFFFFFFFFFFFFFFFFFFFFFFFF AND PUSH20 0xFFFFFFFFFFFFFFFFFFFFFFFFFFFFFFFFFFFFFFFF AND DUP2 MSTORE PUSH1 0x20 ADD SWAP1 DUP2 MSTORE PUSH1 0x20 ADD PUSH1 0x0 KECCAK256 SLOAD DUP5 PUSH1 0x40 MLOAD PUSH2 0x44E SWAP3 SWAP2 SWAP1 PUSH2 0x705 JUMP JUMPDEST PUSH1 0x40 MLOAD DUP1 SWAP2 SUB SWAP1 LOG3 DUP1 PUSH1 0x1 PUSH1 0x0 DUP5 PUSH20 0xFFFFFFFFFFFFFFFFFFFFFFFFFFFFFFFFFFFFFFFF AND PUSH20 0xFFFFFFFFFFFFFFFFFFFFFFFFFFFFFFFFFFFFFFFF AND DUP2 MSTORE PUSH1 0x20 ADD SWAP1 DUP2 MSTORE PUSH1 0x20 ADD PUSH1 0x0 KECCAK256 DUP2 SWAP1 SSTORE POP POP POP JUMP JUMPDEST PUSH1 0x0 CALLER SWAP1 POP SWAP1 JUMP JUMPDEST PUSH1 0x0 DUP1 PUSH1 0x0 SWAP1 SLOAD SWAP1 PUSH2 0x100 EXP SWAP1 DIV PUSH20 0xFFFFFFFFFFFFFFFFFFFFFFFFFFFFFFFFFFFFFFFF AND SWAP1 POP DUP2 PUSH1 0x0 DUP1 PUSH2 0x100 EXP DUP2 SLOAD DUP2 PUSH20 0xFFFFFFFFFFFFFFFFFFFFFFFFFFFFFFFFFFFFFFFF MUL NOT AND SWAP1 DUP4 PUSH20 0xFFFFFFFFFFFFFFFFFFFFFFFFFFFFFFFFFFFFFFFF AND MUL OR SWAP1 SSTORE POP DUP2 PUSH20 0xFFFFFFFFFFFFFFFFFFFFFFFFFFFFFFFFFFFFFFFF AND DUP2 PUSH20 0xFFFFFFFFFFFFFFFFFFFFFFFFFFFFFFFFFFFFFFFF AND PUSH32 0x8BE0079C531659141344CD1FD0A4F28419497F9722A3DAAFE3B4186F6B6457E0 PUSH1 0x40 MLOAD PUSH1 0x40 MLOAD DUP1 SWAP2 SUB SWAP1 LOG3 POP POP JUMP JUMPDEST PUSH1 0x0 DUP2 CALLDATALOAD SWAP1 POP PUSH2 0x579 DUP2 PUSH2 0x804 JUMP JUMPDEST SWAP3 SWAP2 POP POP JUMP JUMPDEST PUSH1 0x0 DUP2 CALLDATALOAD SWAP1 POP PUSH2 0x58E DUP2 PUSH2 0x81B JUMP JUMPDEST SWAP3 SWAP2 POP POP JUMP JUMPDEST PUSH1 0x0 PUSH1 0x20 DUP3 DUP5 SUB SLT ISZERO PUSH2 0x5AA JUMPI PUSH2 0x5A9 PUSH2 0x787 JUMP JUMPDEST JUMPDEST PUSH1 0x0 PUSH2 0x5B8 DUP5 DUP3 DUP6 ADD PUSH2 0x56A JUMP JUMPDEST SWAP2 POP POP SWAP3 SWAP2 POP POP JUMP JUMPDEST PUSH1 0x0 DUP1 PUSH1 0x40 DUP4 DUP6 SUB SLT ISZERO PUSH2 0x5D8 JUMPI PUSH2 0x5D7 PUSH2 0x787 JUMP JUMPDEST JUMPDEST PUSH1 0x0 PUSH2 0x5E6 DUP6 DUP3 DUP7 ADD PUSH2 0x56A JUMP JUMPDEST SWAP3 POP POP PUSH1 0x20 PUSH2 0x5F7 DUP6 DUP3 DUP7 ADD PUSH2 0x57F JUMP JUMPDEST SWAP2 POP POP SWAP3 POP SWAP3 SWAP1 POP JUMP JUMPDEST PUSH2 0x60A DUP2 PUSH2 0x73F JUMP JUMPDEST DUP3 MSTORE POP POP JUMP JUMPDEST PUSH2 0x619 DUP2 PUSH2 0x751 JUMP JUMPDEST DUP3 MSTORE POP POP JUMP JUMPDEST PUSH1 0x0 PUSH2 0x62C PUSH1 0x26 DUP4 PUSH2 0x72E JUMP JUMPDEST SWAP2 POP PUSH2 0x637 DUP3 PUSH2 0x78C JUMP JUMPDEST PUSH1 0x40 DUP3 ADD SWAP1 POP SWAP2 SWAP1 POP JUMP JUMPDEST PUSH1 0x0 PUSH2 0x64F PUSH1 0x20 DUP4 PUSH2 0x72E JUMP JUMPDEST SWAP2 POP PUSH2 0x65A DUP3 PUSH2 0x7DB JUMP JUMPDEST PUSH1 0x20 DUP3 ADD SWAP1 POP SWAP2 SWAP1 POP JUMP JUMPDEST PUSH2 0x66E DUP2 PUSH2 0x77D JUMP JUMPDEST DUP3 MSTORE POP POP JUMP JUMPDEST PUSH1 0x0 PUSH1 0x20 DUP3 ADD SWAP1 POP PUSH2 0x689 PUSH1 0x0 DUP4 ADD DUP5 PUSH2 0x601 JUMP JUMPDEST SWAP3 SWAP2 POP POP JUMP JUMPDEST PUSH1 0x0 PUSH1 0x20 DUP3 ADD SWAP1 POP PUSH2 0x6A4 PUSH1 0x0 DUP4 ADD DUP5 PUSH2 0x610 JUMP JUMPDEST SWAP3 SWAP2 POP POP JUMP JUMPDEST PUSH1 0x0 PUSH1 0x20 DUP3 ADD SWAP1 POP DUP2 DUP2 SUB PUSH1 0x0 DUP4 ADD MSTORE PUSH2 0x6C3 DUP2 PUSH2 0x61F JUMP JUMPDEST SWAP1 POP SWAP2 SWAP1 POP JUMP JUMPDEST PUSH1 0x0 PUSH1 0x20 DUP3 ADD SWAP1 POP DUP2 DUP2 SUB PUSH1 0x0 DUP4 ADD MSTORE PUSH2 0x6E3 DUP2 PUSH2 0x642 JUMP JUMPDEST SWAP1 POP SWAP2 SWAP1 POP JUMP JUMPDEST PUSH1 0x0 PUSH1 0x20 DUP3 ADD SWAP1 POP PUSH2 0x6FF PUSH1 0x0 DUP4 ADD DUP5 PUSH2 0x665 JUMP JUMPDEST SWAP3 SWAP2 POP POP JUMP JUMPDEST PUSH1 0x0 PUSH1 0x40 DUP3 ADD SWAP1 POP PUSH2 0x71A PUSH1 0x0 DUP4 ADD DUP6 PUSH2 0x665 JUMP JUMPDEST PUSH2 0x727 PUSH1 0x20 DUP4 ADD DUP5 PUSH2 0x665 JUMP JUMPDEST SWAP4 SWAP3 POP POP POP JUMP JUMPDEST PUSH1 0x0 DUP3 DUP3 MSTORE PUSH1 0x20 DUP3 ADD SWAP1 POP SWAP3 SWAP2 POP POP JUMP JUMPDEST PUSH1 0x0 PUSH2 0x74A DUP3 PUSH2 0x75D JUMP JUMPDEST SWAP1 POP SWAP2 SWAP1 POP JUMP JUMPDEST PUSH1 0x0 DUP2 ISZERO ISZERO SWAP1 POP SWAP2 SWAP1 POP JUMP JUMPDEST PUSH1 0x0 PUSH20 0xFFFFFFFFFFFFFFFFFFFFFFFFFFFFFFFFFFFFFFFF DUP3 AND SWAP1 POP SWAP2 SWAP1 POP JUMP JUMPDEST PUSH1 0x0 DUP2 SWAP1 POP SWAP2 SWAP1 POP JUMP JUMPDEST PUSH1 0x0 DUP1 REVERT JUMPDEST PUSH32 0x4F776E61626C653A206E6577206F776E657220697320746865207A65726F2061 PUSH1 0x0 DUP3 ADD MSTORE PUSH32 0x6464726573730000000000000000000000000000000000000000000000000000 PUSH1 0x20 DUP3 ADD MSTORE POP JUMP JUMPDEST PUSH32 0x4F776E61626C653A2063616C6C6572206973206E6F7420746865206F776E6572 PUSH1 0x0 DUP3 ADD MSTORE POP JUMP JUMPDEST PUSH2 0x80D DUP2 PUSH2 0x73F JUMP JUMPDEST DUP2 EQ PUSH2 0x818 JUMPI PUSH1 0x0 DUP1 REVERT JUMPDEST POP JUMP JUMPDEST PUSH2 0x824 DUP2 PUSH2 0x77D JUMP JUMPDEST DUP2 EQ PUSH2 0x82F JUMPI PUSH1 0x0 DUP1 REVERT JUMPDEST POP JUMP INVALID LOG2 PUSH5 0x6970667358 0x22 SLT KECCAK256 JUMP DUP5 LOG3 0x29 0xD6 0xAD 0x4C 0xBF 0xE8 SHL 0xCB JUMPDEST PUSH24 0x8EB3050C9086B386E8683E9DDCB30E2B6E3F3E64736F6C63 NUMBER STOP ADDMOD SMOD STOP CALLER "
				},
				"gasEstimates": {
					"creation": {
						"codeDepositCost": "430400",
						"executionCost": "infinite",
						"totalCost": "infinite"
					},
					"external": {
						"addAllowance(address,uint256)": "infinite",
						"allowance(address)": "2792",
						"isOwner()": "2575",
						"owner()": "2544",
						"renounceOwnership()": "30374",
						"transferOwnership(address)": "30789"
					},
					"internal": {
						"reduceAllowance(address,uint256)": "infinite"
					}
				},
				"methodIdentifiers": {
					"addAllowance(address,uint256)": "f3c40c4b",
					"allowance(address)": "3e5beab9",
					"isOwner()": "8f32d59b",
					"owner()": "8da5cb5b",
					"renounceOwnership()": "715018a6",
					"transferOwnership(address)": "f2fde38b"
				}
			},
			"storageLayout": {
				"storage": [
					{
						"astId": 192,
						"contract": "contracts/SimpleWallet.sol:Allowance",
						"label": "_owner",
						"offset": 0,
						"slot": "0",
						"type": "t_address"
					},
					{
						"astId": 8,
						"contract": "contracts/SimpleWallet.sol:Allowance",
						"label": "allowance",
						"offset": 0,
						"slot": "1",
						"type": "t_mapping(t_address,t_uint256)"
					}
				],
				"types": {
					"t_address": {
						"encoding": "inplace",
						"label": "address",
						"numberOfBytes": "20"
					},
					"t_mapping(t_address,t_uint256)": {
						"encoding": "mapping",
						"key": "t_address",
						"label": "mapping(address => uint256)",
						"numberOfBytes": "32",
						"value": "t_uint256"
					},
					"t_uint256": {
						"encoding": "inplace",
						"label": "uint256",
						"numberOfBytes": "32"
					}
				}
			},
			"userdoc": {
				"kind": "user",
				"methods": {},
				"version": 1
			}
		}
	}
}