{
	"contracts/SimpleWallet.sol": {
		"SimpleWallet": {
			"abi": [
				{
					"anonymous": false,
					"inputs": [
						{
							"indexed": true,
							"internalType": "address",
							"name": "_who",
							"type": "address"
						},
						{
							"indexed": true,
							"internalType": "address",
							"name": "_from",
							"type": "address"
						},
						{
							"indexed": false,
							"internalType": "uint256",
							"name": "_oldAmount",
							"type": "uint256"
						},
						{
							"indexed": false,
							"internalType": "uint256",
							"name": "_newAmount",
							"type": "uint256"
						}
					],
					"name": "AllowanceChanged",
					"type": "event"
				},
				{
					"anonymous": false,
					"inputs": [
						{
							"indexed": true,
							"internalType": "address",
							"name": "_from",
							"type": "address"
						},
						{
							"indexed": false,
							"internalType": "uint256",
							"name": "_amount",
							"type": "uint256"
						}
					],
					"name": "MoneyReceived",
					"type": "event"
				},
				{
					"anonymous": false,
					"inputs": [
						{
							"indexed": true,
							"internalType": "address",
							"name": "_beneficiary",
							"type": "address"
						},
						{
							"indexed": false,
							"internalType": "uint256",
							"name": "_amount",
							"type": "uint256"
						}
					],
					"name": "MoneySent",
					"type": "event"
				},
				{
					"anonymous": false,
					"inputs": [
						{
							"indexed": true,
							"internalType": "address",
							"name": "previousOwner",
							"type": "address"
						},
						{
							"indexed": true,
							"internalType": "address",
							"name": "newOwner",
							"type": "address"
						}
					],
					"name": "OwnershipTransferred",
					"type": "event"
				},
				{
					"stateMutability": "payable",
					"type": "fallback"
				},
				{
					"inputs": [
						{
							"internalType": "address",
							"name": "_who",
							"type": "address"
						},
						{
							"internalType": "uint256",
							"name": "_amount",
							"type": "uint256"
						}
					],
					"name": "addAllowance",
					"outputs": [],
					"stateMutability": "nonpayable",
					"type": "function"
				},
				{
					"inputs": [
						{
							"internalType": "address",
							"name": "",
							"type": "address"
						}
					],
					"name": "allowance",
					"outputs": [
						{
							"internalType": "uint256",
							"name": "",
							"type": "uint256"
						}
					],
					"stateMutability": "view",
					"type": "function"
				},
				{
					"inputs": [],
					"name": "isOwner",
					"outputs": [
						{
							"internalType": "bool",
							"name": "",
							"type": "bool"
						}
					],
					"stateMutability": "view",
					"type": "function"
				},
				{
					"inputs": [],
					"name": "owner",
					"outputs": [
						{
							"internalType": "address",
							"name": "",
							"type": "address"
						}
					],
					"stateMutability": "view",
					"type": "function"
				},
				{
					"inputs": [],
					"name": "renounceOwnership",
					"outputs": [],
					"stateMutability": "nonpayable",
					"type": "function"
				},
				{
					"inputs": [
						{
							"internalType": "address",
							"name": "newOwner",
							"type": "address"
						}
					],
					"name": "transferOwnership",
					"outputs": [],
					"stateMutability": "nonpayable",
					"type": "function"
				},
				{
					"inputs": [
						{
							"internalType": "address payable",
							"name": "_to",
							"type": "address"
						},
						{
							"internalType": "uint256",
							"name": "_amount",
							"type": "uint256"
						}
					],
					"name": "withDrawMoney",
					"outputs": [],
					"stateMutability": "nonpayable",
					"type": "function"
				}
			],
			"devdoc": {
				"kind": "dev",
				"methods": {
					"owner()": {
						"details": "Returns the address of the current owner."
					},
					"renounceOwnership()": {
						"details": "Leaves the contract without owner. It will not be possible to call `onlyOwner` functions anymore. Can only be called by the current owner. NOTE: Renouncing ownership will leave the contract without an owner, thereby removing any functionality that is only available to the owner."
					},
					"transferOwnership(address)": {
						"details": "Transfers ownership of the contract to a new account (`newOwner`). Can only be called by the current owner."
					}
				},
				"version": 1
			},
			"evm": {
				"assembly": "    /* \"contracts/SimpleWallet.sol\":880:1653  contract SimpleWallet is Allowance{\r... */\n  mstore(0x40, 0x80)\n  callvalue\n  dup1\n  iszero\n  tag_1\n  jumpi\n  0x00\n  dup1\n  revert\ntag_1:\n  pop\n    /* \"contracts/utils/Ownable.sol\":940:972  _transferOwnership(_msgSender()) */\n  tag_4\n    /* \"contracts/utils/Ownable.sol\":959:971  _msgSender() */\n  tag_5\n    /* \"contracts/utils/Ownable.sol\":959:969  _msgSender */\n  shl(0x20, tag_6)\n    /* \"contracts/utils/Ownable.sol\":959:971  _msgSender() */\n  0x20\n  shr\n  jump\t// in\ntag_5:\n    /* \"contracts/utils/Ownable.sol\":940:958  _transferOwnership */\n  shl(0x20, tag_7)\n    /* \"contracts/utils/Ownable.sol\":940:972  _transferOwnership(_msgSender()) */\n  0x20\n  shr\n  jump\t// in\ntag_4:\n    /* \"contracts/SimpleWallet.sol\":880:1653  contract SimpleWallet is Allowance{\r... */\n  jump(tag_8)\n    /* \"contracts/utils/Context.sol\":656:754  function _msgSender() internal view virtual returns (address) {\r... */\ntag_6:\n    /* \"contracts/utils/Context.sol\":709:716  address */\n  0x00\n    /* \"contracts/utils/Context.sol\":736:746  msg.sender */\n  caller\n    /* \"contracts/utils/Context.sol\":729:746  return msg.sender */\n  swap1\n  pop\n    /* \"contracts/utils/Context.sol\":656:754  function _msgSender() internal view virtual returns (address) {\r... */\n  swap1\n  jump\t// out\n    /* \"contracts/utils/Ownable.sol\":2432:2623  function _transferOwnership(address newOwner) internal virtual {\r... */\ntag_7:\n    /* \"contracts/utils/Ownable.sol\":2506:2522  address oldOwner */\n  0x00\n    /* \"contracts/utils/Ownable.sol\":2525:2531  _owner */\n  dup1\n  0x00\n  swap1\n  sload\n  swap1\n  0x0100\n  exp\n  swap1\n  div\n  0xffffffffffffffffffffffffffffffffffffffff\n  and\n    /* \"contracts/utils/Ownable.sol\":2506:2531  address oldOwner = _owner */\n  swap1\n  pop\n    /* \"contracts/utils/Ownable.sol\":2551:2559  newOwner */\n  dup2\n    /* \"contracts/utils/Ownable.sol\":2542:2548  _owner */\n  0x00\n  dup1\n    /* \"contracts/utils/Ownable.sol\":2542:2559  _owner = newOwner */\n  0x0100\n  exp\n  dup2\n  sload\n  dup2\n  0xffffffffffffffffffffffffffffffffffffffff\n  mul\n  not\n  and\n  swap1\n  dup4\n  0xffffffffffffffffffffffffffffffffffffffff\n  and\n  mul\n  or\n  swap1\n  sstore\n  pop\n    /* \"contracts/utils/Ownable.sol\":2606:2614  newOwner */\n  dup2\n    /* \"contracts/utils/Ownable.sol\":2575:2615  OwnershipTransferred(oldOwner, newOwner) */\n  0xffffffffffffffffffffffffffffffffffffffff\n  and\n    /* \"contracts/utils/Ownable.sol\":2596:2604  oldOwner */\n  dup2\n    /* \"contracts/utils/Ownable.sol\":2575:2615  OwnershipTransferred(oldOwner, newOwner) */\n  0xffffffffffffffffffffffffffffffffffffffff\n  and\n  0x8be0079c531659141344cd1fd0a4f28419497f9722a3daafe3b4186f6b6457e0\n  mload(0x40)\n  mload(0x40)\n  dup1\n  swap2\n  sub\n  swap1\n  log3\n    /* \"contracts/utils/Ownable.sol\":2495:2623  {\r... */\n  pop\n    /* \"contracts/utils/Ownable.sol\":2432:2623  function _transferOwnership(address newOwner) internal virtual {\r... */\n  pop\n  jump\t// out\n    /* \"contracts/SimpleWallet.sol\":880:1653  contract SimpleWallet is Allowance{\r... */\ntag_8:\n  dataSize(sub_0)\n  dup1\n  dataOffset(sub_0)\n  0x00\n  codecopy\n  0x00\n  return\nstop\n\nsub_0: assembly {\n        /* \"contracts/SimpleWallet.sol\":880:1653  contract SimpleWallet is Allowance{\r... */\n      mstore(0x40, 0x80)\n      jumpi(tag_1, lt(calldatasize, 0x04))\n      shr(0xe0, calldataload(0x00))\n      dup1\n      0x8f32d59b\n      gt\n      tag_10\n      jumpi\n      dup1\n      0x8f32d59b\n      eq\n      tag_6\n      jumpi\n      dup1\n      0xb39d7b7c\n      eq\n      tag_7\n      jumpi\n      dup1\n      0xf2fde38b\n      eq\n      tag_8\n      jumpi\n      dup1\n      0xf3c40c4b\n      eq\n      tag_9\n      jumpi\n      jump(tag_2)\n    tag_10:\n      dup1\n      0x3e5beab9\n      eq\n      tag_3\n      jumpi\n      dup1\n      0x715018a6\n      eq\n      tag_4\n      jumpi\n      dup1\n      0x8da5cb5b\n      eq\n      tag_5\n      jumpi\n      jump(tag_2)\n    tag_1:\n    tag_2:\n        /* \"contracts/SimpleWallet.sol\":1619:1629  msg.sender */\n      caller\n        /* \"contracts/SimpleWallet.sol\":1605:1640  MoneyReceived(msg.sender,msg.value) */\n      0xffffffffffffffffffffffffffffffffffffffff\n      and\n      0x27b15ed4cf832749ed39f33a64e4707ed60a761485e41ffec7343ecaddc0c02a\n        /* \"contracts/SimpleWallet.sol\":1630:1639  msg.value */\n      callvalue\n        /* \"contracts/SimpleWallet.sol\":1605:1640  MoneyReceived(msg.sender,msg.value) */\n      mload(0x40)\n      tag_13\n      swap2\n      swap1\n      tag_14\n      jump\t// in\n    tag_13:\n      mload(0x40)\n      dup1\n      swap2\n      sub\n      swap1\n      log2\n        /* \"contracts/SimpleWallet.sol\":880:1653  contract SimpleWallet is Allowance{\r... */\n      stop\n        /* \"contracts/SimpleWallet.sol\":156:195  mapping(address=>uint) public allowance */\n    tag_3:\n      callvalue\n      dup1\n      iszero\n      tag_15\n      jumpi\n      0x00\n      dup1\n      revert\n    tag_15:\n      pop\n      tag_16\n      0x04\n      dup1\n      calldatasize\n      sub\n      dup2\n      add\n      swap1\n      tag_17\n      swap2\n      swap1\n      tag_18\n      jump\t// in\n    tag_17:\n      tag_19\n      jump\t// in\n    tag_16:\n      mload(0x40)\n      tag_20\n      swap2\n      swap1\n      tag_14\n      jump\t// in\n    tag_20:\n      mload(0x40)\n      dup1\n      swap2\n      sub\n      swap1\n      return\n        /* \"contracts/SimpleWallet.sol\":1419:1552  function  renounceOwnership () override public{\r... */\n    tag_4:\n      callvalue\n      dup1\n      iszero\n      tag_21\n      jumpi\n      0x00\n      dup1\n      revert\n    tag_21:\n      pop\n      tag_22\n      tag_23\n      jump\t// in\n    tag_22:\n      stop\n        /* \"contracts/utils/Ownable.sol\":1061:1148  function owner() public view virtual returns (address) {\r... */\n    tag_5:\n      callvalue\n      dup1\n      iszero\n      tag_24\n      jumpi\n      0x00\n      dup1\n      revert\n    tag_24:\n      pop\n      tag_25\n      tag_26\n      jump\t// in\n    tag_25:\n      mload(0x40)\n      tag_27\n      swap2\n      swap1\n      tag_28\n      jump\t// in\n    tag_27:\n      mload(0x40)\n      dup1\n      swap2\n      sub\n      swap1\n      return\n        /* \"contracts/utils/Ownable.sol\":1369:1462  function isOwner() public view returns (bool){\r... */\n    tag_6:\n      callvalue\n      dup1\n      iszero\n      tag_29\n      jumpi\n      0x00\n      dup1\n      revert\n    tag_29:\n      pop\n      tag_30\n      tag_31\n      jump\t// in\n    tag_30:\n      mload(0x40)\n      tag_32\n      swap2\n      swap1\n      tag_33\n      jump\t// in\n    tag_32:\n      mload(0x40)\n      dup1\n      swap2\n      sub\n      swap1\n      return\n        /* \"contracts/SimpleWallet.sol\":1052:1411  function withDrawMoney(address payable _to, uint _amount) public ownerOrAllowed(_amount){\r... */\n    tag_7:\n      callvalue\n      dup1\n      iszero\n      tag_34\n      jumpi\n      0x00\n      dup1\n      revert\n    tag_34:\n      pop\n      tag_35\n      0x04\n      dup1\n      calldatasize\n      sub\n      dup2\n      add\n      swap1\n      tag_36\n      swap2\n      swap1\n      tag_37\n      jump\t// in\n    tag_36:\n      tag_38\n      jump\t// in\n    tag_35:\n      stop\n        /* \"contracts/utils/Ownable.sol\":2071:2272  function transferOwnership(address newOwner) public virtual onlyOwner {\r... */\n    tag_8:\n      callvalue\n      dup1\n      iszero\n      tag_39\n      jumpi\n      0x00\n      dup1\n      revert\n    tag_39:\n      pop\n      tag_40\n      0x04\n      dup1\n      calldatasize\n      sub\n      dup2\n      add\n      swap1\n      tag_41\n      swap2\n      swap1\n      tag_18\n      jump\t// in\n    tag_41:\n      tag_42\n      jump\t// in\n    tag_40:\n      stop\n        /* \"contracts/SimpleWallet.sol\":312:494  function addAllowance(address _who,uint _amount) public onlyOwner{\r... */\n    tag_9:\n      callvalue\n      dup1\n      iszero\n      tag_43\n      jumpi\n      0x00\n      dup1\n      revert\n    tag_43:\n      pop\n      tag_44\n      0x04\n      dup1\n      calldatasize\n      sub\n      dup2\n      add\n      swap1\n      tag_45\n      swap2\n      swap1\n      tag_46\n      jump\t// in\n    tag_45:\n      tag_47\n      jump\t// in\n    tag_44:\n      stop\n        /* \"contracts/SimpleWallet.sol\":156:195  mapping(address=>uint) public allowance */\n    tag_19:\n      mstore(0x20, 0x01)\n      dup1\n      0x00\n      mstore\n      keccak256(0x00, 0x40)\n      0x00\n      swap2\n      pop\n      swap1\n      pop\n      sload\n      dup2\n      jump\t// out\n        /* \"contracts/SimpleWallet.sol\":1419:1552  function  renounceOwnership () override public{\r... */\n    tag_23:\n        /* \"contracts/SimpleWallet.sol\":1504:1544  revert(\"cannot renounce ownership here\") */\n      mload(0x40)\n      0x08c379a000000000000000000000000000000000000000000000000000000000\n      dup2\n      mstore\n      0x04\n      add\n      tag_49\n      swap1\n      tag_50\n      jump\t// in\n    tag_49:\n      mload(0x40)\n      dup1\n      swap2\n      sub\n      swap1\n      revert\n        /* \"contracts/utils/Ownable.sol\":1061:1148  function owner() public view virtual returns (address) {\r... */\n    tag_26:\n        /* \"contracts/utils/Ownable.sol\":1107:1114  address */\n      0x00\n        /* \"contracts/utils/Ownable.sol\":1134:1140  _owner */\n      dup1\n      0x00\n      swap1\n      sload\n      swap1\n      0x0100\n      exp\n      swap1\n      div\n      0xffffffffffffffffffffffffffffffffffffffff\n      and\n        /* \"contracts/utils/Ownable.sol\":1127:1140  return _owner */\n      swap1\n      pop\n        /* \"contracts/utils/Ownable.sol\":1061:1148  function owner() public view virtual returns (address) {\r... */\n      swap1\n      jump\t// out\n        /* \"contracts/utils/Ownable.sol\":1369:1462  function isOwner() public view returns (bool){\r... */\n    tag_31:\n        /* \"contracts/utils/Ownable.sol\":1409:1413  bool */\n      0x00\n        /* \"contracts/utils/Ownable.sol\":1448:1454  _owner */\n      dup1\n      0x00\n      swap1\n      sload\n      swap1\n      0x0100\n      exp\n      swap1\n      div\n      0xffffffffffffffffffffffffffffffffffffffff\n      and\n        /* \"contracts/utils/Ownable.sol\":1432:1454  _msgSender() == _owner */\n      0xffffffffffffffffffffffffffffffffffffffff\n      and\n        /* \"contracts/utils/Ownable.sol\":1432:1444  _msgSender() */\n      tag_53\n        /* \"contracts/utils/Ownable.sol\":1432:1442  _msgSender */\n      tag_54\n        /* \"contracts/utils/Ownable.sol\":1432:1444  _msgSender() */\n      jump\t// in\n    tag_53:\n        /* \"contracts/utils/Ownable.sol\":1432:1454  _msgSender() == _owner */\n      0xffffffffffffffffffffffffffffffffffffffff\n      and\n      eq\n        /* \"contracts/utils/Ownable.sol\":1425:1454  return _msgSender() == _owner */\n      swap1\n      pop\n        /* \"contracts/utils/Ownable.sol\":1369:1462  function isOwner() public view returns (bool){\r... */\n      swap1\n      jump\t// out\n        /* \"contracts/SimpleWallet.sol\":1052:1411  function withDrawMoney(address payable _to, uint _amount) public ownerOrAllowed(_amount){\r... */\n    tag_38:\n        /* \"contracts/SimpleWallet.sol\":1132:1139  _amount */\n      dup1\n        /* \"contracts/SimpleWallet.sol\":558:567  isOwner() */\n      tag_56\n        /* \"contracts/SimpleWallet.sol\":558:565  isOwner */\n      tag_31\n        /* \"contracts/SimpleWallet.sol\":558:567  isOwner() */\n      jump\t// in\n    tag_56:\n        /* \"contracts/SimpleWallet.sol\":558:603  isOwner() || allowance[msg.sender] >= _amount */\n      dup1\n      tag_57\n      jumpi\n      pop\n        /* \"contracts/SimpleWallet.sol\":596:603  _amount */\n      dup1\n        /* \"contracts/SimpleWallet.sol\":571:580  allowance */\n      0x01\n        /* \"contracts/SimpleWallet.sol\":571:592  allowance[msg.sender] */\n      0x00\n        /* \"contracts/SimpleWallet.sol\":581:591  msg.sender */\n      caller\n        /* \"contracts/SimpleWallet.sol\":571:592  allowance[msg.sender] */\n      0xffffffffffffffffffffffffffffffffffffffff\n      and\n      0xffffffffffffffffffffffffffffffffffffffff\n      and\n      dup2\n      mstore\n      0x20\n      add\n      swap1\n      dup2\n      mstore\n      0x20\n      add\n      0x00\n      keccak256\n      sload\n        /* \"contracts/SimpleWallet.sol\":571:603  allowance[msg.sender] >= _amount */\n      lt\n      iszero\n        /* \"contracts/SimpleWallet.sol\":558:603  isOwner() || allowance[msg.sender] >= _amount */\n    tag_57:\n        /* \"contracts/SimpleWallet.sol\":550:626  require(isOwner() || allowance[msg.sender] >= _amount,\"You are not allowed\") */\n      tag_58\n      jumpi\n      mload(0x40)\n      0x08c379a000000000000000000000000000000000000000000000000000000000\n      dup2\n      mstore\n      0x04\n      add\n      tag_59\n      swap1\n      tag_60\n      jump\t// in\n    tag_59:\n      mload(0x40)\n      dup1\n      swap2\n      sub\n      swap1\n      revert\n    tag_58:\n        /* \"contracts/SimpleWallet.sol\":1170:1191  address(this).balance */\n      selfbalance\n        /* \"contracts/SimpleWallet.sol\":1159:1166  _amount */\n      dup3\n        /* \"contracts/SimpleWallet.sol\":1159:1191  _amount <= address(this).balance */\n      gt\n      iszero\n        /* \"contracts/SimpleWallet.sol\":1151:1247  require(_amount <= address(this).balance,\"Amount is greater than balance in the smart contract\") */\n      tag_62\n      jumpi\n      mload(0x40)\n      0x08c379a000000000000000000000000000000000000000000000000000000000\n      dup2\n      mstore\n      0x04\n      add\n      tag_63\n      swap1\n      tag_64\n      jump\t// in\n    tag_63:\n      mload(0x40)\n      dup1\n      swap2\n      sub\n      swap1\n      revert\n    tag_62:\n        /* \"contracts/SimpleWallet.sol\":1262:1271  isOwner() */\n      tag_65\n        /* \"contracts/SimpleWallet.sol\":1262:1269  isOwner */\n      tag_31\n        /* \"contracts/SimpleWallet.sol\":1262:1271  isOwner() */\n      jump\t// in\n    tag_65:\n        /* \"contracts/SimpleWallet.sol\":1258:1334  if(!isOwner()){\r... */\n      tag_66\n      jumpi\n        /* \"contracts/SimpleWallet.sol\":1287:1322  reduceAllowance(msg.sender,_amount) */\n      tag_67\n        /* \"contracts/SimpleWallet.sol\":1303:1313  msg.sender */\n      caller\n        /* \"contracts/SimpleWallet.sol\":1314:1321  _amount */\n      dup4\n        /* \"contracts/SimpleWallet.sol\":1287:1302  reduceAllowance */\n      tag_68\n        /* \"contracts/SimpleWallet.sol\":1287:1322  reduceAllowance(msg.sender,_amount) */\n      jump\t// in\n    tag_67:\n        /* \"contracts/SimpleWallet.sol\":1258:1334  if(!isOwner()){\r... */\n    tag_66:\n        /* \"contracts/SimpleWallet.sol\":1359:1362  _to */\n      dup3\n        /* \"contracts/SimpleWallet.sol\":1349:1371  MoneySent(_to,_amount) */\n      0xffffffffffffffffffffffffffffffffffffffff\n      and\n      0x7f51d406915971d4ac1c91af96be5187ea6ab64753785aad519a533def80a41e\n        /* \"contracts/SimpleWallet.sol\":1363:1370  _amount */\n      dup4\n        /* \"contracts/SimpleWallet.sol\":1349:1371  MoneySent(_to,_amount) */\n      mload(0x40)\n      tag_69\n      swap2\n      swap1\n      tag_14\n      jump\t// in\n    tag_69:\n      mload(0x40)\n      dup1\n      swap2\n      sub\n      swap1\n      log2\n        /* \"contracts/SimpleWallet.sol\":1382:1385  _to */\n      dup3\n        /* \"contracts/SimpleWallet.sol\":1382:1394  _to.transfer */\n      0xffffffffffffffffffffffffffffffffffffffff\n      and\n        /* \"contracts/SimpleWallet.sol\":1382:1403  _to.transfer(_amount) */\n      0x08fc\n        /* \"contracts/SimpleWallet.sol\":1395:1402  _amount */\n      dup4\n        /* \"contracts/SimpleWallet.sol\":1382:1403  _to.transfer(_amount) */\n      swap1\n      dup2\n      iszero\n      mul\n      swap1\n      mload(0x40)\n      0x00\n      mload(0x40)\n      dup1\n      dup4\n      sub\n      dup2\n      dup6\n      dup9\n      dup9\n      call\n      swap4\n      pop\n      pop\n      pop\n      pop\n      iszero\n      dup1\n      iszero\n      tag_71\n      jumpi\n      returndatasize\n      0x00\n      dup1\n      returndatacopy\n      revert(0x00, returndatasize)\n    tag_71:\n      pop\n        /* \"contracts/SimpleWallet.sol\":1052:1411  function withDrawMoney(address payable _to, uint _amount) public ownerOrAllowed(_amount){\r... */\n      pop\n      pop\n      pop\n      jump\t// out\n        /* \"contracts/utils/Ownable.sol\":2071:2272  function transferOwnership(address newOwner) public virtual onlyOwner {\r... */\n    tag_42:\n        /* \"contracts/utils/Ownable.sol\":1292:1304  _msgSender() */\n      tag_73\n        /* \"contracts/utils/Ownable.sol\":1292:1302  _msgSender */\n      tag_54\n        /* \"contracts/utils/Ownable.sol\":1292:1304  _msgSender() */\n      jump\t// in\n    tag_73:\n        /* \"contracts/utils/Ownable.sol\":1281:1304  owner() == _msgSender() */\n      0xffffffffffffffffffffffffffffffffffffffff\n      and\n        /* \"contracts/utils/Ownable.sol\":1281:1288  owner() */\n      tag_74\n        /* \"contracts/utils/Ownable.sol\":1281:1286  owner */\n      tag_26\n        /* \"contracts/utils/Ownable.sol\":1281:1288  owner() */\n      jump\t// in\n    tag_74:\n        /* \"contracts/utils/Ownable.sol\":1281:1304  owner() == _msgSender() */\n      0xffffffffffffffffffffffffffffffffffffffff\n      and\n      eq\n        /* \"contracts/utils/Ownable.sol\":1273:1341  require(owner() == _msgSender(), \"Ownable: caller is not the owner\") */\n      tag_75\n      jumpi\n      mload(0x40)\n      0x08c379a000000000000000000000000000000000000000000000000000000000\n      dup2\n      mstore\n      0x04\n      add\n      tag_76\n      swap1\n      tag_77\n      jump\t// in\n    tag_76:\n      mload(0x40)\n      dup1\n      swap2\n      sub\n      swap1\n      revert\n    tag_75:\n        /* \"contracts/utils/Ownable.sol\":2180:2181  0 */\n      0x00\n        /* \"contracts/utils/Ownable.sol\":2160:2182  newOwner != address(0) */\n      0xffffffffffffffffffffffffffffffffffffffff\n      and\n        /* \"contracts/utils/Ownable.sol\":2160:2168  newOwner */\n      dup2\n        /* \"contracts/utils/Ownable.sol\":2160:2182  newOwner != address(0) */\n      0xffffffffffffffffffffffffffffffffffffffff\n      and\n      eq\n      iszero\n        /* \"contracts/utils/Ownable.sol\":2152:2225  require(newOwner != address(0), \"Ownable: new owner is the zero address\") */\n      tag_79\n      jumpi\n      mload(0x40)\n      0x08c379a000000000000000000000000000000000000000000000000000000000\n      dup2\n      mstore\n      0x04\n      add\n      tag_80\n      swap1\n      tag_81\n      jump\t// in\n    tag_80:\n      mload(0x40)\n      dup1\n      swap2\n      sub\n      swap1\n      revert\n    tag_79:\n        /* \"contracts/utils/Ownable.sol\":2236:2264  _transferOwnership(newOwner) */\n      tag_82\n        /* \"contracts/utils/Ownable.sol\":2255:2263  newOwner */\n      dup2\n        /* \"contracts/utils/Ownable.sol\":2236:2254  _transferOwnership */\n      tag_83\n        /* \"contracts/utils/Ownable.sol\":2236:2264  _transferOwnership(newOwner) */\n      jump\t// in\n    tag_82:\n        /* \"contracts/utils/Ownable.sol\":2071:2272  function transferOwnership(address newOwner) public virtual onlyOwner {\r... */\n      pop\n      jump\t// out\n        /* \"contracts/SimpleWallet.sol\":312:494  function addAllowance(address _who,uint _amount) public onlyOwner{\r... */\n    tag_47:\n        /* \"contracts/utils/Ownable.sol\":1292:1304  _msgSender() */\n      tag_85\n        /* \"contracts/utils/Ownable.sol\":1292:1302  _msgSender */\n      tag_54\n        /* \"contracts/utils/Ownable.sol\":1292:1304  _msgSender() */\n      jump\t// in\n    tag_85:\n        /* \"contracts/utils/Ownable.sol\":1281:1304  owner() == _msgSender() */\n      0xffffffffffffffffffffffffffffffffffffffff\n      and\n        /* \"contracts/utils/Ownable.sol\":1281:1288  owner() */\n      tag_86\n        /* \"contracts/utils/Ownable.sol\":1281:1286  owner */\n      tag_26\n        /* \"contracts/utils/Ownable.sol\":1281:1288  owner() */\n      jump\t// in\n    tag_86:\n        /* \"contracts/utils/Ownable.sol\":1281:1304  owner() == _msgSender() */\n      0xffffffffffffffffffffffffffffffffffffffff\n      and\n      eq\n        /* \"contracts/utils/Ownable.sol\":1273:1341  require(owner() == _msgSender(), \"Ownable: caller is not the owner\") */\n      tag_87\n      jumpi\n      mload(0x40)\n      0x08c379a000000000000000000000000000000000000000000000000000000000\n      dup2\n      mstore\n      0x04\n      add\n      tag_88\n      swap1\n      tag_77\n      jump\t// in\n    tag_88:\n      mload(0x40)\n      dup1\n      swap2\n      sub\n      swap1\n      revert\n    tag_87:\n        /* \"contracts/SimpleWallet.sol\":415:425  msg.sender */\n      caller\n        /* \"contracts/SimpleWallet.sol\":393:451  AllowanceChanged(_who,msg.sender,allowance[_who], _amount) */\n      0xffffffffffffffffffffffffffffffffffffffff\n      and\n        /* \"contracts/SimpleWallet.sol\":410:414  _who */\n      dup3\n        /* \"contracts/SimpleWallet.sol\":393:451  AllowanceChanged(_who,msg.sender,allowance[_who], _amount) */\n      0xffffffffffffffffffffffffffffffffffffffff\n      and\n      0x3691d1a86d99355e52b689ca70a7bdf6d80763237a6aa06e5fa43964eac7244b\n        /* \"contracts/SimpleWallet.sol\":426:435  allowance */\n      0x01\n        /* \"contracts/SimpleWallet.sol\":426:441  allowance[_who] */\n      0x00\n        /* \"contracts/SimpleWallet.sol\":436:440  _who */\n      dup7\n        /* \"contracts/SimpleWallet.sol\":426:441  allowance[_who] */\n      0xffffffffffffffffffffffffffffffffffffffff\n      and\n      0xffffffffffffffffffffffffffffffffffffffff\n      and\n      dup2\n      mstore\n      0x20\n      add\n      swap1\n      dup2\n      mstore\n      0x20\n      add\n      0x00\n      keccak256\n      sload\n        /* \"contracts/SimpleWallet.sol\":443:450  _amount */\n      dup5\n        /* \"contracts/SimpleWallet.sol\":393:451  AllowanceChanged(_who,msg.sender,allowance[_who], _amount) */\n      mload(0x40)\n      tag_90\n      swap3\n      swap2\n      swap1\n      tag_91\n      jump\t// in\n    tag_90:\n      mload(0x40)\n      dup1\n      swap2\n      sub\n      swap1\n      log3\n        /* \"contracts/SimpleWallet.sol\":479:486  _amount */\n      dup1\n        /* \"contracts/SimpleWallet.sol\":462:471  allowance */\n      0x01\n        /* \"contracts/SimpleWallet.sol\":462:477  allowance[_who] */\n      0x00\n        /* \"contracts/SimpleWallet.sol\":472:476  _who */\n      dup5\n        /* \"contracts/SimpleWallet.sol\":462:477  allowance[_who] */\n      0xffffffffffffffffffffffffffffffffffffffff\n      and\n      0xffffffffffffffffffffffffffffffffffffffff\n      and\n      dup2\n      mstore\n      0x20\n      add\n      swap1\n      dup2\n      mstore\n      0x20\n      add\n      0x00\n      keccak256\n        /* \"contracts/SimpleWallet.sol\":462:486  allowance[_who]= _amount */\n      dup2\n      swap1\n      sstore\n      pop\n        /* \"contracts/SimpleWallet.sol\":312:494  function addAllowance(address _who,uint _amount) public onlyOwner{\r... */\n      pop\n      pop\n      jump\t// out\n        /* \"contracts/utils/Context.sol\":656:754  function _msgSender() internal view virtual returns (address) {\r... */\n    tag_54:\n        /* \"contracts/utils/Context.sol\":709:716  address */\n      0x00\n        /* \"contracts/utils/Context.sol\":736:746  msg.sender */\n      caller\n        /* \"contracts/utils/Context.sol\":729:746  return msg.sender */\n      swap1\n      pop\n        /* \"contracts/utils/Context.sol\":656:754  function _msgSender() internal view virtual returns (address) {\r... */\n      swap1\n      jump\t// out\n        /* \"contracts/SimpleWallet.sol\":654:873  function reduceAllowance(address _who,uint _amount) internal{\r... */\n    tag_68:\n        /* \"contracts/SimpleWallet.sol\":752:762  msg.sender */\n      caller\n        /* \"contracts/SimpleWallet.sol\":730:808  AllowanceChanged(_who,msg.sender,allowance[_who],allowance[_who].sub(_amount)) */\n      0xffffffffffffffffffffffffffffffffffffffff\n      and\n        /* \"contracts/SimpleWallet.sol\":747:751  _who */\n      dup3\n        /* \"contracts/SimpleWallet.sol\":730:808  AllowanceChanged(_who,msg.sender,allowance[_who],allowance[_who].sub(_amount)) */\n      0xffffffffffffffffffffffffffffffffffffffff\n      and\n      0x3691d1a86d99355e52b689ca70a7bdf6d80763237a6aa06e5fa43964eac7244b\n        /* \"contracts/SimpleWallet.sol\":763:772  allowance */\n      0x01\n        /* \"contracts/SimpleWallet.sol\":763:778  allowance[_who] */\n      0x00\n        /* \"contracts/SimpleWallet.sol\":773:777  _who */\n      dup7\n        /* \"contracts/SimpleWallet.sol\":763:778  allowance[_who] */\n      0xffffffffffffffffffffffffffffffffffffffff\n      and\n      0xffffffffffffffffffffffffffffffffffffffff\n      and\n      dup2\n      mstore\n      0x20\n      add\n      swap1\n      dup2\n      mstore\n      0x20\n      add\n      0x00\n      keccak256\n      sload\n        /* \"contracts/SimpleWallet.sol\":779:807  allowance[_who].sub(_amount) */\n      tag_94\n        /* \"contracts/SimpleWallet.sol\":799:806  _amount */\n      dup6\n        /* \"contracts/SimpleWallet.sol\":779:788  allowance */\n      0x01\n        /* \"contracts/SimpleWallet.sol\":779:794  allowance[_who] */\n      0x00\n        /* \"contracts/SimpleWallet.sol\":789:793  _who */\n      dup10\n        /* \"contracts/SimpleWallet.sol\":779:794  allowance[_who] */\n      0xffffffffffffffffffffffffffffffffffffffff\n      and\n      0xffffffffffffffffffffffffffffffffffffffff\n      and\n      dup2\n      mstore\n      0x20\n      add\n      swap1\n      dup2\n      mstore\n      0x20\n      add\n      0x00\n      keccak256\n      sload\n        /* \"contracts/SimpleWallet.sol\":779:798  allowance[_who].sub */\n      tag_95\n      swap1\n        /* \"contracts/SimpleWallet.sol\":779:807  allowance[_who].sub(_amount) */\n      swap2\n      swap1\n      0xffffffff\n      and\n      jump\t// in\n    tag_94:\n        /* \"contracts/SimpleWallet.sol\":730:808  AllowanceChanged(_who,msg.sender,allowance[_who],allowance[_who].sub(_amount)) */\n      mload(0x40)\n      tag_96\n      swap3\n      swap2\n      swap1\n      tag_91\n      jump\t// in\n    tag_96:\n      mload(0x40)\n      dup1\n      swap2\n      sub\n      swap1\n      log3\n        /* \"contracts/SimpleWallet.sol\":837:865  allowance[_who].sub(_amount) */\n      tag_97\n        /* \"contracts/SimpleWallet.sol\":857:864  _amount */\n      dup2\n        /* \"contracts/SimpleWallet.sol\":837:846  allowance */\n      0x01\n        /* \"contracts/SimpleWallet.sol\":837:852  allowance[_who] */\n      0x00\n        /* \"contracts/SimpleWallet.sol\":847:851  _who */\n      dup6\n        /* \"contracts/SimpleWallet.sol\":837:852  allowance[_who] */\n      0xffffffffffffffffffffffffffffffffffffffff\n      and\n      0xffffffffffffffffffffffffffffffffffffffff\n      and\n      dup2\n      mstore\n      0x20\n      add\n      swap1\n      dup2\n      mstore\n      0x20\n      add\n      0x00\n      keccak256\n      sload\n        /* \"contracts/SimpleWallet.sol\":837:856  allowance[_who].sub */\n      tag_95\n      swap1\n        /* \"contracts/SimpleWallet.sol\":837:865  allowance[_who].sub(_amount) */\n      swap2\n      swap1\n      0xffffffff\n      and\n      jump\t// in\n    tag_97:\n        /* \"contracts/SimpleWallet.sol\":819:828  allowance */\n      0x01\n        /* \"contracts/SimpleWallet.sol\":819:834  allowance[_who] */\n      0x00\n        /* \"contracts/SimpleWallet.sol\":829:833  _who */\n      dup5\n        /* \"contracts/SimpleWallet.sol\":819:834  allowance[_who] */\n      0xffffffffffffffffffffffffffffffffffffffff\n      and\n      0xffffffffffffffffffffffffffffffffffffffff\n      and\n      dup2\n      mstore\n      0x20\n      add\n      swap1\n      dup2\n      mstore\n      0x20\n      add\n      0x00\n      keccak256\n        /* \"contracts/SimpleWallet.sol\":819:865  allowance[_who] = allowance[_who].sub(_amount) */\n      dup2\n      swap1\n      sstore\n      pop\n        /* \"contracts/SimpleWallet.sol\":654:873  function reduceAllowance(address _who,uint _amount) internal{\r... */\n      pop\n      pop\n      jump\t// out\n        /* \"contracts/utils/Ownable.sol\":2432:2623  function _transferOwnership(address newOwner) internal virtual {\r... */\n    tag_83:\n        /* \"contracts/utils/Ownable.sol\":2506:2522  address oldOwner */\n      0x00\n        /* \"contracts/utils/Ownable.sol\":2525:2531  _owner */\n      dup1\n      0x00\n      swap1\n      sload\n      swap1\n      0x0100\n      exp\n      swap1\n      div\n      0xffffffffffffffffffffffffffffffffffffffff\n      and\n        /* \"contracts/utils/Ownable.sol\":2506:2531  address oldOwner = _owner */\n      swap1\n      pop\n        /* \"contracts/utils/Ownable.sol\":2551:2559  newOwner */\n      dup2\n        /* \"contracts/utils/Ownable.sol\":2542:2548  _owner */\n      0x00\n      dup1\n        /* \"contracts/utils/Ownable.sol\":2542:2559  _owner = newOwner */\n      0x0100\n      exp\n      dup2\n      sload\n      dup2\n      0xffffffffffffffffffffffffffffffffffffffff\n      mul\n      not\n      and\n      swap1\n      dup4\n      0xffffffffffffffffffffffffffffffffffffffff\n      and\n      mul\n      or\n      swap1\n      sstore\n      pop\n        /* \"contracts/utils/Ownable.sol\":2606:2614  newOwner */\n      dup2\n        /* \"contracts/utils/Ownable.sol\":2575:2615  OwnershipTransferred(oldOwner, newOwner) */\n      0xffffffffffffffffffffffffffffffffffffffff\n      and\n        /* \"contracts/utils/Ownable.sol\":2596:2604  oldOwner */\n      dup2\n        /* \"contracts/utils/Ownable.sol\":2575:2615  OwnershipTransferred(oldOwner, newOwner) */\n      0xffffffffffffffffffffffffffffffffffffffff\n      and\n      0x8be0079c531659141344cd1fd0a4f28419497f9722a3daafe3b4186f6b6457e0\n      mload(0x40)\n      mload(0x40)\n      dup1\n      swap2\n      sub\n      swap1\n      log3\n        /* \"contracts/utils/Ownable.sol\":2495:2623  {\r... */\n      pop\n        /* \"contracts/utils/Ownable.sol\":2432:2623  function _transferOwnership(address newOwner) internal virtual {\r... */\n      pop\n      jump\t// out\n        /* \"contracts/utils/SafeMath.sol\":3228:3326  function sub(uint256 a, uint256 b) internal pure returns (uint256) {\r... */\n    tag_95:\n        /* \"contracts/utils/SafeMath.sol\":3286:3293  uint256 */\n      0x00\n        /* \"contracts/utils/SafeMath.sol\":3317:3318  b */\n      dup2\n        /* \"contracts/utils/SafeMath.sol\":3313:3314  a */\n      dup4\n        /* \"contracts/utils/SafeMath.sol\":3313:3318  a - b */\n      tag_100\n      swap2\n      swap1\n      tag_101\n      jump\t// in\n    tag_100:\n        /* \"contracts/utils/SafeMath.sol\":3306:3318  return a - b */\n      swap1\n      pop\n        /* \"contracts/utils/SafeMath.sol\":3228:3326  function sub(uint256 a, uint256 b) internal pure returns (uint256) {\r... */\n      swap3\n      swap2\n      pop\n      pop\n      jump\t// out\n        /* \"#utility.yul\":7:146   */\n    tag_103:\n        /* \"#utility.yul\":53:58   */\n      0x00\n        /* \"#utility.yul\":91:97   */\n      dup2\n        /* \"#utility.yul\":78:98   */\n      calldataload\n        /* \"#utility.yul\":69:98   */\n      swap1\n      pop\n        /* \"#utility.yul\":107:140   */\n      tag_105\n        /* \"#utility.yul\":134:139   */\n      dup2\n        /* \"#utility.yul\":107:140   */\n      tag_106\n      jump\t// in\n    tag_105:\n        /* \"#utility.yul\":7:146   */\n      swap3\n      swap2\n      pop\n      pop\n      jump\t// out\n        /* \"#utility.yul\":152:307   */\n    tag_107:\n        /* \"#utility.yul\":206:211   */\n      0x00\n        /* \"#utility.yul\":244:250   */\n      dup2\n        /* \"#utility.yul\":231:251   */\n      calldataload\n        /* \"#utility.yul\":222:251   */\n      swap1\n      pop\n        /* \"#utility.yul\":260:301   */\n      tag_109\n        /* \"#utility.yul\":295:300   */\n      dup2\n        /* \"#utility.yul\":260:301   */\n      tag_110\n      jump\t// in\n    tag_109:\n        /* \"#utility.yul\":152:307   */\n      swap3\n      swap2\n      pop\n      pop\n      jump\t// out\n        /* \"#utility.yul\":313:452   */\n    tag_111:\n        /* \"#utility.yul\":359:364   */\n      0x00\n        /* \"#utility.yul\":397:403   */\n      dup2\n        /* \"#utility.yul\":384:404   */\n      calldataload\n        /* \"#utility.yul\":375:404   */\n      swap1\n      pop\n        /* \"#utility.yul\":413:446   */\n      tag_113\n        /* \"#utility.yul\":440:445   */\n      dup2\n        /* \"#utility.yul\":413:446   */\n      tag_114\n      jump\t// in\n    tag_113:\n        /* \"#utility.yul\":313:452   */\n      swap3\n      swap2\n      pop\n      pop\n      jump\t// out\n        /* \"#utility.yul\":458:787   */\n    tag_18:\n        /* \"#utility.yul\":517:523   */\n      0x00\n        /* \"#utility.yul\":566:568   */\n      0x20\n        /* \"#utility.yul\":554:563   */\n      dup3\n        /* \"#utility.yul\":545:552   */\n      dup5\n        /* \"#utility.yul\":541:564   */\n      sub\n        /* \"#utility.yul\":537:569   */\n      slt\n        /* \"#utility.yul\":534:653   */\n      iszero\n      tag_116\n      jumpi\n        /* \"#utility.yul\":572:651   */\n      tag_117\n      tag_118\n      jump\t// in\n    tag_117:\n        /* \"#utility.yul\":534:653   */\n    tag_116:\n        /* \"#utility.yul\":692:693   */\n      0x00\n        /* \"#utility.yul\":717:770   */\n      tag_119\n        /* \"#utility.yul\":762:769   */\n      dup5\n        /* \"#utility.yul\":753:759   */\n      dup3\n        /* \"#utility.yul\":742:751   */\n      dup6\n        /* \"#utility.yul\":738:760   */\n      add\n        /* \"#utility.yul\":717:770   */\n      tag_103\n      jump\t// in\n    tag_119:\n        /* \"#utility.yul\":707:770   */\n      swap2\n      pop\n        /* \"#utility.yul\":663:780   */\n      pop\n        /* \"#utility.yul\":458:787   */\n      swap3\n      swap2\n      pop\n      pop\n      jump\t// out\n        /* \"#utility.yul\":793:1283   */\n    tag_37:\n        /* \"#utility.yul\":869:875   */\n      0x00\n        /* \"#utility.yul\":877:883   */\n      dup1\n        /* \"#utility.yul\":926:928   */\n      0x40\n        /* \"#utility.yul\":914:923   */\n      dup4\n        /* \"#utility.yul\":905:912   */\n      dup6\n        /* \"#utility.yul\":901:924   */\n      sub\n        /* \"#utility.yul\":897:929   */\n      slt\n        /* \"#utility.yul\":894:1013   */\n      iszero\n      tag_121\n      jumpi\n        /* \"#utility.yul\":932:1011   */\n      tag_122\n      tag_118\n      jump\t// in\n    tag_122:\n        /* \"#utility.yul\":894:1013   */\n    tag_121:\n        /* \"#utility.yul\":1052:1053   */\n      0x00\n        /* \"#utility.yul\":1077:1138   */\n      tag_123\n        /* \"#utility.yul\":1130:1137   */\n      dup6\n        /* \"#utility.yul\":1121:1127   */\n      dup3\n        /* \"#utility.yul\":1110:1119   */\n      dup7\n        /* \"#utility.yul\":1106:1128   */\n      add\n        /* \"#utility.yul\":1077:1138   */\n      tag_107\n      jump\t// in\n    tag_123:\n        /* \"#utility.yul\":1067:1138   */\n      swap3\n      pop\n        /* \"#utility.yul\":1023:1148   */\n      pop\n        /* \"#utility.yul\":1187:1189   */\n      0x20\n        /* \"#utility.yul\":1213:1266   */\n      tag_124\n        /* \"#utility.yul\":1258:1265   */\n      dup6\n        /* \"#utility.yul\":1249:1255   */\n      dup3\n        /* \"#utility.yul\":1238:1247   */\n      dup7\n        /* \"#utility.yul\":1234:1256   */\n      add\n        /* \"#utility.yul\":1213:1266   */\n      tag_111\n      jump\t// in\n    tag_124:\n        /* \"#utility.yul\":1203:1266   */\n      swap2\n      pop\n        /* \"#utility.yul\":1158:1276   */\n      pop\n        /* \"#utility.yul\":793:1283   */\n      swap3\n      pop\n      swap3\n      swap1\n      pop\n      jump\t// out\n        /* \"#utility.yul\":1289:1763   */\n    tag_46:\n        /* \"#utility.yul\":1357:1363   */\n      0x00\n        /* \"#utility.yul\":1365:1371   */\n      dup1\n        /* \"#utility.yul\":1414:1416   */\n      0x40\n        /* \"#utility.yul\":1402:1411   */\n      dup4\n        /* \"#utility.yul\":1393:1400   */\n      dup6\n        /* \"#utility.yul\":1389:1412   */\n      sub\n        /* \"#utility.yul\":1385:1417   */\n      slt\n        /* \"#utility.yul\":1382:1501   */\n      iszero\n      tag_126\n      jumpi\n        /* \"#utility.yul\":1420:1499   */\n      tag_127\n      tag_118\n      jump\t// in\n    tag_127:\n        /* \"#utility.yul\":1382:1501   */\n    tag_126:\n        /* \"#utility.yul\":1540:1541   */\n      0x00\n        /* \"#utility.yul\":1565:1618   */\n      tag_128\n        /* \"#utility.yul\":1610:1617   */\n      dup6\n        /* \"#utility.yul\":1601:1607   */\n      dup3\n        /* \"#utility.yul\":1590:1599   */\n      dup7\n        /* \"#utility.yul\":1586:1608   */\n      add\n        /* \"#utility.yul\":1565:1618   */\n      tag_103\n      jump\t// in\n    tag_128:\n        /* \"#utility.yul\":1555:1618   */\n      swap3\n      pop\n        /* \"#utility.yul\":1511:1628   */\n      pop\n        /* \"#utility.yul\":1667:1669   */\n      0x20\n        /* \"#utility.yul\":1693:1746   */\n      tag_129\n        /* \"#utility.yul\":1738:1745   */\n      dup6\n        /* \"#utility.yul\":1729:1735   */\n      dup3\n        /* \"#utility.yul\":1718:1727   */\n      dup7\n        /* \"#utility.yul\":1714:1736   */\n      add\n        /* \"#utility.yul\":1693:1746   */\n      tag_111\n      jump\t// in\n    tag_129:\n        /* \"#utility.yul\":1683:1746   */\n      swap2\n      pop\n        /* \"#utility.yul\":1638:1756   */\n      pop\n        /* \"#utility.yul\":1289:1763   */\n      swap3\n      pop\n      swap3\n      swap1\n      pop\n      jump\t// out\n        /* \"#utility.yul\":1769:1887   */\n    tag_130:\n        /* \"#utility.yul\":1856:1880   */\n      tag_132\n        /* \"#utility.yul\":1874:1879   */\n      dup2\n        /* \"#utility.yul\":1856:1880   */\n      tag_133\n      jump\t// in\n    tag_132:\n        /* \"#utility.yul\":1851:1854   */\n      dup3\n        /* \"#utility.yul\":1844:1881   */\n      mstore\n        /* \"#utility.yul\":1769:1887   */\n      pop\n      pop\n      jump\t// out\n        /* \"#utility.yul\":1893:2002   */\n    tag_134:\n        /* \"#utility.yul\":1974:1995   */\n      tag_136\n        /* \"#utility.yul\":1989:1994   */\n      dup2\n        /* \"#utility.yul\":1974:1995   */\n      tag_137\n      jump\t// in\n    tag_136:\n        /* \"#utility.yul\":1969:1972   */\n      dup3\n        /* \"#utility.yul\":1962:1996   */\n      mstore\n        /* \"#utility.yul\":1893:2002   */\n      pop\n      pop\n      jump\t// out\n        /* \"#utility.yul\":2008:2374   */\n    tag_138:\n        /* \"#utility.yul\":2150:2153   */\n      0x00\n        /* \"#utility.yul\":2171:2238   */\n      tag_140\n        /* \"#utility.yul\":2235:2237   */\n      0x26\n        /* \"#utility.yul\":2230:2233   */\n      dup4\n        /* \"#utility.yul\":2171:2238   */\n      tag_141\n      jump\t// in\n    tag_140:\n        /* \"#utility.yul\":2164:2238   */\n      swap2\n      pop\n        /* \"#utility.yul\":2247:2340   */\n      tag_142\n        /* \"#utility.yul\":2336:2339   */\n      dup3\n        /* \"#utility.yul\":2247:2340   */\n      tag_143\n      jump\t// in\n    tag_142:\n        /* \"#utility.yul\":2365:2367   */\n      0x40\n        /* \"#utility.yul\":2360:2363   */\n      dup3\n        /* \"#utility.yul\":2356:2368   */\n      add\n        /* \"#utility.yul\":2349:2368   */\n      swap1\n      pop\n        /* \"#utility.yul\":2008:2374   */\n      swap2\n      swap1\n      pop\n      jump\t// out\n        /* \"#utility.yul\":2380:2746   */\n    tag_144:\n        /* \"#utility.yul\":2522:2525   */\n      0x00\n        /* \"#utility.yul\":2543:2610   */\n      tag_146\n        /* \"#utility.yul\":2607:2609   */\n      0x1e\n        /* \"#utility.yul\":2602:2605   */\n      dup4\n        /* \"#utility.yul\":2543:2610   */\n      tag_141\n      jump\t// in\n    tag_146:\n        /* \"#utility.yul\":2536:2610   */\n      swap2\n      pop\n        /* \"#utility.yul\":2619:2712   */\n      tag_147\n        /* \"#utility.yul\":2708:2711   */\n      dup3\n        /* \"#utility.yul\":2619:2712   */\n      tag_148\n      jump\t// in\n    tag_147:\n        /* \"#utility.yul\":2737:2739   */\n      0x20\n        /* \"#utility.yul\":2732:2735   */\n      dup3\n        /* \"#utility.yul\":2728:2740   */\n      add\n        /* \"#utility.yul\":2721:2740   */\n      swap1\n      pop\n        /* \"#utility.yul\":2380:2746   */\n      swap2\n      swap1\n      pop\n      jump\t// out\n        /* \"#utility.yul\":2752:3118   */\n    tag_149:\n        /* \"#utility.yul\":2894:2897   */\n      0x00\n        /* \"#utility.yul\":2915:2982   */\n      tag_151\n        /* \"#utility.yul\":2979:2981   */\n      0x13\n        /* \"#utility.yul\":2974:2977   */\n      dup4\n        /* \"#utility.yul\":2915:2982   */\n      tag_141\n      jump\t// in\n    tag_151:\n        /* \"#utility.yul\":2908:2982   */\n      swap2\n      pop\n        /* \"#utility.yul\":2991:3084   */\n      tag_152\n        /* \"#utility.yul\":3080:3083   */\n      dup3\n        /* \"#utility.yul\":2991:3084   */\n      tag_153\n      jump\t// in\n    tag_152:\n        /* \"#utility.yul\":3109:3111   */\n      0x20\n        /* \"#utility.yul\":3104:3107   */\n      dup3\n        /* \"#utility.yul\":3100:3112   */\n      add\n        /* \"#utility.yul\":3093:3112   */\n      swap1\n      pop\n        /* \"#utility.yul\":2752:3118   */\n      swap2\n      swap1\n      pop\n      jump\t// out\n        /* \"#utility.yul\":3124:3490   */\n    tag_154:\n        /* \"#utility.yul\":3266:3269   */\n      0x00\n        /* \"#utility.yul\":3287:3354   */\n      tag_156\n        /* \"#utility.yul\":3351:3353   */\n      0x20\n        /* \"#utility.yul\":3346:3349   */\n      dup4\n        /* \"#utility.yul\":3287:3354   */\n      tag_141\n      jump\t// in\n    tag_156:\n        /* \"#utility.yul\":3280:3354   */\n      swap2\n      pop\n        /* \"#utility.yul\":3363:3456   */\n      tag_157\n        /* \"#utility.yul\":3452:3455   */\n      dup3\n        /* \"#utility.yul\":3363:3456   */\n      tag_158\n      jump\t// in\n    tag_157:\n        /* \"#utility.yul\":3481:3483   */\n      0x20\n        /* \"#utility.yul\":3476:3479   */\n      dup3\n        /* \"#utility.yul\":3472:3484   */\n      add\n        /* \"#utility.yul\":3465:3484   */\n      swap1\n      pop\n        /* \"#utility.yul\":3124:3490   */\n      swap2\n      swap1\n      pop\n      jump\t// out\n        /* \"#utility.yul\":3496:3862   */\n    tag_159:\n        /* \"#utility.yul\":3638:3641   */\n      0x00\n        /* \"#utility.yul\":3659:3726   */\n      tag_161\n        /* \"#utility.yul\":3723:3725   */\n      0x34\n        /* \"#utility.yul\":3718:3721   */\n      dup4\n        /* \"#utility.yul\":3659:3726   */\n      tag_141\n      jump\t// in\n    tag_161:\n        /* \"#utility.yul\":3652:3726   */\n      swap2\n      pop\n        /* \"#utility.yul\":3735:3828   */\n      tag_162\n        /* \"#utility.yul\":3824:3827   */\n      dup3\n        /* \"#utility.yul\":3735:3828   */\n      tag_163\n      jump\t// in\n    tag_162:\n        /* \"#utility.yul\":3853:3855   */\n      0x40\n        /* \"#utility.yul\":3848:3851   */\n      dup3\n        /* \"#utility.yul\":3844:3856   */\n      add\n        /* \"#utility.yul\":3837:3856   */\n      swap1\n      pop\n        /* \"#utility.yul\":3496:3862   */\n      swap2\n      swap1\n      pop\n      jump\t// out\n        /* \"#utility.yul\":3868:3986   */\n    tag_164:\n        /* \"#utility.yul\":3955:3979   */\n      tag_166\n        /* \"#utility.yul\":3973:3978   */\n      dup2\n        /* \"#utility.yul\":3955:3979   */\n      tag_167\n      jump\t// in\n    tag_166:\n        /* \"#utility.yul\":3950:3953   */\n      dup3\n        /* \"#utility.yul\":3943:3980   */\n      mstore\n        /* \"#utility.yul\":3868:3986   */\n      pop\n      pop\n      jump\t// out\n        /* \"#utility.yul\":3992:4214   */\n    tag_28:\n        /* \"#utility.yul\":4085:4089   */\n      0x00\n        /* \"#utility.yul\":4123:4125   */\n      0x20\n        /* \"#utility.yul\":4112:4121   */\n      dup3\n        /* \"#utility.yul\":4108:4126   */\n      add\n        /* \"#utility.yul\":4100:4126   */\n      swap1\n      pop\n        /* \"#utility.yul\":4136:4207   */\n      tag_169\n        /* \"#utility.yul\":4204:4205   */\n      0x00\n        /* \"#utility.yul\":4193:4202   */\n      dup4\n        /* \"#utility.yul\":4189:4206   */\n      add\n        /* \"#utility.yul\":4180:4186   */\n      dup5\n        /* \"#utility.yul\":4136:4207   */\n      tag_130\n      jump\t// in\n    tag_169:\n        /* \"#utility.yul\":3992:4214   */\n      swap3\n      swap2\n      pop\n      pop\n      jump\t// out\n        /* \"#utility.yul\":4220:4430   */\n    tag_33:\n        /* \"#utility.yul\":4307:4311   */\n      0x00\n        /* \"#utility.yul\":4345:4347   */\n      0x20\n        /* \"#utility.yul\":4334:4343   */\n      dup3\n        /* \"#utility.yul\":4330:4348   */\n      add\n        /* \"#utility.yul\":4322:4348   */\n      swap1\n      pop\n        /* \"#utility.yul\":4358:4423   */\n      tag_171\n        /* \"#utility.yul\":4420:4421   */\n      0x00\n        /* \"#utility.yul\":4409:4418   */\n      dup4\n        /* \"#utility.yul\":4405:4422   */\n      add\n        /* \"#utility.yul\":4396:4402   */\n      dup5\n        /* \"#utility.yul\":4358:4423   */\n      tag_134\n      jump\t// in\n    tag_171:\n        /* \"#utility.yul\":4220:4430   */\n      swap3\n      swap2\n      pop\n      pop\n      jump\t// out\n        /* \"#utility.yul\":4436:4855   */\n    tag_81:\n        /* \"#utility.yul\":4602:4606   */\n      0x00\n        /* \"#utility.yul\":4640:4642   */\n      0x20\n        /* \"#utility.yul\":4629:4638   */\n      dup3\n        /* \"#utility.yul\":4625:4643   */\n      add\n        /* \"#utility.yul\":4617:4643   */\n      swap1\n      pop\n        /* \"#utility.yul\":4689:4698   */\n      dup2\n        /* \"#utility.yul\":4683:4687   */\n      dup2\n        /* \"#utility.yul\":4679:4699   */\n      sub\n        /* \"#utility.yul\":4675:4676   */\n      0x00\n        /* \"#utility.yul\":4664:4673   */\n      dup4\n        /* \"#utility.yul\":4660:4677   */\n      add\n        /* \"#utility.yul\":4653:4700   */\n      mstore\n        /* \"#utility.yul\":4717:4848   */\n      tag_173\n        /* \"#utility.yul\":4843:4847   */\n      dup2\n        /* \"#utility.yul\":4717:4848   */\n      tag_138\n      jump\t// in\n    tag_173:\n        /* \"#utility.yul\":4709:4848   */\n      swap1\n      pop\n        /* \"#utility.yul\":4436:4855   */\n      swap2\n      swap1\n      pop\n      jump\t// out\n        /* \"#utility.yul\":4861:5280   */\n    tag_50:\n        /* \"#utility.yul\":5027:5031   */\n      0x00\n        /* \"#utility.yul\":5065:5067   */\n      0x20\n        /* \"#utility.yul\":5054:5063   */\n      dup3\n        /* \"#utility.yul\":5050:5068   */\n      add\n        /* \"#utility.yul\":5042:5068   */\n      swap1\n      pop\n        /* \"#utility.yul\":5114:5123   */\n      dup2\n        /* \"#utility.yul\":5108:5112   */\n      dup2\n        /* \"#utility.yul\":5104:5124   */\n      sub\n        /* \"#utility.yul\":5100:5101   */\n      0x00\n        /* \"#utility.yul\":5089:5098   */\n      dup4\n        /* \"#utility.yul\":5085:5102   */\n      add\n        /* \"#utility.yul\":5078:5125   */\n      mstore\n        /* \"#utility.yul\":5142:5273   */\n      tag_175\n        /* \"#utility.yul\":5268:5272   */\n      dup2\n        /* \"#utility.yul\":5142:5273   */\n      tag_144\n      jump\t// in\n    tag_175:\n        /* \"#utility.yul\":5134:5273   */\n      swap1\n      pop\n        /* \"#utility.yul\":4861:5280   */\n      swap2\n      swap1\n      pop\n      jump\t// out\n        /* \"#utility.yul\":5286:5705   */\n    tag_60:\n        /* \"#utility.yul\":5452:5456   */\n      0x00\n        /* \"#utility.yul\":5490:5492   */\n      0x20\n        /* \"#utility.yul\":5479:5488   */\n      dup3\n        /* \"#utility.yul\":5475:5493   */\n      add\n        /* \"#utility.yul\":5467:5493   */\n      swap1\n      pop\n        /* \"#utility.yul\":5539:5548   */\n      dup2\n        /* \"#utility.yul\":5533:5537   */\n      dup2\n        /* \"#utility.yul\":5529:5549   */\n      sub\n        /* \"#utility.yul\":5525:5526   */\n      0x00\n        /* \"#utility.yul\":5514:5523   */\n      dup4\n        /* \"#utility.yul\":5510:5527   */\n      add\n        /* \"#utility.yul\":5503:5550   */\n      mstore\n        /* \"#utility.yul\":5567:5698   */\n      tag_177\n        /* \"#utility.yul\":5693:5697   */\n      dup2\n        /* \"#utility.yul\":5567:5698   */\n      tag_149\n      jump\t// in\n    tag_177:\n        /* \"#utility.yul\":5559:5698   */\n      swap1\n      pop\n        /* \"#utility.yul\":5286:5705   */\n      swap2\n      swap1\n      pop\n      jump\t// out\n        /* \"#utility.yul\":5711:6130   */\n    tag_77:\n        /* \"#utility.yul\":5877:5881   */\n      0x00\n        /* \"#utility.yul\":5915:5917   */\n      0x20\n        /* \"#utility.yul\":5904:5913   */\n      dup3\n        /* \"#utility.yul\":5900:5918   */\n      add\n        /* \"#utility.yul\":5892:5918   */\n      swap1\n      pop\n        /* \"#utility.yul\":5964:5973   */\n      dup2\n        /* \"#utility.yul\":5958:5962   */\n      dup2\n        /* \"#utility.yul\":5954:5974   */\n      sub\n        /* \"#utility.yul\":5950:5951   */\n      0x00\n        /* \"#utility.yul\":5939:5948   */\n      dup4\n        /* \"#utility.yul\":5935:5952   */\n      add\n        /* \"#utility.yul\":5928:5975   */\n      mstore\n        /* \"#utility.yul\":5992:6123   */\n      tag_179\n        /* \"#utility.yul\":6118:6122   */\n      dup2\n        /* \"#utility.yul\":5992:6123   */\n      tag_154\n      jump\t// in\n    tag_179:\n        /* \"#utility.yul\":5984:6123   */\n      swap1\n      pop\n        /* \"#utility.yul\":5711:6130   */\n      swap2\n      swap1\n      pop\n      jump\t// out\n        /* \"#utility.yul\":6136:6555   */\n    tag_64:\n        /* \"#utility.yul\":6302:6306   */\n      0x00\n        /* \"#utility.yul\":6340:6342   */\n      0x20\n        /* \"#utility.yul\":6329:6338   */\n      dup3\n        /* \"#utility.yul\":6325:6343   */\n      add\n        /* \"#utility.yul\":6317:6343   */\n      swap1\n      pop\n        /* \"#utility.yul\":6389:6398   */\n      dup2\n        /* \"#utility.yul\":6383:6387   */\n      dup2\n        /* \"#utility.yul\":6379:6399   */\n      sub\n        /* \"#utility.yul\":6375:6376   */\n      0x00\n        /* \"#utility.yul\":6364:6373   */\n      dup4\n        /* \"#utility.yul\":6360:6377   */\n      add\n        /* \"#utility.yul\":6353:6400   */\n      mstore\n        /* \"#utility.yul\":6417:6548   */\n      tag_181\n        /* \"#utility.yul\":6543:6547   */\n      dup2\n        /* \"#utility.yul\":6417:6548   */\n      tag_159\n      jump\t// in\n    tag_181:\n        /* \"#utility.yul\":6409:6548   */\n      swap1\n      pop\n        /* \"#utility.yul\":6136:6555   */\n      swap2\n      swap1\n      pop\n      jump\t// out\n        /* \"#utility.yul\":6561:6783   */\n    tag_14:\n        /* \"#utility.yul\":6654:6658   */\n      0x00\n        /* \"#utility.yul\":6692:6694   */\n      0x20\n        /* \"#utility.yul\":6681:6690   */\n      dup3\n        /* \"#utility.yul\":6677:6695   */\n      add\n        /* \"#utility.yul\":6669:6695   */\n      swap1\n      pop\n        /* \"#utility.yul\":6705:6776   */\n      tag_183\n        /* \"#utility.yul\":6773:6774   */\n      0x00\n        /* \"#utility.yul\":6762:6771   */\n      dup4\n        /* \"#utility.yul\":6758:6775   */\n      add\n        /* \"#utility.yul\":6749:6755   */\n      dup5\n        /* \"#utility.yul\":6705:6776   */\n      tag_164\n      jump\t// in\n    tag_183:\n        /* \"#utility.yul\":6561:6783   */\n      swap3\n      swap2\n      pop\n      pop\n      jump\t// out\n        /* \"#utility.yul\":6789:7121   */\n    tag_91:\n        /* \"#utility.yul\":6910:6914   */\n      0x00\n        /* \"#utility.yul\":6948:6950   */\n      0x40\n        /* \"#utility.yul\":6937:6946   */\n      dup3\n        /* \"#utility.yul\":6933:6951   */\n      add\n        /* \"#utility.yul\":6925:6951   */\n      swap1\n      pop\n        /* \"#utility.yul\":6961:7032   */\n      tag_185\n        /* \"#utility.yul\":7029:7030   */\n      0x00\n        /* \"#utility.yul\":7018:7027   */\n      dup4\n        /* \"#utility.yul\":7014:7031   */\n      add\n        /* \"#utility.yul\":7005:7011   */\n      dup6\n        /* \"#utility.yul\":6961:7032   */\n      tag_164\n      jump\t// in\n    tag_185:\n        /* \"#utility.yul\":7042:7114   */\n      tag_186\n        /* \"#utility.yul\":7110:7112   */\n      0x20\n        /* \"#utility.yul\":7099:7108   */\n      dup4\n        /* \"#utility.yul\":7095:7113   */\n      add\n        /* \"#utility.yul\":7086:7092   */\n      dup5\n        /* \"#utility.yul\":7042:7114   */\n      tag_164\n      jump\t// in\n    tag_186:\n        /* \"#utility.yul\":6789:7121   */\n      swap4\n      swap3\n      pop\n      pop\n      pop\n      jump\t// out\n        /* \"#utility.yul\":7208:7377   */\n    tag_141:\n        /* \"#utility.yul\":7292:7303   */\n      0x00\n        /* \"#utility.yul\":7326:7332   */\n      dup3\n        /* \"#utility.yul\":7321:7324   */\n      dup3\n        /* \"#utility.yul\":7314:7333   */\n      mstore\n        /* \"#utility.yul\":7366:7370   */\n      0x20\n        /* \"#utility.yul\":7361:7364   */\n      dup3\n        /* \"#utility.yul\":7357:7371   */\n      add\n        /* \"#utility.yul\":7342:7371   */\n      swap1\n      pop\n        /* \"#utility.yul\":7208:7377   */\n      swap3\n      swap2\n      pop\n      pop\n      jump\t// out\n        /* \"#utility.yul\":7383:7574   */\n    tag_101:\n        /* \"#utility.yul\":7423:7427   */\n      0x00\n        /* \"#utility.yul\":7443:7463   */\n      tag_191\n        /* \"#utility.yul\":7461:7462   */\n      dup3\n        /* \"#utility.yul\":7443:7463   */\n      tag_167\n      jump\t// in\n    tag_191:\n        /* \"#utility.yul\":7438:7463   */\n      swap2\n      pop\n        /* \"#utility.yul\":7477:7497   */\n      tag_192\n        /* \"#utility.yul\":7495:7496   */\n      dup4\n        /* \"#utility.yul\":7477:7497   */\n      tag_167\n      jump\t// in\n    tag_192:\n        /* \"#utility.yul\":7472:7497   */\n      swap3\n      pop\n        /* \"#utility.yul\":7516:7517   */\n      dup3\n        /* \"#utility.yul\":7513:7514   */\n      dup3\n        /* \"#utility.yul\":7510:7518   */\n      lt\n        /* \"#utility.yul\":7507:7541   */\n      iszero\n      tag_193\n      jumpi\n        /* \"#utility.yul\":7521:7539   */\n      tag_194\n      tag_195\n      jump\t// in\n    tag_194:\n        /* \"#utility.yul\":7507:7541   */\n    tag_193:\n        /* \"#utility.yul\":7566:7567   */\n      dup3\n        /* \"#utility.yul\":7563:7564   */\n      dup3\n        /* \"#utility.yul\":7559:7568   */\n      sub\n        /* \"#utility.yul\":7551:7568   */\n      swap1\n      pop\n        /* \"#utility.yul\":7383:7574   */\n      swap3\n      swap2\n      pop\n      pop\n      jump\t// out\n        /* \"#utility.yul\":7580:7676   */\n    tag_133:\n        /* \"#utility.yul\":7617:7624   */\n      0x00\n        /* \"#utility.yul\":7646:7670   */\n      tag_197\n        /* \"#utility.yul\":7664:7669   */\n      dup3\n        /* \"#utility.yul\":7646:7670   */\n      tag_198\n      jump\t// in\n    tag_197:\n        /* \"#utility.yul\":7635:7670   */\n      swap1\n      pop\n        /* \"#utility.yul\":7580:7676   */\n      swap2\n      swap1\n      pop\n      jump\t// out\n        /* \"#utility.yul\":7682:7786   */\n    tag_199:\n        /* \"#utility.yul\":7727:7734   */\n      0x00\n        /* \"#utility.yul\":7756:7780   */\n      tag_201\n        /* \"#utility.yul\":7774:7779   */\n      dup3\n        /* \"#utility.yul\":7756:7780   */\n      tag_198\n      jump\t// in\n    tag_201:\n        /* \"#utility.yul\":7745:7780   */\n      swap1\n      pop\n        /* \"#utility.yul\":7682:7786   */\n      swap2\n      swap1\n      pop\n      jump\t// out\n        /* \"#utility.yul\":7792:7882   */\n    tag_137:\n        /* \"#utility.yul\":7826:7833   */\n      0x00\n        /* \"#utility.yul\":7869:7874   */\n      dup2\n        /* \"#utility.yul\":7862:7875   */\n      iszero\n        /* \"#utility.yul\":7855:7876   */\n      iszero\n        /* \"#utility.yul\":7844:7876   */\n      swap1\n      pop\n        /* \"#utility.yul\":7792:7882   */\n      swap2\n      swap1\n      pop\n      jump\t// out\n        /* \"#utility.yul\":7888:8014   */\n    tag_198:\n        /* \"#utility.yul\":7925:7932   */\n      0x00\n        /* \"#utility.yul\":7965:8007   */\n      0xffffffffffffffffffffffffffffffffffffffff\n        /* \"#utility.yul\":7958:7963   */\n      dup3\n        /* \"#utility.yul\":7954:8008   */\n      and\n        /* \"#utility.yul\":7943:8008   */\n      swap1\n      pop\n        /* \"#utility.yul\":7888:8014   */\n      swap2\n      swap1\n      pop\n      jump\t// out\n        /* \"#utility.yul\":8020:8097   */\n    tag_167:\n        /* \"#utility.yul\":8057:8064   */\n      0x00\n        /* \"#utility.yul\":8086:8091   */\n      dup2\n        /* \"#utility.yul\":8075:8091   */\n      swap1\n      pop\n        /* \"#utility.yul\":8020:8097   */\n      swap2\n      swap1\n      pop\n      jump\t// out\n        /* \"#utility.yul\":8103:8283   */\n    tag_195:\n        /* \"#utility.yul\":8151:8228   */\n      0x4e487b7100000000000000000000000000000000000000000000000000000000\n        /* \"#utility.yul\":8148:8149   */\n      0x00\n        /* \"#utility.yul\":8141:8229   */\n      mstore\n        /* \"#utility.yul\":8248:8252   */\n      0x11\n        /* \"#utility.yul\":8245:8246   */\n      0x04\n        /* \"#utility.yul\":8238:8253   */\n      mstore\n        /* \"#utility.yul\":8272:8276   */\n      0x24\n        /* \"#utility.yul\":8269:8270   */\n      0x00\n        /* \"#utility.yul\":8262:8277   */\n      revert\n        /* \"#utility.yul\":8412:8529   */\n    tag_118:\n        /* \"#utility.yul\":8521:8522   */\n      0x00\n        /* \"#utility.yul\":8518:8519   */\n      dup1\n        /* \"#utility.yul\":8511:8523   */\n      revert\n        /* \"#utility.yul\":8535:8760   */\n    tag_143:\n        /* \"#utility.yul\":8675:8709   */\n      0x4f776e61626c653a206e6577206f776e657220697320746865207a65726f2061\n        /* \"#utility.yul\":8671:8672   */\n      0x00\n        /* \"#utility.yul\":8663:8669   */\n      dup3\n        /* \"#utility.yul\":8659:8673   */\n      add\n        /* \"#utility.yul\":8652:8710   */\n      mstore\n        /* \"#utility.yul\":8744:8752   */\n      0x6464726573730000000000000000000000000000000000000000000000000000\n        /* \"#utility.yul\":8739:8741   */\n      0x20\n        /* \"#utility.yul\":8731:8737   */\n      dup3\n        /* \"#utility.yul\":8727:8742   */\n      add\n        /* \"#utility.yul\":8720:8753   */\n      mstore\n        /* \"#utility.yul\":8535:8760   */\n      pop\n      jump\t// out\n        /* \"#utility.yul\":8766:8946   */\n    tag_148:\n        /* \"#utility.yul\":8906:8938   */\n      0x63616e6e6f742072656e6f756e6365206f776e65727368697020686572650000\n        /* \"#utility.yul\":8902:8903   */\n      0x00\n        /* \"#utility.yul\":8894:8900   */\n      dup3\n        /* \"#utility.yul\":8890:8904   */\n      add\n        /* \"#utility.yul\":8883:8939   */\n      mstore\n        /* \"#utility.yul\":8766:8946   */\n      pop\n      jump\t// out\n        /* \"#utility.yul\":8952:9121   */\n    tag_153:\n        /* \"#utility.yul\":9092:9113   */\n      0x596f7520617265206e6f7420616c6c6f77656400000000000000000000000000\n        /* \"#utility.yul\":9088:9089   */\n      0x00\n        /* \"#utility.yul\":9080:9086   */\n      dup3\n        /* \"#utility.yul\":9076:9090   */\n      add\n        /* \"#utility.yul\":9069:9114   */\n      mstore\n        /* \"#utility.yul\":8952:9121   */\n      pop\n      jump\t// out\n        /* \"#utility.yul\":9127:9309   */\n    tag_158:\n        /* \"#utility.yul\":9267:9301   */\n      0x4f776e61626c653a2063616c6c6572206973206e6f7420746865206f776e6572\n        /* \"#utility.yul\":9263:9264   */\n      0x00\n        /* \"#utility.yul\":9255:9261   */\n      dup3\n        /* \"#utility.yul\":9251:9265   */\n      add\n        /* \"#utility.yul\":9244:9302   */\n      mstore\n        /* \"#utility.yul\":9127:9309   */\n      pop\n      jump\t// out\n        /* \"#utility.yul\":9315:9554   */\n    tag_163:\n        /* \"#utility.yul\":9455:9489   */\n      0x416d6f756e742069732067726561746572207468616e2062616c616e63652069\n        /* \"#utility.yul\":9451:9452   */\n      0x00\n        /* \"#utility.yul\":9443:9449   */\n      dup3\n        /* \"#utility.yul\":9439:9453   */\n      add\n        /* \"#utility.yul\":9432:9490   */\n      mstore\n        /* \"#utility.yul\":9524:9546   */\n      0x6e2074686520736d61727420636f6e7472616374000000000000000000000000\n        /* \"#utility.yul\":9519:9521   */\n      0x20\n        /* \"#utility.yul\":9511:9517   */\n      dup3\n        /* \"#utility.yul\":9507:9522   */\n      add\n        /* \"#utility.yul\":9500:9547   */\n      mstore\n        /* \"#utility.yul\":9315:9554   */\n      pop\n      jump\t// out\n        /* \"#utility.yul\":9560:9682   */\n    tag_106:\n        /* \"#utility.yul\":9633:9657   */\n      tag_215\n        /* \"#utility.yul\":9651:9656   */\n      dup2\n        /* \"#utility.yul\":9633:9657   */\n      tag_133\n      jump\t// in\n    tag_215:\n        /* \"#utility.yul\":9626:9631   */\n      dup2\n        /* \"#utility.yul\":9623:9658   */\n      eq\n        /* \"#utility.yul\":9613:9676   */\n      tag_216\n      jumpi\n        /* \"#utility.yul\":9672:9673   */\n      0x00\n        /* \"#utility.yul\":9669:9670   */\n      dup1\n        /* \"#utility.yul\":9662:9674   */\n      revert\n        /* \"#utility.yul\":9613:9676   */\n    tag_216:\n        /* \"#utility.yul\":9560:9682   */\n      pop\n      jump\t// out\n        /* \"#utility.yul\":9688:9826   */\n    tag_110:\n        /* \"#utility.yul\":9769:9801   */\n      tag_218\n        /* \"#utility.yul\":9795:9800   */\n      dup2\n        /* \"#utility.yul\":9769:9801   */\n      tag_199\n      jump\t// in\n    tag_218:\n        /* \"#utility.yul\":9762:9767   */\n      dup2\n        /* \"#utility.yul\":9759:9802   */\n      eq\n        /* \"#utility.yul\":9749:9820   */\n      tag_219\n      jumpi\n        /* \"#utility.yul\":9816:9817   */\n      0x00\n        /* \"#utility.yul\":9813:9814   */\n      dup1\n        /* \"#utility.yul\":9806:9818   */\n      revert\n        /* \"#utility.yul\":9749:9820   */\n    tag_219:\n        /* \"#utility.yul\":9688:9826   */\n      pop\n      jump\t// out\n        /* \"#utility.yul\":9832:9954   */\n    tag_114:\n        /* \"#utility.yul\":9905:9929   */\n      tag_221\n        /* \"#utility.yul\":9923:9928   */\n      dup2\n        /* \"#utility.yul\":9905:9929   */\n      tag_167\n      jump\t// in\n    tag_221:\n        /* \"#utility.yul\":9898:9903   */\n      dup2\n        /* \"#utility.yul\":9895:9930   */\n      eq\n        /* \"#utility.yul\":9885:9948   */\n      tag_222\n      jumpi\n        /* \"#utility.yul\":9944:9945   */\n      0x00\n        /* \"#utility.yul\":9941:9942   */\n      dup1\n        /* \"#utility.yul\":9934:9946   */\n      revert\n        /* \"#utility.yul\":9885:9948   */\n    tag_222:\n        /* \"#utility.yul\":9832:9954   */\n      pop\n      jump\t// out\n\n    auxdata: 0xa26469706673582212207a88ca31620cc2c8e16f08724a83c18839413ce233207f37684e92dc5f382c8864736f6c63430008070033\n}\n",
				"bytecode": {
					"linkReferences": {},
					"object": "608060405234801561001057600080fd5b5061002d61002261003260201b60201c565b61003a60201b60201c565b6100fe565b600033905090565b60008060009054906101000a900473ffffffffffffffffffffffffffffffffffffffff169050816000806101000a81548173ffffffffffffffffffffffffffffffffffffffff021916908373ffffffffffffffffffffffffffffffffffffffff1602179055508173ffffffffffffffffffffffffffffffffffffffff168173ffffffffffffffffffffffffffffffffffffffff167f8be0079c531659141344cd1fd0a4f28419497f9722a3daafe3b4186f6b6457e060405160405180910390a35050565b610e678061010d6000396000f3fe6080604052600436106100745760003560e01c80638f32d59b1161004e5780638f32d59b14610144578063b39d7b7c1461016f578063f2fde38b14610198578063f3c40c4b146101c157610075565b80633e5beab9146100c5578063715018a6146101025780638da5cb5b1461011957610075565b5b3373ffffffffffffffffffffffffffffffffffffffff167f27b15ed4cf832749ed39f33a64e4707ed60a761485e41ffec7343ecaddc0c02a346040516100bb9190610bbc565b60405180910390a2005b3480156100d157600080fd5b506100ec60048036038101906100e7919061095d565b6101ea565b6040516100f99190610bbc565b60405180910390f35b34801561010e57600080fd5b50610117610202565b005b34801561012557600080fd5b5061012e61023d565b60405161013b9190610ae6565b60405180910390f35b34801561015057600080fd5b50610159610266565b6040516101669190610b01565b60405180910390f35b34801561017b57600080fd5b506101966004803603810190610191919061098a565b6102c4565b005b3480156101a457600080fd5b506101bf60048036038101906101ba919061095d565b61044a565b005b3480156101cd57600080fd5b506101e860048036038101906101e391906109ca565b610542565b005b60016020528060005260406000206000915090505481565b6040517f08c379a000000000000000000000000000000000000000000000000000000000815260040161023490610b3c565b60405180910390fd5b60008060009054906101000a900473ffffffffffffffffffffffffffffffffffffffff16905090565b60008060009054906101000a900473ffffffffffffffffffffffffffffffffffffffff1673ffffffffffffffffffffffffffffffffffffffff166102a86106ac565b73ffffffffffffffffffffffffffffffffffffffff1614905090565b806102cd610266565b80610317575080600160003373ffffffffffffffffffffffffffffffffffffffff1673ffffffffffffffffffffffffffffffffffffffff1681526020019081526020016000205410155b610356576040517f08c379a000000000000000000000000000000000000000000000000000000000815260040161034d90610b5c565b60405180910390fd5b47821115610399576040517f08c379a000000000000000000000000000000000000000000000000000000000815260040161039090610b9c565b60405180910390fd5b6103a1610266565b6103b0576103af33836106b4565b5b8273ffffffffffffffffffffffffffffffffffffffff167f7f51d406915971d4ac1c91af96be5187ea6ab64753785aad519a533def80a41e836040516103f69190610bbc565b60405180910390a28273ffffffffffffffffffffffffffffffffffffffff166108fc839081150290604051600060405180830381858888f19350505050158015610444573d6000803e3d6000fd5b50505050565b6104526106ac565b73ffffffffffffffffffffffffffffffffffffffff1661047061023d565b73ffffffffffffffffffffffffffffffffffffffff16146104c6576040517f08c379a00000000000000000000000000000000000000000000000000000000081526004016104bd90610b7c565b60405180910390fd5b600073ffffffffffffffffffffffffffffffffffffffff168173ffffffffffffffffffffffffffffffffffffffff161415610536576040517f08c379a000000000000000000000000000000000000000000000000000000000815260040161052d90610b1c565b60405180910390fd5b61053f81610844565b50565b61054a6106ac565b73ffffffffffffffffffffffffffffffffffffffff1661056861023d565b73ffffffffffffffffffffffffffffffffffffffff16146105be576040517f08c379a00000000000000000000000000000000000000000000000000000000081526004016105b590610b7c565b60405180910390fd5b3373ffffffffffffffffffffffffffffffffffffffff168273ffffffffffffffffffffffffffffffffffffffff167f3691d1a86d99355e52b689ca70a7bdf6d80763237a6aa06e5fa43964eac7244b600160008673ffffffffffffffffffffffffffffffffffffffff1673ffffffffffffffffffffffffffffffffffffffff168152602001908152602001600020548460405161065c929190610bd7565b60405180910390a380600160008473ffffffffffffffffffffffffffffffffffffffff1673ffffffffffffffffffffffffffffffffffffffff168152602001908152602001600020819055505050565b600033905090565b3373ffffffffffffffffffffffffffffffffffffffff168273ffffffffffffffffffffffffffffffffffffffff167f3691d1a86d99355e52b689ca70a7bdf6d80763237a6aa06e5fa43964eac7244b600160008673ffffffffffffffffffffffffffffffffffffffff1673ffffffffffffffffffffffffffffffffffffffff1681526020019081526020016000205461079585600160008973ffffffffffffffffffffffffffffffffffffffff1673ffffffffffffffffffffffffffffffffffffffff1681526020019081526020016000205461090890919063ffffffff16565b6040516107a3929190610bd7565b60405180910390a36107fd81600160008573ffffffffffffffffffffffffffffffffffffffff1673ffffffffffffffffffffffffffffffffffffffff1681526020019081526020016000205461090890919063ffffffff16565b600160008473ffffffffffffffffffffffffffffffffffffffff1673ffffffffffffffffffffffffffffffffffffffff168152602001908152602001600020819055505050565b60008060009054906101000a900473ffffffffffffffffffffffffffffffffffffffff169050816000806101000a81548173ffffffffffffffffffffffffffffffffffffffff021916908373ffffffffffffffffffffffffffffffffffffffff1602179055508173ffffffffffffffffffffffffffffffffffffffff168173ffffffffffffffffffffffffffffffffffffffff167f8be0079c531659141344cd1fd0a4f28419497f9722a3daafe3b4186f6b6457e060405160405180910390a35050565b600081836109169190610c11565b905092915050565b60008135905061092d81610dec565b92915050565b60008135905061094281610e03565b92915050565b60008135905061095781610e1a565b92915050565b60006020828403121561097357610972610cce565b5b60006109818482850161091e565b91505092915050565b600080604083850312156109a1576109a0610cce565b5b60006109af85828601610933565b92505060206109c085828601610948565b9150509250929050565b600080604083850312156109e1576109e0610cce565b5b60006109ef8582860161091e565b9250506020610a0085828601610948565b9150509250929050565b610a1381610c45565b82525050565b610a2281610c69565b82525050565b6000610a35602683610c00565b9150610a4082610cd3565b604082019050919050565b6000610a58601e83610c00565b9150610a6382610d22565b602082019050919050565b6000610a7b601383610c00565b9150610a8682610d4b565b602082019050919050565b6000610a9e602083610c00565b9150610aa982610d74565b602082019050919050565b6000610ac1603483610c00565b9150610acc82610d9d565b604082019050919050565b610ae081610c95565b82525050565b6000602082019050610afb6000830184610a0a565b92915050565b6000602082019050610b166000830184610a19565b92915050565b60006020820190508181036000830152610b3581610a28565b9050919050565b60006020820190508181036000830152610b5581610a4b565b9050919050565b60006020820190508181036000830152610b7581610a6e565b9050919050565b60006020820190508181036000830152610b9581610a91565b9050919050565b60006020820190508181036000830152610bb581610ab4565b9050919050565b6000602082019050610bd16000830184610ad7565b92915050565b6000604082019050610bec6000830185610ad7565b610bf96020830184610ad7565b9392505050565b600082825260208201905092915050565b6000610c1c82610c95565b9150610c2783610c95565b925082821015610c3a57610c39610c9f565b5b828203905092915050565b6000610c5082610c75565b9050919050565b6000610c6282610c75565b9050919050565b60008115159050919050565b600073ffffffffffffffffffffffffffffffffffffffff82169050919050565b6000819050919050565b7f4e487b7100000000000000000000000000000000000000000000000000000000600052601160045260246000fd5b600080fd5b7f4f776e61626c653a206e6577206f776e657220697320746865207a65726f206160008201527f6464726573730000000000000000000000000000000000000000000000000000602082015250565b7f63616e6e6f742072656e6f756e6365206f776e65727368697020686572650000600082015250565b7f596f7520617265206e6f7420616c6c6f77656400000000000000000000000000600082015250565b7f4f776e61626c653a2063616c6c6572206973206e6f7420746865206f776e6572600082015250565b7f416d6f756e742069732067726561746572207468616e2062616c616e6365206960008201527f6e2074686520736d61727420636f6e7472616374000000000000000000000000602082015250565b610df581610c45565b8114610e0057600080fd5b50565b610e0c81610c57565b8114610e1757600080fd5b50565b610e2381610c95565b8114610e2e57600080fd5b5056fea26469706673582212207a88ca31620cc2c8e16f08724a83c18839413ce233207f37684e92dc5f382c8864736f6c63430008070033",
					"opcodes": "PUSH1 0x80 PUSH1 0x40 MSTORE CALLVALUE DUP1 ISZERO PUSH2 0x10 JUMPI PUSH1 0x0 DUP1 REVERT JUMPDEST POP PUSH2 0x2D PUSH2 0x22 PUSH2 0x32 PUSH1 0x20 SHL PUSH1 0x20 SHR JUMP JUMPDEST PUSH2 0x3A PUSH1 0x20 SHL PUSH1 0x20 SHR JUMP JUMPDEST PUSH2 0xFE JUMP JUMPDEST PUSH1 0x0 CALLER SWAP1 POP SWAP1 JUMP JUMPDEST PUSH1 0x0 DUP1 PUSH1 0x0 SWAP1 SLOAD SWAP1 PUSH2 0x100 EXP SWAP1 DIV PUSH20 0xFFFFFFFFFFFFFFFFFFFFFFFFFFFFFFFFFFFFFFFF AND SWAP1 POP DUP2 PUSH1 0x0 DUP1 PUSH2 0x100 EXP DUP2 SLOAD DUP2 PUSH20 0xFFFFFFFFFFFFFFFFFFFFFFFFFFFFFFFFFFFFFFFF MUL NOT AND SWAP1 DUP4 PUSH20 0xFFFFFFFFFFFFFFFFFFFFFFFFFFFFFFFFFFFFFFFF AND MUL OR SWAP1 SSTORE POP DUP2 PUSH20 0xFFFFFFFFFFFFFFFFFFFFFFFFFFFFFFFFFFFFFFFF AND DUP2 PUSH20 0xFFFFFFFFFFFFFFFFFFFFFFFFFFFFFFFFFFFFFFFF AND PUSH32 0x8BE0079C531659141344CD1FD0A4F28419497F9722A3DAAFE3B4186F6B6457E0 PUSH1 0x40 MLOAD PUSH1 0x40 MLOAD DUP1 SWAP2 SUB SWAP1 LOG3 POP POP JUMP JUMPDEST PUSH2 0xE67 DUP1 PUSH2 0x10D PUSH1 0x0 CODECOPY PUSH1 0x0 RETURN INVALID PUSH1 0x80 PUSH1 0x40 MSTORE PUSH1 0x4 CALLDATASIZE LT PUSH2 0x74 JUMPI PUSH1 0x0 CALLDATALOAD PUSH1 0xE0 SHR DUP1 PUSH4 0x8F32D59B GT PUSH2 0x4E JUMPI DUP1 PUSH4 0x8F32D59B EQ PUSH2 0x144 JUMPI DUP1 PUSH4 0xB39D7B7C EQ PUSH2 0x16F JUMPI DUP1 PUSH4 0xF2FDE38B EQ PUSH2 0x198 JUMPI DUP1 PUSH4 0xF3C40C4B EQ PUSH2 0x1C1 JUMPI PUSH2 0x75 JUMP JUMPDEST DUP1 PUSH4 0x3E5BEAB9 EQ PUSH2 0xC5 JUMPI DUP1 PUSH4 0x715018A6 EQ PUSH2 0x102 JUMPI DUP1 PUSH4 0x8DA5CB5B EQ PUSH2 0x119 JUMPI PUSH2 0x75 JUMP JUMPDEST JUMPDEST CALLER PUSH20 0xFFFFFFFFFFFFFFFFFFFFFFFFFFFFFFFFFFFFFFFF AND PUSH32 0x27B15ED4CF832749ED39F33A64E4707ED60A761485E41FFEC7343ECADDC0C02A CALLVALUE PUSH1 0x40 MLOAD PUSH2 0xBB SWAP2 SWAP1 PUSH2 0xBBC JUMP JUMPDEST PUSH1 0x40 MLOAD DUP1 SWAP2 SUB SWAP1 LOG2 STOP JUMPDEST CALLVALUE DUP1 ISZERO PUSH2 0xD1 JUMPI PUSH1 0x0 DUP1 REVERT JUMPDEST POP PUSH2 0xEC PUSH1 0x4 DUP1 CALLDATASIZE SUB DUP2 ADD SWAP1 PUSH2 0xE7 SWAP2 SWAP1 PUSH2 0x95D JUMP JUMPDEST PUSH2 0x1EA JUMP JUMPDEST PUSH1 0x40 MLOAD PUSH2 0xF9 SWAP2 SWAP1 PUSH2 0xBBC JUMP JUMPDEST PUSH1 0x40 MLOAD DUP1 SWAP2 SUB SWAP1 RETURN JUMPDEST CALLVALUE DUP1 ISZERO PUSH2 0x10E JUMPI PUSH1 0x0 DUP1 REVERT JUMPDEST POP PUSH2 0x117 PUSH2 0x202 JUMP JUMPDEST STOP JUMPDEST CALLVALUE DUP1 ISZERO PUSH2 0x125 JUMPI PUSH1 0x0 DUP1 REVERT JUMPDEST POP PUSH2 0x12E PUSH2 0x23D JUMP JUMPDEST PUSH1 0x40 MLOAD PUSH2 0x13B SWAP2 SWAP1 PUSH2 0xAE6 JUMP JUMPDEST PUSH1 0x40 MLOAD DUP1 SWAP2 SUB SWAP1 RETURN JUMPDEST CALLVALUE DUP1 ISZERO PUSH2 0x150 JUMPI PUSH1 0x0 DUP1 REVERT JUMPDEST POP PUSH2 0x159 PUSH2 0x266 JUMP JUMPDEST PUSH1 0x40 MLOAD PUSH2 0x166 SWAP2 SWAP1 PUSH2 0xB01 JUMP JUMPDEST PUSH1 0x40 MLOAD DUP1 SWAP2 SUB SWAP1 RETURN JUMPDEST CALLVALUE DUP1 ISZERO PUSH2 0x17B JUMPI PUSH1 0x0 DUP1 REVERT JUMPDEST POP PUSH2 0x196 PUSH1 0x4 DUP1 CALLDATASIZE SUB DUP2 ADD SWAP1 PUSH2 0x191 SWAP2 SWAP1 PUSH2 0x98A JUMP JUMPDEST PUSH2 0x2C4 JUMP JUMPDEST STOP JUMPDEST CALLVALUE DUP1 ISZERO PUSH2 0x1A4 JUMPI PUSH1 0x0 DUP1 REVERT JUMPDEST POP PUSH2 0x1BF PUSH1 0x4 DUP1 CALLDATASIZE SUB DUP2 ADD SWAP1 PUSH2 0x1BA SWAP2 SWAP1 PUSH2 0x95D JUMP JUMPDEST PUSH2 0x44A JUMP JUMPDEST STOP JUMPDEST CALLVALUE DUP1 ISZERO PUSH2 0x1CD JUMPI PUSH1 0x0 DUP1 REVERT JUMPDEST POP PUSH2 0x1E8 PUSH1 0x4 DUP1 CALLDATASIZE SUB DUP2 ADD SWAP1 PUSH2 0x1E3 SWAP2 SWAP1 PUSH2 0x9CA JUMP JUMPDEST PUSH2 0x542 JUMP JUMPDEST STOP JUMPDEST PUSH1 0x1 PUSH1 0x20 MSTORE DUP1 PUSH1 0x0 MSTORE PUSH1 0x40 PUSH1 0x0 KECCAK256 PUSH1 0x0 SWAP2 POP SWAP1 POP SLOAD DUP2 JUMP JUMPDEST PUSH1 0x40 MLOAD PUSH32 0x8C379A000000000000000000000000000000000000000000000000000000000 DUP2 MSTORE PUSH1 0x4 ADD PUSH2 0x234 SWAP1 PUSH2 0xB3C JUMP JUMPDEST PUSH1 0x40 MLOAD DUP1 SWAP2 SUB SWAP1 REVERT JUMPDEST PUSH1 0x0 DUP1 PUSH1 0x0 SWAP1 SLOAD SWAP1 PUSH2 0x100 EXP SWAP1 DIV PUSH20 0xFFFFFFFFFFFFFFFFFFFFFFFFFFFFFFFFFFFFFFFF AND SWAP1 POP SWAP1 JUMP JUMPDEST PUSH1 0x0 DUP1 PUSH1 0x0 SWAP1 SLOAD SWAP1 PUSH2 0x100 EXP SWAP1 DIV PUSH20 0xFFFFFFFFFFFFFFFFFFFFFFFFFFFFFFFFFFFFFFFF AND PUSH20 0xFFFFFFFFFFFFFFFFFFFFFFFFFFFFFFFFFFFFFFFF AND PUSH2 0x2A8 PUSH2 0x6AC JUMP JUMPDEST PUSH20 0xFFFFFFFFFFFFFFFFFFFFFFFFFFFFFFFFFFFFFFFF AND EQ SWAP1 POP SWAP1 JUMP JUMPDEST DUP1 PUSH2 0x2CD PUSH2 0x266 JUMP JUMPDEST DUP1 PUSH2 0x317 JUMPI POP DUP1 PUSH1 0x1 PUSH1 0x0 CALLER PUSH20 0xFFFFFFFFFFFFFFFFFFFFFFFFFFFFFFFFFFFFFFFF AND PUSH20 0xFFFFFFFFFFFFFFFFFFFFFFFFFFFFFFFFFFFFFFFF AND DUP2 MSTORE PUSH1 0x20 ADD SWAP1 DUP2 MSTORE PUSH1 0x20 ADD PUSH1 0x0 KECCAK256 SLOAD LT ISZERO JUMPDEST PUSH2 0x356 JUMPI PUSH1 0x40 MLOAD PUSH32 0x8C379A000000000000000000000000000000000000000000000000000000000 DUP2 MSTORE PUSH1 0x4 ADD PUSH2 0x34D SWAP1 PUSH2 0xB5C JUMP JUMPDEST PUSH1 0x40 MLOAD DUP1 SWAP2 SUB SWAP1 REVERT JUMPDEST SELFBALANCE DUP3 GT ISZERO PUSH2 0x399 JUMPI PUSH1 0x40 MLOAD PUSH32 0x8C379A000000000000000000000000000000000000000000000000000000000 DUP2 MSTORE PUSH1 0x4 ADD PUSH2 0x390 SWAP1 PUSH2 0xB9C JUMP JUMPDEST PUSH1 0x40 MLOAD DUP1 SWAP2 SUB SWAP1 REVERT JUMPDEST PUSH2 0x3A1 PUSH2 0x266 JUMP JUMPDEST PUSH2 0x3B0 JUMPI PUSH2 0x3AF CALLER DUP4 PUSH2 0x6B4 JUMP JUMPDEST JUMPDEST DUP3 PUSH20 0xFFFFFFFFFFFFFFFFFFFFFFFFFFFFFFFFFFFFFFFF AND PUSH32 0x7F51D406915971D4AC1C91AF96BE5187EA6AB64753785AAD519A533DEF80A41E DUP4 PUSH1 0x40 MLOAD PUSH2 0x3F6 SWAP2 SWAP1 PUSH2 0xBBC JUMP JUMPDEST PUSH1 0x40 MLOAD DUP1 SWAP2 SUB SWAP1 LOG2 DUP3 PUSH20 0xFFFFFFFFFFFFFFFFFFFFFFFFFFFFFFFFFFFFFFFF AND PUSH2 0x8FC DUP4 SWAP1 DUP2 ISZERO MUL SWAP1 PUSH1 0x40 MLOAD PUSH1 0x0 PUSH1 0x40 MLOAD DUP1 DUP4 SUB DUP2 DUP6 DUP9 DUP9 CALL SWAP4 POP POP POP POP ISZERO DUP1 ISZERO PUSH2 0x444 JUMPI RETURNDATASIZE PUSH1 0x0 DUP1 RETURNDATACOPY RETURNDATASIZE PUSH1 0x0 REVERT JUMPDEST POP POP POP POP JUMP JUMPDEST PUSH2 0x452 PUSH2 0x6AC JUMP JUMPDEST PUSH20 0xFFFFFFFFFFFFFFFFFFFFFFFFFFFFFFFFFFFFFFFF AND PUSH2 0x470 PUSH2 0x23D JUMP JUMPDEST PUSH20 0xFFFFFFFFFFFFFFFFFFFFFFFFFFFFFFFFFFFFFFFF AND EQ PUSH2 0x4C6 JUMPI PUSH1 0x40 MLOAD PUSH32 0x8C379A000000000000000000000000000000000000000000000000000000000 DUP2 MSTORE PUSH1 0x4 ADD PUSH2 0x4BD SWAP1 PUSH2 0xB7C JUMP JUMPDEST PUSH1 0x40 MLOAD DUP1 SWAP2 SUB SWAP1 REVERT JUMPDEST PUSH1 0x0 PUSH20 0xFFFFFFFFFFFFFFFFFFFFFFFFFFFFFFFFFFFFFFFF AND DUP2 PUSH20 0xFFFFFFFFFFFFFFFFFFFFFFFFFFFFFFFFFFFFFFFF AND EQ ISZERO PUSH2 0x536 JUMPI PUSH1 0x40 MLOAD PUSH32 0x8C379A000000000000000000000000000000000000000000000000000000000 DUP2 MSTORE PUSH1 0x4 ADD PUSH2 0x52D SWAP1 PUSH2 0xB1C JUMP JUMPDEST PUSH1 0x40 MLOAD DUP1 SWAP2 SUB SWAP1 REVERT JUMPDEST PUSH2 0x53F DUP2 PUSH2 0x844 JUMP JUMPDEST POP JUMP JUMPDEST PUSH2 0x54A PUSH2 0x6AC JUMP JUMPDEST PUSH20 0xFFFFFFFFFFFFFFFFFFFFFFFFFFFFFFFFFFFFFFFF AND PUSH2 0x568 PUSH2 0x23D JUMP JUMPDEST PUSH20 0xFFFFFFFFFFFFFFFFFFFFFFFFFFFFFFFFFFFFFFFF AND EQ PUSH2 0x5BE JUMPI PUSH1 0x40 MLOAD PUSH32 0x8C379A000000000000000000000000000000000000000000000000000000000 DUP2 MSTORE PUSH1 0x4 ADD PUSH2 0x5B5 SWAP1 PUSH2 0xB7C JUMP JUMPDEST PUSH1 0x40 MLOAD DUP1 SWAP2 SUB SWAP1 REVERT JUMPDEST CALLER PUSH20 0xFFFFFFFFFFFFFFFFFFFFFFFFFFFFFFFFFFFFFFFF AND DUP3 PUSH20 0xFFFFFFFFFFFFFFFFFFFFFFFFFFFFFFFFFFFFFFFF AND PUSH32 0x3691D1A86D99355E52B689CA70A7BDF6D80763237A6AA06E5FA43964EAC7244B PUSH1 0x1 PUSH1 0x0 DUP7 PUSH20 0xFFFFFFFFFFFFFFFFFFFFFFFFFFFFFFFFFFFFFFFF AND PUSH20 0xFFFFFFFFFFFFFFFFFFFFFFFFFFFFFFFFFFFFFFFF AND DUP2 MSTORE PUSH1 0x20 ADD SWAP1 DUP2 MSTORE PUSH1 0x20 ADD PUSH1 0x0 KECCAK256 SLOAD DUP5 PUSH1 0x40 MLOAD PUSH2 0x65C SWAP3 SWAP2 SWAP1 PUSH2 0xBD7 JUMP JUMPDEST PUSH1 0x40 MLOAD DUP1 SWAP2 SUB SWAP1 LOG3 DUP1 PUSH1 0x1 PUSH1 0x0 DUP5 PUSH20 0xFFFFFFFFFFFFFFFFFFFFFFFFFFFFFFFFFFFFFFFF AND PUSH20 0xFFFFFFFFFFFFFFFFFFFFFFFFFFFFFFFFFFFFFFFF AND DUP2 MSTORE PUSH1 0x20 ADD SWAP1 DUP2 MSTORE PUSH1 0x20 ADD PUSH1 0x0 KECCAK256 DUP2 SWAP1 SSTORE POP POP POP JUMP JUMPDEST PUSH1 0x0 CALLER SWAP1 POP SWAP1 JUMP JUMPDEST CALLER PUSH20 0xFFFFFFFFFFFFFFFFFFFFFFFFFFFFFFFFFFFFFFFF AND DUP3 PUSH20 0xFFFFFFFFFFFFFFFFFFFFFFFFFFFFFFFFFFFFFFFF AND PUSH32 0x3691D1A86D99355E52B689CA70A7BDF6D80763237A6AA06E5FA43964EAC7244B PUSH1 0x1 PUSH1 0x0 DUP7 PUSH20 0xFFFFFFFFFFFFFFFFFFFFFFFFFFFFFFFFFFFFFFFF AND PUSH20 0xFFFFFFFFFFFFFFFFFFFFFFFFFFFFFFFFFFFFFFFF AND DUP2 MSTORE PUSH1 0x20 ADD SWAP1 DUP2 MSTORE PUSH1 0x20 ADD PUSH1 0x0 KECCAK256 SLOAD PUSH2 0x795 DUP6 PUSH1 0x1 PUSH1 0x0 DUP10 PUSH20 0xFFFFFFFFFFFFFFFFFFFFFFFFFFFFFFFFFFFFFFFF AND PUSH20 0xFFFFFFFFFFFFFFFFFFFFFFFFFFFFFFFFFFFFFFFF AND DUP2 MSTORE PUSH1 0x20 ADD SWAP1 DUP2 MSTORE PUSH1 0x20 ADD PUSH1 0x0 KECCAK256 SLOAD PUSH2 0x908 SWAP1 SWAP2 SWAP1 PUSH4 0xFFFFFFFF AND JUMP JUMPDEST PUSH1 0x40 MLOAD PUSH2 0x7A3 SWAP3 SWAP2 SWAP1 PUSH2 0xBD7 JUMP JUMPDEST PUSH1 0x40 MLOAD DUP1 SWAP2 SUB SWAP1 LOG3 PUSH2 0x7FD DUP2 PUSH1 0x1 PUSH1 0x0 DUP6 PUSH20 0xFFFFFFFFFFFFFFFFFFFFFFFFFFFFFFFFFFFFFFFF AND PUSH20 0xFFFFFFFFFFFFFFFFFFFFFFFFFFFFFFFFFFFFFFFF AND DUP2 MSTORE PUSH1 0x20 ADD SWAP1 DUP2 MSTORE PUSH1 0x20 ADD PUSH1 0x0 KECCAK256 SLOAD PUSH2 0x908 SWAP1 SWAP2 SWAP1 PUSH4 0xFFFFFFFF AND JUMP JUMPDEST PUSH1 0x1 PUSH1 0x0 DUP5 PUSH20 0xFFFFFFFFFFFFFFFFFFFFFFFFFFFFFFFFFFFFFFFF AND PUSH20 0xFFFFFFFFFFFFFFFFFFFFFFFFFFFFFFFFFFFFFFFF AND DUP2 MSTORE PUSH1 0x20 ADD SWAP1 DUP2 MSTORE PUSH1 0x20 ADD PUSH1 0x0 KECCAK256 DUP2 SWAP1 SSTORE POP POP POP JUMP JUMPDEST PUSH1 0x0 DUP1 PUSH1 0x0 SWAP1 SLOAD SWAP1 PUSH2 0x100 EXP SWAP1 DIV PUSH20 0xFFFFFFFFFFFFFFFFFFFFFFFFFFFFFFFFFFFFFFFF AND SWAP1 POP DUP2 PUSH1 0x0 DUP1 PUSH2 0x100 EXP DUP2 SLOAD DUP2 PUSH20 0xFFFFFFFFFFFFFFFFFFFFFFFFFFFFFFFFFFFFFFFF MUL NOT AND SWAP1 DUP4 PUSH20 0xFFFFFFFFFFFFFFFFFFFFFFFFFFFFFFFFFFFFFFFF AND MUL OR SWAP1 SSTORE POP DUP2 PUSH20 0xFFFFFFFFFFFFFFFFFFFFFFFFFFFFFFFFFFFFFFFF AND DUP2 PUSH20 0xFFFFFFFFFFFFFFFFFFFFFFFFFFFFFFFFFFFFFFFF AND PUSH32 0x8BE0079C531659141344CD1FD0A4F28419497F9722A3DAAFE3B4186F6B6457E0 PUSH1 0x40 MLOAD PUSH1 0x40 MLOAD DUP1 SWAP2 SUB SWAP1 LOG3 POP POP JUMP JUMPDEST PUSH1 0x0 DUP2 DUP4 PUSH2 0x916 SWAP2 SWAP1 PUSH2 0xC11 JUMP JUMPDEST SWAP1 POP SWAP3 SWAP2 POP POP JUMP JUMPDEST PUSH1 0x0 DUP2 CALLDATALOAD SWAP1 POP PUSH2 0x92D DUP2 PUSH2 0xDEC JUMP JUMPDEST SWAP3 SWAP2 POP POP JUMP JUMPDEST PUSH1 0x0 DUP2 CALLDATALOAD SWAP1 POP PUSH2 0x942 DUP2 PUSH2 0xE03 JUMP JUMPDEST SWAP3 SWAP2 POP POP JUMP JUMPDEST PUSH1 0x0 DUP2 CALLDATALOAD SWAP1 POP PUSH2 0x957 DUP2 PUSH2 0xE1A JUMP JUMPDEST SWAP3 SWAP2 POP POP JUMP JUMPDEST PUSH1 0x0 PUSH1 0x20 DUP3 DUP5 SUB SLT ISZERO PUSH2 0x973 JUMPI PUSH2 0x972 PUSH2 0xCCE JUMP JUMPDEST JUMPDEST PUSH1 0x0 PUSH2 0x981 DUP5 DUP3 DUP6 ADD PUSH2 0x91E JUMP JUMPDEST SWAP2 POP POP SWAP3 SWAP2 POP POP JUMP JUMPDEST PUSH1 0x0 DUP1 PUSH1 0x40 DUP4 DUP6 SUB SLT ISZERO PUSH2 0x9A1 JUMPI PUSH2 0x9A0 PUSH2 0xCCE JUMP JUMPDEST JUMPDEST PUSH1 0x0 PUSH2 0x9AF DUP6 DUP3 DUP7 ADD PUSH2 0x933 JUMP JUMPDEST SWAP3 POP POP PUSH1 0x20 PUSH2 0x9C0 DUP6 DUP3 DUP7 ADD PUSH2 0x948 JUMP JUMPDEST SWAP2 POP POP SWAP3 POP SWAP3 SWAP1 POP JUMP JUMPDEST PUSH1 0x0 DUP1 PUSH1 0x40 DUP4 DUP6 SUB SLT ISZERO PUSH2 0x9E1 JUMPI PUSH2 0x9E0 PUSH2 0xCCE JUMP JUMPDEST JUMPDEST PUSH1 0x0 PUSH2 0x9EF DUP6 DUP3 DUP7 ADD PUSH2 0x91E JUMP JUMPDEST SWAP3 POP POP PUSH1 0x20 PUSH2 0xA00 DUP6 DUP3 DUP7 ADD PUSH2 0x948 JUMP JUMPDEST SWAP2 POP POP SWAP3 POP SWAP3 SWAP1 POP JUMP JUMPDEST PUSH2 0xA13 DUP2 PUSH2 0xC45 JUMP JUMPDEST DUP3 MSTORE POP POP JUMP JUMPDEST PUSH2 0xA22 DUP2 PUSH2 0xC69 JUMP JUMPDEST DUP3 MSTORE POP POP JUMP JUMPDEST PUSH1 0x0 PUSH2 0xA35 PUSH1 0x26 DUP4 PUSH2 0xC00 JUMP JUMPDEST SWAP2 POP PUSH2 0xA40 DUP3 PUSH2 0xCD3 JUMP JUMPDEST PUSH1 0x40 DUP3 ADD SWAP1 POP SWAP2 SWAP1 POP JUMP JUMPDEST PUSH1 0x0 PUSH2 0xA58 PUSH1 0x1E DUP4 PUSH2 0xC00 JUMP JUMPDEST SWAP2 POP PUSH2 0xA63 DUP3 PUSH2 0xD22 JUMP JUMPDEST PUSH1 0x20 DUP3 ADD SWAP1 POP SWAP2 SWAP1 POP JUMP JUMPDEST PUSH1 0x0 PUSH2 0xA7B PUSH1 0x13 DUP4 PUSH2 0xC00 JUMP JUMPDEST SWAP2 POP PUSH2 0xA86 DUP3 PUSH2 0xD4B JUMP JUMPDEST PUSH1 0x20 DUP3 ADD SWAP1 POP SWAP2 SWAP1 POP JUMP JUMPDEST PUSH1 0x0 PUSH2 0xA9E PUSH1 0x20 DUP4 PUSH2 0xC00 JUMP JUMPDEST SWAP2 POP PUSH2 0xAA9 DUP3 PUSH2 0xD74 JUMP JUMPDEST PUSH1 0x20 DUP3 ADD SWAP1 POP SWAP2 SWAP1 POP JUMP JUMPDEST PUSH1 0x0 PUSH2 0xAC1 PUSH1 0x34 DUP4 PUSH2 0xC00 JUMP JUMPDEST SWAP2 POP PUSH2 0xACC DUP3 PUSH2 0xD9D JUMP JUMPDEST PUSH1 0x40 DUP3 ADD SWAP1 POP SWAP2 SWAP1 POP JUMP JUMPDEST PUSH2 0xAE0 DUP2 PUSH2 0xC95 JUMP JUMPDEST DUP3 MSTORE POP POP JUMP JUMPDEST PUSH1 0x0 PUSH1 0x20 DUP3 ADD SWAP1 POP PUSH2 0xAFB PUSH1 0x0 DUP4 ADD DUP5 PUSH2 0xA0A JUMP JUMPDEST SWAP3 SWAP2 POP POP JUMP JUMPDEST PUSH1 0x0 PUSH1 0x20 DUP3 ADD SWAP1 POP PUSH2 0xB16 PUSH1 0x0 DUP4 ADD DUP5 PUSH2 0xA19 JUMP JUMPDEST SWAP3 SWAP2 POP POP JUMP JUMPDEST PUSH1 0x0 PUSH1 0x20 DUP3 ADD SWAP1 POP DUP2 DUP2 SUB PUSH1 0x0 DUP4 ADD MSTORE PUSH2 0xB35 DUP2 PUSH2 0xA28 JUMP JUMPDEST SWAP1 POP SWAP2 SWAP1 POP JUMP JUMPDEST PUSH1 0x0 PUSH1 0x20 DUP3 ADD SWAP1 POP DUP2 DUP2 SUB PUSH1 0x0 DUP4 ADD MSTORE PUSH2 0xB55 DUP2 PUSH2 0xA4B JUMP JUMPDEST SWAP1 POP SWAP2 SWAP1 POP JUMP JUMPDEST PUSH1 0x0 PUSH1 0x20 DUP3 ADD SWAP1 POP DUP2 DUP2 SUB PUSH1 0x0 DUP4 ADD MSTORE PUSH2 0xB75 DUP2 PUSH2 0xA6E JUMP JUMPDEST SWAP1 POP SWAP2 SWAP1 POP JUMP JUMPDEST PUSH1 0x0 PUSH1 0x20 DUP3 ADD SWAP1 POP DUP2 DUP2 SUB PUSH1 0x0 DUP4 ADD MSTORE PUSH2 0xB95 DUP2 PUSH2 0xA91 JUMP JUMPDEST SWAP1 POP SWAP2 SWAP1 POP JUMP JUMPDEST PUSH1 0x0 PUSH1 0x20 DUP3 ADD SWAP1 POP DUP2 DUP2 SUB PUSH1 0x0 DUP4 ADD MSTORE PUSH2 0xBB5 DUP2 PUSH2 0xAB4 JUMP JUMPDEST SWAP1 POP SWAP2 SWAP1 POP JUMP JUMPDEST PUSH1 0x0 PUSH1 0x20 DUP3 ADD SWAP1 POP PUSH2 0xBD1 PUSH1 0x0 DUP4 ADD DUP5 PUSH2 0xAD7 JUMP JUMPDEST SWAP3 SWAP2 POP POP JUMP JUMPDEST PUSH1 0x0 PUSH1 0x40 DUP3 ADD SWAP1 POP PUSH2 0xBEC PUSH1 0x0 DUP4 ADD DUP6 PUSH2 0xAD7 JUMP JUMPDEST PUSH2 0xBF9 PUSH1 0x20 DUP4 ADD DUP5 PUSH2 0xAD7 JUMP JUMPDEST SWAP4 SWAP3 POP POP POP JUMP JUMPDEST PUSH1 0x0 DUP3 DUP3 MSTORE PUSH1 0x20 DUP3 ADD SWAP1 POP SWAP3 SWAP2 POP POP JUMP JUMPDEST PUSH1 0x0 PUSH2 0xC1C DUP3 PUSH2 0xC95 JUMP JUMPDEST SWAP2 POP PUSH2 0xC27 DUP4 PUSH2 0xC95 JUMP JUMPDEST SWAP3 POP DUP3 DUP3 LT ISZERO PUSH2 0xC3A JUMPI PUSH2 0xC39 PUSH2 0xC9F JUMP JUMPDEST JUMPDEST DUP3 DUP3 SUB SWAP1 POP SWAP3 SWAP2 POP POP JUMP JUMPDEST PUSH1 0x0 PUSH2 0xC50 DUP3 PUSH2 0xC75 JUMP JUMPDEST SWAP1 POP SWAP2 SWAP1 POP JUMP JUMPDEST PUSH1 0x0 PUSH2 0xC62 DUP3 PUSH2 0xC75 JUMP JUMPDEST SWAP1 POP SWAP2 SWAP1 POP JUMP JUMPDEST PUSH1 0x0 DUP2 ISZERO ISZERO SWAP1 POP SWAP2 SWAP1 POP JUMP JUMPDEST PUSH1 0x0 PUSH20 0xFFFFFFFFFFFFFFFFFFFFFFFFFFFFFFFFFFFFFFFF DUP3 AND SWAP1 POP SWAP2 SWAP1 POP JUMP JUMPDEST PUSH1 0x0 DUP2 SWAP1 POP SWAP2 SWAP1 POP JUMP JUMPDEST PUSH32 0x4E487B7100000000000000000000000000000000000000000000000000000000 PUSH1 0x0 MSTORE PUSH1 0x11 PUSH1 0x4 MSTORE PUSH1 0x24 PUSH1 0x0 REVERT JUMPDEST PUSH1 0x0 DUP1 REVERT JUMPDEST PUSH32 0x4F776E61626C653A206E6577206F776E657220697320746865207A65726F2061 PUSH1 0x0 DUP3 ADD MSTORE PUSH32 0x6464726573730000000000000000000000000000000000000000000000000000 PUSH1 0x20 DUP3 ADD MSTORE POP JUMP JUMPDEST PUSH32 0x63616E6E6F742072656E6F756E6365206F776E65727368697020686572650000 PUSH1 0x0 DUP3 ADD MSTORE POP JUMP JUMPDEST PUSH32 0x596F7520617265206E6F7420616C6C6F77656400000000000000000000000000 PUSH1 0x0 DUP3 ADD MSTORE POP JUMP JUMPDEST PUSH32 0x4F776E61626C653A2063616C6C6572206973206E6F7420746865206F776E6572 PUSH1 0x0 DUP3 ADD MSTORE POP JUMP JUMPDEST PUSH32 0x416D6F756E742069732067726561746572207468616E2062616C616E63652069 PUSH1 0x0 DUP3 ADD MSTORE PUSH32 0x6E2074686520736D61727420636F6E7472616374000000000000000000000000 PUSH1 0x20 DUP3 ADD MSTORE POP JUMP JUMPDEST PUSH2 0xDF5 DUP2 PUSH2 0xC45 JUMP JUMPDEST DUP2 EQ PUSH2 0xE00 JUMPI PUSH1 0x0 DUP1 REVERT JUMPDEST POP JUMP JUMPDEST PUSH2 0xE0C DUP2 PUSH2 0xC57 JUMP JUMPDEST DUP2 EQ PUSH2 0xE17 JUMPI PUSH1 0x0 DUP1 REVERT JUMPDEST POP JUMP JUMPDEST PUSH2 0xE23 DUP2 PUSH2 0xC95 JUMP JUMPDEST DUP2 EQ PUSH2 0xE2E JUMPI PUSH1 0x0 DUP1 REVERT JUMPDEST POP JUMP INVALID LOG2 PUSH5 0x6970667358 0x22 SLT KECCAK256 PUSH27 0x88CA31620CC2C8E16F08724A83C18839413CE233207F37684E92DC 0x5F CODESIZE 0x2C DUP9 PUSH5 0x736F6C6343 STOP ADDMOD SMOD STOP CALLER "
				},
				"gasEstimates": {
					"creation": {
						"codeDepositCost": "737400",
						"executionCost": "infinite",
						"totalCost": "infinite"
					},
					"external": {
						"": "1725",
						"addAllowance(address,uint256)": "infinite",
						"allowance(address)": "2815",
						"isOwner()": "2531",
						"owner()": "2567",
						"renounceOwnership()": "457",
						"transferOwnership(address)": "30767",
						"withDrawMoney(address,uint256)": "infinite"
					}
				},
				"methodIdentifiers": {
					"addAllowance(address,uint256)": "f3c40c4b",
					"allowance(address)": "3e5beab9",
					"isOwner()": "8f32d59b",
					"owner()": "8da5cb5b",
					"renounceOwnership()": "715018a6",
					"transferOwnership(address)": "f2fde38b",
					"withDrawMoney(address,uint256)": "b39d7b7c"
				}
			},
			"storageLayout": {
				"storage": [
					{
						"astId": 211,
						"contract": "contracts/SimpleWallet.sol:SimpleWallet",
						"label": "_owner",
						"offset": 0,
						"slot": "0",
						"type": "t_address"
					},
					{
						"astId": 12,
						"contract": "contracts/SimpleWallet.sol:SimpleWallet",
						"label": "allowance",
						"offset": 0,
						"slot": "1",
						"type": "t_mapping(t_address,t_uint256)"
					}
				],
				"types": {
					"t_address": {
						"encoding": "inplace",
						"label": "address",
						"numberOfBytes": "20"
					},
					"t_mapping(t_address,t_uint256)": {
						"encoding": "mapping",
						"key": "t_address",
						"label": "mapping(address => uint256)",
						"numberOfBytes": "32",
						"value": "t_uint256"
					},
					"t_uint256": {
						"encoding": "inplace",
						"label": "uint256",
						"numberOfBytes": "32"
					}
				}
			},
			"userdoc": {
				"kind": "user",
				"methods": {},
				"version": 1
			}
		}
	}
}