{
	"contracts/SimpleWallet.sol": {
		"SimpleWallet": {
			"abi": [
				{
					"anonymous": false,
					"inputs": [
						{
							"indexed": true,
							"internalType": "address",
							"name": "previousOwner",
							"type": "address"
						},
						{
							"indexed": true,
							"internalType": "address",
							"name": "newOwner",
							"type": "address"
						}
					],
					"name": "OwnershipTransferred",
					"type": "event"
				},
				{
					"stateMutability": "payable",
					"type": "fallback"
				},
				{
					"inputs": [
						{
							"internalType": "address",
							"name": "_who",
							"type": "address"
						},
						{
							"internalType": "uint256",
							"name": "_amount",
							"type": "uint256"
						}
					],
					"name": "addAllowance",
					"outputs": [],
					"stateMutability": "nonpayable",
					"type": "function"
				},
				{
					"inputs": [
						{
							"internalType": "address",
							"name": "",
							"type": "address"
						}
					],
					"name": "allowance",
					"outputs": [
						{
							"internalType": "uint256",
							"name": "",
							"type": "uint256"
						}
					],
					"stateMutability": "view",
					"type": "function"
				},
				{
					"inputs": [],
					"name": "isOwner",
					"outputs": [
						{
							"internalType": "bool",
							"name": "",
							"type": "bool"
						}
					],
					"stateMutability": "view",
					"type": "function"
				},
				{
					"inputs": [],
					"name": "owner",
					"outputs": [
						{
							"internalType": "address",
							"name": "",
							"type": "address"
						}
					],
					"stateMutability": "view",
					"type": "function"
				},
				{
					"inputs": [],
					"name": "renounceOwnership",
					"outputs": [],
					"stateMutability": "nonpayable",
					"type": "function"
				},
				{
					"inputs": [
						{
							"internalType": "address",
							"name": "newOwner",
							"type": "address"
						}
					],
					"name": "transferOwnership",
					"outputs": [],
					"stateMutability": "nonpayable",
					"type": "function"
				},
				{
					"inputs": [
						{
							"internalType": "address payable",
							"name": "_to",
							"type": "address"
						},
						{
							"internalType": "uint256",
							"name": "_amount",
							"type": "uint256"
						}
					],
					"name": "withDrawMoney",
					"outputs": [],
					"stateMutability": "nonpayable",
					"type": "function"
				}
			],
			"devdoc": {
				"kind": "dev",
				"methods": {
					"owner()": {
						"details": "Returns the address of the current owner."
					},
					"renounceOwnership()": {
						"details": "Leaves the contract without owner. It will not be possible to call `onlyOwner` functions anymore. Can only be called by the current owner. NOTE: Renouncing ownership will leave the contract without an owner, thereby removing any functionality that is only available to the owner."
					},
					"transferOwnership(address)": {
						"details": "Transfers ownership of the contract to a new account (`newOwner`). Can only be called by the current owner."
					}
				},
				"version": 1
			},
			"evm": {
				"assembly": "    /* \"contracts/SimpleWallet.sol\":92:933  contract SimpleWallet is Ownable{\r... */\n  mstore(0x40, 0x80)\n  callvalue\n  dup1\n  iszero\n  tag_1\n  jumpi\n  0x00\n  dup1\n  revert\ntag_1:\n  pop\n    /* \"contracts/utils/Ownable.sol\":940:972  _transferOwnership(_msgSender()) */\n  tag_4\n    /* \"contracts/utils/Ownable.sol\":959:971  _msgSender() */\n  tag_5\n    /* \"contracts/utils/Ownable.sol\":959:969  _msgSender */\n  shl(0x20, tag_6)\n    /* \"contracts/utils/Ownable.sol\":959:971  _msgSender() */\n  0x20\n  shr\n  jump\t// in\ntag_5:\n    /* \"contracts/utils/Ownable.sol\":940:958  _transferOwnership */\n  shl(0x20, tag_7)\n    /* \"contracts/utils/Ownable.sol\":940:972  _transferOwnership(_msgSender()) */\n  0x20\n  shr\n  jump\t// in\ntag_4:\n    /* \"contracts/SimpleWallet.sol\":92:933  contract SimpleWallet is Ownable{\r... */\n  jump(tag_8)\n    /* \"contracts/utils/Context.sol\":656:754  function _msgSender() internal view virtual returns (address) {\r... */\ntag_6:\n    /* \"contracts/utils/Context.sol\":709:716  address */\n  0x00\n    /* \"contracts/utils/Context.sol\":736:746  msg.sender */\n  caller\n    /* \"contracts/utils/Context.sol\":729:746  return msg.sender */\n  swap1\n  pop\n    /* \"contracts/utils/Context.sol\":656:754  function _msgSender() internal view virtual returns (address) {\r... */\n  swap1\n  jump\t// out\n    /* \"contracts/utils/Ownable.sol\":2432:2623  function _transferOwnership(address newOwner) internal virtual {\r... */\ntag_7:\n    /* \"contracts/utils/Ownable.sol\":2506:2522  address oldOwner */\n  0x00\n    /* \"contracts/utils/Ownable.sol\":2525:2531  _owner */\n  dup1\n  0x00\n  swap1\n  sload\n  swap1\n  0x0100\n  exp\n  swap1\n  div\n  0xffffffffffffffffffffffffffffffffffffffff\n  and\n    /* \"contracts/utils/Ownable.sol\":2506:2531  address oldOwner = _owner */\n  swap1\n  pop\n    /* \"contracts/utils/Ownable.sol\":2551:2559  newOwner */\n  dup2\n    /* \"contracts/utils/Ownable.sol\":2542:2548  _owner */\n  0x00\n  dup1\n    /* \"contracts/utils/Ownable.sol\":2542:2559  _owner = newOwner */\n  0x0100\n  exp\n  dup2\n  sload\n  dup2\n  0xffffffffffffffffffffffffffffffffffffffff\n  mul\n  not\n  and\n  swap1\n  dup4\n  0xffffffffffffffffffffffffffffffffffffffff\n  and\n  mul\n  or\n  swap1\n  sstore\n  pop\n    /* \"contracts/utils/Ownable.sol\":2606:2614  newOwner */\n  dup2\n    /* \"contracts/utils/Ownable.sol\":2575:2615  OwnershipTransferred(oldOwner, newOwner) */\n  0xffffffffffffffffffffffffffffffffffffffff\n  and\n    /* \"contracts/utils/Ownable.sol\":2596:2604  oldOwner */\n  dup2\n    /* \"contracts/utils/Ownable.sol\":2575:2615  OwnershipTransferred(oldOwner, newOwner) */\n  0xffffffffffffffffffffffffffffffffffffffff\n  and\n  0x8be0079c531659141344cd1fd0a4f28419497f9722a3daafe3b4186f6b6457e0\n  mload(0x40)\n  mload(0x40)\n  dup1\n  swap2\n  sub\n  swap1\n  log3\n    /* \"contracts/utils/Ownable.sol\":2495:2623  {\r... */\n  pop\n    /* \"contracts/utils/Ownable.sol\":2432:2623  function _transferOwnership(address newOwner) internal virtual {\r... */\n  pop\n  jump\t// out\n    /* \"contracts/SimpleWallet.sol\":92:933  contract SimpleWallet is Ownable{\r... */\ntag_8:\n  dataSize(sub_0)\n  dup1\n  dataOffset(sub_0)\n  0x00\n  codecopy\n  0x00\n  return\nstop\n\nsub_0: assembly {\n        /* \"contracts/SimpleWallet.sol\":92:933  contract SimpleWallet is Ownable{\r... */\n      mstore(0x40, 0x80)\n      jumpi(tag_1, lt(calldatasize, 0x04))\n      shr(0xe0, calldataload(0x00))\n      dup1\n      0x8f32d59b\n      gt\n      tag_10\n      jumpi\n      dup1\n      0x8f32d59b\n      eq\n      tag_6\n      jumpi\n      dup1\n      0xb39d7b7c\n      eq\n      tag_7\n      jumpi\n      dup1\n      0xf2fde38b\n      eq\n      tag_8\n      jumpi\n      dup1\n      0xf3c40c4b\n      eq\n      tag_9\n      jumpi\n      jump(tag_2)\n    tag_10:\n      dup1\n      0x3e5beab9\n      eq\n      tag_3\n      jumpi\n      dup1\n      0x715018a6\n      eq\n      tag_4\n      jumpi\n      dup1\n      0x8da5cb5b\n      eq\n      tag_5\n      jumpi\n      jump(tag_2)\n    tag_1:\n    tag_2:\n      stop\n        /* \"contracts/SimpleWallet.sol\":133:172  mapping(address=>uint) public allowance */\n    tag_3:\n      callvalue\n      dup1\n      iszero\n      tag_13\n      jumpi\n      0x00\n      dup1\n      revert\n    tag_13:\n      pop\n      tag_14\n      0x04\n      dup1\n      calldatasize\n      sub\n      dup2\n      add\n      swap1\n      tag_15\n      swap2\n      swap1\n      tag_16\n      jump\t// in\n    tag_15:\n      tag_17\n      jump\t// in\n    tag_14:\n      mload(0x40)\n      tag_18\n      swap2\n      swap1\n      tag_19\n      jump\t// in\n    tag_18:\n      mload(0x40)\n      dup1\n      swap2\n      sub\n      swap1\n      return\n        /* \"contracts/utils/Ownable.sol\":1813:1916  function renounceOwnership() public virtual onlyOwner {\r... */\n    tag_4:\n      callvalue\n      dup1\n      iszero\n      tag_20\n      jumpi\n      0x00\n      dup1\n      revert\n    tag_20:\n      pop\n      tag_21\n      tag_22\n      jump\t// in\n    tag_21:\n      stop\n        /* \"contracts/utils/Ownable.sol\":1061:1148  function owner() public view virtual returns (address) {\r... */\n    tag_5:\n      callvalue\n      dup1\n      iszero\n      tag_23\n      jumpi\n      0x00\n      dup1\n      revert\n    tag_23:\n      pop\n      tag_24\n      tag_25\n      jump\t// in\n    tag_24:\n      mload(0x40)\n      tag_26\n      swap2\n      swap1\n      tag_27\n      jump\t// in\n    tag_26:\n      mload(0x40)\n      dup1\n      swap2\n      sub\n      swap1\n      return\n        /* \"contracts/utils/Ownable.sol\":1369:1462  function isOwner() public view returns (bool){\r... */\n    tag_6:\n      callvalue\n      dup1\n      iszero\n      tag_28\n      jumpi\n      0x00\n      dup1\n      revert\n    tag_28:\n      pop\n      tag_29\n      tag_30\n      jump\t// in\n    tag_29:\n      mload(0x40)\n      tag_31\n      swap2\n      swap1\n      tag_32\n      jump\t// in\n    tag_31:\n      mload(0x40)\n      dup1\n      swap2\n      sub\n      swap1\n      return\n        /* \"contracts/SimpleWallet.sol\":560:881  function withDrawMoney(address payable _to, uint _amount) public ownerOrAllowed(_amount){\r... */\n    tag_7:\n      callvalue\n      dup1\n      iszero\n      tag_33\n      jumpi\n      0x00\n      dup1\n      revert\n    tag_33:\n      pop\n      tag_34\n      0x04\n      dup1\n      calldatasize\n      sub\n      dup2\n      add\n      swap1\n      tag_35\n      swap2\n      swap1\n      tag_36\n      jump\t// in\n    tag_35:\n      tag_37\n      jump\t// in\n    tag_34:\n      stop\n        /* \"contracts/utils/Ownable.sol\":2071:2272  function transferOwnership(address newOwner) public virtual onlyOwner {\r... */\n    tag_8:\n      callvalue\n      dup1\n      iszero\n      tag_38\n      jumpi\n      0x00\n      dup1\n      revert\n    tag_38:\n      pop\n      tag_39\n      0x04\n      dup1\n      calldatasize\n      sub\n      dup2\n      add\n      swap1\n      tag_40\n      swap2\n      swap1\n      tag_16\n      jump\t// in\n    tag_40:\n      tag_41\n      jump\t// in\n    tag_39:\n      stop\n        /* \"contracts/SimpleWallet.sol\":181:289  function addAllowance(address _who,uint _amount) public onlyOwner{\r... */\n    tag_9:\n      callvalue\n      dup1\n      iszero\n      tag_42\n      jumpi\n      0x00\n      dup1\n      revert\n    tag_42:\n      pop\n      tag_43\n      0x04\n      dup1\n      calldatasize\n      sub\n      dup2\n      add\n      swap1\n      tag_44\n      swap2\n      swap1\n      tag_45\n      jump\t// in\n    tag_44:\n      tag_46\n      jump\t// in\n    tag_43:\n      stop\n        /* \"contracts/SimpleWallet.sol\":133:172  mapping(address=>uint) public allowance */\n    tag_17:\n      mstore(0x20, 0x01)\n      dup1\n      0x00\n      mstore\n      keccak256(0x00, 0x40)\n      0x00\n      swap2\n      pop\n      swap1\n      pop\n      sload\n      dup2\n      jump\t// out\n        /* \"contracts/utils/Ownable.sol\":1813:1916  function renounceOwnership() public virtual onlyOwner {\r... */\n    tag_22:\n        /* \"contracts/utils/Ownable.sol\":1292:1304  _msgSender() */\n      tag_48\n        /* \"contracts/utils/Ownable.sol\":1292:1302  _msgSender */\n      tag_49\n        /* \"contracts/utils/Ownable.sol\":1292:1304  _msgSender() */\n      jump\t// in\n    tag_48:\n        /* \"contracts/utils/Ownable.sol\":1281:1304  owner() == _msgSender() */\n      0xffffffffffffffffffffffffffffffffffffffff\n      and\n        /* \"contracts/utils/Ownable.sol\":1281:1288  owner() */\n      tag_50\n        /* \"contracts/utils/Ownable.sol\":1281:1286  owner */\n      tag_25\n        /* \"contracts/utils/Ownable.sol\":1281:1288  owner() */\n      jump\t// in\n    tag_50:\n        /* \"contracts/utils/Ownable.sol\":1281:1304  owner() == _msgSender() */\n      0xffffffffffffffffffffffffffffffffffffffff\n      and\n      eq\n        /* \"contracts/utils/Ownable.sol\":1273:1341  require(owner() == _msgSender(), \"Ownable: caller is not the owner\") */\n      tag_51\n      jumpi\n      mload(0x40)\n      0x08c379a000000000000000000000000000000000000000000000000000000000\n      dup2\n      mstore\n      0x04\n      add\n      tag_52\n      swap1\n      tag_53\n      jump\t// in\n    tag_52:\n      mload(0x40)\n      dup1\n      swap2\n      sub\n      swap1\n      revert\n    tag_51:\n        /* \"contracts/utils/Ownable.sol\":1878:1908  _transferOwnership(address(0)) */\n      tag_55\n        /* \"contracts/utils/Ownable.sol\":1905:1906  0 */\n      0x00\n        /* \"contracts/utils/Ownable.sol\":1878:1896  _transferOwnership */\n      tag_56\n        /* \"contracts/utils/Ownable.sol\":1878:1908  _transferOwnership(address(0)) */\n      jump\t// in\n    tag_55:\n        /* \"contracts/utils/Ownable.sol\":1813:1916  function renounceOwnership() public virtual onlyOwner {\r... */\n      jump\t// out\n        /* \"contracts/utils/Ownable.sol\":1061:1148  function owner() public view virtual returns (address) {\r... */\n    tag_25:\n        /* \"contracts/utils/Ownable.sol\":1107:1114  address */\n      0x00\n        /* \"contracts/utils/Ownable.sol\":1134:1140  _owner */\n      dup1\n      0x00\n      swap1\n      sload\n      swap1\n      0x0100\n      exp\n      swap1\n      div\n      0xffffffffffffffffffffffffffffffffffffffff\n      and\n        /* \"contracts/utils/Ownable.sol\":1127:1140  return _owner */\n      swap1\n      pop\n        /* \"contracts/utils/Ownable.sol\":1061:1148  function owner() public view virtual returns (address) {\r... */\n      swap1\n      jump\t// out\n        /* \"contracts/utils/Ownable.sol\":1369:1462  function isOwner() public view returns (bool){\r... */\n    tag_30:\n        /* \"contracts/utils/Ownable.sol\":1409:1413  bool */\n      0x00\n        /* \"contracts/utils/Ownable.sol\":1448:1454  _owner */\n      dup1\n      0x00\n      swap1\n      sload\n      swap1\n      0x0100\n      exp\n      swap1\n      div\n      0xffffffffffffffffffffffffffffffffffffffff\n      and\n        /* \"contracts/utils/Ownable.sol\":1432:1454  _msgSender() == _owner */\n      0xffffffffffffffffffffffffffffffffffffffff\n      and\n        /* \"contracts/utils/Ownable.sol\":1432:1444  _msgSender() */\n      tag_59\n        /* \"contracts/utils/Ownable.sol\":1432:1442  _msgSender */\n      tag_49\n        /* \"contracts/utils/Ownable.sol\":1432:1444  _msgSender() */\n      jump\t// in\n    tag_59:\n        /* \"contracts/utils/Ownable.sol\":1432:1454  _msgSender() == _owner */\n      0xffffffffffffffffffffffffffffffffffffffff\n      and\n      eq\n        /* \"contracts/utils/Ownable.sol\":1425:1454  return _msgSender() == _owner */\n      swap1\n      pop\n        /* \"contracts/utils/Ownable.sol\":1369:1462  function isOwner() public view returns (bool){\r... */\n      swap1\n      jump\t// out\n        /* \"contracts/SimpleWallet.sol\":560:881  function withDrawMoney(address payable _to, uint _amount) public ownerOrAllowed(_amount){\r... */\n    tag_37:\n        /* \"contracts/SimpleWallet.sol\":640:647  _amount */\n      dup1\n        /* \"contracts/SimpleWallet.sol\":353:362  isOwner() */\n      tag_61\n        /* \"contracts/SimpleWallet.sol\":353:360  isOwner */\n      tag_30\n        /* \"contracts/SimpleWallet.sol\":353:362  isOwner() */\n      jump\t// in\n    tag_61:\n        /* \"contracts/SimpleWallet.sol\":353:398  isOwner() || allowance[msg.sender] >= _amount */\n      dup1\n      tag_62\n      jumpi\n      pop\n        /* \"contracts/SimpleWallet.sol\":391:398  _amount */\n      dup1\n        /* \"contracts/SimpleWallet.sol\":366:375  allowance */\n      0x01\n        /* \"contracts/SimpleWallet.sol\":366:387  allowance[msg.sender] */\n      0x00\n        /* \"contracts/SimpleWallet.sol\":376:386  msg.sender */\n      caller\n        /* \"contracts/SimpleWallet.sol\":366:387  allowance[msg.sender] */\n      0xffffffffffffffffffffffffffffffffffffffff\n      and\n      0xffffffffffffffffffffffffffffffffffffffff\n      and\n      dup2\n      mstore\n      0x20\n      add\n      swap1\n      dup2\n      mstore\n      0x20\n      add\n      0x00\n      keccak256\n      sload\n        /* \"contracts/SimpleWallet.sol\":366:398  allowance[msg.sender] >= _amount */\n      lt\n      iszero\n        /* \"contracts/SimpleWallet.sol\":353:398  isOwner() || allowance[msg.sender] >= _amount */\n    tag_62:\n        /* \"contracts/SimpleWallet.sol\":345:421  require(isOwner() || allowance[msg.sender] >= _amount,\"You are not allowed\") */\n      tag_63\n      jumpi\n      mload(0x40)\n      0x08c379a000000000000000000000000000000000000000000000000000000000\n      dup2\n      mstore\n      0x04\n      add\n      tag_64\n      swap1\n      tag_65\n      jump\t// in\n    tag_64:\n      mload(0x40)\n      dup1\n      swap2\n      sub\n      swap1\n      revert\n    tag_63:\n        /* \"contracts/SimpleWallet.sol\":678:699  address(this).balance */\n      selfbalance\n        /* \"contracts/SimpleWallet.sol\":667:674  _amount */\n      dup3\n        /* \"contracts/SimpleWallet.sol\":667:699  _amount <= address(this).balance */\n      gt\n      iszero\n        /* \"contracts/SimpleWallet.sol\":659:755  require(_amount <= address(this).balance,\"Amount is greater than balance in the smart contract\") */\n      tag_67\n      jumpi\n      mload(0x40)\n      0x08c379a000000000000000000000000000000000000000000000000000000000\n      dup2\n      mstore\n      0x04\n      add\n      tag_68\n      swap1\n      tag_69\n      jump\t// in\n    tag_68:\n      mload(0x40)\n      dup1\n      swap2\n      sub\n      swap1\n      revert\n    tag_67:\n        /* \"contracts/SimpleWallet.sol\":770:779  isOwner() */\n      tag_70\n        /* \"contracts/SimpleWallet.sol\":770:777  isOwner */\n      tag_30\n        /* \"contracts/SimpleWallet.sol\":770:779  isOwner() */\n      jump\t// in\n    tag_70:\n        /* \"contracts/SimpleWallet.sol\":766:842  if(!isOwner()){\r... */\n      tag_71\n      jumpi\n        /* \"contracts/SimpleWallet.sol\":795:830  reduceAllowance(msg.sender,_amount) */\n      tag_72\n        /* \"contracts/SimpleWallet.sol\":811:821  msg.sender */\n      caller\n        /* \"contracts/SimpleWallet.sol\":822:829  _amount */\n      dup4\n        /* \"contracts/SimpleWallet.sol\":795:810  reduceAllowance */\n      tag_73\n        /* \"contracts/SimpleWallet.sol\":795:830  reduceAllowance(msg.sender,_amount) */\n      jump\t// in\n    tag_72:\n        /* \"contracts/SimpleWallet.sol\":766:842  if(!isOwner()){\r... */\n    tag_71:\n        /* \"contracts/SimpleWallet.sol\":852:855  _to */\n      dup3\n        /* \"contracts/SimpleWallet.sol\":852:864  _to.transfer */\n      0xffffffffffffffffffffffffffffffffffffffff\n      and\n        /* \"contracts/SimpleWallet.sol\":852:873  _to.transfer(_amount) */\n      0x08fc\n        /* \"contracts/SimpleWallet.sol\":865:872  _amount */\n      dup4\n        /* \"contracts/SimpleWallet.sol\":852:873  _to.transfer(_amount) */\n      swap1\n      dup2\n      iszero\n      mul\n      swap1\n      mload(0x40)\n      0x00\n      mload(0x40)\n      dup1\n      dup4\n      sub\n      dup2\n      dup6\n      dup9\n      dup9\n      call\n      swap4\n      pop\n      pop\n      pop\n      pop\n      iszero\n      dup1\n      iszero\n      tag_75\n      jumpi\n      returndatasize\n      0x00\n      dup1\n      returndatacopy\n      revert(0x00, returndatasize)\n    tag_75:\n      pop\n        /* \"contracts/SimpleWallet.sol\":560:881  function withDrawMoney(address payable _to, uint _amount) public ownerOrAllowed(_amount){\r... */\n      pop\n      pop\n      pop\n      jump\t// out\n        /* \"contracts/utils/Ownable.sol\":2071:2272  function transferOwnership(address newOwner) public virtual onlyOwner {\r... */\n    tag_41:\n        /* \"contracts/utils/Ownable.sol\":1292:1304  _msgSender() */\n      tag_77\n        /* \"contracts/utils/Ownable.sol\":1292:1302  _msgSender */\n      tag_49\n        /* \"contracts/utils/Ownable.sol\":1292:1304  _msgSender() */\n      jump\t// in\n    tag_77:\n        /* \"contracts/utils/Ownable.sol\":1281:1304  owner() == _msgSender() */\n      0xffffffffffffffffffffffffffffffffffffffff\n      and\n        /* \"contracts/utils/Ownable.sol\":1281:1288  owner() */\n      tag_78\n        /* \"contracts/utils/Ownable.sol\":1281:1286  owner */\n      tag_25\n        /* \"contracts/utils/Ownable.sol\":1281:1288  owner() */\n      jump\t// in\n    tag_78:\n        /* \"contracts/utils/Ownable.sol\":1281:1304  owner() == _msgSender() */\n      0xffffffffffffffffffffffffffffffffffffffff\n      and\n      eq\n        /* \"contracts/utils/Ownable.sol\":1273:1341  require(owner() == _msgSender(), \"Ownable: caller is not the owner\") */\n      tag_79\n      jumpi\n      mload(0x40)\n      0x08c379a000000000000000000000000000000000000000000000000000000000\n      dup2\n      mstore\n      0x04\n      add\n      tag_80\n      swap1\n      tag_53\n      jump\t// in\n    tag_80:\n      mload(0x40)\n      dup1\n      swap2\n      sub\n      swap1\n      revert\n    tag_79:\n        /* \"contracts/utils/Ownable.sol\":2180:2181  0 */\n      0x00\n        /* \"contracts/utils/Ownable.sol\":2160:2182  newOwner != address(0) */\n      0xffffffffffffffffffffffffffffffffffffffff\n      and\n        /* \"contracts/utils/Ownable.sol\":2160:2168  newOwner */\n      dup2\n        /* \"contracts/utils/Ownable.sol\":2160:2182  newOwner != address(0) */\n      0xffffffffffffffffffffffffffffffffffffffff\n      and\n      eq\n      iszero\n        /* \"contracts/utils/Ownable.sol\":2152:2225  require(newOwner != address(0), \"Ownable: new owner is the zero address\") */\n      tag_82\n      jumpi\n      mload(0x40)\n      0x08c379a000000000000000000000000000000000000000000000000000000000\n      dup2\n      mstore\n      0x04\n      add\n      tag_83\n      swap1\n      tag_84\n      jump\t// in\n    tag_83:\n      mload(0x40)\n      dup1\n      swap2\n      sub\n      swap1\n      revert\n    tag_82:\n        /* \"contracts/utils/Ownable.sol\":2236:2264  _transferOwnership(newOwner) */\n      tag_85\n        /* \"contracts/utils/Ownable.sol\":2255:2263  newOwner */\n      dup2\n        /* \"contracts/utils/Ownable.sol\":2236:2254  _transferOwnership */\n      tag_56\n        /* \"contracts/utils/Ownable.sol\":2236:2264  _transferOwnership(newOwner) */\n      jump\t// in\n    tag_85:\n        /* \"contracts/utils/Ownable.sol\":2071:2272  function transferOwnership(address newOwner) public virtual onlyOwner {\r... */\n      pop\n      jump\t// out\n        /* \"contracts/SimpleWallet.sol\":181:289  function addAllowance(address _who,uint _amount) public onlyOwner{\r... */\n    tag_46:\n        /* \"contracts/utils/Ownable.sol\":1292:1304  _msgSender() */\n      tag_87\n        /* \"contracts/utils/Ownable.sol\":1292:1302  _msgSender */\n      tag_49\n        /* \"contracts/utils/Ownable.sol\":1292:1304  _msgSender() */\n      jump\t// in\n    tag_87:\n        /* \"contracts/utils/Ownable.sol\":1281:1304  owner() == _msgSender() */\n      0xffffffffffffffffffffffffffffffffffffffff\n      and\n        /* \"contracts/utils/Ownable.sol\":1281:1288  owner() */\n      tag_88\n        /* \"contracts/utils/Ownable.sol\":1281:1286  owner */\n      tag_25\n        /* \"contracts/utils/Ownable.sol\":1281:1288  owner() */\n      jump\t// in\n    tag_88:\n        /* \"contracts/utils/Ownable.sol\":1281:1304  owner() == _msgSender() */\n      0xffffffffffffffffffffffffffffffffffffffff\n      and\n      eq\n        /* \"contracts/utils/Ownable.sol\":1273:1341  require(owner() == _msgSender(), \"Ownable: caller is not the owner\") */\n      tag_89\n      jumpi\n      mload(0x40)\n      0x08c379a000000000000000000000000000000000000000000000000000000000\n      dup2\n      mstore\n      0x04\n      add\n      tag_90\n      swap1\n      tag_53\n      jump\t// in\n    tag_90:\n      mload(0x40)\n      dup1\n      swap2\n      sub\n      swap1\n      revert\n    tag_89:\n        /* \"contracts/SimpleWallet.sol\":274:281  _amount */\n      dup1\n        /* \"contracts/SimpleWallet.sol\":257:266  allowance */\n      0x01\n        /* \"contracts/SimpleWallet.sol\":257:272  allowance[_who] */\n      0x00\n        /* \"contracts/SimpleWallet.sol\":267:271  _who */\n      dup5\n        /* \"contracts/SimpleWallet.sol\":257:272  allowance[_who] */\n      0xffffffffffffffffffffffffffffffffffffffff\n      and\n      0xffffffffffffffffffffffffffffffffffffffff\n      and\n      dup2\n      mstore\n      0x20\n      add\n      swap1\n      dup2\n      mstore\n      0x20\n      add\n      0x00\n      keccak256\n        /* \"contracts/SimpleWallet.sol\":257:281  allowance[_who]= _amount */\n      dup2\n      swap1\n      sstore\n      pop\n        /* \"contracts/SimpleWallet.sol\":181:289  function addAllowance(address _who,uint _amount) public onlyOwner{\r... */\n      pop\n      pop\n      jump\t// out\n        /* \"contracts/utils/Context.sol\":656:754  function _msgSender() internal view virtual returns (address) {\r... */\n    tag_49:\n        /* \"contracts/utils/Context.sol\":709:716  address */\n      0x00\n        /* \"contracts/utils/Context.sol\":736:746  msg.sender */\n      caller\n        /* \"contracts/utils/Context.sol\":729:746  return msg.sender */\n      swap1\n      pop\n        /* \"contracts/utils/Context.sol\":656:754  function _msgSender() internal view virtual returns (address) {\r... */\n      swap1\n      jump\t// out\n        /* \"contracts/utils/Ownable.sol\":2432:2623  function _transferOwnership(address newOwner) internal virtual {\r... */\n    tag_56:\n        /* \"contracts/utils/Ownable.sol\":2506:2522  address oldOwner */\n      0x00\n        /* \"contracts/utils/Ownable.sol\":2525:2531  _owner */\n      dup1\n      0x00\n      swap1\n      sload\n      swap1\n      0x0100\n      exp\n      swap1\n      div\n      0xffffffffffffffffffffffffffffffffffffffff\n      and\n        /* \"contracts/utils/Ownable.sol\":2506:2531  address oldOwner = _owner */\n      swap1\n      pop\n        /* \"contracts/utils/Ownable.sol\":2551:2559  newOwner */\n      dup2\n        /* \"contracts/utils/Ownable.sol\":2542:2548  _owner */\n      0x00\n      dup1\n        /* \"contracts/utils/Ownable.sol\":2542:2559  _owner = newOwner */\n      0x0100\n      exp\n      dup2\n      sload\n      dup2\n      0xffffffffffffffffffffffffffffffffffffffff\n      mul\n      not\n      and\n      swap1\n      dup4\n      0xffffffffffffffffffffffffffffffffffffffff\n      and\n      mul\n      or\n      swap1\n      sstore\n      pop\n        /* \"contracts/utils/Ownable.sol\":2606:2614  newOwner */\n      dup2\n        /* \"contracts/utils/Ownable.sol\":2575:2615  OwnershipTransferred(oldOwner, newOwner) */\n      0xffffffffffffffffffffffffffffffffffffffff\n      and\n        /* \"contracts/utils/Ownable.sol\":2596:2604  oldOwner */\n      dup2\n        /* \"contracts/utils/Ownable.sol\":2575:2615  OwnershipTransferred(oldOwner, newOwner) */\n      0xffffffffffffffffffffffffffffffffffffffff\n      and\n      0x8be0079c531659141344cd1fd0a4f28419497f9722a3daafe3b4186f6b6457e0\n      mload(0x40)\n      mload(0x40)\n      dup1\n      swap2\n      sub\n      swap1\n      log3\n        /* \"contracts/utils/Ownable.sol\":2495:2623  {\r... */\n      pop\n        /* \"contracts/utils/Ownable.sol\":2432:2623  function _transferOwnership(address newOwner) internal virtual {\r... */\n      pop\n      jump\t// out\n        /* \"contracts/SimpleWallet.sol\":449:552  function reduceAllowance(address _who,uint _amount) internal{\r... */\n    tag_73:\n        /* \"contracts/SimpleWallet.sol\":537:544  _amount */\n      dup1\n        /* \"contracts/SimpleWallet.sol\":520:529  allowance */\n      0x01\n        /* \"contracts/SimpleWallet.sol\":520:535  allowance[_who] */\n      0x00\n        /* \"contracts/SimpleWallet.sol\":530:534  _who */\n      dup5\n        /* \"contracts/SimpleWallet.sol\":520:535  allowance[_who] */\n      0xffffffffffffffffffffffffffffffffffffffff\n      and\n      0xffffffffffffffffffffffffffffffffffffffff\n      and\n      dup2\n      mstore\n      0x20\n      add\n      swap1\n      dup2\n      mstore\n      0x20\n      add\n      0x00\n      keccak256\n      0x00\n        /* \"contracts/SimpleWallet.sol\":520:544  allowance[_who]-=_amount */\n      dup3\n      dup3\n      sload\n      tag_95\n      swap2\n      swap1\n      tag_96\n      jump\t// in\n    tag_95:\n      swap3\n      pop\n      pop\n      dup2\n      swap1\n      sstore\n      pop\n        /* \"contracts/SimpleWallet.sol\":449:552  function reduceAllowance(address _who,uint _amount) internal{\r... */\n      pop\n      pop\n      jump\t// out\n        /* \"#utility.yul\":7:146   */\n    tag_98:\n        /* \"#utility.yul\":53:58   */\n      0x00\n        /* \"#utility.yul\":91:97   */\n      dup2\n        /* \"#utility.yul\":78:98   */\n      calldataload\n        /* \"#utility.yul\":69:98   */\n      swap1\n      pop\n        /* \"#utility.yul\":107:140   */\n      tag_100\n        /* \"#utility.yul\":134:139   */\n      dup2\n        /* \"#utility.yul\":107:140   */\n      tag_101\n      jump\t// in\n    tag_100:\n        /* \"#utility.yul\":7:146   */\n      swap3\n      swap2\n      pop\n      pop\n      jump\t// out\n        /* \"#utility.yul\":152:307   */\n    tag_102:\n        /* \"#utility.yul\":206:211   */\n      0x00\n        /* \"#utility.yul\":244:250   */\n      dup2\n        /* \"#utility.yul\":231:251   */\n      calldataload\n        /* \"#utility.yul\":222:251   */\n      swap1\n      pop\n        /* \"#utility.yul\":260:301   */\n      tag_104\n        /* \"#utility.yul\":295:300   */\n      dup2\n        /* \"#utility.yul\":260:301   */\n      tag_105\n      jump\t// in\n    tag_104:\n        /* \"#utility.yul\":152:307   */\n      swap3\n      swap2\n      pop\n      pop\n      jump\t// out\n        /* \"#utility.yul\":313:452   */\n    tag_106:\n        /* \"#utility.yul\":359:364   */\n      0x00\n        /* \"#utility.yul\":397:403   */\n      dup2\n        /* \"#utility.yul\":384:404   */\n      calldataload\n        /* \"#utility.yul\":375:404   */\n      swap1\n      pop\n        /* \"#utility.yul\":413:446   */\n      tag_108\n        /* \"#utility.yul\":440:445   */\n      dup2\n        /* \"#utility.yul\":413:446   */\n      tag_109\n      jump\t// in\n    tag_108:\n        /* \"#utility.yul\":313:452   */\n      swap3\n      swap2\n      pop\n      pop\n      jump\t// out\n        /* \"#utility.yul\":458:787   */\n    tag_16:\n        /* \"#utility.yul\":517:523   */\n      0x00\n        /* \"#utility.yul\":566:568   */\n      0x20\n        /* \"#utility.yul\":554:563   */\n      dup3\n        /* \"#utility.yul\":545:552   */\n      dup5\n        /* \"#utility.yul\":541:564   */\n      sub\n        /* \"#utility.yul\":537:569   */\n      slt\n        /* \"#utility.yul\":534:653   */\n      iszero\n      tag_111\n      jumpi\n        /* \"#utility.yul\":572:651   */\n      tag_112\n      tag_113\n      jump\t// in\n    tag_112:\n        /* \"#utility.yul\":534:653   */\n    tag_111:\n        /* \"#utility.yul\":692:693   */\n      0x00\n        /* \"#utility.yul\":717:770   */\n      tag_114\n        /* \"#utility.yul\":762:769   */\n      dup5\n        /* \"#utility.yul\":753:759   */\n      dup3\n        /* \"#utility.yul\":742:751   */\n      dup6\n        /* \"#utility.yul\":738:760   */\n      add\n        /* \"#utility.yul\":717:770   */\n      tag_98\n      jump\t// in\n    tag_114:\n        /* \"#utility.yul\":707:770   */\n      swap2\n      pop\n        /* \"#utility.yul\":663:780   */\n      pop\n        /* \"#utility.yul\":458:787   */\n      swap3\n      swap2\n      pop\n      pop\n      jump\t// out\n        /* \"#utility.yul\":793:1283   */\n    tag_36:\n        /* \"#utility.yul\":869:875   */\n      0x00\n        /* \"#utility.yul\":877:883   */\n      dup1\n        /* \"#utility.yul\":926:928   */\n      0x40\n        /* \"#utility.yul\":914:923   */\n      dup4\n        /* \"#utility.yul\":905:912   */\n      dup6\n        /* \"#utility.yul\":901:924   */\n      sub\n        /* \"#utility.yul\":897:929   */\n      slt\n        /* \"#utility.yul\":894:1013   */\n      iszero\n      tag_116\n      jumpi\n        /* \"#utility.yul\":932:1011   */\n      tag_117\n      tag_113\n      jump\t// in\n    tag_117:\n        /* \"#utility.yul\":894:1013   */\n    tag_116:\n        /* \"#utility.yul\":1052:1053   */\n      0x00\n        /* \"#utility.yul\":1077:1138   */\n      tag_118\n        /* \"#utility.yul\":1130:1137   */\n      dup6\n        /* \"#utility.yul\":1121:1127   */\n      dup3\n        /* \"#utility.yul\":1110:1119   */\n      dup7\n        /* \"#utility.yul\":1106:1128   */\n      add\n        /* \"#utility.yul\":1077:1138   */\n      tag_102\n      jump\t// in\n    tag_118:\n        /* \"#utility.yul\":1067:1138   */\n      swap3\n      pop\n        /* \"#utility.yul\":1023:1148   */\n      pop\n        /* \"#utility.yul\":1187:1189   */\n      0x20\n        /* \"#utility.yul\":1213:1266   */\n      tag_119\n        /* \"#utility.yul\":1258:1265   */\n      dup6\n        /* \"#utility.yul\":1249:1255   */\n      dup3\n        /* \"#utility.yul\":1238:1247   */\n      dup7\n        /* \"#utility.yul\":1234:1256   */\n      add\n        /* \"#utility.yul\":1213:1266   */\n      tag_106\n      jump\t// in\n    tag_119:\n        /* \"#utility.yul\":1203:1266   */\n      swap2\n      pop\n        /* \"#utility.yul\":1158:1276   */\n      pop\n        /* \"#utility.yul\":793:1283   */\n      swap3\n      pop\n      swap3\n      swap1\n      pop\n      jump\t// out\n        /* \"#utility.yul\":1289:1763   */\n    tag_45:\n        /* \"#utility.yul\":1357:1363   */\n      0x00\n        /* \"#utility.yul\":1365:1371   */\n      dup1\n        /* \"#utility.yul\":1414:1416   */\n      0x40\n        /* \"#utility.yul\":1402:1411   */\n      dup4\n        /* \"#utility.yul\":1393:1400   */\n      dup6\n        /* \"#utility.yul\":1389:1412   */\n      sub\n        /* \"#utility.yul\":1385:1417   */\n      slt\n        /* \"#utility.yul\":1382:1501   */\n      iszero\n      tag_121\n      jumpi\n        /* \"#utility.yul\":1420:1499   */\n      tag_122\n      tag_113\n      jump\t// in\n    tag_122:\n        /* \"#utility.yul\":1382:1501   */\n    tag_121:\n        /* \"#utility.yul\":1540:1541   */\n      0x00\n        /* \"#utility.yul\":1565:1618   */\n      tag_123\n        /* \"#utility.yul\":1610:1617   */\n      dup6\n        /* \"#utility.yul\":1601:1607   */\n      dup3\n        /* \"#utility.yul\":1590:1599   */\n      dup7\n        /* \"#utility.yul\":1586:1608   */\n      add\n        /* \"#utility.yul\":1565:1618   */\n      tag_98\n      jump\t// in\n    tag_123:\n        /* \"#utility.yul\":1555:1618   */\n      swap3\n      pop\n        /* \"#utility.yul\":1511:1628   */\n      pop\n        /* \"#utility.yul\":1667:1669   */\n      0x20\n        /* \"#utility.yul\":1693:1746   */\n      tag_124\n        /* \"#utility.yul\":1738:1745   */\n      dup6\n        /* \"#utility.yul\":1729:1735   */\n      dup3\n        /* \"#utility.yul\":1718:1727   */\n      dup7\n        /* \"#utility.yul\":1714:1736   */\n      add\n        /* \"#utility.yul\":1693:1746   */\n      tag_106\n      jump\t// in\n    tag_124:\n        /* \"#utility.yul\":1683:1746   */\n      swap2\n      pop\n        /* \"#utility.yul\":1638:1756   */\n      pop\n        /* \"#utility.yul\":1289:1763   */\n      swap3\n      pop\n      swap3\n      swap1\n      pop\n      jump\t// out\n        /* \"#utility.yul\":1769:1887   */\n    tag_125:\n        /* \"#utility.yul\":1856:1880   */\n      tag_127\n        /* \"#utility.yul\":1874:1879   */\n      dup2\n        /* \"#utility.yul\":1856:1880   */\n      tag_128\n      jump\t// in\n    tag_127:\n        /* \"#utility.yul\":1851:1854   */\n      dup3\n        /* \"#utility.yul\":1844:1881   */\n      mstore\n        /* \"#utility.yul\":1769:1887   */\n      pop\n      pop\n      jump\t// out\n        /* \"#utility.yul\":1893:2002   */\n    tag_129:\n        /* \"#utility.yul\":1974:1995   */\n      tag_131\n        /* \"#utility.yul\":1989:1994   */\n      dup2\n        /* \"#utility.yul\":1974:1995   */\n      tag_132\n      jump\t// in\n    tag_131:\n        /* \"#utility.yul\":1969:1972   */\n      dup3\n        /* \"#utility.yul\":1962:1996   */\n      mstore\n        /* \"#utility.yul\":1893:2002   */\n      pop\n      pop\n      jump\t// out\n        /* \"#utility.yul\":2008:2374   */\n    tag_133:\n        /* \"#utility.yul\":2150:2153   */\n      0x00\n        /* \"#utility.yul\":2171:2238   */\n      tag_135\n        /* \"#utility.yul\":2235:2237   */\n      0x26\n        /* \"#utility.yul\":2230:2233   */\n      dup4\n        /* \"#utility.yul\":2171:2238   */\n      tag_136\n      jump\t// in\n    tag_135:\n        /* \"#utility.yul\":2164:2238   */\n      swap2\n      pop\n        /* \"#utility.yul\":2247:2340   */\n      tag_137\n        /* \"#utility.yul\":2336:2339   */\n      dup3\n        /* \"#utility.yul\":2247:2340   */\n      tag_138\n      jump\t// in\n    tag_137:\n        /* \"#utility.yul\":2365:2367   */\n      0x40\n        /* \"#utility.yul\":2360:2363   */\n      dup3\n        /* \"#utility.yul\":2356:2368   */\n      add\n        /* \"#utility.yul\":2349:2368   */\n      swap1\n      pop\n        /* \"#utility.yul\":2008:2374   */\n      swap2\n      swap1\n      pop\n      jump\t// out\n        /* \"#utility.yul\":2380:2746   */\n    tag_139:\n        /* \"#utility.yul\":2522:2525   */\n      0x00\n        /* \"#utility.yul\":2543:2610   */\n      tag_141\n        /* \"#utility.yul\":2607:2609   */\n      0x13\n        /* \"#utility.yul\":2602:2605   */\n      dup4\n        /* \"#utility.yul\":2543:2610   */\n      tag_136\n      jump\t// in\n    tag_141:\n        /* \"#utility.yul\":2536:2610   */\n      swap2\n      pop\n        /* \"#utility.yul\":2619:2712   */\n      tag_142\n        /* \"#utility.yul\":2708:2711   */\n      dup3\n        /* \"#utility.yul\":2619:2712   */\n      tag_143\n      jump\t// in\n    tag_142:\n        /* \"#utility.yul\":2737:2739   */\n      0x20\n        /* \"#utility.yul\":2732:2735   */\n      dup3\n        /* \"#utility.yul\":2728:2740   */\n      add\n        /* \"#utility.yul\":2721:2740   */\n      swap1\n      pop\n        /* \"#utility.yul\":2380:2746   */\n      swap2\n      swap1\n      pop\n      jump\t// out\n        /* \"#utility.yul\":2752:3118   */\n    tag_144:\n        /* \"#utility.yul\":2894:2897   */\n      0x00\n        /* \"#utility.yul\":2915:2982   */\n      tag_146\n        /* \"#utility.yul\":2979:2981   */\n      0x20\n        /* \"#utility.yul\":2974:2977   */\n      dup4\n        /* \"#utility.yul\":2915:2982   */\n      tag_136\n      jump\t// in\n    tag_146:\n        /* \"#utility.yul\":2908:2982   */\n      swap2\n      pop\n        /* \"#utility.yul\":2991:3084   */\n      tag_147\n        /* \"#utility.yul\":3080:3083   */\n      dup3\n        /* \"#utility.yul\":2991:3084   */\n      tag_148\n      jump\t// in\n    tag_147:\n        /* \"#utility.yul\":3109:3111   */\n      0x20\n        /* \"#utility.yul\":3104:3107   */\n      dup3\n        /* \"#utility.yul\":3100:3112   */\n      add\n        /* \"#utility.yul\":3093:3112   */\n      swap1\n      pop\n        /* \"#utility.yul\":2752:3118   */\n      swap2\n      swap1\n      pop\n      jump\t// out\n        /* \"#utility.yul\":3124:3490   */\n    tag_149:\n        /* \"#utility.yul\":3266:3269   */\n      0x00\n        /* \"#utility.yul\":3287:3354   */\n      tag_151\n        /* \"#utility.yul\":3351:3353   */\n      0x34\n        /* \"#utility.yul\":3346:3349   */\n      dup4\n        /* \"#utility.yul\":3287:3354   */\n      tag_136\n      jump\t// in\n    tag_151:\n        /* \"#utility.yul\":3280:3354   */\n      swap2\n      pop\n        /* \"#utility.yul\":3363:3456   */\n      tag_152\n        /* \"#utility.yul\":3452:3455   */\n      dup3\n        /* \"#utility.yul\":3363:3456   */\n      tag_153\n      jump\t// in\n    tag_152:\n        /* \"#utility.yul\":3481:3483   */\n      0x40\n        /* \"#utility.yul\":3476:3479   */\n      dup3\n        /* \"#utility.yul\":3472:3484   */\n      add\n        /* \"#utility.yul\":3465:3484   */\n      swap1\n      pop\n        /* \"#utility.yul\":3124:3490   */\n      swap2\n      swap1\n      pop\n      jump\t// out\n        /* \"#utility.yul\":3496:3614   */\n    tag_154:\n        /* \"#utility.yul\":3583:3607   */\n      tag_156\n        /* \"#utility.yul\":3601:3606   */\n      dup2\n        /* \"#utility.yul\":3583:3607   */\n      tag_157\n      jump\t// in\n    tag_156:\n        /* \"#utility.yul\":3578:3581   */\n      dup3\n        /* \"#utility.yul\":3571:3608   */\n      mstore\n        /* \"#utility.yul\":3496:3614   */\n      pop\n      pop\n      jump\t// out\n        /* \"#utility.yul\":3620:3842   */\n    tag_27:\n        /* \"#utility.yul\":3713:3717   */\n      0x00\n        /* \"#utility.yul\":3751:3753   */\n      0x20\n        /* \"#utility.yul\":3740:3749   */\n      dup3\n        /* \"#utility.yul\":3736:3754   */\n      add\n        /* \"#utility.yul\":3728:3754   */\n      swap1\n      pop\n        /* \"#utility.yul\":3764:3835   */\n      tag_159\n        /* \"#utility.yul\":3832:3833   */\n      0x00\n        /* \"#utility.yul\":3821:3830   */\n      dup4\n        /* \"#utility.yul\":3817:3834   */\n      add\n        /* \"#utility.yul\":3808:3814   */\n      dup5\n        /* \"#utility.yul\":3764:3835   */\n      tag_125\n      jump\t// in\n    tag_159:\n        /* \"#utility.yul\":3620:3842   */\n      swap3\n      swap2\n      pop\n      pop\n      jump\t// out\n        /* \"#utility.yul\":3848:4058   */\n    tag_32:\n        /* \"#utility.yul\":3935:3939   */\n      0x00\n        /* \"#utility.yul\":3973:3975   */\n      0x20\n        /* \"#utility.yul\":3962:3971   */\n      dup3\n        /* \"#utility.yul\":3958:3976   */\n      add\n        /* \"#utility.yul\":3950:3976   */\n      swap1\n      pop\n        /* \"#utility.yul\":3986:4051   */\n      tag_161\n        /* \"#utility.yul\":4048:4049   */\n      0x00\n        /* \"#utility.yul\":4037:4046   */\n      dup4\n        /* \"#utility.yul\":4033:4050   */\n      add\n        /* \"#utility.yul\":4024:4030   */\n      dup5\n        /* \"#utility.yul\":3986:4051   */\n      tag_129\n      jump\t// in\n    tag_161:\n        /* \"#utility.yul\":3848:4058   */\n      swap3\n      swap2\n      pop\n      pop\n      jump\t// out\n        /* \"#utility.yul\":4064:4483   */\n    tag_84:\n        /* \"#utility.yul\":4230:4234   */\n      0x00\n        /* \"#utility.yul\":4268:4270   */\n      0x20\n        /* \"#utility.yul\":4257:4266   */\n      dup3\n        /* \"#utility.yul\":4253:4271   */\n      add\n        /* \"#utility.yul\":4245:4271   */\n      swap1\n      pop\n        /* \"#utility.yul\":4317:4326   */\n      dup2\n        /* \"#utility.yul\":4311:4315   */\n      dup2\n        /* \"#utility.yul\":4307:4327   */\n      sub\n        /* \"#utility.yul\":4303:4304   */\n      0x00\n        /* \"#utility.yul\":4292:4301   */\n      dup4\n        /* \"#utility.yul\":4288:4305   */\n      add\n        /* \"#utility.yul\":4281:4328   */\n      mstore\n        /* \"#utility.yul\":4345:4476   */\n      tag_163\n        /* \"#utility.yul\":4471:4475   */\n      dup2\n        /* \"#utility.yul\":4345:4476   */\n      tag_133\n      jump\t// in\n    tag_163:\n        /* \"#utility.yul\":4337:4476   */\n      swap1\n      pop\n        /* \"#utility.yul\":4064:4483   */\n      swap2\n      swap1\n      pop\n      jump\t// out\n        /* \"#utility.yul\":4489:4908   */\n    tag_65:\n        /* \"#utility.yul\":4655:4659   */\n      0x00\n        /* \"#utility.yul\":4693:4695   */\n      0x20\n        /* \"#utility.yul\":4682:4691   */\n      dup3\n        /* \"#utility.yul\":4678:4696   */\n      add\n        /* \"#utility.yul\":4670:4696   */\n      swap1\n      pop\n        /* \"#utility.yul\":4742:4751   */\n      dup2\n        /* \"#utility.yul\":4736:4740   */\n      dup2\n        /* \"#utility.yul\":4732:4752   */\n      sub\n        /* \"#utility.yul\":4728:4729   */\n      0x00\n        /* \"#utility.yul\":4717:4726   */\n      dup4\n        /* \"#utility.yul\":4713:4730   */\n      add\n        /* \"#utility.yul\":4706:4753   */\n      mstore\n        /* \"#utility.yul\":4770:4901   */\n      tag_165\n        /* \"#utility.yul\":4896:4900   */\n      dup2\n        /* \"#utility.yul\":4770:4901   */\n      tag_139\n      jump\t// in\n    tag_165:\n        /* \"#utility.yul\":4762:4901   */\n      swap1\n      pop\n        /* \"#utility.yul\":4489:4908   */\n      swap2\n      swap1\n      pop\n      jump\t// out\n        /* \"#utility.yul\":4914:5333   */\n    tag_53:\n        /* \"#utility.yul\":5080:5084   */\n      0x00\n        /* \"#utility.yul\":5118:5120   */\n      0x20\n        /* \"#utility.yul\":5107:5116   */\n      dup3\n        /* \"#utility.yul\":5103:5121   */\n      add\n        /* \"#utility.yul\":5095:5121   */\n      swap1\n      pop\n        /* \"#utility.yul\":5167:5176   */\n      dup2\n        /* \"#utility.yul\":5161:5165   */\n      dup2\n        /* \"#utility.yul\":5157:5177   */\n      sub\n        /* \"#utility.yul\":5153:5154   */\n      0x00\n        /* \"#utility.yul\":5142:5151   */\n      dup4\n        /* \"#utility.yul\":5138:5155   */\n      add\n        /* \"#utility.yul\":5131:5178   */\n      mstore\n        /* \"#utility.yul\":5195:5326   */\n      tag_167\n        /* \"#utility.yul\":5321:5325   */\n      dup2\n        /* \"#utility.yul\":5195:5326   */\n      tag_144\n      jump\t// in\n    tag_167:\n        /* \"#utility.yul\":5187:5326   */\n      swap1\n      pop\n        /* \"#utility.yul\":4914:5333   */\n      swap2\n      swap1\n      pop\n      jump\t// out\n        /* \"#utility.yul\":5339:5758   */\n    tag_69:\n        /* \"#utility.yul\":5505:5509   */\n      0x00\n        /* \"#utility.yul\":5543:5545   */\n      0x20\n        /* \"#utility.yul\":5532:5541   */\n      dup3\n        /* \"#utility.yul\":5528:5546   */\n      add\n        /* \"#utility.yul\":5520:5546   */\n      swap1\n      pop\n        /* \"#utility.yul\":5592:5601   */\n      dup2\n        /* \"#utility.yul\":5586:5590   */\n      dup2\n        /* \"#utility.yul\":5582:5602   */\n      sub\n        /* \"#utility.yul\":5578:5579   */\n      0x00\n        /* \"#utility.yul\":5567:5576   */\n      dup4\n        /* \"#utility.yul\":5563:5580   */\n      add\n        /* \"#utility.yul\":5556:5603   */\n      mstore\n        /* \"#utility.yul\":5620:5751   */\n      tag_169\n        /* \"#utility.yul\":5746:5750   */\n      dup2\n        /* \"#utility.yul\":5620:5751   */\n      tag_149\n      jump\t// in\n    tag_169:\n        /* \"#utility.yul\":5612:5751   */\n      swap1\n      pop\n        /* \"#utility.yul\":5339:5758   */\n      swap2\n      swap1\n      pop\n      jump\t// out\n        /* \"#utility.yul\":5764:5986   */\n    tag_19:\n        /* \"#utility.yul\":5857:5861   */\n      0x00\n        /* \"#utility.yul\":5895:5897   */\n      0x20\n        /* \"#utility.yul\":5884:5893   */\n      dup3\n        /* \"#utility.yul\":5880:5898   */\n      add\n        /* \"#utility.yul\":5872:5898   */\n      swap1\n      pop\n        /* \"#utility.yul\":5908:5979   */\n      tag_171\n        /* \"#utility.yul\":5976:5977   */\n      0x00\n        /* \"#utility.yul\":5965:5974   */\n      dup4\n        /* \"#utility.yul\":5961:5978   */\n      add\n        /* \"#utility.yul\":5952:5958   */\n      dup5\n        /* \"#utility.yul\":5908:5979   */\n      tag_154\n      jump\t// in\n    tag_171:\n        /* \"#utility.yul\":5764:5986   */\n      swap3\n      swap2\n      pop\n      pop\n      jump\t// out\n        /* \"#utility.yul\":6073:6242   */\n    tag_136:\n        /* \"#utility.yul\":6157:6168   */\n      0x00\n        /* \"#utility.yul\":6191:6197   */\n      dup3\n        /* \"#utility.yul\":6186:6189   */\n      dup3\n        /* \"#utility.yul\":6179:6198   */\n      mstore\n        /* \"#utility.yul\":6231:6235   */\n      0x20\n        /* \"#utility.yul\":6226:6229   */\n      dup3\n        /* \"#utility.yul\":6222:6236   */\n      add\n        /* \"#utility.yul\":6207:6236   */\n      swap1\n      pop\n        /* \"#utility.yul\":6073:6242   */\n      swap3\n      swap2\n      pop\n      pop\n      jump\t// out\n        /* \"#utility.yul\":6248:6439   */\n    tag_96:\n        /* \"#utility.yul\":6288:6292   */\n      0x00\n        /* \"#utility.yul\":6308:6328   */\n      tag_176\n        /* \"#utility.yul\":6326:6327   */\n      dup3\n        /* \"#utility.yul\":6308:6328   */\n      tag_157\n      jump\t// in\n    tag_176:\n        /* \"#utility.yul\":6303:6328   */\n      swap2\n      pop\n        /* \"#utility.yul\":6342:6362   */\n      tag_177\n        /* \"#utility.yul\":6360:6361   */\n      dup4\n        /* \"#utility.yul\":6342:6362   */\n      tag_157\n      jump\t// in\n    tag_177:\n        /* \"#utility.yul\":6337:6362   */\n      swap3\n      pop\n        /* \"#utility.yul\":6381:6382   */\n      dup3\n        /* \"#utility.yul\":6378:6379   */\n      dup3\n        /* \"#utility.yul\":6375:6383   */\n      lt\n        /* \"#utility.yul\":6372:6406   */\n      iszero\n      tag_178\n      jumpi\n        /* \"#utility.yul\":6386:6404   */\n      tag_179\n      tag_180\n      jump\t// in\n    tag_179:\n        /* \"#utility.yul\":6372:6406   */\n    tag_178:\n        /* \"#utility.yul\":6431:6432   */\n      dup3\n        /* \"#utility.yul\":6428:6429   */\n      dup3\n        /* \"#utility.yul\":6424:6433   */\n      sub\n        /* \"#utility.yul\":6416:6433   */\n      swap1\n      pop\n        /* \"#utility.yul\":6248:6439   */\n      swap3\n      swap2\n      pop\n      pop\n      jump\t// out\n        /* \"#utility.yul\":6445:6541   */\n    tag_128:\n        /* \"#utility.yul\":6482:6489   */\n      0x00\n        /* \"#utility.yul\":6511:6535   */\n      tag_182\n        /* \"#utility.yul\":6529:6534   */\n      dup3\n        /* \"#utility.yul\":6511:6535   */\n      tag_183\n      jump\t// in\n    tag_182:\n        /* \"#utility.yul\":6500:6535   */\n      swap1\n      pop\n        /* \"#utility.yul\":6445:6541   */\n      swap2\n      swap1\n      pop\n      jump\t// out\n        /* \"#utility.yul\":6547:6651   */\n    tag_184:\n        /* \"#utility.yul\":6592:6599   */\n      0x00\n        /* \"#utility.yul\":6621:6645   */\n      tag_186\n        /* \"#utility.yul\":6639:6644   */\n      dup3\n        /* \"#utility.yul\":6621:6645   */\n      tag_183\n      jump\t// in\n    tag_186:\n        /* \"#utility.yul\":6610:6645   */\n      swap1\n      pop\n        /* \"#utility.yul\":6547:6651   */\n      swap2\n      swap1\n      pop\n      jump\t// out\n        /* \"#utility.yul\":6657:6747   */\n    tag_132:\n        /* \"#utility.yul\":6691:6698   */\n      0x00\n        /* \"#utility.yul\":6734:6739   */\n      dup2\n        /* \"#utility.yul\":6727:6740   */\n      iszero\n        /* \"#utility.yul\":6720:6741   */\n      iszero\n        /* \"#utility.yul\":6709:6741   */\n      swap1\n      pop\n        /* \"#utility.yul\":6657:6747   */\n      swap2\n      swap1\n      pop\n      jump\t// out\n        /* \"#utility.yul\":6753:6879   */\n    tag_183:\n        /* \"#utility.yul\":6790:6797   */\n      0x00\n        /* \"#utility.yul\":6830:6872   */\n      0xffffffffffffffffffffffffffffffffffffffff\n        /* \"#utility.yul\":6823:6828   */\n      dup3\n        /* \"#utility.yul\":6819:6873   */\n      and\n        /* \"#utility.yul\":6808:6873   */\n      swap1\n      pop\n        /* \"#utility.yul\":6753:6879   */\n      swap2\n      swap1\n      pop\n      jump\t// out\n        /* \"#utility.yul\":6885:6962   */\n    tag_157:\n        /* \"#utility.yul\":6922:6929   */\n      0x00\n        /* \"#utility.yul\":6951:6956   */\n      dup2\n        /* \"#utility.yul\":6940:6956   */\n      swap1\n      pop\n        /* \"#utility.yul\":6885:6962   */\n      swap2\n      swap1\n      pop\n      jump\t// out\n        /* \"#utility.yul\":6968:7148   */\n    tag_180:\n        /* \"#utility.yul\":7016:7093   */\n      0x4e487b7100000000000000000000000000000000000000000000000000000000\n        /* \"#utility.yul\":7013:7014   */\n      0x00\n        /* \"#utility.yul\":7006:7094   */\n      mstore\n        /* \"#utility.yul\":7113:7117   */\n      0x11\n        /* \"#utility.yul\":7110:7111   */\n      0x04\n        /* \"#utility.yul\":7103:7118   */\n      mstore\n        /* \"#utility.yul\":7137:7141   */\n      0x24\n        /* \"#utility.yul\":7134:7135   */\n      0x00\n        /* \"#utility.yul\":7127:7142   */\n      revert\n        /* \"#utility.yul\":7277:7394   */\n    tag_113:\n        /* \"#utility.yul\":7386:7387   */\n      0x00\n        /* \"#utility.yul\":7383:7384   */\n      dup1\n        /* \"#utility.yul\":7376:7388   */\n      revert\n        /* \"#utility.yul\":7400:7625   */\n    tag_138:\n        /* \"#utility.yul\":7540:7574   */\n      0x4f776e61626c653a206e6577206f776e657220697320746865207a65726f2061\n        /* \"#utility.yul\":7536:7537   */\n      0x00\n        /* \"#utility.yul\":7528:7534   */\n      dup3\n        /* \"#utility.yul\":7524:7538   */\n      add\n        /* \"#utility.yul\":7517:7575   */\n      mstore\n        /* \"#utility.yul\":7609:7617   */\n      0x6464726573730000000000000000000000000000000000000000000000000000\n        /* \"#utility.yul\":7604:7606   */\n      0x20\n        /* \"#utility.yul\":7596:7602   */\n      dup3\n        /* \"#utility.yul\":7592:7607   */\n      add\n        /* \"#utility.yul\":7585:7618   */\n      mstore\n        /* \"#utility.yul\":7400:7625   */\n      pop\n      jump\t// out\n        /* \"#utility.yul\":7631:7800   */\n    tag_143:\n        /* \"#utility.yul\":7771:7792   */\n      0x596f7520617265206e6f7420616c6c6f77656400000000000000000000000000\n        /* \"#utility.yul\":7767:7768   */\n      0x00\n        /* \"#utility.yul\":7759:7765   */\n      dup3\n        /* \"#utility.yul\":7755:7769   */\n      add\n        /* \"#utility.yul\":7748:7793   */\n      mstore\n        /* \"#utility.yul\":7631:7800   */\n      pop\n      jump\t// out\n        /* \"#utility.yul\":7806:7988   */\n    tag_148:\n        /* \"#utility.yul\":7946:7980   */\n      0x4f776e61626c653a2063616c6c6572206973206e6f7420746865206f776e6572\n        /* \"#utility.yul\":7942:7943   */\n      0x00\n        /* \"#utility.yul\":7934:7940   */\n      dup3\n        /* \"#utility.yul\":7930:7944   */\n      add\n        /* \"#utility.yul\":7923:7981   */\n      mstore\n        /* \"#utility.yul\":7806:7988   */\n      pop\n      jump\t// out\n        /* \"#utility.yul\":7994:8233   */\n    tag_153:\n        /* \"#utility.yul\":8134:8168   */\n      0x416d6f756e742069732067726561746572207468616e2062616c616e63652069\n        /* \"#utility.yul\":8130:8131   */\n      0x00\n        /* \"#utility.yul\":8122:8128   */\n      dup3\n        /* \"#utility.yul\":8118:8132   */\n      add\n        /* \"#utility.yul\":8111:8169   */\n      mstore\n        /* \"#utility.yul\":8203:8225   */\n      0x6e2074686520736d61727420636f6e7472616374000000000000000000000000\n        /* \"#utility.yul\":8198:8200   */\n      0x20\n        /* \"#utility.yul\":8190:8196   */\n      dup3\n        /* \"#utility.yul\":8186:8201   */\n      add\n        /* \"#utility.yul\":8179:8226   */\n      mstore\n        /* \"#utility.yul\":7994:8233   */\n      pop\n      jump\t// out\n        /* \"#utility.yul\":8239:8361   */\n    tag_101:\n        /* \"#utility.yul\":8312:8336   */\n      tag_199\n        /* \"#utility.yul\":8330:8335   */\n      dup2\n        /* \"#utility.yul\":8312:8336   */\n      tag_128\n      jump\t// in\n    tag_199:\n        /* \"#utility.yul\":8305:8310   */\n      dup2\n        /* \"#utility.yul\":8302:8337   */\n      eq\n        /* \"#utility.yul\":8292:8355   */\n      tag_200\n      jumpi\n        /* \"#utility.yul\":8351:8352   */\n      0x00\n        /* \"#utility.yul\":8348:8349   */\n      dup1\n        /* \"#utility.yul\":8341:8353   */\n      revert\n        /* \"#utility.yul\":8292:8355   */\n    tag_200:\n        /* \"#utility.yul\":8239:8361   */\n      pop\n      jump\t// out\n        /* \"#utility.yul\":8367:8505   */\n    tag_105:\n        /* \"#utility.yul\":8448:8480   */\n      tag_202\n        /* \"#utility.yul\":8474:8479   */\n      dup2\n        /* \"#utility.yul\":8448:8480   */\n      tag_184\n      jump\t// in\n    tag_202:\n        /* \"#utility.yul\":8441:8446   */\n      dup2\n        /* \"#utility.yul\":8438:8481   */\n      eq\n        /* \"#utility.yul\":8428:8499   */\n      tag_203\n      jumpi\n        /* \"#utility.yul\":8495:8496   */\n      0x00\n        /* \"#utility.yul\":8492:8493   */\n      dup1\n        /* \"#utility.yul\":8485:8497   */\n      revert\n        /* \"#utility.yul\":8428:8499   */\n    tag_203:\n        /* \"#utility.yul\":8367:8505   */\n      pop\n      jump\t// out\n        /* \"#utility.yul\":8511:8633   */\n    tag_109:\n        /* \"#utility.yul\":8584:8608   */\n      tag_205\n        /* \"#utility.yul\":8602:8607   */\n      dup2\n        /* \"#utility.yul\":8584:8608   */\n      tag_157\n      jump\t// in\n    tag_205:\n        /* \"#utility.yul\":8577:8582   */\n      dup2\n        /* \"#utility.yul\":8574:8609   */\n      eq\n        /* \"#utility.yul\":8564:8627   */\n      tag_206\n      jumpi\n        /* \"#utility.yul\":8623:8624   */\n      0x00\n        /* \"#utility.yul\":8620:8621   */\n      dup1\n        /* \"#utility.yul\":8613:8625   */\n      revert\n        /* \"#utility.yul\":8564:8627   */\n    tag_206:\n        /* \"#utility.yul\":8511:8633   */\n      pop\n      jump\t// out\n\n    auxdata: 0xa2646970667358221220700bd120bfaf5b2d320f3f7c2f19fc176f0e1c185d6d4d7265b5a4aef1bbb2a864736f6c63430008070033\n}\n",
				"bytecode": {
					"linkReferences": {},
					"object": "608060405234801561001057600080fd5b5061002d61002261003260201b60201c565b61003a60201b60201c565b6100fe565b600033905090565b60008060009054906101000a900473ffffffffffffffffffffffffffffffffffffffff169050816000806101000a81548173ffffffffffffffffffffffffffffffffffffffff021916908373ffffffffffffffffffffffffffffffffffffffff1602179055508173ffffffffffffffffffffffffffffffffffffffff168173ffffffffffffffffffffffffffffffffffffffff167f8be0079c531659141344cd1fd0a4f28419497f9722a3daafe3b4186f6b6457e060405160405180910390a35050565b610b918061010d6000396000f3fe6080604052600436106100745760003560e01c80638f32d59b1161004e5780638f32d59b146100f6578063b39d7b7c14610121578063f2fde38b1461014a578063f3c40c4b1461017357610075565b80633e5beab914610077578063715018a6146100b45780638da5cb5b146100cb57610075565b5b005b34801561008357600080fd5b5061009e6004803603810190610099919061071c565b61019c565b6040516100ab9190610938565b60405180910390f35b3480156100c057600080fd5b506100c96101b4565b005b3480156100d757600080fd5b506100e061023c565b6040516100ed9190610882565b60405180910390f35b34801561010257600080fd5b5061010b610265565b604051610118919061089d565b60405180910390f35b34801561012d57600080fd5b5061014860048036038101906101439190610749565b6102c3565b005b34801561015657600080fd5b50610171600480360381019061016c919061071c565b6103fb565b005b34801561017f57600080fd5b5061019a60048036038101906101959190610789565b6104f3565b005b60016020528060005260406000206000915090505481565b6101bc6105b7565b73ffffffffffffffffffffffffffffffffffffffff166101da61023c565b73ffffffffffffffffffffffffffffffffffffffff1614610230576040517f08c379a0000000000000000000000000000000000000000000000000000000008152600401610227906108f8565b60405180910390fd5b61023a60006105bf565b565b60008060009054906101000a900473ffffffffffffffffffffffffffffffffffffffff16905090565b60008060009054906101000a900473ffffffffffffffffffffffffffffffffffffffff1673ffffffffffffffffffffffffffffffffffffffff166102a76105b7565b73ffffffffffffffffffffffffffffffffffffffff1614905090565b806102cc610265565b80610316575080600160003373ffffffffffffffffffffffffffffffffffffffff1673ffffffffffffffffffffffffffffffffffffffff1681526020019081526020016000205410155b610355576040517f08c379a000000000000000000000000000000000000000000000000000000000815260040161034c906108d8565b60405180910390fd5b47821115610398576040517f08c379a000000000000000000000000000000000000000000000000000000000815260040161038f90610918565b60405180910390fd5b6103a0610265565b6103af576103ae3383610683565b5b8273ffffffffffffffffffffffffffffffffffffffff166108fc839081150290604051600060405180830381858888f193505050501580156103f5573d6000803e3d6000fd5b50505050565b6104036105b7565b73ffffffffffffffffffffffffffffffffffffffff1661042161023c565b73ffffffffffffffffffffffffffffffffffffffff1614610477576040517f08c379a000000000000000000000000000000000000000000000000000000000815260040161046e906108f8565b60405180910390fd5b600073ffffffffffffffffffffffffffffffffffffffff168173ffffffffffffffffffffffffffffffffffffffff1614156104e7576040517f08c379a00000000000000000000000000000000000000000000000000000000081526004016104de906108b8565b60405180910390fd5b6104f0816105bf565b50565b6104fb6105b7565b73ffffffffffffffffffffffffffffffffffffffff1661051961023c565b73ffffffffffffffffffffffffffffffffffffffff161461056f576040517f08c379a0000000000000000000000000000000000000000000000000000000008152600401610566906108f8565b60405180910390fd5b80600160008473ffffffffffffffffffffffffffffffffffffffff1673ffffffffffffffffffffffffffffffffffffffff168152602001908152602001600020819055505050565b600033905090565b60008060009054906101000a900473ffffffffffffffffffffffffffffffffffffffff169050816000806101000a81548173ffffffffffffffffffffffffffffffffffffffff021916908373ffffffffffffffffffffffffffffffffffffffff1602179055508173ffffffffffffffffffffffffffffffffffffffff168173ffffffffffffffffffffffffffffffffffffffff167f8be0079c531659141344cd1fd0a4f28419497f9722a3daafe3b4186f6b6457e060405160405180910390a35050565b80600160008473ffffffffffffffffffffffffffffffffffffffff1673ffffffffffffffffffffffffffffffffffffffff16815260200190815260200160002060008282546106d29190610964565b925050819055505050565b6000813590506106ec81610b16565b92915050565b60008135905061070181610b2d565b92915050565b60008135905061071681610b44565b92915050565b60006020828403121561073257610731610a21565b5b6000610740848285016106dd565b91505092915050565b600080604083850312156107605761075f610a21565b5b600061076e858286016106f2565b925050602061077f85828601610707565b9150509250929050565b600080604083850312156107a05761079f610a21565b5b60006107ae858286016106dd565b92505060206107bf85828601610707565b9150509250929050565b6107d281610998565b82525050565b6107e1816109bc565b82525050565b60006107f4602683610953565b91506107ff82610a26565b604082019050919050565b6000610817601383610953565b915061082282610a75565b602082019050919050565b600061083a602083610953565b915061084582610a9e565b602082019050919050565b600061085d603483610953565b915061086882610ac7565b604082019050919050565b61087c816109e8565b82525050565b600060208201905061089760008301846107c9565b92915050565b60006020820190506108b260008301846107d8565b92915050565b600060208201905081810360008301526108d1816107e7565b9050919050565b600060208201905081810360008301526108f18161080a565b9050919050565b600060208201905081810360008301526109118161082d565b9050919050565b6000602082019050818103600083015261093181610850565b9050919050565b600060208201905061094d6000830184610873565b92915050565b600082825260208201905092915050565b600061096f826109e8565b915061097a836109e8565b92508282101561098d5761098c6109f2565b5b828203905092915050565b60006109a3826109c8565b9050919050565b60006109b5826109c8565b9050919050565b60008115159050919050565b600073ffffffffffffffffffffffffffffffffffffffff82169050919050565b6000819050919050565b7f4e487b7100000000000000000000000000000000000000000000000000000000600052601160045260246000fd5b600080fd5b7f4f776e61626c653a206e6577206f776e657220697320746865207a65726f206160008201527f6464726573730000000000000000000000000000000000000000000000000000602082015250565b7f596f7520617265206e6f7420616c6c6f77656400000000000000000000000000600082015250565b7f4f776e61626c653a2063616c6c6572206973206e6f7420746865206f776e6572600082015250565b7f416d6f756e742069732067726561746572207468616e2062616c616e6365206960008201527f6e2074686520736d61727420636f6e7472616374000000000000000000000000602082015250565b610b1f81610998565b8114610b2a57600080fd5b50565b610b36816109aa565b8114610b4157600080fd5b50565b610b4d816109e8565b8114610b5857600080fd5b5056fea2646970667358221220700bd120bfaf5b2d320f3f7c2f19fc176f0e1c185d6d4d7265b5a4aef1bbb2a864736f6c63430008070033",
					"opcodes": "PUSH1 0x80 PUSH1 0x40 MSTORE CALLVALUE DUP1 ISZERO PUSH2 0x10 JUMPI PUSH1 0x0 DUP1 REVERT JUMPDEST POP PUSH2 0x2D PUSH2 0x22 PUSH2 0x32 PUSH1 0x20 SHL PUSH1 0x20 SHR JUMP JUMPDEST PUSH2 0x3A PUSH1 0x20 SHL PUSH1 0x20 SHR JUMP JUMPDEST PUSH2 0xFE JUMP JUMPDEST PUSH1 0x0 CALLER SWAP1 POP SWAP1 JUMP JUMPDEST PUSH1 0x0 DUP1 PUSH1 0x0 SWAP1 SLOAD SWAP1 PUSH2 0x100 EXP SWAP1 DIV PUSH20 0xFFFFFFFFFFFFFFFFFFFFFFFFFFFFFFFFFFFFFFFF AND SWAP1 POP DUP2 PUSH1 0x0 DUP1 PUSH2 0x100 EXP DUP2 SLOAD DUP2 PUSH20 0xFFFFFFFFFFFFFFFFFFFFFFFFFFFFFFFFFFFFFFFF MUL NOT AND SWAP1 DUP4 PUSH20 0xFFFFFFFFFFFFFFFFFFFFFFFFFFFFFFFFFFFFFFFF AND MUL OR SWAP1 SSTORE POP DUP2 PUSH20 0xFFFFFFFFFFFFFFFFFFFFFFFFFFFFFFFFFFFFFFFF AND DUP2 PUSH20 0xFFFFFFFFFFFFFFFFFFFFFFFFFFFFFFFFFFFFFFFF AND PUSH32 0x8BE0079C531659141344CD1FD0A4F28419497F9722A3DAAFE3B4186F6B6457E0 PUSH1 0x40 MLOAD PUSH1 0x40 MLOAD DUP1 SWAP2 SUB SWAP1 LOG3 POP POP JUMP JUMPDEST PUSH2 0xB91 DUP1 PUSH2 0x10D PUSH1 0x0 CODECOPY PUSH1 0x0 RETURN INVALID PUSH1 0x80 PUSH1 0x40 MSTORE PUSH1 0x4 CALLDATASIZE LT PUSH2 0x74 JUMPI PUSH1 0x0 CALLDATALOAD PUSH1 0xE0 SHR DUP1 PUSH4 0x8F32D59B GT PUSH2 0x4E JUMPI DUP1 PUSH4 0x8F32D59B EQ PUSH2 0xF6 JUMPI DUP1 PUSH4 0xB39D7B7C EQ PUSH2 0x121 JUMPI DUP1 PUSH4 0xF2FDE38B EQ PUSH2 0x14A JUMPI DUP1 PUSH4 0xF3C40C4B EQ PUSH2 0x173 JUMPI PUSH2 0x75 JUMP JUMPDEST DUP1 PUSH4 0x3E5BEAB9 EQ PUSH2 0x77 JUMPI DUP1 PUSH4 0x715018A6 EQ PUSH2 0xB4 JUMPI DUP1 PUSH4 0x8DA5CB5B EQ PUSH2 0xCB JUMPI PUSH2 0x75 JUMP JUMPDEST JUMPDEST STOP JUMPDEST CALLVALUE DUP1 ISZERO PUSH2 0x83 JUMPI PUSH1 0x0 DUP1 REVERT JUMPDEST POP PUSH2 0x9E PUSH1 0x4 DUP1 CALLDATASIZE SUB DUP2 ADD SWAP1 PUSH2 0x99 SWAP2 SWAP1 PUSH2 0x71C JUMP JUMPDEST PUSH2 0x19C JUMP JUMPDEST PUSH1 0x40 MLOAD PUSH2 0xAB SWAP2 SWAP1 PUSH2 0x938 JUMP JUMPDEST PUSH1 0x40 MLOAD DUP1 SWAP2 SUB SWAP1 RETURN JUMPDEST CALLVALUE DUP1 ISZERO PUSH2 0xC0 JUMPI PUSH1 0x0 DUP1 REVERT JUMPDEST POP PUSH2 0xC9 PUSH2 0x1B4 JUMP JUMPDEST STOP JUMPDEST CALLVALUE DUP1 ISZERO PUSH2 0xD7 JUMPI PUSH1 0x0 DUP1 REVERT JUMPDEST POP PUSH2 0xE0 PUSH2 0x23C JUMP JUMPDEST PUSH1 0x40 MLOAD PUSH2 0xED SWAP2 SWAP1 PUSH2 0x882 JUMP JUMPDEST PUSH1 0x40 MLOAD DUP1 SWAP2 SUB SWAP1 RETURN JUMPDEST CALLVALUE DUP1 ISZERO PUSH2 0x102 JUMPI PUSH1 0x0 DUP1 REVERT JUMPDEST POP PUSH2 0x10B PUSH2 0x265 JUMP JUMPDEST PUSH1 0x40 MLOAD PUSH2 0x118 SWAP2 SWAP1 PUSH2 0x89D JUMP JUMPDEST PUSH1 0x40 MLOAD DUP1 SWAP2 SUB SWAP1 RETURN JUMPDEST CALLVALUE DUP1 ISZERO PUSH2 0x12D JUMPI PUSH1 0x0 DUP1 REVERT JUMPDEST POP PUSH2 0x148 PUSH1 0x4 DUP1 CALLDATASIZE SUB DUP2 ADD SWAP1 PUSH2 0x143 SWAP2 SWAP1 PUSH2 0x749 JUMP JUMPDEST PUSH2 0x2C3 JUMP JUMPDEST STOP JUMPDEST CALLVALUE DUP1 ISZERO PUSH2 0x156 JUMPI PUSH1 0x0 DUP1 REVERT JUMPDEST POP PUSH2 0x171 PUSH1 0x4 DUP1 CALLDATASIZE SUB DUP2 ADD SWAP1 PUSH2 0x16C SWAP2 SWAP1 PUSH2 0x71C JUMP JUMPDEST PUSH2 0x3FB JUMP JUMPDEST STOP JUMPDEST CALLVALUE DUP1 ISZERO PUSH2 0x17F JUMPI PUSH1 0x0 DUP1 REVERT JUMPDEST POP PUSH2 0x19A PUSH1 0x4 DUP1 CALLDATASIZE SUB DUP2 ADD SWAP1 PUSH2 0x195 SWAP2 SWAP1 PUSH2 0x789 JUMP JUMPDEST PUSH2 0x4F3 JUMP JUMPDEST STOP JUMPDEST PUSH1 0x1 PUSH1 0x20 MSTORE DUP1 PUSH1 0x0 MSTORE PUSH1 0x40 PUSH1 0x0 KECCAK256 PUSH1 0x0 SWAP2 POP SWAP1 POP SLOAD DUP2 JUMP JUMPDEST PUSH2 0x1BC PUSH2 0x5B7 JUMP JUMPDEST PUSH20 0xFFFFFFFFFFFFFFFFFFFFFFFFFFFFFFFFFFFFFFFF AND PUSH2 0x1DA PUSH2 0x23C JUMP JUMPDEST PUSH20 0xFFFFFFFFFFFFFFFFFFFFFFFFFFFFFFFFFFFFFFFF AND EQ PUSH2 0x230 JUMPI PUSH1 0x40 MLOAD PUSH32 0x8C379A000000000000000000000000000000000000000000000000000000000 DUP2 MSTORE PUSH1 0x4 ADD PUSH2 0x227 SWAP1 PUSH2 0x8F8 JUMP JUMPDEST PUSH1 0x40 MLOAD DUP1 SWAP2 SUB SWAP1 REVERT JUMPDEST PUSH2 0x23A PUSH1 0x0 PUSH2 0x5BF JUMP JUMPDEST JUMP JUMPDEST PUSH1 0x0 DUP1 PUSH1 0x0 SWAP1 SLOAD SWAP1 PUSH2 0x100 EXP SWAP1 DIV PUSH20 0xFFFFFFFFFFFFFFFFFFFFFFFFFFFFFFFFFFFFFFFF AND SWAP1 POP SWAP1 JUMP JUMPDEST PUSH1 0x0 DUP1 PUSH1 0x0 SWAP1 SLOAD SWAP1 PUSH2 0x100 EXP SWAP1 DIV PUSH20 0xFFFFFFFFFFFFFFFFFFFFFFFFFFFFFFFFFFFFFFFF AND PUSH20 0xFFFFFFFFFFFFFFFFFFFFFFFFFFFFFFFFFFFFFFFF AND PUSH2 0x2A7 PUSH2 0x5B7 JUMP JUMPDEST PUSH20 0xFFFFFFFFFFFFFFFFFFFFFFFFFFFFFFFFFFFFFFFF AND EQ SWAP1 POP SWAP1 JUMP JUMPDEST DUP1 PUSH2 0x2CC PUSH2 0x265 JUMP JUMPDEST DUP1 PUSH2 0x316 JUMPI POP DUP1 PUSH1 0x1 PUSH1 0x0 CALLER PUSH20 0xFFFFFFFFFFFFFFFFFFFFFFFFFFFFFFFFFFFFFFFF AND PUSH20 0xFFFFFFFFFFFFFFFFFFFFFFFFFFFFFFFFFFFFFFFF AND DUP2 MSTORE PUSH1 0x20 ADD SWAP1 DUP2 MSTORE PUSH1 0x20 ADD PUSH1 0x0 KECCAK256 SLOAD LT ISZERO JUMPDEST PUSH2 0x355 JUMPI PUSH1 0x40 MLOAD PUSH32 0x8C379A000000000000000000000000000000000000000000000000000000000 DUP2 MSTORE PUSH1 0x4 ADD PUSH2 0x34C SWAP1 PUSH2 0x8D8 JUMP JUMPDEST PUSH1 0x40 MLOAD DUP1 SWAP2 SUB SWAP1 REVERT JUMPDEST SELFBALANCE DUP3 GT ISZERO PUSH2 0x398 JUMPI PUSH1 0x40 MLOAD PUSH32 0x8C379A000000000000000000000000000000000000000000000000000000000 DUP2 MSTORE PUSH1 0x4 ADD PUSH2 0x38F SWAP1 PUSH2 0x918 JUMP JUMPDEST PUSH1 0x40 MLOAD DUP1 SWAP2 SUB SWAP1 REVERT JUMPDEST PUSH2 0x3A0 PUSH2 0x265 JUMP JUMPDEST PUSH2 0x3AF JUMPI PUSH2 0x3AE CALLER DUP4 PUSH2 0x683 JUMP JUMPDEST JUMPDEST DUP3 PUSH20 0xFFFFFFFFFFFFFFFFFFFFFFFFFFFFFFFFFFFFFFFF AND PUSH2 0x8FC DUP4 SWAP1 DUP2 ISZERO MUL SWAP1 PUSH1 0x40 MLOAD PUSH1 0x0 PUSH1 0x40 MLOAD DUP1 DUP4 SUB DUP2 DUP6 DUP9 DUP9 CALL SWAP4 POP POP POP POP ISZERO DUP1 ISZERO PUSH2 0x3F5 JUMPI RETURNDATASIZE PUSH1 0x0 DUP1 RETURNDATACOPY RETURNDATASIZE PUSH1 0x0 REVERT JUMPDEST POP POP POP POP JUMP JUMPDEST PUSH2 0x403 PUSH2 0x5B7 JUMP JUMPDEST PUSH20 0xFFFFFFFFFFFFFFFFFFFFFFFFFFFFFFFFFFFFFFFF AND PUSH2 0x421 PUSH2 0x23C JUMP JUMPDEST PUSH20 0xFFFFFFFFFFFFFFFFFFFFFFFFFFFFFFFFFFFFFFFF AND EQ PUSH2 0x477 JUMPI PUSH1 0x40 MLOAD PUSH32 0x8C379A000000000000000000000000000000000000000000000000000000000 DUP2 MSTORE PUSH1 0x4 ADD PUSH2 0x46E SWAP1 PUSH2 0x8F8 JUMP JUMPDEST PUSH1 0x40 MLOAD DUP1 SWAP2 SUB SWAP1 REVERT JUMPDEST PUSH1 0x0 PUSH20 0xFFFFFFFFFFFFFFFFFFFFFFFFFFFFFFFFFFFFFFFF AND DUP2 PUSH20 0xFFFFFFFFFFFFFFFFFFFFFFFFFFFFFFFFFFFFFFFF AND EQ ISZERO PUSH2 0x4E7 JUMPI PUSH1 0x40 MLOAD PUSH32 0x8C379A000000000000000000000000000000000000000000000000000000000 DUP2 MSTORE PUSH1 0x4 ADD PUSH2 0x4DE SWAP1 PUSH2 0x8B8 JUMP JUMPDEST PUSH1 0x40 MLOAD DUP1 SWAP2 SUB SWAP1 REVERT JUMPDEST PUSH2 0x4F0 DUP2 PUSH2 0x5BF JUMP JUMPDEST POP JUMP JUMPDEST PUSH2 0x4FB PUSH2 0x5B7 JUMP JUMPDEST PUSH20 0xFFFFFFFFFFFFFFFFFFFFFFFFFFFFFFFFFFFFFFFF AND PUSH2 0x519 PUSH2 0x23C JUMP JUMPDEST PUSH20 0xFFFFFFFFFFFFFFFFFFFFFFFFFFFFFFFFFFFFFFFF AND EQ PUSH2 0x56F JUMPI PUSH1 0x40 MLOAD PUSH32 0x8C379A000000000000000000000000000000000000000000000000000000000 DUP2 MSTORE PUSH1 0x4 ADD PUSH2 0x566 SWAP1 PUSH2 0x8F8 JUMP JUMPDEST PUSH1 0x40 MLOAD DUP1 SWAP2 SUB SWAP1 REVERT JUMPDEST DUP1 PUSH1 0x1 PUSH1 0x0 DUP5 PUSH20 0xFFFFFFFFFFFFFFFFFFFFFFFFFFFFFFFFFFFFFFFF AND PUSH20 0xFFFFFFFFFFFFFFFFFFFFFFFFFFFFFFFFFFFFFFFF AND DUP2 MSTORE PUSH1 0x20 ADD SWAP1 DUP2 MSTORE PUSH1 0x20 ADD PUSH1 0x0 KECCAK256 DUP2 SWAP1 SSTORE POP POP POP JUMP JUMPDEST PUSH1 0x0 CALLER SWAP1 POP SWAP1 JUMP JUMPDEST PUSH1 0x0 DUP1 PUSH1 0x0 SWAP1 SLOAD SWAP1 PUSH2 0x100 EXP SWAP1 DIV PUSH20 0xFFFFFFFFFFFFFFFFFFFFFFFFFFFFFFFFFFFFFFFF AND SWAP1 POP DUP2 PUSH1 0x0 DUP1 PUSH2 0x100 EXP DUP2 SLOAD DUP2 PUSH20 0xFFFFFFFFFFFFFFFFFFFFFFFFFFFFFFFFFFFFFFFF MUL NOT AND SWAP1 DUP4 PUSH20 0xFFFFFFFFFFFFFFFFFFFFFFFFFFFFFFFFFFFFFFFF AND MUL OR SWAP1 SSTORE POP DUP2 PUSH20 0xFFFFFFFFFFFFFFFFFFFFFFFFFFFFFFFFFFFFFFFF AND DUP2 PUSH20 0xFFFFFFFFFFFFFFFFFFFFFFFFFFFFFFFFFFFFFFFF AND PUSH32 0x8BE0079C531659141344CD1FD0A4F28419497F9722A3DAAFE3B4186F6B6457E0 PUSH1 0x40 MLOAD PUSH1 0x40 MLOAD DUP1 SWAP2 SUB SWAP1 LOG3 POP POP JUMP JUMPDEST DUP1 PUSH1 0x1 PUSH1 0x0 DUP5 PUSH20 0xFFFFFFFFFFFFFFFFFFFFFFFFFFFFFFFFFFFFFFFF AND PUSH20 0xFFFFFFFFFFFFFFFFFFFFFFFFFFFFFFFFFFFFFFFF AND DUP2 MSTORE PUSH1 0x20 ADD SWAP1 DUP2 MSTORE PUSH1 0x20 ADD PUSH1 0x0 KECCAK256 PUSH1 0x0 DUP3 DUP3 SLOAD PUSH2 0x6D2 SWAP2 SWAP1 PUSH2 0x964 JUMP JUMPDEST SWAP3 POP POP DUP2 SWAP1 SSTORE POP POP POP JUMP JUMPDEST PUSH1 0x0 DUP2 CALLDATALOAD SWAP1 POP PUSH2 0x6EC DUP2 PUSH2 0xB16 JUMP JUMPDEST SWAP3 SWAP2 POP POP JUMP JUMPDEST PUSH1 0x0 DUP2 CALLDATALOAD SWAP1 POP PUSH2 0x701 DUP2 PUSH2 0xB2D JUMP JUMPDEST SWAP3 SWAP2 POP POP JUMP JUMPDEST PUSH1 0x0 DUP2 CALLDATALOAD SWAP1 POP PUSH2 0x716 DUP2 PUSH2 0xB44 JUMP JUMPDEST SWAP3 SWAP2 POP POP JUMP JUMPDEST PUSH1 0x0 PUSH1 0x20 DUP3 DUP5 SUB SLT ISZERO PUSH2 0x732 JUMPI PUSH2 0x731 PUSH2 0xA21 JUMP JUMPDEST JUMPDEST PUSH1 0x0 PUSH2 0x740 DUP5 DUP3 DUP6 ADD PUSH2 0x6DD JUMP JUMPDEST SWAP2 POP POP SWAP3 SWAP2 POP POP JUMP JUMPDEST PUSH1 0x0 DUP1 PUSH1 0x40 DUP4 DUP6 SUB SLT ISZERO PUSH2 0x760 JUMPI PUSH2 0x75F PUSH2 0xA21 JUMP JUMPDEST JUMPDEST PUSH1 0x0 PUSH2 0x76E DUP6 DUP3 DUP7 ADD PUSH2 0x6F2 JUMP JUMPDEST SWAP3 POP POP PUSH1 0x20 PUSH2 0x77F DUP6 DUP3 DUP7 ADD PUSH2 0x707 JUMP JUMPDEST SWAP2 POP POP SWAP3 POP SWAP3 SWAP1 POP JUMP JUMPDEST PUSH1 0x0 DUP1 PUSH1 0x40 DUP4 DUP6 SUB SLT ISZERO PUSH2 0x7A0 JUMPI PUSH2 0x79F PUSH2 0xA21 JUMP JUMPDEST JUMPDEST PUSH1 0x0 PUSH2 0x7AE DUP6 DUP3 DUP7 ADD PUSH2 0x6DD JUMP JUMPDEST SWAP3 POP POP PUSH1 0x20 PUSH2 0x7BF DUP6 DUP3 DUP7 ADD PUSH2 0x707 JUMP JUMPDEST SWAP2 POP POP SWAP3 POP SWAP3 SWAP1 POP JUMP JUMPDEST PUSH2 0x7D2 DUP2 PUSH2 0x998 JUMP JUMPDEST DUP3 MSTORE POP POP JUMP JUMPDEST PUSH2 0x7E1 DUP2 PUSH2 0x9BC JUMP JUMPDEST DUP3 MSTORE POP POP JUMP JUMPDEST PUSH1 0x0 PUSH2 0x7F4 PUSH1 0x26 DUP4 PUSH2 0x953 JUMP JUMPDEST SWAP2 POP PUSH2 0x7FF DUP3 PUSH2 0xA26 JUMP JUMPDEST PUSH1 0x40 DUP3 ADD SWAP1 POP SWAP2 SWAP1 POP JUMP JUMPDEST PUSH1 0x0 PUSH2 0x817 PUSH1 0x13 DUP4 PUSH2 0x953 JUMP JUMPDEST SWAP2 POP PUSH2 0x822 DUP3 PUSH2 0xA75 JUMP JUMPDEST PUSH1 0x20 DUP3 ADD SWAP1 POP SWAP2 SWAP1 POP JUMP JUMPDEST PUSH1 0x0 PUSH2 0x83A PUSH1 0x20 DUP4 PUSH2 0x953 JUMP JUMPDEST SWAP2 POP PUSH2 0x845 DUP3 PUSH2 0xA9E JUMP JUMPDEST PUSH1 0x20 DUP3 ADD SWAP1 POP SWAP2 SWAP1 POP JUMP JUMPDEST PUSH1 0x0 PUSH2 0x85D PUSH1 0x34 DUP4 PUSH2 0x953 JUMP JUMPDEST SWAP2 POP PUSH2 0x868 DUP3 PUSH2 0xAC7 JUMP JUMPDEST PUSH1 0x40 DUP3 ADD SWAP1 POP SWAP2 SWAP1 POP JUMP JUMPDEST PUSH2 0x87C DUP2 PUSH2 0x9E8 JUMP JUMPDEST DUP3 MSTORE POP POP JUMP JUMPDEST PUSH1 0x0 PUSH1 0x20 DUP3 ADD SWAP1 POP PUSH2 0x897 PUSH1 0x0 DUP4 ADD DUP5 PUSH2 0x7C9 JUMP JUMPDEST SWAP3 SWAP2 POP POP JUMP JUMPDEST PUSH1 0x0 PUSH1 0x20 DUP3 ADD SWAP1 POP PUSH2 0x8B2 PUSH1 0x0 DUP4 ADD DUP5 PUSH2 0x7D8 JUMP JUMPDEST SWAP3 SWAP2 POP POP JUMP JUMPDEST PUSH1 0x0 PUSH1 0x20 DUP3 ADD SWAP1 POP DUP2 DUP2 SUB PUSH1 0x0 DUP4 ADD MSTORE PUSH2 0x8D1 DUP2 PUSH2 0x7E7 JUMP JUMPDEST SWAP1 POP SWAP2 SWAP1 POP JUMP JUMPDEST PUSH1 0x0 PUSH1 0x20 DUP3 ADD SWAP1 POP DUP2 DUP2 SUB PUSH1 0x0 DUP4 ADD MSTORE PUSH2 0x8F1 DUP2 PUSH2 0x80A JUMP JUMPDEST SWAP1 POP SWAP2 SWAP1 POP JUMP JUMPDEST PUSH1 0x0 PUSH1 0x20 DUP3 ADD SWAP1 POP DUP2 DUP2 SUB PUSH1 0x0 DUP4 ADD MSTORE PUSH2 0x911 DUP2 PUSH2 0x82D JUMP JUMPDEST SWAP1 POP SWAP2 SWAP1 POP JUMP JUMPDEST PUSH1 0x0 PUSH1 0x20 DUP3 ADD SWAP1 POP DUP2 DUP2 SUB PUSH1 0x0 DUP4 ADD MSTORE PUSH2 0x931 DUP2 PUSH2 0x850 JUMP JUMPDEST SWAP1 POP SWAP2 SWAP1 POP JUMP JUMPDEST PUSH1 0x0 PUSH1 0x20 DUP3 ADD SWAP1 POP PUSH2 0x94D PUSH1 0x0 DUP4 ADD DUP5 PUSH2 0x873 JUMP JUMPDEST SWAP3 SWAP2 POP POP JUMP JUMPDEST PUSH1 0x0 DUP3 DUP3 MSTORE PUSH1 0x20 DUP3 ADD SWAP1 POP SWAP3 SWAP2 POP POP JUMP JUMPDEST PUSH1 0x0 PUSH2 0x96F DUP3 PUSH2 0x9E8 JUMP JUMPDEST SWAP2 POP PUSH2 0x97A DUP4 PUSH2 0x9E8 JUMP JUMPDEST SWAP3 POP DUP3 DUP3 LT ISZERO PUSH2 0x98D JUMPI PUSH2 0x98C PUSH2 0x9F2 JUMP JUMPDEST JUMPDEST DUP3 DUP3 SUB SWAP1 POP SWAP3 SWAP2 POP POP JUMP JUMPDEST PUSH1 0x0 PUSH2 0x9A3 DUP3 PUSH2 0x9C8 JUMP JUMPDEST SWAP1 POP SWAP2 SWAP1 POP JUMP JUMPDEST PUSH1 0x0 PUSH2 0x9B5 DUP3 PUSH2 0x9C8 JUMP JUMPDEST SWAP1 POP SWAP2 SWAP1 POP JUMP JUMPDEST PUSH1 0x0 DUP2 ISZERO ISZERO SWAP1 POP SWAP2 SWAP1 POP JUMP JUMPDEST PUSH1 0x0 PUSH20 0xFFFFFFFFFFFFFFFFFFFFFFFFFFFFFFFFFFFFFFFF DUP3 AND SWAP1 POP SWAP2 SWAP1 POP JUMP JUMPDEST PUSH1 0x0 DUP2 SWAP1 POP SWAP2 SWAP1 POP JUMP JUMPDEST PUSH32 0x4E487B7100000000000000000000000000000000000000000000000000000000 PUSH1 0x0 MSTORE PUSH1 0x11 PUSH1 0x4 MSTORE PUSH1 0x24 PUSH1 0x0 REVERT JUMPDEST PUSH1 0x0 DUP1 REVERT JUMPDEST PUSH32 0x4F776E61626C653A206E6577206F776E657220697320746865207A65726F2061 PUSH1 0x0 DUP3 ADD MSTORE PUSH32 0x6464726573730000000000000000000000000000000000000000000000000000 PUSH1 0x20 DUP3 ADD MSTORE POP JUMP JUMPDEST PUSH32 0x596F7520617265206E6F7420616C6C6F77656400000000000000000000000000 PUSH1 0x0 DUP3 ADD MSTORE POP JUMP JUMPDEST PUSH32 0x4F776E61626C653A2063616C6C6572206973206E6F7420746865206F776E6572 PUSH1 0x0 DUP3 ADD MSTORE POP JUMP JUMPDEST PUSH32 0x416D6F756E742069732067726561746572207468616E2062616C616E63652069 PUSH1 0x0 DUP3 ADD MSTORE PUSH32 0x6E2074686520736D61727420636F6E7472616374000000000000000000000000 PUSH1 0x20 DUP3 ADD MSTORE POP JUMP JUMPDEST PUSH2 0xB1F DUP2 PUSH2 0x998 JUMP JUMPDEST DUP2 EQ PUSH2 0xB2A JUMPI PUSH1 0x0 DUP1 REVERT JUMPDEST POP JUMP JUMPDEST PUSH2 0xB36 DUP2 PUSH2 0x9AA JUMP JUMPDEST DUP2 EQ PUSH2 0xB41 JUMPI PUSH1 0x0 DUP1 REVERT JUMPDEST POP JUMP JUMPDEST PUSH2 0xB4D DUP2 PUSH2 0x9E8 JUMP JUMPDEST DUP2 EQ PUSH2 0xB58 JUMPI PUSH1 0x0 DUP1 REVERT JUMPDEST POP JUMP INVALID LOG2 PUSH5 0x6970667358 0x22 SLT KECCAK256 PUSH17 0xBD120BFAF5B2D320F3F7C2F19FC176F0E SHR XOR 0x5D PUSH14 0x4D7265B5A4AEF1BBB2A864736F6C PUSH4 0x43000807 STOP CALLER "
				},
				"gasEstimates": {
					"creation": {
						"codeDepositCost": "592200",
						"executionCost": "infinite",
						"totalCost": "infinite"
					},
					"external": {
						"": "152",
						"addAllowance(address,uint256)": "25138",
						"allowance(address)": "2815",
						"isOwner()": "2531",
						"owner()": "2567",
						"renounceOwnership()": "30397",
						"transferOwnership(address)": "30767",
						"withDrawMoney(address,uint256)": "infinite"
					},
					"internal": {
						"reduceAllowance(address,uint256)": "infinite"
					}
				},
				"methodIdentifiers": {
					"addAllowance(address,uint256)": "f3c40c4b",
					"allowance(address)": "3e5beab9",
					"isOwner()": "8f32d59b",
					"owner()": "8da5cb5b",
					"renounceOwnership()": "715018a6",
					"transferOwnership(address)": "f2fde38b",
					"withDrawMoney(address,uint256)": "b39d7b7c"
				}
			},
			"storageLayout": {
				"storage": [
					{
						"astId": 134,
						"contract": "contracts/SimpleWallet.sol:SimpleWallet",
						"label": "_owner",
						"offset": 0,
						"slot": "0",
						"type": "t_address"
					},
					{
						"astId": 11,
						"contract": "contracts/SimpleWallet.sol:SimpleWallet",
						"label": "allowance",
						"offset": 0,
						"slot": "1",
						"type": "t_mapping(t_address,t_uint256)"
					}
				],
				"types": {
					"t_address": {
						"encoding": "inplace",
						"label": "address",
						"numberOfBytes": "20"
					},
					"t_mapping(t_address,t_uint256)": {
						"encoding": "mapping",
						"key": "t_address",
						"label": "mapping(address => uint256)",
						"numberOfBytes": "32",
						"value": "t_uint256"
					},
					"t_uint256": {
						"encoding": "inplace",
						"label": "uint256",
						"numberOfBytes": "32"
					}
				}
			},
			"userdoc": {
				"kind": "user",
				"methods": {},
				"version": 1
			}
		}
	}
}